{
  "contractName": "ERC1820Registry",
  "abi": [
    {
      "anonymous": false,
      "inputs": [
        {
          "indexed": true,
          "name": "addr",
          "type": "address"
        },
        {
          "indexed": true,
          "name": "interfaceHash",
          "type": "bytes32"
        },
        {
          "indexed": true,
          "name": "implementer",
          "type": "address"
        }
      ],
      "name": "InterfaceImplementerSet",
      "type": "event"
    },
    {
      "anonymous": false,
      "inputs": [
        {
          "indexed": true,
          "name": "addr",
          "type": "address"
        },
        {
          "indexed": true,
          "name": "newManager",
          "type": "address"
        }
      ],
      "name": "ManagerChanged",
      "type": "event"
    },
    {
      "constant": true,
      "inputs": [
        {
          "name": "_addr",
          "type": "address"
        },
        {
          "name": "_interfaceHash",
          "type": "bytes32"
        }
      ],
      "name": "getInterfaceImplementer",
      "outputs": [
        {
          "name": "",
          "type": "address"
        }
      ],
      "payable": false,
      "stateMutability": "view",
      "type": "function"
    },
    {
      "constant": false,
      "inputs": [
        {
          "name": "_addr",
          "type": "address"
        },
        {
          "name": "_interfaceHash",
          "type": "bytes32"
        },
        {
          "name": "_implementer",
          "type": "address"
        }
      ],
      "name": "setInterfaceImplementer",
      "outputs": [],
      "payable": false,
      "stateMutability": "nonpayable",
      "type": "function"
    },
    {
      "constant": false,
      "inputs": [
        {
          "name": "_addr",
          "type": "address"
        },
        {
          "name": "_newManager",
          "type": "address"
        }
      ],
      "name": "setManager",
      "outputs": [],
      "payable": false,
      "stateMutability": "nonpayable",
      "type": "function"
    },
    {
      "constant": true,
      "inputs": [
        {
          "name": "_addr",
          "type": "address"
        }
      ],
      "name": "getManager",
      "outputs": [
        {
          "name": "",
          "type": "address"
        }
      ],
      "payable": false,
      "stateMutability": "view",
      "type": "function"
    },
    {
      "constant": true,
      "inputs": [
        {
          "name": "_interfaceName",
          "type": "string"
        }
      ],
      "name": "interfaceHash",
      "outputs": [
        {
          "name": "",
          "type": "bytes32"
        }
      ],
      "payable": false,
      "stateMutability": "pure",
      "type": "function"
    },
    {
      "constant": false,
      "inputs": [
        {
          "name": "_contract",
          "type": "address"
        },
        {
          "name": "_interfaceId",
          "type": "bytes4"
        }
      ],
      "name": "updateERC165Cache",
      "outputs": [],
      "payable": false,
      "stateMutability": "nonpayable",
      "type": "function"
    },
    {
      "constant": true,
      "inputs": [
        {
          "name": "_contract",
          "type": "address"
        },
        {
          "name": "_interfaceId",
          "type": "bytes4"
        }
      ],
      "name": "implementsERC165Interface",
      "outputs": [
        {
          "name": "",
          "type": "bool"
        }
      ],
      "payable": false,
      "stateMutability": "view",
      "type": "function"
    },
    {
      "constant": true,
      "inputs": [
        {
          "name": "_contract",
          "type": "address"
        },
        {
          "name": "_interfaceId",
          "type": "bytes4"
        }
      ],
      "name": "implementsERC165InterfaceNoCache",
      "outputs": [
        {
          "name": "",
          "type": "bool"
        }
      ],
      "payable": false,
      "stateMutability": "view",
      "type": "function"
    }
  ],
  "bytecode": "0x608060405234801561001057600080fd5b506108fc806100206000396000f3fe608060405234801561001057600080fd5b506004361061007b5760e060020a600035046329965a1d81146100805780633d584063146100b85780635df8122f146100fa57806365ba36c114610128578063a41e7d51146101a8578063aabbb8ca146101de578063b70567651461020a578063f712f3e814610254575b600080fd5b6100b66004803603606081101561009657600080fd5b50600160a060020a0381358116916020810135916040909101351661028a565b005b6100de600480360360208110156100ce57600080fd5b5035600160a060020a031661050d565b60408051600160a060020a039092168252519081900360200190f35b6100b66004803603604081101561011057600080fd5b50600160a060020a0381358116916020013516610559565b6101966004803603602081101561013e57600080fd5b810190602081018135602060020a81111561015857600080fd5b82018360208201111561016a57600080fd5b803590602001918460018302840111602060020a8311171561018b57600080fd5b509092509050610638565b60408051918252519081900360200190f35b6100b6600480360360408110156101be57600080fd5b508035600160a060020a03169060200135600160e060020a031916610673565b6100de600480360360408110156101f457600080fd5b50600160a060020a0381351690602001356106f0565b6102406004803603604081101561022057600080fd5b508035600160a060020a03169060200135600160e060020a031916610767565b604080519115158252519081900360200190f35b6102406004803603604081101561026a57600080fd5b508035600160a060020a03169060200135600160e060020a03191661080c565b6000600160a060020a038416156102a157836102a3565b335b9050336102af8261050d565b600160a060020a031614610302576040805160e560020a62461bcd02815260206004820152600f6024820152608960020a6e2737ba103a34329036b0b730b3b2b902604482015290519081900360640190fd5b61030b8361088c565b15610360576040805160e560020a62461bcd02815260206004820152601a60248201527f4d757374206e6f7420626520616e204552433136352068617368000000000000604482015290519081900360640190fd5b600160a060020a038216158015906103815750600160a060020a0382163314155b156104a9576040516020018080606060020a73455243313832305f4143434550545f4d414749430281525060140190506040516020818303038152906040528051906020012082600160a060020a031663249cb3fa85846040518363ffffffff1660e060020a0281526004018083815260200182600160a060020a0316600160a060020a031681526020019250505060206040518083038186803b15801561042857600080fd5b505afa15801561043c573d6000803e3d6000fd5b505050506040513d602081101561045257600080fd5b5051146104a9576040805160e560020a62461bcd02815260206004820181905260248201527f446f6573206e6f7420696d706c656d656e742074686520696e74657266616365604482015290519081900360640190fd5b600160a060020a038181166000818152602081815260408083208884529091528082208054600160a060020a0319169487169485179055518692917f93baa6efbd2244243bfee6ce4cfdd1d04fc4c0e9a786abd3a41313bd352db15391a450505050565b600160a060020a038181166000908152600160205260408120549091161515610537575080610554565b50600160a060020a03808216600090815260016020526040902054165b919050565b336105638361050d565b600160a060020a0316146105b6576040805160e560020a62461bcd02815260206004820152600f6024820152608960020a6e2737ba103a34329036b0b730b3b2b902604482015290519081900360640190fd5b81600160a060020a031681600160a060020a0316146105d557806105d8565b60005b600160a060020a038381166000818152600160205260408082208054600160a060020a0319169585169590951790945592519184169290917f605c2dbf762e5f7d60a546d42e7205dcb1b011ebc62a61736a57c9089d3a43509190a35050565b600082826040516020018083838082843780830192505050925050506040516020818303038152906040528051906020012090505b92915050565b61067d8282610767565b61068857600061068a565b815b600160a060020a03928316600081815260208181526040808320600160e060020a0319969096168084529582528083208054600160a060020a0319169590971694909417909555908152600284528181209281529190925220805460ff19166001179055565b600080600160a060020a03841615610708578361070a565b335b90506107158361088c565b1561073b5782610725828261080c565b610730576000610732565b815b9250505061066d565b600160a060020a0390811660009081526020818152604080832086845290915290205416905092915050565b6000808061077f8560e060020a6301ffc9a702610899565b909250905081158061078f575080155b1561079f5760009250505061066d565b6107b185600160e060020a0319610899565b90925090508115806107c257508015155b156107d25760009250505061066d565b6107dc8585610899565b90925090506001821480156107f15750806001145b156108015760019250505061066d565b506000949350505050565b600160a060020a0382166000908152600260209081526040808320600160e060020a03198516845290915281205460ff1615156108545761084d8383610767565b905061066d565b50600160a060020a03808316600081815260208181526040808320600160e060020a0319871684529091529020549091161492915050565b600160e060020a03161590565b60405160e060020a6301ffc9a7028082526004820183905260009182919060208160248189617530fa90519096909550935050505056fea165627a7a72305820138e5b6070a442e6d010126ff2777834a802522e67e4a43ea4b7ca27374e24880029",
  "source": "/* ERC1820 Pseudo-introspection Registry Contract\n * This standard defines a universal registry smart contract where any address (contract or regular account) can\n * register which interface it supports and which smart contract is responsible for its implementation.\n *\n * Written in 2019 by Jordi Baylina and Jacques Dafflon\n *\n * To the extent possible under law, the author(s) have dedicated all copyright and related and neighboring rights to\n * this software to the public domain worldwide. This software is distributed without any warranty.\n *\n * You should have received a copy of the CC0 Public Domain Dedication along with this software. If not, see\n * <http://creativecommons.org/publicdomain/zero/1.0/>.\n *\n *    ███████╗██████╗  ██████╗ ██╗ █████╗ ██████╗  ██████╗\n *    ██╔════╝██╔══██╗██╔════╝███║██╔══██╗╚════██╗██╔═████╗\n *    █████╗  ██████╔╝██║     ╚██║╚█████╔╝ █████╔╝██║██╔██║\n *    ██╔══╝  ██╔══██╗██║      ██║██╔══██╗██╔═══╝ ████╔╝██║\n *    ███████╗██║  ██║╚██████╗ ██║╚█████╔╝███████╗╚██████╔╝\n *    ╚══════╝╚═╝  ╚═╝ ╚═════╝ ╚═╝ ╚════╝ ╚══════╝ ╚═════╝\n *\n *    ██████╗ ███████╗ ██████╗ ██╗███████╗████████╗██████╗ ██╗   ██╗\n *    ██╔══██╗██╔════╝██╔════╝ ██║██╔════╝╚══██╔══╝██╔══██╗╚██╗ ██╔╝\n *    ██████╔╝█████╗  ██║  ███╗██║███████╗   ██║   ██████╔╝ ╚████╔╝\n *    ██╔══██╗██╔══╝  ██║   ██║██║╚════██║   ██║   ██╔══██╗  ╚██╔╝\n *    ██║  ██║███████╗╚██████╔╝██║███████║   ██║   ██║  ██║   ██║\n *    ╚═╝  ╚═╝╚══════╝ ╚═════╝ ╚═╝╚══════╝   ╚═╝   ╚═╝  ╚═╝   ╚═╝\n *\n */\npragma solidity 0.5.3;\n// IV is value needed to have a vanity address starting with '0x1820'.\n// IV: 53759\n\n/// @dev The interface a contract MUST implement if it is the implementer of\n/// some (other) interface for any address other than itself.\ninterface ERC1820ImplementerInterface {\n    /// @notice Indicates whether the contract implements the interface 'interfaceHash' for the address 'addr' or not.\n    /// @param interfaceHash keccak256 hash of the name of the interface\n    /// @param addr Address for which the contract will implement the interface\n    /// @return ERC1820_ACCEPT_MAGIC only if the contract implements 'interfaceHash' for the address 'addr'.\n    function canImplementInterfaceForAddress(bytes32 interfaceHash, address addr) external view returns(bytes32);\n}\n\n\n/// @title ERC1820 Pseudo-introspection Registry Contract\n/// @author Jordi Baylina and Jacques Dafflon\n/// @notice This contract is the official implementation of the ERC1820 Registry.\n/// @notice For more details, see https://eips.ethereum.org/EIPS/eip-1820\ncontract ERC1820Registry {\n    /// @notice ERC165 Invalid ID.\n    bytes4 constant internal INVALID_ID = 0xffffffff;\n    /// @notice Method ID for the ERC165 supportsInterface method (= `bytes4(keccak256('supportsInterface(bytes4)'))`).\n    bytes4 constant internal ERC165ID = 0x01ffc9a7;\n    /// @notice Magic value which is returned if a contract implements an interface on behalf of some other address.\n    bytes32 constant internal ERC1820_ACCEPT_MAGIC = keccak256(abi.encodePacked(\"ERC1820_ACCEPT_MAGIC\"));\n\n    /// @notice mapping from addresses and interface hashes to their implementers.\n    mapping(address => mapping(bytes32 => address)) internal interfaces;\n    /// @notice mapping from addresses to their manager.\n    mapping(address => address) internal managers;\n    /// @notice flag for each address and erc165 interface to indicate if it is cached.\n    mapping(address => mapping(bytes4 => bool)) internal erc165Cached;\n\n    /// @notice Indicates a contract is the 'implementer' of 'interfaceHash' for 'addr'.\n    event InterfaceImplementerSet(address indexed addr, bytes32 indexed interfaceHash, address indexed implementer);\n    /// @notice Indicates 'newManager' is the address of the new manager for 'addr'.\n    event ManagerChanged(address indexed addr, address indexed newManager);\n\n    /// @notice Query if an address implements an interface and through which contract.\n    /// @param _addr Address being queried for the implementer of an interface.\n    /// (If '_addr' is the zero address then 'msg.sender' is assumed.)\n    /// @param _interfaceHash Keccak256 hash of the name of the interface as a string.\n    /// E.g., 'web3.utils.keccak256(\"ERC777TokensRecipient\")' for the 'ERC777TokensRecipient' interface.\n    /// @return The address of the contract which implements the interface '_interfaceHash' for '_addr'\n    /// or '0' if '_addr' did not register an implementer for this interface.\n    function getInterfaceImplementer(address _addr, bytes32 _interfaceHash) external view returns (address) {\n        address addr = _addr == address(0) ? msg.sender : _addr;\n        if (isERC165Interface(_interfaceHash)) {\n            bytes4 erc165InterfaceHash = bytes4(_interfaceHash);\n            return implementsERC165Interface(addr, erc165InterfaceHash) ? addr : address(0);\n        }\n        return interfaces[addr][_interfaceHash];\n    }\n\n    /// @notice Sets the contract which implements a specific interface for an address.\n    /// Only the manager defined for that address can set it.\n    /// (Each address is the manager for itself until it sets a new manager.)\n    /// @param _addr Address for which to set the interface.\n    /// (If '_addr' is the zero address then 'msg.sender' is assumed.)\n    /// @param _interfaceHash Keccak256 hash of the name of the interface as a string.\n    /// E.g., 'web3.utils.keccak256(\"ERC777TokensRecipient\")' for the 'ERC777TokensRecipient' interface.\n    /// @param _implementer Contract address implementing '_interfaceHash' for '_addr'.\n    function setInterfaceImplementer(address _addr, bytes32 _interfaceHash, address _implementer) external {\n        address addr = _addr == address(0) ? msg.sender : _addr;\n        require(getManager(addr) == msg.sender, \"Not the manager\");\n\n        require(!isERC165Interface(_interfaceHash), \"Must not be an ERC165 hash\");\n        if (_implementer != address(0) && _implementer != msg.sender) {\n            require(\n                ERC1820ImplementerInterface(_implementer)\n                    .canImplementInterfaceForAddress(_interfaceHash, addr) == ERC1820_ACCEPT_MAGIC,\n                \"Does not implement the interface\"\n            );\n        }\n        interfaces[addr][_interfaceHash] = _implementer;\n        emit InterfaceImplementerSet(addr, _interfaceHash, _implementer);\n    }\n\n    /// @notice Sets '_newManager' as manager for '_addr'.\n    /// The new manager will be able to call 'setInterfaceImplementer' for '_addr'.\n    /// @param _addr Address for which to set the new manager.\n    /// @param _newManager Address of the new manager for 'addr'. (Pass '0x0' to reset the manager to '_addr'.)\n    function setManager(address _addr, address _newManager) external {\n        require(getManager(_addr) == msg.sender, \"Not the manager\");\n        managers[_addr] = _newManager == _addr ? address(0) : _newManager;\n        emit ManagerChanged(_addr, _newManager);\n    }\n\n    /// @notice Get the manager of an address.\n    /// @param _addr Address for which to return the manager.\n    /// @return Address of the manager for a given address.\n    function getManager(address _addr) public view returns(address) {\n        // By default the manager of an address is the same address\n        if (managers[_addr] == address(0)) {\n            return _addr;\n        } else {\n            return managers[_addr];\n        }\n    }\n\n    /// @notice Compute the keccak256 hash of an interface given its name.\n    /// @param _interfaceName Name of the interface.\n    /// @return The keccak256 hash of an interface name.\n    function interfaceHash(string calldata _interfaceName) external pure returns(bytes32) {\n        return keccak256(abi.encodePacked(_interfaceName));\n    }\n\n    /* --- ERC165 Related Functions --- */\n    /* --- Developed in collaboration with William Entriken. --- */\n\n    /// @notice Updates the cache with whether the contract implements an ERC165 interface or not.\n    /// @param _contract Address of the contract for which to update the cache.\n    /// @param _interfaceId ERC165 interface for which to update the cache.\n    function updateERC165Cache(address _contract, bytes4 _interfaceId) external {\n        interfaces[_contract][_interfaceId] = implementsERC165InterfaceNoCache(\n            _contract, _interfaceId) ? _contract : address(0);\n        erc165Cached[_contract][_interfaceId] = true;\n    }\n\n    /// @notice Checks whether a contract implements an ERC165 interface or not.\n    //  If the result is not cached a direct lookup on the contract address is performed.\n    //  If the result is not cached or the cached value is out-of-date, the cache MUST be updated manually by calling\n    //  'updateERC165Cache' with the contract address.\n    /// @param _contract Address of the contract to check.\n    /// @param _interfaceId ERC165 interface to check.\n    /// @return True if '_contract' implements '_interfaceId', false otherwise.\n    function implementsERC165Interface(address _contract, bytes4 _interfaceId) public view returns (bool) {\n        if (!erc165Cached[_contract][_interfaceId]) {\n            return implementsERC165InterfaceNoCache(_contract, _interfaceId);\n        }\n        return interfaces[_contract][_interfaceId] == _contract;\n    }\n\n    /// @notice Checks whether a contract implements an ERC165 interface or not without using nor updating the cache.\n    /// @param _contract Address of the contract to check.\n    /// @param _interfaceId ERC165 interface to check.\n    /// @return True if '_contract' implements '_interfaceId', false otherwise.\n    function implementsERC165InterfaceNoCache(address _contract, bytes4 _interfaceId) public view returns (bool) {\n        uint256 success;\n        uint256 result;\n\n        (success, result) = noThrowCall(_contract, ERC165ID);\n        if (success == 0 || result == 0) {\n            return false;\n        }\n\n        (success, result) = noThrowCall(_contract, INVALID_ID);\n        if (success == 0 || result != 0) {\n            return false;\n        }\n\n        (success, result) = noThrowCall(_contract, _interfaceId);\n        if (success == 1 && result == 1) {\n            return true;\n        }\n        return false;\n    }\n\n    /// @notice Checks whether the hash is a ERC165 interface (ending with 28 zeroes) or not.\n    /// @param _interfaceHash The hash to check.\n    /// @return True if '_interfaceHash' is an ERC165 interface (ending with 28 zeroes), false otherwise.\n    function isERC165Interface(bytes32 _interfaceHash) internal pure returns (bool) {\n        return _interfaceHash & 0x00000000FFFFFFFFFFFFFFFFFFFFFFFFFFFFFFFFFFFFFFFFFFFFFFFFFFFFFFFF == 0;\n    }\n\n    /// @dev Make a call on a contract without throwing if the function does not exist.\n    function noThrowCall(address _contract, bytes4 _interfaceId)\n        internal view returns (uint256 success, uint256 result)\n    {\n        bytes4 erc165ID = ERC165ID;\n\n        assembly {\n            let x := mload(0x40)               // Find empty storage location using \"free memory pointer\"\n            mstore(x, erc165ID)                // Place signature at beginning of empty storage\n            mstore(add(x, 0x04), _interfaceId) // Place first argument directly next to signature\n\n            success := staticcall(\n                30000,                         // 30k gas\n                _contract,                     // To addr\n                x,                             // Inputs are stored at location x\n                0x24,                          // Inputs are 36 (4 + 32) bytes long\n                x,                             // Store output over input (saves space)\n                0x20                           // Outputs are 32 bytes long\n            )\n\n            result := mload(x)                 // Load the result\n        }\n    }\n}\n",
  "sourcePath": "erc1820/contracts/ERC1820Registry.sol",
  "compiler": {
    "name": "solc",
    "version": "0.5.3+commit.10d17f24.Emscripten.clang"
  },
  "schemaVersion": "3.0.1",
  "updatedAt": "2020-05-04T21:40:23.163Z",
  "devdoc": {
    "author": "Jordi Baylina and Jacques Dafflon",
    "methods": {
      "getInterfaceImplementer(address,bytes32)": {
        "params": {
          "_addr": "Address being queried for the implementer of an interface. (If '_addr' is the zero address then 'msg.sender' is assumed.)",
          "_interfaceHash": "Keccak256 hash of the name of the interface as a string. E.g., 'web3.utils.keccak256(\"ERC777TokensRecipient\")' for the 'ERC777TokensRecipient' interface."
        },
        "return": "The address of the contract which implements the interface '_interfaceHash' for '_addr' or '0' if '_addr' did not register an implementer for this interface."
      },
      "getManager(address)": {
        "params": {
          "_addr": "Address for which to return the manager."
        },
        "return": "Address of the manager for a given address."
      },
      "implementsERC165Interface(address,bytes4)": {
        "params": {
          "_contract": "Address of the contract to check.",
          "_interfaceId": "ERC165 interface to check."
        },
        "return": "True if '_contract' implements '_interfaceId', false otherwise."
      },
      "implementsERC165InterfaceNoCache(address,bytes4)": {
        "params": {
          "_contract": "Address of the contract to check.",
          "_interfaceId": "ERC165 interface to check."
        },
        "return": "True if '_contract' implements '_interfaceId', false otherwise."
      },
      "interfaceHash(string)": {
        "params": {
          "_interfaceName": "Name of the interface."
        },
        "return": "The keccak256 hash of an interface name."
      },
      "setInterfaceImplementer(address,bytes32,address)": {
        "params": {
          "_addr": "Address for which to set the interface. (If '_addr' is the zero address then 'msg.sender' is assumed.)",
          "_implementer": "Contract address implementing '_interfaceHash' for '_addr'.",
          "_interfaceHash": "Keccak256 hash of the name of the interface as a string. E.g., 'web3.utils.keccak256(\"ERC777TokensRecipient\")' for the 'ERC777TokensRecipient' interface."
        }
      },
      "setManager(address,address)": {
        "params": {
          "_addr": "Address for which to set the new manager.",
          "_newManager": "Address of the new manager for 'addr'. (Pass '0x0' to reset the manager to '_addr'.)"
        }
      },
      "updateERC165Cache(address,bytes4)": {
        "params": {
          "_contract": "Address of the contract for which to update the cache.",
          "_interfaceId": "ERC165 interface for which to update the cache."
        }
      }
    },
    "title": "ERC1820 Pseudo-introspection Registry Contract"
  },
  "userdoc": {
    "methods": {
      "getInterfaceImplementer(address,bytes32)": {
        "notice": "Query if an address implements an interface and through which contract."
      },
      "getManager(address)": {
        "notice": "Get the manager of an address."
      },
      "implementsERC165InterfaceNoCache(address,bytes4)": {
        "notice": "Checks whether a contract implements an ERC165 interface or not without using nor updating the cache."
      },
      "interfaceHash(string)": {
        "notice": "Compute the keccak256 hash of an interface given its name."
      },
      "setInterfaceImplementer(address,bytes32,address)": {
        "notice": "Sets the contract which implements a specific interface for an address. Only the manager defined for that address can set it. (Each address is the manager for itself until it sets a new manager.)"
      },
      "setManager(address,address)": {
        "notice": "Sets '_newManager' as manager for '_addr'. The new manager will be able to call 'setInterfaceImplementer' for '_addr'."
      },
      "updateERC165Cache(address,bytes4)": {
        "notice": "Updates the cache with whether the contract implements an ERC165 interface or not."
      }
    },
    "notice": "This contract is the official implementation of the ERC1820 Registry.For more details, see https://eips.ethereum.org/EIPS/eip-1820"
  }
}