{
  "contractName": "AllowlistedRole",
  "abi": [
    {
      "constant": false,
      "inputs": [
        {
          "name": "token",
          "type": "address"
        }
      ],
      "name": "renounceAllowlistAdmin",
      "outputs": [],
      "payable": false,
      "stateMutability": "nonpayable",
      "type": "function"
    },
    {
      "constant": true,
      "inputs": [
        {
          "name": "token",
          "type": "address"
        },
        {
          "name": "account",
          "type": "address"
        }
      ],
      "name": "isAllowlistAdmin",
      "outputs": [
        {
          "name": "",
          "type": "bool"
        }
      ],
      "payable": false,
      "stateMutability": "view",
      "type": "function"
    },
    {
      "constant": false,
      "inputs": [
        {
          "name": "token",
          "type": "address"
        },
        {
          "name": "account",
          "type": "address"
        }
      ],
      "name": "removeAllowlistAdmin",
      "outputs": [],
      "payable": false,
      "stateMutability": "nonpayable",
      "type": "function"
    },
    {
      "constant": false,
      "inputs": [
        {
          "name": "token",
          "type": "address"
        },
        {
          "name": "account",
          "type": "address"
        }
      ],
      "name": "addAllowlistAdmin",
      "outputs": [],
      "payable": false,
      "stateMutability": "nonpayable",
      "type": "function"
    },
    {
      "anonymous": false,
      "inputs": [
        {
          "indexed": true,
          "name": "token",
          "type": "address"
        },
        {
          "indexed": true,
          "name": "account",
          "type": "address"
        }
      ],
      "name": "AllowlistedAdded",
      "type": "event"
    },
    {
      "anonymous": false,
      "inputs": [
        {
          "indexed": true,
          "name": "token",
          "type": "address"
        },
        {
          "indexed": true,
          "name": "account",
          "type": "address"
        }
      ],
      "name": "AllowlistedRemoved",
      "type": "event"
    },
    {
      "anonymous": false,
      "inputs": [
        {
          "indexed": true,
          "name": "token",
          "type": "address"
        },
        {
          "indexed": true,
          "name": "account",
          "type": "address"
        }
      ],
      "name": "AllowlistAdminAdded",
      "type": "event"
    },
    {
      "anonymous": false,
      "inputs": [
        {
          "indexed": true,
          "name": "token",
          "type": "address"
        },
        {
          "indexed": true,
          "name": "account",
          "type": "address"
        }
      ],
      "name": "AllowlistAdminRemoved",
      "type": "event"
    },
    {
      "constant": true,
      "inputs": [
        {
          "name": "token",
          "type": "address"
        },
        {
          "name": "account",
          "type": "address"
        }
      ],
      "name": "isAllowlisted",
      "outputs": [
        {
          "name": "",
          "type": "bool"
        }
      ],
      "payable": false,
      "stateMutability": "view",
      "type": "function"
    },
    {
      "constant": false,
      "inputs": [
        {
          "name": "token",
          "type": "address"
        },
        {
          "name": "account",
          "type": "address"
        }
      ],
      "name": "addAllowlisted",
      "outputs": [],
      "payable": false,
      "stateMutability": "nonpayable",
      "type": "function"
    },
    {
      "constant": false,
      "inputs": [
        {
          "name": "token",
          "type": "address"
        },
        {
          "name": "account",
          "type": "address"
        }
      ],
      "name": "removeAllowlisted",
      "outputs": [],
      "payable": false,
      "stateMutability": "nonpayable",
      "type": "function"
    }
  ],
  "bytecode": "0x6080604052610551806100136000396000f3fe608060405234801561001057600080fd5b506004361061006d5760003560e01c80630d21cdd8146100725780634261699f1461009a57806342be5787146100c857806361c2e2811461010a578063685e251914610138578063dfe15da014610166578063fa061ca014610194575b600080fd5b6100986004803603602081101561008857600080fd5b50356001600160a01b03166101c2565b005b610098600480360360408110156100b057600080fd5b506001600160a01b03813581169160200135166101cf565b6100f6600480360360408110156100de57600080fd5b506001600160a01b03813581169160200135166101f2565b604080519115158252519081900360200190f35b6100f66004803603604081101561012057600080fd5b506001600160a01b0381358116916020013516610221565b6100986004803603604081101561014e57600080fd5b506001600160a01b0381358116916020013516610249565b6100986004803603604081101561017c57600080fd5b506001600160a01b0381358116916020013516610267565b610098600480360360408110156101aa57600080fd5b506001600160a01b0381358116916020013516610285565b6101cc81336102a3565b50565b816101da81336101f2565b6101e357600080fd5b6101ed838361030f565b505050565b6001600160a01b038216600090815260208190526040812061021a908363ffffffff61037b16565b9392505050565b6001600160a01b038216600090815260016020526040812061021a908363ffffffff61037b16565b8161025481336101f2565b61025d57600080fd5b6101ed83836103b0565b8161027281336101f2565b61027b57600080fd5b6101ed83836102a3565b8161029081336101f2565b61029957600080fd5b6101ed838361041c565b6001600160a01b03821660009081526020819052604090206102cb908263ffffffff61048816565b806001600160a01b0316826001600160a01b03167f84c618afa7439d9985b8c707a18637a9c6b0128399c0f5dee2ca90254d66fc3a60405160405180910390a35050565b6001600160a01b0382166000908152600160205260409020610337908263ffffffff6104d016565b806001600160a01b0316826001600160a01b03167ff537a4c39a5575220902fda69b79909e02d44c8a7146b1a1c3b936f86aa71e3860405160405180910390a35050565b60006001600160a01b03821661039057600080fd5b506001600160a01b03166000908152602091909152604090205460ff1690565b6001600160a01b03821660009081526001602052604090206103d8908263ffffffff61048816565b806001600160a01b0316826001600160a01b03167f99c45157365b22d82f22eea7bc8cff76cb53628113f4b52b10f83db3b404001660405160405180910390a35050565b6001600160a01b0382166000908152602081905260409020610444908263ffffffff6104d016565b806001600160a01b0316826001600160a01b03167f7a247cc00caf875946bd4af440d6b1776fe6bb625e25cad7626bedf5e6a1c37060405160405180910390a35050565b6001600160a01b03811661049b57600080fd5b6104a5828261037b565b6104ae57600080fd5b6001600160a01b0316600090815260209190915260409020805460ff19169055565b6001600160a01b0381166104e357600080fd5b6104ed828261037b565b156104f757600080fd5b6001600160a01b0316600090815260209190915260409020805460ff1916600117905556fea265627a7a7230582040496c0b9cad9b955d3094738f9692ed3bfa953320f76702935a62e3144ea8fc64736f6c634300050a0032",
  "source": "/*\n * This code has not been reviewed.\n * Do not use or deploy this code before reviewing it personally first.\n */\npragma solidity ^0.5.0;\n\nimport \"openzeppelin-solidity/contracts/access/Roles.sol\";\nimport \"./AllowlistAdminRole.sol\";\n\n\n/**\n * @title AllowlistedRole\n * @dev Allowlisted accounts have been forbidden by a AllowlistAdmin to perform certain actions (e.g. participate in a\n * crowdsale). This role is special in that the only accounts that can add it are AllowlistAdmins (who can also remove\n * it), and not Allowlisteds themselves.\n */\ncontract AllowlistedRole is AllowlistAdminRole {\n    using Roles for Roles.Role;\n\n    event AllowlistedAdded(address indexed token, address indexed account);\n    event AllowlistedRemoved(address indexed token, address indexed account);\n\n    // Mapping from token to token allowlisteds.\n    mapping(address => Roles.Role) private _allowlisteds;\n\n    modifier onlyNotAllowlisted(address token) {\n        require(!isAllowlisted(token, msg.sender));\n        _;\n    }\n\n    function isAllowlisted(address token, address account) public view returns (bool) {\n        return _allowlisteds[token].has(account);\n    }\n\n    function addAllowlisted(address token, address account) public onlyAllowlistAdmin(token) {\n        _addAllowlisted(token, account);\n    }\n\n    function removeAllowlisted(address token, address account) public onlyAllowlistAdmin(token) {\n        _removeAllowlisted(token, account);\n    }\n\n    function _addAllowlisted(address token, address account) internal {\n        _allowlisteds[token].add(account);\n        emit AllowlistedAdded(token, account);\n    }\n\n    function _removeAllowlisted(address token, address account) internal {\n        _allowlisteds[token].remove(account);\n        emit AllowlistedRemoved(token, account);\n    }\n}\n",
  "sourcePath": "universal-token/contracts/roles/AllowlistedRole.sol",
  "compiler": {
    "name": "solc",
    "version": "0.5.10+commit.5a6ea5b1.Emscripten.clang"
  },
  "schemaVersion": "3.3.0",
  "updatedAt": "2020-12-15T12:54:12.280Z",
  "devdoc": {
    "details": "Allowlisted accounts have been forbidden by a AllowlistAdmin to perform certain actions (e.g. participate in a crowdsale). This role is special in that the only accounts that can add it are AllowlistAdmins (who can also remove it), and not Allowlisteds themselves.",
    "methods": {},
    "title": "AllowlistedRole"
  },
  "userdoc": {
    "methods": {}
  }
}