{
  "contractName": "BatchTokenIssuer",
  "abi": [
    {
      "constant": true,
      "inputs": [
        {
          "name": "interfaceHash",
          "type": "bytes32"
        },
        {
          "name": "",
          "type": "address"
        }
      ],
      "name": "canImplementInterfaceForAddress",
      "outputs": [
        {
          "name": "",
          "type": "bytes32"
        }
      ],
      "payable": false,
      "stateMutability": "view",
      "type": "function"
    },
    {
      "inputs": [],
      "payable": false,
      "stateMutability": "nonpayable",
      "type": "constructor"
    },
    {
      "constant": false,
      "inputs": [
        {
          "name": "token",
          "type": "address"
        },
        {
          "name": "partitions",
          "type": "bytes32[]"
        },
        {
          "name": "tokenHolders",
          "type": "address[]"
        },
        {
          "name": "values",
          "type": "uint256[]"
        }
      ],
      "name": "batchIssueByPartition",
      "outputs": [
        {
          "name": "",
          "type": "uint256[]"
        }
      ],
      "payable": false,
      "stateMutability": "nonpayable",
      "type": "function"
    }
  ],
  "bytecode": "0x608060405234801561001057600080fd5b506100596040518060400160405280601081526020017f4261746368546f6b656e4973737565720000000000000000000000000000000081525061005e60201b61047f1760201c565b6100f9565b6001600080836040516020018082805190602001908083835b602083106100965780518252601f199092019160209182019101610077565b6001836020036101000a03801982511681845116808217855250505050505090500191505060405160208183030381529060405280519060200120815260200190815260200160002060006101000a81548160ff02191690831515021790555050565b6105bb806101086000396000f3fe608060405234801561001057600080fd5b50600436106100365760003560e01c8063249cb3fa1461003b578063edec7e1514610079575b600080fd5b6100676004803603604081101561005157600080fd5b50803590602001356001600160a01b03166101e7565b60408051918252519081900360200190f35b6101976004803603608081101561008f57600080fd5b6001600160a01b038235169190810190604081016020820135600160201b8111156100b957600080fd5b8201836020820111156100cb57600080fd5b803590602001918460208302840111600160201b831117156100ec57600080fd5b919390929091602081019035600160201b81111561010957600080fd5b82018360208201111561011b57600080fd5b803590602001918460208302840111600160201b8311171561013c57600080fd5b919390929091602081019035600160201b81111561015957600080fd5b82018360208201111561016b57600080fd5b803590602001918460208302840111600160201b8311171561018c57600080fd5b50909250905061024d565b60408051602080825283518183015283519192839290830191858101910280838360005b838110156101d35781810151838201526020016101bb565b505050509050019250505060405180910390f35b60008281526020819052604081205460ff161561024357604051602001808073455243313832305f4143434550545f4d4147494360601b8152506014019050604051602081830303815290604052805190602001209050610247565b5060005b92915050565b604080516355138f0d60e11b8152336004820152905160609189916001600160a01b0383169163aa271e1a916024808301926020929190829003018186803b15801561029857600080fd5b505afa1580156102ac573d6000803e3d6000fd5b505050506040513d60208110156102c257600080fd5b5051610315576040805162461bcd60e51b815260206004820152601d60248201527f53656e646572206973206e6f74206120746f6b656e206d696e7465722e000000604482015290519081900360640190fd5b8685146103535760405162461bcd60e51b815260040180806020018281038252603981526020018061054e6039913960400191505060405180910390fd5b8683146103915760405162461bcd60e51b815260040180806020018281038252603381526020018061051b6033913960400191505060405180910390fd5b60005b8781101561047257896001600160a01b03166367c849198a8a848181106103b757fe5b905060200201358989858181106103ca57fe5b905060200201356001600160a01b03168888868181106103e657fe5b604080516001600160e01b031960e089901b16815260048101969096526001600160a01b039094166024860152602002919091013560448401525060806064830152600060848301819052905160c48084019382900301818387803b15801561044e57600080fd5b505af1158015610462573d6000803e3d6000fd5b5050600190920191506103949050565b5050979650505050505050565b6001600080836040516020018082805190602001908083835b602083106104b75780518252601f199092019160209182019101610498565b6001836020036101000a03801982511681845116808217855250505050505090500191505060405160208183030381529060405280519060200120815260200190815260200160002060006101000a81548160ff0219169083151502179055505056fe706172746974696f6e7320616e642076616c75657320617272617973206861766520646966666572656e74206c656e67746873706172746974696f6e7320616e6420746f6b656e486f6c6465727320617272617973206861766520646966666572656e74206c656e67746873a265627a7a723058201d9f81379cf1d470828c8def5ea9d542b2fc735901f5d747dd442073331fede764736f6c634300050a0032",
  "source": "/*\n * This code has not been reviewed.\n * Do not use or deploy this code before reviewing it personally first.\n */\npragma solidity ^0.5.0;\n\nimport \"openzeppelin-solidity/contracts/ownership/Ownable.sol\";\nimport \"openzeppelin-solidity/contracts/token/ERC20/IERC20.sol\";\n\nimport \"../interface/ERC1820Implementer.sol\";\n\nimport \"../IERC1400.sol\";\n\n/**\n * @notice Interface to the Minterrole contract\n */\ninterface IMinterRole {\n  function isMinter(address account) external view returns (bool);\n}\n\n/**\n * @title BatchTokenIssuer\n * @dev Proxy contract to issue multiple ERC1400/ERC20 tokens in a single transaction.\n */\ncontract BatchTokenIssuer is ERC1820Implementer {\n\n  string constant internal BATCH_ISSUER = \"BatchTokenIssuer\";\n\n  // Mapping from token to token minters.\n  mapping(address => address[]) internal _tokenMinters;\n\n  // Mapping from (token, operator) to token minter status.\n  mapping(address => mapping(address => bool)) internal _isTokenMinter;\n\n  /**\n   * @dev Modifier to verify if sender is a token minter.\n   */\n  modifier onlyTokenMinter(address token) {\n    require(IMinterRole(token).isMinter(msg.sender),\n      \"Sender is not a token minter.\"\n    );\n    _;\n  }\n\n  constructor() public {\n    ERC1820Implementer._setInterface(BATCH_ISSUER);\n  }\n\n  /**\n   * @dev Issue tokens for multiple addresses.\n   * @param token Address of token where the tokens need to be issued.\n   * @param partitions Name of the partitions.\n   * @param tokenHolders Addresses for which we want to issue tokens.\n   * @param values Number of tokens issued.\n   */\n  function batchIssueByPartition(\n    address token,\n    bytes32[] calldata partitions,\n    address[] calldata tokenHolders,\n    uint256[] calldata values\n  )\n    external\n    onlyTokenMinter(token)\n    returns (uint256[] memory)\n  {\n    require(partitions.length == tokenHolders.length, \"partitions and tokenHolders arrays have different lengths\");\n    require(partitions.length == values.length, \"partitions and values arrays have different lengths\");\n    \n    for (uint i = 0; i < partitions.length; i++) {\n        IERC1400(token).issueByPartition(partitions[i], tokenHolders[i], values[i], \"\");\n    }\n  }\n\n}\n",
  "sourcePath": "universal-token/contracts/tools/BatchTokenIssuer.sol",
  "compiler": {
    "name": "solc",
    "version": "0.5.10+commit.5a6ea5b1.Emscripten.clang"
  },
  "schemaVersion": "3.3.0",
  "updatedAt": "2020-12-15T12:54:12.377Z",
  "devdoc": {
    "details": "Proxy contract to issue multiple ERC1400/ERC20 tokens in a single transaction.",
    "methods": {
      "batchIssueByPartition(address,bytes32[],address[],uint256[])": {
        "details": "Issue tokens for multiple addresses.",
        "params": {
          "partitions": "Name of the partitions.",
          "token": "Address of token where the tokens need to be issued.",
          "tokenHolders": "Addresses for which we want to issue tokens.",
          "values": "Number of tokens issued."
        }
      }
    },
    "title": "BatchTokenIssuer"
  },
  "userdoc": {
    "methods": {}
  }
}