{
  "contractName": "BatchBalanceReader",
  "abi": [
    {
      "constant": true,
      "inputs": [
        {
          "name": "interfaceHash",
          "type": "bytes32"
        },
        {
          "name": "",
          "type": "address"
        }
      ],
      "name": "canImplementInterfaceForAddress",
      "outputs": [
        {
          "name": "",
          "type": "bytes32"
        }
      ],
      "payable": false,
      "stateMutability": "view",
      "type": "function"
    },
    {
      "inputs": [],
      "payable": false,
      "stateMutability": "nonpayable",
      "type": "constructor"
    },
    {
      "constant": true,
      "inputs": [
        {
          "name": "tokenHolders",
          "type": "address[]"
        },
        {
          "name": "tokenAddresses",
          "type": "address[]"
        },
        {
          "name": "partitions",
          "type": "bytes32[]"
        }
      ],
      "name": "balancesOfByPartition",
      "outputs": [
        {
          "name": "",
          "type": "uint256[]"
        }
      ],
      "payable": false,
      "stateMutability": "view",
      "type": "function"
    },
    {
      "constant": true,
      "inputs": [
        {
          "name": "tokenHolders",
          "type": "address[]"
        },
        {
          "name": "tokenAddresses",
          "type": "address[]"
        }
      ],
      "name": "balancesOf",
      "outputs": [
        {
          "name": "",
          "type": "uint256[]"
        }
      ],
      "payable": false,
      "stateMutability": "view",
      "type": "function"
    },
    {
      "constant": true,
      "inputs": [
        {
          "name": "partitions",
          "type": "bytes32[]"
        },
        {
          "name": "tokenAddresses",
          "type": "address[]"
        }
      ],
      "name": "totalSuppliesByPartition",
      "outputs": [
        {
          "name": "",
          "type": "uint256[]"
        }
      ],
      "payable": false,
      "stateMutability": "view",
      "type": "function"
    },
    {
      "constant": true,
      "inputs": [
        {
          "name": "tokenAddresses",
          "type": "address[]"
        }
      ],
      "name": "totalSupplies",
      "outputs": [
        {
          "name": "",
          "type": "uint256[]"
        }
      ],
      "payable": false,
      "stateMutability": "view",
      "type": "function"
    }
  ],
  "bytecode": "0x608060405234801561001057600080fd5b506100596040518060400160405280601281526020017f426174636842616c616e6365526561646572000000000000000000000000000081525061005e60201b6109001760201c565b6100f9565b6001600080836040516020018082805190602001908083835b602083106100965780518252601f199092019160209182019101610077565b6001836020036101000a03801982511681845116808217855250505050505090500191505060405160208183030381529060405280519060200120815260200190815260200160002060006101000a81548160ff02191690831515021790555050565b6109d0806101086000396000f3fe608060405234801561001057600080fd5b50600436106100575760003560e01c80631929e0091461005c578063249cb3fa1461016a578063a09640ec146101a8578063dd2e4bb514610266578063feeef1e6146102d4575b600080fd5b61011a6004803603604081101561007257600080fd5b810190602081018135600160201b81111561008c57600080fd5b82018360208201111561009e57600080fd5b803590602001918460208302840111600160201b831117156100bf57600080fd5b919390929091602081019035600160201b8111156100dc57600080fd5b8201836020820111156100ee57600080fd5b803590602001918460208302840111600160201b8311171561010f57600080fd5b5090925090506103e2565b60408051602080825283518183015283519192839290830191858101910280838360005b8381101561015657818101518382015260200161013e565b505050509050019250505060405180910390f35b6101966004803603604081101561018057600080fd5b50803590602001356001600160a01b0316610507565b60408051918252519081900360200190f35b61011a600480360360408110156101be57600080fd5b810190602081018135600160201b8111156101d857600080fd5b8201836020820111156101ea57600080fd5b803590602001918460208302840111600160201b8311171561020b57600080fd5b919390929091602081019035600160201b81111561022857600080fd5b82018360208201111561023a57600080fd5b803590602001918460208302840111600160201b8311171561025b57600080fd5b50909250905061056d565b61011a6004803603602081101561027c57600080fd5b810190602081018135600160201b81111561029657600080fd5b8201836020820111156102a857600080fd5b803590602001918460208302840111600160201b831117156102c957600080fd5b5090925090506106a1565b61011a600480360360608110156102ea57600080fd5b810190602081018135600160201b81111561030457600080fd5b82018360208201111561031657600080fd5b803590602001918460208302840111600160201b8311171561033757600080fd5b919390929091602081019035600160201b81111561035457600080fd5b82018360208201111561036657600080fd5b803590602001918460208302840111600160201b8311171561038757600080fd5b919390929091602081019035600160201b8111156103a457600080fd5b8201836020820111156103b657600080fd5b803590602001918460208302840111600160201b831117156103d757600080fd5b509092509050610788565b6040805184830280825260208082028301019092526060918291908015610413578160200160208202803883390190505b5090506000805b848110156104fb5760005b878110156104f2578188028101925086868381811061044057fe5b905060200201356001600160a01b03166001600160a01b031663a26734dc8a8a8481811061046a57fe5b905060200201356040518263ffffffff1660e01b81526004018082815260200191505060206040518083038186803b1580156104a557600080fd5b505afa1580156104b9573d6000803e3d6000fd5b505050506040513d60208110156104cf57600080fd5b505184518590859081106104df57fe5b6020908102919091010152600101610425565b5060010161041a565b50909695505050505050565b60008281526020819052604081205460ff161561056357604051602001808073455243313832305f4143434550545f4d4147494360601b8152506014019050604051602081830303815290604052805190602001209050610567565b5060005b92915050565b604080518483028082526020808202830101909252606091829190801561059e578160200160208202803883390190505b5090506000805b868110156104fb5760005b8581101561069857818602810192508686828181106105cb57fe5b905060200201356001600160a01b03166001600160a01b03166370a082318a8a858181106105f557fe5b905060200201356001600160a01b03166040518263ffffffff1660e01b815260040180826001600160a01b03166001600160a01b0316815260200191505060206040518083038186803b15801561064b57600080fd5b505afa15801561065f573d6000803e3d6000fd5b505050506040513d602081101561067557600080fd5b5051845185908590811061068557fe5b60209081029190910101526001016105b0565b506001016105a5565b606080838390506040519080825280602002602001820160405280156106d1578160200160208202803883390190505b50905060005b83811015610780578484828181106106eb57fe5b905060200201356001600160a01b03166001600160a01b03166318160ddd6040518163ffffffff1660e01b815260040160206040518083038186803b15801561073357600080fd5b505afa158015610747573d6000803e3d6000fd5b505050506040513d602081101561075d57600080fd5b5051825183908390811061076d57fe5b60209081029190910101526001016106d7565b509392505050565b604080518483028702808252602080820283010190925260609182919080156107bb578160200160208202803883390190505b5090506000805b888110156108f25760005b878110156108e95760005b868110156108e057888702830282880201810193508989838181106107f957fe5b905060200201356001600160a01b03166001600160a01b03166330e8280389898481811061082357fe5b905060200201358e8e8781811061083657fe5b905060200201356001600160a01b03166040518363ffffffff1660e01b815260040180838152602001826001600160a01b03166001600160a01b031681526020019250505060206040518083038186803b15801561089357600080fd5b505afa1580156108a7573d6000803e3d6000fd5b505050506040513d60208110156108bd57600080fd5b505185518690869081106108cd57fe5b60209081029190910101526001016107d8565b506001016107cd565b506001016107c2565b509098975050505050505050565b6001600080836040516020018082805190602001908083835b602083106109385780518252601f199092019160209182019101610919565b6001836020036101000a03801982511681845116808217855250505050505090500191505060405160208183030381529060405280519060200120815260200190815260200160002060006101000a81548160ff0219169083151502179055505056fea265627a7a72305820110fb95819c735b6ad1ae6c0af48ef30a746a3791e20465d7cca2fb2cc44611164736f6c634300050a0032",
  "source": "/*\n * This code has not been reviewed.\n * Do not use or deploy this code before reviewing it personally first.\n */\npragma solidity ^0.5.0;\n\nimport \"openzeppelin-solidity/contracts/token/ERC20/IERC20.sol\";\n\nimport \"../interface/ERC1820Implementer.sol\";\n\nimport \"../IERC1400.sol\";\n\ninterface IERC1400Extended {\n    // Not a real interface but added here since 'totalSupplyByPartition' doesn't belong to IERC1400\n\n    function totalSupplyByPartition(bytes32 partition)\n        external\n        view\n        returns (uint256);\n}\n\n/**\n * @title BatchBalanceReader\n * @dev Proxy contract to read multiple ERC1400/ERC20 token balances in a single contract call.\n */\ncontract BatchBalanceReader is ERC1820Implementer {\n    string internal constant BALANCE_READER = \"BatchBalanceReader\";\n\n    constructor() public {\n        ERC1820Implementer._setInterface(BALANCE_READER);\n    }\n\n    /**\n     * @dev Get a batch of ERC1400 token balances.\n     * @param tokenHolders Addresses for which the balance is required.\n     * @param tokenAddresses Addresses of tokens where the balances need to be fetched.\n     * @param partitions Name of the partitions.\n     * @return Balances array.\n     */\n    function balancesOfByPartition(\n        address[] calldata tokenHolders,\n        address[] calldata tokenAddresses,\n        bytes32[] calldata partitions\n    ) external view returns (uint256[] memory) {\n        uint256[] memory partitionBalances = new uint256[](\n            tokenAddresses.length * partitions.length * tokenHolders.length\n        );\n        uint256 index;\n        for (uint256 i = 0; i < tokenHolders.length; i++) {\n            for (uint256 j = 0; j < tokenAddresses.length; j++) {\n                for (uint256 k = 0; k < partitions.length; k++) {\n                    index =\n                        i *\n                        (tokenAddresses.length * partitions.length) +\n                        j *\n                        partitions.length +\n                        k;\n                    partitionBalances[index] = IERC1400(tokenAddresses[j])\n                        .balanceOfByPartition(partitions[k], tokenHolders[i]);\n                }\n            }\n        }\n\n        return partitionBalances;\n    }\n\n    /**\n     * @dev Get a batch of ERC20 token balances.\n     * @param tokenHolders Addresses for which the balance is required.\n     * @param tokenAddresses Addresses of tokens where the balances need to be fetched.\n     * @return Balances array.\n     */\n    function balancesOf(\n        address[] calldata tokenHolders,\n        address[] calldata tokenAddresses\n    ) external view returns (uint256[] memory) {\n        uint256[] memory balances = new uint256[](\n            tokenHolders.length * tokenAddresses.length\n        );\n        uint256 index;\n        for (uint256 i = 0; i < tokenHolders.length; i++) {\n            for (uint256 j = 0; j < tokenAddresses.length; j++) {\n                index = i * tokenAddresses.length + j;\n                balances[index] = IERC20(tokenAddresses[j]).balanceOf(\n                    tokenHolders[i]\n                );\n            }\n        }\n        return balances;\n    }\n\n    /**\n     * @dev Get a batch of ERC1400 token total supplies by partitions.\n     * @param partitions Name of the partitions.\n     * @param tokenAddresses Addresses of tokens where the balances need to be fetched.\n     * @return Balances array.\n     */\n    function totalSuppliesByPartition(\n        bytes32[] calldata partitions,\n        address[] calldata tokenAddresses\n    ) external view returns (uint256[] memory) {\n        uint256[] memory partitionSupplies = new uint256[](\n            partitions.length * tokenAddresses.length\n        );\n        uint256 index;\n        for (uint256 i = 0; i < tokenAddresses.length; i++) {\n            for (uint256 j = 0; j < partitions.length; j++) {\n                index = i * partitions.length + j;\n                partitionSupplies[index] = IERC1400Extended(tokenAddresses[i])\n                    .totalSupplyByPartition(partitions[j]);\n            }\n        }\n        return partitionSupplies;\n    }\n\n    /**\n     * @dev Get a batch of ERC20 token total supplies.\n     * @param tokenAddresses Addresses of tokens where the balances need to be fetched.\n     * @return Balances array.\n     */\n    function totalSupplies(address[] calldata tokenAddresses)\n        external\n        view\n        returns (uint256[] memory)\n    {\n        uint256[] memory supplies = new uint256[](tokenAddresses.length);\n        for (uint256 i = 0; i < tokenAddresses.length; i++) {\n            supplies[i] = IERC20(tokenAddresses[i]).totalSupply();\n        }\n        return supplies;\n    }\n}\n",
  "sourcePath": "universal-token/contracts/tools/BatchBalanceReader.sol",
  "compiler": {
    "name": "solc",
    "version": "0.5.10+commit.5a6ea5b1.Emscripten.clang"
  },
  "schemaVersion": "3.3.0",
  "updatedAt": "2020-12-15T12:54:12.308Z",
  "devdoc": {
    "details": "Proxy contract to read multiple ERC1400/ERC20 token balances in a single contract call.",
    "methods": {
      "balancesOf(address[],address[])": {
        "details": "Get a batch of ERC20 token balances.",
        "params": {
          "tokenAddresses": "Addresses of tokens where the balances need to be fetched.",
          "tokenHolders": "Addresses for which the balance is required."
        },
        "return": "Balances array."
      },
      "balancesOfByPartition(address[],address[],bytes32[])": {
        "details": "Get a batch of ERC1400 token balances.",
        "params": {
          "partitions": "Name of the partitions.",
          "tokenAddresses": "Addresses of tokens where the balances need to be fetched.",
          "tokenHolders": "Addresses for which the balance is required."
        },
        "return": "Balances array."
      },
      "totalSupplies(address[])": {
        "details": "Get a batch of ERC20 token total supplies.",
        "params": {
          "tokenAddresses": "Addresses of tokens where the balances need to be fetched."
        },
        "return": "Balances array."
      },
      "totalSuppliesByPartition(bytes32[],address[])": {
        "details": "Get a batch of ERC1400 token total supplies by partitions.",
        "params": {
          "partitions": "Name of the partitions.",
          "tokenAddresses": "Addresses of tokens where the balances need to be fetched."
        },
        "return": "Balances array."
      }
    },
    "title": "BatchBalanceReader"
  },
  "userdoc": {
    "methods": {}
  }
}