{
  "contractName": "BlocklistedRole",
  "abi": [
    {
      "constant": true,
      "inputs": [
        {
          "name": "token",
          "type": "address"
        },
        {
          "name": "account",
          "type": "address"
        }
      ],
      "name": "isBlocklistAdmin",
      "outputs": [
        {
          "name": "",
          "type": "bool"
        }
      ],
      "payable": false,
      "stateMutability": "view",
      "type": "function"
    },
    {
      "constant": false,
      "inputs": [
        {
          "name": "token",
          "type": "address"
        },
        {
          "name": "account",
          "type": "address"
        }
      ],
      "name": "addBlocklistAdmin",
      "outputs": [],
      "payable": false,
      "stateMutability": "nonpayable",
      "type": "function"
    },
    {
      "constant": false,
      "inputs": [
        {
          "name": "token",
          "type": "address"
        }
      ],
      "name": "renounceBlocklistAdmin",
      "outputs": [],
      "payable": false,
      "stateMutability": "nonpayable",
      "type": "function"
    },
    {
      "constant": false,
      "inputs": [
        {
          "name": "token",
          "type": "address"
        },
        {
          "name": "account",
          "type": "address"
        }
      ],
      "name": "removeBlocklistAdmin",
      "outputs": [],
      "payable": false,
      "stateMutability": "nonpayable",
      "type": "function"
    },
    {
      "anonymous": false,
      "inputs": [
        {
          "indexed": true,
          "name": "token",
          "type": "address"
        },
        {
          "indexed": true,
          "name": "account",
          "type": "address"
        }
      ],
      "name": "BlocklistedAdded",
      "type": "event"
    },
    {
      "anonymous": false,
      "inputs": [
        {
          "indexed": true,
          "name": "token",
          "type": "address"
        },
        {
          "indexed": true,
          "name": "account",
          "type": "address"
        }
      ],
      "name": "BlocklistedRemoved",
      "type": "event"
    },
    {
      "anonymous": false,
      "inputs": [
        {
          "indexed": true,
          "name": "token",
          "type": "address"
        },
        {
          "indexed": true,
          "name": "account",
          "type": "address"
        }
      ],
      "name": "BlocklistAdminAdded",
      "type": "event"
    },
    {
      "anonymous": false,
      "inputs": [
        {
          "indexed": true,
          "name": "token",
          "type": "address"
        },
        {
          "indexed": true,
          "name": "account",
          "type": "address"
        }
      ],
      "name": "BlocklistAdminRemoved",
      "type": "event"
    },
    {
      "constant": true,
      "inputs": [
        {
          "name": "token",
          "type": "address"
        },
        {
          "name": "account",
          "type": "address"
        }
      ],
      "name": "isBlocklisted",
      "outputs": [
        {
          "name": "",
          "type": "bool"
        }
      ],
      "payable": false,
      "stateMutability": "view",
      "type": "function"
    },
    {
      "constant": false,
      "inputs": [
        {
          "name": "token",
          "type": "address"
        },
        {
          "name": "account",
          "type": "address"
        }
      ],
      "name": "addBlocklisted",
      "outputs": [],
      "payable": false,
      "stateMutability": "nonpayable",
      "type": "function"
    },
    {
      "constant": false,
      "inputs": [
        {
          "name": "token",
          "type": "address"
        },
        {
          "name": "account",
          "type": "address"
        }
      ],
      "name": "removeBlocklisted",
      "outputs": [],
      "payable": false,
      "stateMutability": "nonpayable",
      "type": "function"
    }
  ],
  "bytecode": "0x6080604052610551806100136000396000f3fe608060405234801561001057600080fd5b506004361061006d5760003560e01c80632c55b05f146100725780639bd483ec146100a2578063a28e7c02146100d0578063a4aa023f14610112578063c428b20214610140578063e323e6711461016e578063ebf42f7714610194575b600080fd5b6100a06004803603604081101561008857600080fd5b506001600160a01b03813581169160200135166101c2565b005b6100a0600480360360408110156100b857600080fd5b506001600160a01b03813581169160200135166101e5565b6100fe600480360360408110156100e657600080fd5b506001600160a01b0381358116916020013516610203565b604080519115158252519081900360200190f35b6100fe6004803603604081101561012857600080fd5b506001600160a01b0381358116916020013516610232565b6100a06004803603604081101561015657600080fd5b506001600160a01b038135811691602001351661025a565b6100a06004803603602081101561018457600080fd5b50356001600160a01b0316610278565b6100a0600480360360408110156101aa57600080fd5b506001600160a01b0381358116916020013516610285565b816101cd8133610203565b6101d657600080fd5b6101e083836102a3565b505050565b816101f08133610203565b6101f957600080fd5b6101e0838361030f565b6001600160a01b038216600090815260208190526040812061022b908363ffffffff61037b16565b9392505050565b6001600160a01b038216600090815260016020526040812061022b908363ffffffff61037b16565b816102658133610203565b61026e57600080fd5b6101e083836103b0565b610282813361041c565b50565b816102908133610203565b61029957600080fd5b6101e0838361041c565b6001600160a01b03821660009081526001602052604090206102cb908263ffffffff61048816565b806001600160a01b0316826001600160a01b03167f4eef79dfdff8d6b9485c6a01d5caac6413488fc1036c03867dbf75558a3b3a3660405160405180910390a35050565b6001600160a01b0382166000908152600160205260409020610337908263ffffffff6104d416565b806001600160a01b0316826001600160a01b03167fd3e42d12ae7dae2e960401c63b158173cc9987f9ee213374eff6471eed4062e360405160405180910390a35050565b60006001600160a01b03821661039057600080fd5b506001600160a01b03166000908152602091909152604090205460ff1690565b6001600160a01b03821660009081526020819052604090206103d8908263ffffffff61048816565b806001600160a01b0316826001600160a01b03167fc52e3252244a1a2a298f7b5a9f8e964ab8737811b620a1426c0b95e3037bba9e60405160405180910390a35050565b6001600160a01b0382166000908152602081905260409020610444908263ffffffff6104d416565b806001600160a01b0316826001600160a01b03167f2e4e5dc902da1dd9425aa2acf081cc51d589443784af4c3fd7d5fe60d5915cd060405160405180910390a35050565b6001600160a01b03811661049b57600080fd5b6104a5828261037b565b156104af57600080fd5b6001600160a01b0316600090815260209190915260409020805460ff19166001179055565b6001600160a01b0381166104e757600080fd5b6104f1828261037b565b6104fa57600080fd5b6001600160a01b0316600090815260209190915260409020805460ff1916905556fea265627a7a723058203bccf29981aedcd033a8d90d8a3b469d4978522b004ef51d1f037bb70d6eed9964736f6c634300050a0032",
  "source": "/*\n * This code has not been reviewed.\n * Do not use or deploy this code before reviewing it personally first.\n */\npragma solidity ^0.5.0;\n\nimport \"openzeppelin-solidity/contracts/access/Roles.sol\";\nimport \"./BlocklistAdminRole.sol\";\n\n\n/**\n * @title BlocklistedRole\n * @dev Blocklisted accounts have been forbidden by a BlocklistAdmin to perform certain actions (e.g. participate in a\n * crowdsale). This role is special in that the only accounts that can add it are BlocklistAdmins (who can also remove\n * it), and not Blocklisteds themselves.\n */\ncontract BlocklistedRole is BlocklistAdminRole {\n    using Roles for Roles.Role;\n\n    event BlocklistedAdded(address indexed token, address indexed account);\n    event BlocklistedRemoved(address indexed token, address indexed account);\n\n    // Mapping from token to token blocklisteds.\n    mapping(address => Roles.Role) private _blocklisteds;\n\n    modifier onlyNotBlocklisted(address token) {\n        require(!isBlocklisted(token, msg.sender));\n        _;\n    }\n\n    function isBlocklisted(address token, address account) public view returns (bool) {\n        return _blocklisteds[token].has(account);\n    }\n\n    function addBlocklisted(address token, address account) public onlyBlocklistAdmin(token) {\n        _addBlocklisted(token, account);\n    }\n\n    function removeBlocklisted(address token, address account) public onlyBlocklistAdmin(token) {\n        _removeBlocklisted(token, account);\n    }\n\n    function _addBlocklisted(address token, address account) internal {\n        _blocklisteds[token].add(account);\n        emit BlocklistedAdded(token, account);\n    }\n\n    function _removeBlocklisted(address token, address account) internal {\n        _blocklisteds[token].remove(account);\n        emit BlocklistedRemoved(token, account);\n    }\n}\n",
  "sourcePath": "universal-token/contracts/roles/BlocklistedRole.sol",
  "compiler": {
    "name": "solc",
    "version": "0.5.10+commit.5a6ea5b1.Emscripten.clang"
  },
  "schemaVersion": "3.3.0",
  "updatedAt": "2020-12-15T12:54:12.284Z",
  "devdoc": {
    "details": "Blocklisted accounts have been forbidden by a BlocklistAdmin to perform certain actions (e.g. participate in a crowdsale). This role is special in that the only accounts that can add it are BlocklistAdmins (who can also remove it), and not Blocklisteds themselves.",
    "methods": {},
    "title": "BlocklistedRole"
  },
  "userdoc": {
    "methods": {}
  }
}