{
  "contractName": "ERC1400HoldableCertificateToken",
  "abi": [
    {
      "constant": false,
      "inputs": [
        {
          "name": "name",
          "type": "bytes32"
        },
        {
          "name": "uri",
          "type": "string"
        },
        {
          "name": "documentHash",
          "type": "bytes32"
        }
      ],
      "name": "setDocument",
      "outputs": [],
      "payable": false,
      "stateMutability": "nonpayable",
      "type": "function"
    },
    {
      "constant": true,
      "inputs": [],
      "name": "name",
      "outputs": [
        {
          "name": "",
          "type": "string"
        }
      ],
      "payable": false,
      "stateMutability": "view",
      "type": "function"
    },
    {
      "constant": false,
      "inputs": [
        {
          "name": "spender",
          "type": "address"
        },
        {
          "name": "value",
          "type": "uint256"
        }
      ],
      "name": "approve",
      "outputs": [
        {
          "name": "",
          "type": "bool"
        }
      ],
      "payable": false,
      "stateMutability": "nonpayable",
      "type": "function"
    },
    {
      "constant": false,
      "inputs": [
        {
          "name": "partition",
          "type": "bytes32"
        },
        {
          "name": "operator",
          "type": "address"
        }
      ],
      "name": "authorizeOperatorByPartition",
      "outputs": [],
      "payable": false,
      "stateMutability": "nonpayable",
      "type": "function"
    },
    {
      "constant": false,
      "inputs": [
        {
          "name": "partition",
          "type": "bytes32"
        },
        {
          "name": "spender",
          "type": "address"
        },
        {
          "name": "value",
          "type": "uint256"
        }
      ],
      "name": "approveByPartition",
      "outputs": [
        {
          "name": "",
          "type": "bool"
        }
      ],
      "payable": false,
      "stateMutability": "nonpayable",
      "type": "function"
    },
    {
      "constant": false,
      "inputs": [
        {
          "name": "partition",
          "type": "bytes32"
        },
        {
          "name": "operator",
          "type": "address"
        }
      ],
      "name": "revokeOperatorByPartition",
      "outputs": [],
      "payable": false,
      "stateMutability": "nonpayable",
      "type": "function"
    },
    {
      "constant": false,
      "inputs": [
        {
          "name": "partition",
          "type": "bytes32"
        },
        {
          "name": "operators",
          "type": "address[]"
        }
      ],
      "name": "setPartitionControllers",
      "outputs": [],
      "payable": false,
      "stateMutability": "nonpayable",
      "type": "function"
    },
    {
      "constant": true,
      "inputs": [
        {
          "name": "partition",
          "type": "bytes32"
        },
        {
          "name": "owner",
          "type": "address"
        },
        {
          "name": "spender",
          "type": "address"
        }
      ],
      "name": "allowanceByPartition",
      "outputs": [
        {
          "name": "",
          "type": "uint256"
        }
      ],
      "payable": false,
      "stateMutability": "view",
      "type": "function"
    },
    {
      "constant": true,
      "inputs": [],
      "name": "totalSupply",
      "outputs": [
        {
          "name": "",
          "type": "uint256"
        }
      ],
      "payable": false,
      "stateMutability": "view",
      "type": "function"
    },
    {
      "constant": false,
      "inputs": [
        {
          "name": "from",
          "type": "address"
        },
        {
          "name": "to",
          "type": "address"
        },
        {
          "name": "value",
          "type": "uint256"
        }
      ],
      "name": "transferFrom",
      "outputs": [
        {
          "name": "",
          "type": "bool"
        }
      ],
      "payable": false,
      "stateMutability": "nonpayable",
      "type": "function"
    },
    {
      "constant": true,
      "inputs": [
        {
          "name": "interfaceHash",
          "type": "bytes32"
        },
        {
          "name": "",
          "type": "address"
        }
      ],
      "name": "canImplementInterfaceForAddress",
      "outputs": [
        {
          "name": "",
          "type": "bytes32"
        }
      ],
      "payable": false,
      "stateMutability": "view",
      "type": "function"
    },
    {
      "constant": false,
      "inputs": [
        {
          "name": "to",
          "type": "address"
        },
        {
          "name": "value",
          "type": "uint256"
        },
        {
          "name": "data",
          "type": "bytes"
        }
      ],
      "name": "transferWithData",
      "outputs": [],
      "payable": false,
      "stateMutability": "nonpayable",
      "type": "function"
    },
    {
      "constant": true,
      "inputs": [],
      "name": "isIssuable",
      "outputs": [
        {
          "name": "",
          "type": "bool"
        }
      ],
      "payable": false,
      "stateMutability": "view",
      "type": "function"
    },
    {
      "constant": false,
      "inputs": [
        {
          "name": "account",
          "type": "address"
        }
      ],
      "name": "removeMinter",
      "outputs": [],
      "payable": false,
      "stateMutability": "nonpayable",
      "type": "function"
    },
    {
      "constant": true,
      "inputs": [
        {
          "name": "partition",
          "type": "bytes32"
        },
        {
          "name": "tokenHolder",
          "type": "address"
        }
      ],
      "name": "balanceOfByPartition",
      "outputs": [
        {
          "name": "",
          "type": "uint256"
        }
      ],
      "payable": false,
      "stateMutability": "view",
      "type": "function"
    },
    {
      "constant": true,
      "inputs": [],
      "name": "decimals",
      "outputs": [
        {
          "name": "",
          "type": "uint8"
        }
      ],
      "payable": false,
      "stateMutability": "pure",
      "type": "function"
    },
    {
      "constant": true,
      "inputs": [],
      "name": "isControllable",
      "outputs": [
        {
          "name": "",
          "type": "bool"
        }
      ],
      "payable": false,
      "stateMutability": "view",
      "type": "function"
    },
    {
      "constant": true,
      "inputs": [],
      "name": "granularity",
      "outputs": [
        {
          "name": "",
          "type": "uint256"
        }
      ],
      "payable": false,
      "stateMutability": "view",
      "type": "function"
    },
    {
      "constant": false,
      "inputs": [
        {
          "name": "partition",
          "type": "bytes32"
        },
        {
          "name": "value",
          "type": "uint256"
        },
        {
          "name": "data",
          "type": "bytes"
        }
      ],
      "name": "redeemByPartition",
      "outputs": [],
      "payable": false,
      "stateMutability": "nonpayable",
      "type": "function"
    },
    {
      "constant": false,
      "inputs": [
        {
          "name": "partition",
          "type": "bytes32"
        },
        {
          "name": "tokenHolder",
          "type": "address"
        },
        {
          "name": "value",
          "type": "uint256"
        },
        {
          "name": "data",
          "type": "bytes"
        }
      ],
      "name": "issueByPartition",
      "outputs": [],
      "payable": false,
      "stateMutability": "nonpayable",
      "type": "function"
    },
    {
      "constant": true,
      "inputs": [],
      "name": "totalPartitions",
      "outputs": [
        {
          "name": "",
          "type": "bytes32[]"
        }
      ],
      "payable": false,
      "stateMutability": "view",
      "type": "function"
    },
    {
      "constant": false,
      "inputs": [],
      "name": "renounceIssuance",
      "outputs": [],
      "payable": false,
      "stateMutability": "nonpayable",
      "type": "function"
    },
    {
      "constant": true,
      "inputs": [
        {
          "name": "partition",
          "type": "bytes32"
        },
        {
          "name": "operator",
          "type": "address"
        },
        {
          "name": "tokenHolder",
          "type": "address"
        }
      ],
      "name": "isOperatorForPartition",
      "outputs": [
        {
          "name": "",
          "type": "bool"
        }
      ],
      "payable": false,
      "stateMutability": "view",
      "type": "function"
    },
    {
      "constant": true,
      "inputs": [
        {
          "name": "tokenHolder",
          "type": "address"
        }
      ],
      "name": "balanceOf",
      "outputs": [
        {
          "name": "",
          "type": "uint256"
        }
      ],
      "payable": false,
      "stateMutability": "view",
      "type": "function"
    },
    {
      "constant": false,
      "inputs": [],
      "name": "renounceOwnership",
      "outputs": [],
      "payable": false,
      "stateMutability": "nonpayable",
      "type": "function"
    },
    {
      "constant": true,
      "inputs": [
        {
          "name": "tokenHolder",
          "type": "address"
        }
      ],
      "name": "partitionsOf",
      "outputs": [
        {
          "name": "",
          "type": "bytes32[]"
        }
      ],
      "payable": false,
      "stateMutability": "view",
      "type": "function"
    },
    {
      "constant": true,
      "inputs": [],
      "name": "controllers",
      "outputs": [
        {
          "name": "",
          "type": "address[]"
        }
      ],
      "payable": false,
      "stateMutability": "view",
      "type": "function"
    },
    {
      "constant": true,
      "inputs": [
        {
          "name": "partition",
          "type": "bytes32"
        }
      ],
      "name": "controllersByPartition",
      "outputs": [
        {
          "name": "",
          "type": "address[]"
        }
      ],
      "payable": false,
      "stateMutability": "view",
      "type": "function"
    },
    {
      "constant": false,
      "inputs": [
        {
          "name": "partition",
          "type": "bytes32"
        },
        {
          "name": "from",
          "type": "address"
        },
        {
          "name": "to",
          "type": "address"
        },
        {
          "name": "value",
          "type": "uint256"
        },
        {
          "name": "data",
          "type": "bytes"
        },
        {
          "name": "operatorData",
          "type": "bytes"
        }
      ],
      "name": "operatorTransferByPartition",
      "outputs": [
        {
          "name": "",
          "type": "bytes32"
        }
      ],
      "payable": false,
      "stateMutability": "nonpayable",
      "type": "function"
    },
    {
      "constant": true,
      "inputs": [],
      "name": "owner",
      "outputs": [
        {
          "name": "",
          "type": "address"
        }
      ],
      "payable": false,
      "stateMutability": "view",
      "type": "function"
    },
    {
      "constant": true,
      "inputs": [],
      "name": "isOwner",
      "outputs": [
        {
          "name": "",
          "type": "bool"
        }
      ],
      "payable": false,
      "stateMutability": "view",
      "type": "function"
    },
    {
      "constant": false,
      "inputs": [
        {
          "name": "newContractAddress",
          "type": "address"
        },
        {
          "name": "definitive",
          "type": "bool"
        }
      ],
      "name": "migrate",
      "outputs": [],
      "payable": false,
      "stateMutability": "nonpayable",
      "type": "function"
    },
    {
      "constant": false,
      "inputs": [
        {
          "name": "operator",
          "type": "address"
        }
      ],
      "name": "authorizeOperator",
      "outputs": [],
      "payable": false,
      "stateMutability": "nonpayable",
      "type": "function"
    },
    {
      "constant": true,
      "inputs": [],
      "name": "symbol",
      "outputs": [
        {
          "name": "",
          "type": "string"
        }
      ],
      "payable": false,
      "stateMutability": "view",
      "type": "function"
    },
    {
      "constant": false,
      "inputs": [
        {
          "name": "from",
          "type": "address"
        },
        {
          "name": "value",
          "type": "uint256"
        },
        {
          "name": "data",
          "type": "bytes"
        }
      ],
      "name": "redeemFrom",
      "outputs": [],
      "payable": false,
      "stateMutability": "nonpayable",
      "type": "function"
    },
    {
      "constant": false,
      "inputs": [
        {
          "name": "account",
          "type": "address"
        }
      ],
      "name": "addMinter",
      "outputs": [],
      "payable": false,
      "stateMutability": "nonpayable",
      "type": "function"
    },
    {
      "constant": false,
      "inputs": [],
      "name": "renounceMinter",
      "outputs": [],
      "payable": false,
      "stateMutability": "nonpayable",
      "type": "function"
    },
    {
      "constant": false,
      "inputs": [
        {
          "name": "partition",
          "type": "bytes32"
        },
        {
          "name": "tokenHolder",
          "type": "address"
        },
        {
          "name": "value",
          "type": "uint256"
        },
        {
          "name": "operatorData",
          "type": "bytes"
        }
      ],
      "name": "operatorRedeemByPartition",
      "outputs": [],
      "payable": false,
      "stateMutability": "nonpayable",
      "type": "function"
    },
    {
      "constant": true,
      "inputs": [
        {
          "name": "partition",
          "type": "bytes32"
        }
      ],
      "name": "totalSupplyByPartition",
      "outputs": [
        {
          "name": "",
          "type": "uint256"
        }
      ],
      "payable": false,
      "stateMutability": "view",
      "type": "function"
    },
    {
      "constant": false,
      "inputs": [
        {
          "name": "extension",
          "type": "address"
        },
        {
          "name": "interfaceLabel",
          "type": "string"
        },
        {
          "name": "removeOldExtensionRoles",
          "type": "bool"
        },
        {
          "name": "addMinterRoleForExtension",
          "type": "bool"
        },
        {
          "name": "addControllerRoleForExtension",
          "type": "bool"
        }
      ],
      "name": "setTokenExtension",
      "outputs": [],
      "payable": false,
      "stateMutability": "nonpayable",
      "type": "function"
    },
    {
      "constant": false,
      "inputs": [
        {
          "name": "to",
          "type": "address"
        },
        {
          "name": "value",
          "type": "uint256"
        }
      ],
      "name": "transfer",
      "outputs": [
        {
          "name": "",
          "type": "bool"
        }
      ],
      "payable": false,
      "stateMutability": "nonpayable",
      "type": "function"
    },
    {
      "constant": true,
      "inputs": [
        {
          "name": "account",
          "type": "address"
        }
      ],
      "name": "isMinter",
      "outputs": [
        {
          "name": "",
          "type": "bool"
        }
      ],
      "payable": false,
      "stateMutability": "view",
      "type": "function"
    },
    {
      "constant": true,
      "inputs": [
        {
          "name": "name",
          "type": "bytes32"
        }
      ],
      "name": "getDocument",
      "outputs": [
        {
          "name": "",
          "type": "string"
        },
        {
          "name": "",
          "type": "bytes32"
        }
      ],
      "payable": false,
      "stateMutability": "view",
      "type": "function"
    },
    {
      "constant": true,
      "inputs": [
        {
          "name": "operator",
          "type": "address"
        },
        {
          "name": "tokenHolder",
          "type": "address"
        }
      ],
      "name": "isOperator",
      "outputs": [
        {
          "name": "",
          "type": "bool"
        }
      ],
      "payable": false,
      "stateMutability": "view",
      "type": "function"
    },
    {
      "constant": false,
      "inputs": [
        {
          "name": "tokenHolder",
          "type": "address"
        },
        {
          "name": "value",
          "type": "uint256"
        },
        {
          "name": "data",
          "type": "bytes"
        }
      ],
      "name": "issue",
      "outputs": [],
      "payable": false,
      "stateMutability": "nonpayable",
      "type": "function"
    },
    {
      "constant": true,
      "inputs": [],
      "name": "getDefaultPartitions",
      "outputs": [
        {
          "name": "",
          "type": "bytes32[]"
        }
      ],
      "payable": false,
      "stateMutability": "view",
      "type": "function"
    },
    {
      "constant": false,
      "inputs": [],
      "name": "renounceControl",
      "outputs": [],
      "payable": false,
      "stateMutability": "nonpayable",
      "type": "function"
    },
    {
      "constant": true,
      "inputs": [
        {
          "name": "owner",
          "type": "address"
        },
        {
          "name": "spender",
          "type": "address"
        }
      ],
      "name": "allowance",
      "outputs": [
        {
          "name": "",
          "type": "uint256"
        }
      ],
      "payable": false,
      "stateMutability": "view",
      "type": "function"
    },
    {
      "constant": false,
      "inputs": [
        {
          "name": "value",
          "type": "uint256"
        },
        {
          "name": "data",
          "type": "bytes"
        }
      ],
      "name": "redeem",
      "outputs": [],
      "payable": false,
      "stateMutability": "nonpayable",
      "type": "function"
    },
    {
      "constant": false,
      "inputs": [
        {
          "name": "operators",
          "type": "address[]"
        }
      ],
      "name": "setControllers",
      "outputs": [],
      "payable": false,
      "stateMutability": "nonpayable",
      "type": "function"
    },
    {
      "constant": false,
      "inputs": [
        {
          "name": "partitions",
          "type": "bytes32[]"
        }
      ],
      "name": "setDefaultPartitions",
      "outputs": [],
      "payable": false,
      "stateMutability": "nonpayable",
      "type": "function"
    },
    {
      "constant": false,
      "inputs": [
        {
          "name": "from",
          "type": "address"
        },
        {
          "name": "to",
          "type": "address"
        },
        {
          "name": "value",
          "type": "uint256"
        },
        {
          "name": "data",
          "type": "bytes"
        }
      ],
      "name": "transferFromWithData",
      "outputs": [],
      "payable": false,
      "stateMutability": "nonpayable",
      "type": "function"
    },
    {
      "constant": false,
      "inputs": [
        {
          "name": "newOwner",
          "type": "address"
        }
      ],
      "name": "transferOwnership",
      "outputs": [],
      "payable": false,
      "stateMutability": "nonpayable",
      "type": "function"
    },
    {
      "constant": false,
      "inputs": [
        {
          "name": "partition",
          "type": "bytes32"
        },
        {
          "name": "to",
          "type": "address"
        },
        {
          "name": "value",
          "type": "uint256"
        },
        {
          "name": "data",
          "type": "bytes"
        }
      ],
      "name": "transferByPartition",
      "outputs": [
        {
          "name": "",
          "type": "bytes32"
        }
      ],
      "payable": false,
      "stateMutability": "nonpayable",
      "type": "function"
    },
    {
      "constant": false,
      "inputs": [
        {
          "name": "operator",
          "type": "address"
        }
      ],
      "name": "revokeOperator",
      "outputs": [],
      "payable": false,
      "stateMutability": "nonpayable",
      "type": "function"
    },
    {
      "inputs": [
        {
          "name": "name",
          "type": "string"
        },
        {
          "name": "symbol",
          "type": "string"
        },
        {
          "name": "granularity",
          "type": "uint256"
        },
        {
          "name": "controllers",
          "type": "address[]"
        },
        {
          "name": "defaultPartitions",
          "type": "bytes32[]"
        },
        {
          "name": "extension",
          "type": "address"
        },
        {
          "name": "newOwner",
          "type": "address"
        },
        {
          "name": "certificateSigner",
          "type": "address"
        },
        {
          "name": "certificateActivated",
          "type": "uint8"
        }
      ],
      "payable": false,
      "stateMutability": "nonpayable",
      "type": "constructor"
    },
    {
      "anonymous": false,
      "inputs": [
        {
          "indexed": true,
          "name": "partition",
          "type": "bytes32"
        },
        {
          "indexed": true,
          "name": "owner",
          "type": "address"
        },
        {
          "indexed": true,
          "name": "spender",
          "type": "address"
        },
        {
          "indexed": false,
          "name": "value",
          "type": "uint256"
        }
      ],
      "name": "ApprovalByPartition",
      "type": "event"
    },
    {
      "anonymous": false,
      "inputs": [
        {
          "indexed": true,
          "name": "account",
          "type": "address"
        }
      ],
      "name": "MinterAdded",
      "type": "event"
    },
    {
      "anonymous": false,
      "inputs": [
        {
          "indexed": true,
          "name": "account",
          "type": "address"
        }
      ],
      "name": "MinterRemoved",
      "type": "event"
    },
    {
      "anonymous": false,
      "inputs": [
        {
          "indexed": true,
          "name": "previousOwner",
          "type": "address"
        },
        {
          "indexed": true,
          "name": "newOwner",
          "type": "address"
        }
      ],
      "name": "OwnershipTransferred",
      "type": "event"
    },
    {
      "anonymous": false,
      "inputs": [
        {
          "indexed": true,
          "name": "name",
          "type": "bytes32"
        },
        {
          "indexed": false,
          "name": "uri",
          "type": "string"
        },
        {
          "indexed": false,
          "name": "documentHash",
          "type": "bytes32"
        }
      ],
      "name": "Document",
      "type": "event"
    },
    {
      "anonymous": false,
      "inputs": [
        {
          "indexed": true,
          "name": "fromPartition",
          "type": "bytes32"
        },
        {
          "indexed": false,
          "name": "operator",
          "type": "address"
        },
        {
          "indexed": true,
          "name": "from",
          "type": "address"
        },
        {
          "indexed": true,
          "name": "to",
          "type": "address"
        },
        {
          "indexed": false,
          "name": "value",
          "type": "uint256"
        },
        {
          "indexed": false,
          "name": "data",
          "type": "bytes"
        },
        {
          "indexed": false,
          "name": "operatorData",
          "type": "bytes"
        }
      ],
      "name": "TransferByPartition",
      "type": "event"
    },
    {
      "anonymous": false,
      "inputs": [
        {
          "indexed": true,
          "name": "fromPartition",
          "type": "bytes32"
        },
        {
          "indexed": true,
          "name": "toPartition",
          "type": "bytes32"
        },
        {
          "indexed": false,
          "name": "value",
          "type": "uint256"
        }
      ],
      "name": "ChangedPartition",
      "type": "event"
    },
    {
      "anonymous": false,
      "inputs": [
        {
          "indexed": true,
          "name": "operator",
          "type": "address"
        },
        {
          "indexed": true,
          "name": "tokenHolder",
          "type": "address"
        }
      ],
      "name": "AuthorizedOperator",
      "type": "event"
    },
    {
      "anonymous": false,
      "inputs": [
        {
          "indexed": true,
          "name": "operator",
          "type": "address"
        },
        {
          "indexed": true,
          "name": "tokenHolder",
          "type": "address"
        }
      ],
      "name": "RevokedOperator",
      "type": "event"
    },
    {
      "anonymous": false,
      "inputs": [
        {
          "indexed": true,
          "name": "partition",
          "type": "bytes32"
        },
        {
          "indexed": true,
          "name": "operator",
          "type": "address"
        },
        {
          "indexed": true,
          "name": "tokenHolder",
          "type": "address"
        }
      ],
      "name": "AuthorizedOperatorByPartition",
      "type": "event"
    },
    {
      "anonymous": false,
      "inputs": [
        {
          "indexed": true,
          "name": "partition",
          "type": "bytes32"
        },
        {
          "indexed": true,
          "name": "operator",
          "type": "address"
        },
        {
          "indexed": true,
          "name": "tokenHolder",
          "type": "address"
        }
      ],
      "name": "RevokedOperatorByPartition",
      "type": "event"
    },
    {
      "anonymous": false,
      "inputs": [
        {
          "indexed": true,
          "name": "operator",
          "type": "address"
        },
        {
          "indexed": true,
          "name": "to",
          "type": "address"
        },
        {
          "indexed": false,
          "name": "value",
          "type": "uint256"
        },
        {
          "indexed": false,
          "name": "data",
          "type": "bytes"
        }
      ],
      "name": "Issued",
      "type": "event"
    },
    {
      "anonymous": false,
      "inputs": [
        {
          "indexed": true,
          "name": "operator",
          "type": "address"
        },
        {
          "indexed": true,
          "name": "from",
          "type": "address"
        },
        {
          "indexed": false,
          "name": "value",
          "type": "uint256"
        },
        {
          "indexed": false,
          "name": "data",
          "type": "bytes"
        }
      ],
      "name": "Redeemed",
      "type": "event"
    },
    {
      "anonymous": false,
      "inputs": [
        {
          "indexed": true,
          "name": "partition",
          "type": "bytes32"
        },
        {
          "indexed": true,
          "name": "operator",
          "type": "address"
        },
        {
          "indexed": true,
          "name": "to",
          "type": "address"
        },
        {
          "indexed": false,
          "name": "value",
          "type": "uint256"
        },
        {
          "indexed": false,
          "name": "data",
          "type": "bytes"
        },
        {
          "indexed": false,
          "name": "operatorData",
          "type": "bytes"
        }
      ],
      "name": "IssuedByPartition",
      "type": "event"
    },
    {
      "anonymous": false,
      "inputs": [
        {
          "indexed": true,
          "name": "partition",
          "type": "bytes32"
        },
        {
          "indexed": true,
          "name": "operator",
          "type": "address"
        },
        {
          "indexed": true,
          "name": "from",
          "type": "address"
        },
        {
          "indexed": false,
          "name": "value",
          "type": "uint256"
        },
        {
          "indexed": false,
          "name": "operatorData",
          "type": "bytes"
        }
      ],
      "name": "RedeemedByPartition",
      "type": "event"
    },
    {
      "anonymous": false,
      "inputs": [
        {
          "indexed": true,
          "name": "from",
          "type": "address"
        },
        {
          "indexed": true,
          "name": "to",
          "type": "address"
        },
        {
          "indexed": false,
          "name": "value",
          "type": "uint256"
        }
      ],
      "name": "Transfer",
      "type": "event"
    },
    {
      "anonymous": false,
      "inputs": [
        {
          "indexed": true,
          "name": "owner",
          "type": "address"
        },
        {
          "indexed": true,
          "name": "spender",
          "type": "address"
        },
        {
          "indexed": false,
          "name": "value",
          "type": "uint256"
        }
      ],
      "name": "Approval",
      "type": "event"
    },
    {
      "constant": true,
      "inputs": [
        {
          "name": "partition",
          "type": "bytes32"
        },
        {
          "name": "to",
          "type": "address"
        },
        {
          "name": "value",
          "type": "uint256"
        },
        {
          "name": "data",
          "type": "bytes"
        }
      ],
      "name": "canTransferByPartition",
      "outputs": [
        {
          "name": "",
          "type": "bytes1"
        },
        {
          "name": "",
          "type": "bytes32"
        },
        {
          "name": "",
          "type": "bytes32"
        }
      ],
      "payable": false,
      "stateMutability": "view",
      "type": "function"
    },
    {
      "constant": true,
      "inputs": [
        {
          "name": "partition",
          "type": "bytes32"
        },
        {
          "name": "from",
          "type": "address"
        },
        {
          "name": "to",
          "type": "address"
        },
        {
          "name": "value",
          "type": "uint256"
        },
        {
          "name": "data",
          "type": "bytes"
        },
        {
          "name": "operatorData",
          "type": "bytes"
        }
      ],
      "name": "canOperatorTransferByPartition",
      "outputs": [
        {
          "name": "",
          "type": "bytes1"
        },
        {
          "name": "",
          "type": "bytes32"
        },
        {
          "name": "",
          "type": "bytes32"
        }
      ],
      "payable": false,
      "stateMutability": "view",
      "type": "function"
    }
  ],
  "bytecode": "0x60806040523480156200001157600080fd5b50604051620059293803806200592983398181016040526101208110156200003857600080fd5b8101908080516401000000008111156200005157600080fd5b820160208101848111156200006557600080fd5b81516401000000008111828201871017156200008057600080fd5b505092919060200180516401000000008111156200009d57600080fd5b82016020810184811115620000b157600080fd5b8151640100000000811182820187101715620000cc57600080fd5b50506020820151604090920180519194929391640100000000811115620000f257600080fd5b820160208101848111156200010657600080fd5b81518560208202830111640100000000821117156200012457600080fd5b505092919060200180516401000000008111156200014157600080fd5b820160208101848111156200015557600080fd5b81518560208202830111640100000000821117156200017357600080fd5b505060208201516040808401516060850151608090950151600080546001600160a01b0319163317808255935195985093965090949390928b928b928b928b928b926001600160a01b0391909116919060008051602062005909833981519152908290a3620001eb336001600160e01b03620005d416565b84516200020090600390602088019062000c87565b5083516200021690600490602087019062000c87565b50600060065560018310156200022b57600080fd5b600583905562000244826001600160e01b036200062616565b80516200025990601190602084019062000d0c565b506007805462ff00001961ff001990911661010017166201000017905560408051808201909152600c81527f45524331343030546f6b656e0000000000000000000000000000000000000000602080830191909152620002c591903090620046bb620006fb821b17901c565b620003116040518060400160405280600a81526020017f4552433230546f6b656e0000000000000000000000000000000000000000000081525030620006fb60201b620046bb1760201c565b6200035c6040518060400160405280600c81526020017f45524331343030546f6b656e00000000000000000000000000000000000000008152506200080b60201b620049f31760201c565b620003a76040518060400160405280600a81526020017f4552433230546f6b656e000000000000000000000000000000000000000000008152506200080b60201b620049f31760201c565b505050506001600160a01b038516159050620005a157836001600160a01b031663118fa5db30836001806001808d6040518863ffffffff1660e01b815260040180886001600160a01b03166001600160a01b031681526020018760028111156200040d57fe5b60ff1681526020018615151515815260200185151515158152602001841515151581526020018315151515815260200180602001828103825283818151815260200191508051906020019060200280838360005b838110156200047b57818101518382015260200162000461565b5050505090500198505050505050505050600060405180830381600087803b158015620004a757600080fd5b505af1158015620004bc573d6000803e3d6000fd5b505050506001600160a01b038216156200055557604080517fc69664bb0000000000000000000000000000000000000000000000000000000081523060048201526001600160a01b03848116602483015291519186169163c69664bb9160448082019260009290919082900301818387803b1580156200053b57600080fd5b505af115801562000550573d6000803e3d6000fd5b505050505b620005a1846040518060400160405280601681526020017f45524331343030546f6b656e7356616c696461746f72000000000000000000008152506001806001620008a860201b60201c565b6001600160a01b03831615620005c557620005c5836001600160e01b03620009af16565b50505050505050505062000df6565b620005ef81600262000a0d60201b620047a51790919060201c565b6040516001600160a01b038216907f6ae172837ea30b801fbfcdd4108aa1d5bf8ff775444fd70256b44e6bf3dfc3f690600090a250565b60005b6013548110156200068557600060146000601384815481106200064857fe5b6000918252602080832091909101546001600160a01b031683528201929092526040019020805460ff191691151591909117905560010162000629565b5060005b8151811015620006e157600160146000848481518110620006a657fe5b6020908102919091018101516001600160a01b03168252810191909152604001600020805460ff191691151591909117905560010162000689565b508051620006f790601390602084019062000d49565b5050565b6000826040516020018082805190602001908083835b60208310620007325780518252601f19909201916020918201910162000711565b51815160209384036101000a60001901801990921691161790526040805192909401828103601f19018352808552825192909101919091207f29965a1d000000000000000000000000000000000000000000000000000000008252306004830152602482018190526001600160a01b03881660448301529251929550731820a4b7618bde71dce8cdc73aab6c95905fad2494506329965a1d9350606480820193600093509182900301818387803b158015620007ed57600080fd5b505af115801562000802573d6000803e3d6000fd5b50505050505050565b6001806000836040516020018082805190602001908083835b60208310620008455780518252601f19909201916020918201910162000824565b6001836020036101000a03801982511681845116808217855250505050505090500191505060405160208183030381529060405280519060200120815260200190815260200160002060006101000a81548160ff02191690831515021790555050565b6000620008bf30866001600160e01b0362000a6616565b90506001600160a01b03811615801590620008d75750835b156200092c57620008f1816001600160e01b0362000b8716565b156200090b576200090b816001600160e01b0362000baa16565b6001600160a01b0381166000908152601460205260409020805460ff191690555b620009438587620006fb60201b620046bb1760201c565b82801562000962575062000960866001600160e01b0362000b8716565b155b156200097c576200097c866001600160e01b03620005d416565b8115620009a7576001600160a01b0386166000908152601460205260409020805460ff191660011790555b505050505050565b6001600160a01b038116620009c357600080fd5b600080546040516001600160a01b03808516939216916000805160206200590983398151915291a3600080546001600160a01b0319166001600160a01b0392909216919091179055565b6001600160a01b03811662000a2157600080fd5b62000a3682826001600160e01b0362000bfc16565b1562000a4157600080fd5b6001600160a01b0316600090815260209190915260409020805460ff19166001179055565b600080826040516020018082805190602001908083835b6020831062000a9e5780518252601f19909201916020918201910162000a7d565b51815160209384036101000a60001901801990921691161790526040805192909401828103601f190183528085528251928201929092207faabbb8ca0000000000000000000000000000000000000000000000000000000083526001600160a01b038b166004840152602483018190529351939650731820a4b7618bde71dce8cdc73aab6c95905fad24955063aabbb8ca94506044808301949193509091829003018186803b15801562000b5157600080fd5b505afa15801562000b66573d6000803e3d6000fd5b505050506040513d602081101562000b7d57600080fd5b5051949350505050565b600062000ba482600262000bfc60201b6200356c1790919060201c565b92915050565b62000bc581600262000c3260201b620036c61790919060201c565b6040516001600160a01b038216907fe94479a9f7e1952cc78f2d6baab678adc1b772d936c6583def489e524cb6669290600090a250565b60006001600160a01b03821662000c1257600080fd5b506001600160a01b03166000908152602091909152604090205460ff1690565b6001600160a01b03811662000c4657600080fd5b62000c5b82826001600160e01b0362000bfc16565b62000c6557600080fd5b6001600160a01b0316600090815260209190915260409020805460ff19169055565b828054600181600116156101000203166002900490600052602060002090601f016020900481019282601f1062000cca57805160ff191683800117855562000cfa565b8280016001018555821562000cfa579182015b8281111562000cfa57825182559160200191906001019062000cdd565b5062000d0892915062000daf565b5090565b82805482825590600052602060002090810192821562000cfa579160200282018281111562000cfa57825182559160200191906001019062000cdd565b82805482825590600052602060002090810192821562000da1579160200282015b8281111562000da157825182546001600160a01b0319166001600160a01b0390911617825560209092019160019091019062000d6a565b5062000d0892915062000dcf565b62000dcc91905b8082111562000d08576000815560010162000db6565b90565b62000dcc91905b8082111562000d085780546001600160a01b031916815560010162000dd6565b614b038062000e066000396000f3fe608060405234801561001057600080fd5b50600436106102935760003560e01c8063010648ca1461029857806306fdde031461030f578063095ea7b31461038c578063103ef9e1146103cc57806314d1e62f146103f8578063168ecec51461042a57806316e1aed41461045657806317ec83ca146104cb57806318160ddd1461051157806323b872dd14610519578063249cb3fa1461054f5780632535f7621461057b5780632f1cae85146105fe5780633092afd51461060657806330e828031461062c578063313ce567146106585780634c783bf514610676578063556f0dc71461067e57806362eb00681461068657806367c849191461070057806369598efe1461078a5780636c23c7b0146107e25780636c30d170146108ee5780636d77cad6146108f657806370a082311461092a578063715018a614610950578063740ab8f4146109585780637cc0c3a71461097e578063861ed3ea146109865780638c0dee9c146109a35780638da5cb5b14610a865780638f32d59b14610aaa5780639212712614610ab2578063933964c714610b3c578063959b8c3f14610b6a57806395d89b4114610b905780639675193c14610b98578063983b2d5614610c1b5780639865027514610c4157806398ddcec714610c49578063a26734dc14610cd3578063a6f4f10514610cf0578063a9059cbb14610d80578063aa271e1a14610dac578063b10d6b4114610dd2578063b6363cf214610e6e578063bb3acde914610e9c578063bcfdc0cf14610f1f578063ca281fd914610f27578063dd62ed3e14610f2f578063e77c646d14610f5d578063ea74838a14610fd2578063ec9a6e8714611040578063ee532f31146110ae578063f2fde38b1461113c578063f3d490db14611162578063fad8b32a146111ec575b600080fd5b61030d600480360360608110156102ae57600080fd5b81359190810190604081016020820135600160201b8111156102cf57600080fd5b8201836020820111156102e157600080fd5b803590602001918460018302840111600160201b8311171561030257600080fd5b919350915035611212565b005b610317611310565b6040805160208082528351818301528351919283929083019185019080838360005b83811015610351578181015183820152602001610339565b50505050905090810190601f16801561037e5780820380516001836020036101000a031916815260200191505b509250505060405180910390f35b6103b8600480360360408110156103a257600080fd5b506001600160a01b0381351690602001356113a7565b604080519115158252519081900360200190f35b61030d600480360360408110156103e257600080fd5b50803590602001356001600160a01b0316611451565b6103b86004803603606081101561040e57600080fd5b508035906001600160a01b0360208201351690604001356114b5565b61030d6004803603604081101561044057600080fd5b50803590602001356001600160a01b0316611569565b61030d6004803603604081101561046c57600080fd5b81359190810190604081016020820135600160201b81111561048d57600080fd5b82018360208201111561049f57600080fd5b803590602001918460208302840111600160201b831117156104c057600080fd5b5090925090506115ca565b6104ff600480360360608110156104e157600080fd5b508035906001600160a01b036020820135811691604001351661161d565b60408051918252519081900360200190f35b6104ff61164d565b6103b86004803603606081101561052f57600080fd5b506001600160a01b03813581169160208101359091169060400135611653565b6104ff6004803603604081101561056557600080fd5b50803590602001356001600160a01b0316611795565b61030d6004803603606081101561059157600080fd5b6001600160a01b0382351691602081013591810190606081016040820135600160201b8111156105c057600080fd5b8201836020820111156105d257600080fd5b803590602001918460018302840111600160201b831117156105f357600080fd5b5090925090506117f9565b6103b8611842565b61030d6004803603602081101561061c57600080fd5b50356001600160a01b0316611851565b6104ff6004803603604081101561064257600080fd5b50803590602001356001600160a01b031661187d565b6106606118a2565b6040805160ff9092168252519081900360200190f35b6103b86118a7565b6104ff6118b5565b61030d6004803603606081101561069c57600080fd5b813591602081013591810190606081016040820135600160201b8111156106c257600080fd5b8201836020820111156106d457600080fd5b803590602001918460018302840111600160201b831117156106f557600080fd5b5090925090506118bb565b61030d6004803603608081101561071657600080fd5b8135916001600160a01b036020820135169160408201359190810190608081016060820135600160201b81111561074c57600080fd5b82018360208201111561075e57600080fd5b803590602001918460018302840111600160201b8311171561077f57600080fd5b50909250905061190c565b6107926119b8565b60408051602080825283518183015283519192839290830191858101910280838360005b838110156107ce5781810151838201526020016107b6565b505050509050019250505060405180910390f35b6108c5600480360360c08110156107f857600080fd5b8135916001600160a01b03602082013581169260408301359091169160608101359181019060a081016080820135600160201b81111561083757600080fd5b82018360208201111561084957600080fd5b803590602001918460018302840111600160201b8311171561086a57600080fd5b919390929091602081019035600160201b81111561088757600080fd5b82018360208201111561089957600080fd5b803590602001918460018302840111600160201b831117156108ba57600080fd5b509092509050611a0f565b604080516001600160f81b03199094168452602084019290925282820152519081900360600190f35b61030d611afa565b6103b86004803603606081101561090c57600080fd5b508035906001600160a01b0360208201358116916040013516611b19565b6104ff6004803603602081101561094057600080fd5b50356001600160a01b0316611b2e565b61030d611b49565b6107926004803603602081101561096e57600080fd5b50356001600160a01b0316611b92565b610792611bfe565b6107926004803603602081101561099c57600080fd5b5035611c5f565b6104ff600480360360c08110156109b957600080fd5b8135916001600160a01b03602082013581169260408301359091169160608101359181019060a081016080820135600160201b8111156109f857600080fd5b820183602082011115610a0a57600080fd5b803590602001918460018302840111600160201b83111715610a2b57600080fd5b919390929091602081019035600160201b811115610a4857600080fd5b820183602082011115610a5a57600080fd5b803590602001918460018302840111600160201b83111715610a7b57600080fd5b509092509050611cca565b610a8e611e8f565b604080516001600160a01b039092168252519081900360200190f35b6103b8611e9e565b6108c560048036036080811015610ac857600080fd5b8135916001600160a01b036020820135169160408201359190810190608081016060820135600160201b811115610afe57600080fd5b820183602082011115610b1057600080fd5b803590602001918460018302840111600160201b83111715610b3157600080fd5b509092509050611eaf565b61030d60048036036040811015610b5257600080fd5b506001600160a01b0381351690602001351515611f5f565b61030d60048036036020811015610b8057600080fd5b50356001600160a01b0316611f7e565b610317611fed565b61030d60048036036060811015610bae57600080fd5b6001600160a01b0382351691602081013591810190606081016040820135600160201b811115610bdd57600080fd5b820183602082011115610bef57600080fd5b803590602001918460018302840111600160201b83111715610c1057600080fd5b50909250905061204e565b61030d60048036036020811015610c3157600080fd5b50356001600160a01b03166120d0565b61030d6120f9565b61030d60048036036080811015610c5f57600080fd5b8135916001600160a01b036020820135169160408201359190810190608081016060820135600160201b811115610c9557600080fd5b820183602082011115610ca757600080fd5b803590602001918460018302840111600160201b83111715610cc857600080fd5b509092509050612104565b6104ff60048036036020811015610ce957600080fd5b5035612198565b61030d600480360360a0811015610d0657600080fd5b6001600160a01b038235169190810190604081016020820135600160201b811115610d3057600080fd5b820183602082011115610d4257600080fd5b803590602001918460018302840111600160201b83111715610d6357600080fd5b9193509150803515159060208101351515906040013515156121aa565b6103b860048036036040811015610d9657600080fd5b506001600160a01b038135169060200135612208565b6103b860048036036020811015610dc257600080fd5b50356001600160a01b031661222f565b610def60048036036020811015610de857600080fd5b5035612242565b6040518080602001838152602001828103825284818151815260200191508051906020019080838360005b83811015610e32578181015183820152602001610e1a565b50505050905090810190601f168015610e5f5780820380516001836020036101000a031916815260200191505b50935050505060405180910390f35b6103b860048036036040811015610e8457600080fd5b506001600160a01b038135811691602001351661231e565b61030d60048036036060811015610eb257600080fd5b6001600160a01b0382351691602081013591810190606081016040820135600160201b811115610ee157600080fd5b820183602082011115610ef357600080fd5b803590602001918460018302840111600160201b83111715610f1457600080fd5b509092509050612331565b610792612427565b61030d61247d565b6104ff60048036036040811015610f4557600080fd5b506001600160a01b038135811691602001351661249b565b61030d60048036036040811015610f7357600080fd5b81359190810190604081016020820135600160201b811115610f9457600080fd5b820183602082011115610fa657600080fd5b803590602001918460018302840111600160201b83111715610fc757600080fd5b5090925090506124c6565b61030d60048036036020811015610fe857600080fd5b810190602081018135600160201b81111561100257600080fd5b82018360208201111561101457600080fd5b803590602001918460208302840111600160201b8311171561103557600080fd5b509092509050612508565b61030d6004803603602081101561105657600080fd5b810190602081018135600160201b81111561107057600080fd5b82018360208201111561108257600080fd5b803590602001918460208302840111600160201b831117156110a357600080fd5b509092509050612555565b61030d600480360360808110156110c457600080fd5b6001600160a01b03823581169260208101359091169160408201359190810190608081016060820135600160201b8111156110fe57600080fd5b82018360208201111561111057600080fd5b803590602001918460018302840111600160201b8311171561113157600080fd5b509092509050612572565b61030d6004803603602081101561115257600080fd5b50356001600160a01b03166125f5565b6104ff6004803603608081101561117857600080fd5b8135916001600160a01b036020820135169160408201359190810190608081016060820135600160201b8111156111ae57600080fd5b8201836020820111156111c057600080fd5b803590602001918460018302840111600160201b831117156111e157600080fd5b50909250905061260f565b61030d6004803603602081101561120257600080fd5b50356001600160a01b031661266d565b3360009081526014602052604090205460ff1661122e57600080fd5b6040805160606020601f8601819004028201810183529181018481529091829190869086908190850183828082843760009201829052509385525050506020918201849052868152600a8252604090208251805191926112939284929091019061487b565b5060208201518160010155905050837f89730c201d2df6a4cef4e892559e63e022078b0ee939d11b6ced61fb098b282484848460405180806020018381526020018281038252858582818152602001925080828437600083820152604051601f909101601f1916909201829003965090945050505050a250505050565b60038054604080516020601f600260001961010060018816150201909516949094049384018190048102820181019092528281526060939092909183018282801561139c5780601f106113715761010080835404028352916020019161139c565b820191906000526020600020905b81548152906001019060200180831161137f57829003601f168201915b505050505090505b90565b60006001600160a01b0383166113e9576040805162461bcd60e51b81526020600482015260026024820152611a9b60f11b604482015290519081900360640190fd5b3360008181526009602090815260408083206001600160a01b03881680855290835292819020869055805186815290519293927f8c5be1e5ebec7d5bd14f71427d1e84f3dd0314c0f7b2291e5b200ac8c7c3b925929181900390910190a35060015b92915050565b33600081815260166020908152604080832086845282528083206001600160a01b0386168085529252808320805460ff1916600117905551909185917f3646a897c70797ecc134b0adc32f471b07bf1d6f451133b0384badab531e3fd69190a45050565b60006001600160a01b0383166114f7576040805162461bcd60e51b81526020600482015260026024820152611a9b60f11b604482015290519081900360640190fd5b6000848152601560209081526040808320338085529083528184206001600160a01b0388168086529084529382902086905581518681529151909288927ff061499aa77c2f6f5e25e34955a06623705344a88256cc861a121ec0bce5cfec929081900390910190a45060019392505050565b33600081815260166020908152604080832086845282528083206001600160a01b0386168085529252808320805460ff1916905551909185917f3b287c4f1bab4df949b33bceacef984f544dc5d5479930d00e4ee8c9d8dd96f29190a45050565b6115d2611e9e565b6115db57600080fd5b611618838383808060200260200160405190810160405280939291908181526020018383602002808284376000920191909152506126d992505050565b505050565b60009283526015602090815260408085206001600160a01b03948516865282528085209290931684525290205490565b60065490565b600061165f33856127dc565b8061168d57506001600160a01b03841660009081526009602090815260408083203384529091529020548211155b6116c3576040805162461bcd60e51b8152602060048201526002602482015261353360f01b604482015290519081900360640190fd5b6001600160a01b0384166000908152600960209081526040808320338452909152902054821161174a576001600160a01b0384166000908152600960209081526040808320338452909152902054611721908363ffffffff61285b16565b6001600160a01b038516600090815260096020908152604080832033845290915290205561176f565b6001600160a01b03841660009081526009602090815260408083203384529091528120555b61178b3385858560405180602001604052806000815250612870565b5060019392505050565b60008281526001602052604081205460ff16156117f157604051602001808073455243313832305f4143434550545f4d4147494360601b815250601401905060405160208183030381529060405280519060200120905061144b565b50600061144b565b61183c3333868686868080601f01602080910402602001604051908101604052809392919081815260200183838082843760009201919091525061287092505050565b50505050565b60075462010000900460ff1690565b61185a3361222f565b806118685750611868611e9e565b61187157600080fd5b61187a816129cf565b50565b6001600160a01b03166000908152601060209081526040808320938352929052205490565b601290565b600754610100900460ff1690565b60055490565b61183c8433338686868080601f016020809104026020016040519081016040528093929190818152602001838380828437600092018290525060408051602081019091529081529250612a17915050565b6119153361222f565b806119235750611923611e9e565b61192c57600080fd5b60075462010000900460ff1661196e576040805162461bcd60e51b8152602060048201526002602482015261353560f01b604482015290519081900360640190fd5b6119b18533868686868080601f016020809104026020016040519081016040528093929190818152602001838380828437600092019190915250612b6992505050565b5050505050565b6060600b80548060200260200160405190810160405280929190818152602001828054801561139c57602002820191906000526020600020905b8154815260200190600101908083116119f2575050505050905090565b6000806000611ae5611a5f638c0dee9c60e01b6000368080601f016020809104026020016040519081016040528093929190818152602001838380828437600092019190915250612c8a92505050565b8c338d8d8d8d8d8080601f016020809104026020016040519081016040528093929190818152602001838380828437600081840152601f19601f820116905080830192505050505050508c8c8080601f016020809104026020016040519081016040528093929190818152602001838380828437600092019190915250612d5a92505050565b9250925092505b985098509895505050505050565b611b02611e9e565b611b0b57600080fd5b6007805462ff000019169055565b6000611b26848484612fd0565b949350505050565b6001600160a01b031660009081526008602052604090205490565b611b51611e9e565b611b5a57600080fd5b600080546040516001600160a01b0390911690600080516020614a8f833981519152908390a3600080546001600160a01b0319169055565b6001600160a01b0381166000908152600e6020908152604091829020805483518184028101840190945280845260609392830182828015611bf257602002820191906000526020600020905b815481526020019060010190808311611bde575b50505050509050919050565b6060601380548060200260200160405190810160405280929190818152602001828054801561139c57602002820191906000526020600020905b81546001600160a01b03168152600190910190602001808311611c38575050505050905090565b600081815260176020908152604091829020805483518184028101840190945280845260609392830182828015611bf257602002820191906000526020600020905b81546001600160a01b03168152600190910190602001808311611ca15750505050509050919050565b6000611cd789338a612fd0565b80611d0c575060008981526015602090815260408083206001600160a01b038c16845282528083203384529091529020548611155b611d42576040805162461bcd60e51b8152602060048201526002602482015261353360f01b604482015290519081900360640190fd5b60008981526015602090815260408083206001600160a01b038c16845282528083203384529091529020548611611dde5760008981526015602090815260408083206001600160a01b038c1684528252808320338452909152902054611dae908763ffffffff61285b16565b60008a81526015602090815260408083206001600160a01b038d1684528252808320338452909152902055611e0a565b60008981526015602090815260408083206001600160a01b038c16845282528083203384529091528120555b611e8289338a8a8a8a8a8080601f01602080910402602001604051908101604052809392919081815260200183838082843760009201919091525050604080516020601f8e018190048102820181019092528c815292508c91508b908190840183828082843760009201919091525061305992505050565b9998505050505050505050565b6000546001600160a01b031690565b6000546001600160a01b0316331490565b6000806000611f4e611eff63f3d490db60e01b6000368080601f016020809104026020016040519081016040528093929190818152602001838380828437600092019190915250612c8a92505050565b8933338b8b8b8b8080601f016020809104026020016040519081016040528093929190818152602001838380828437600092018290525060408051602081019091529081529250612d5a915050565b925092509250955095509592505050565b611f67611e9e565b611f7057600080fd5b611f7a82826132ac565b5050565b6001600160a01b038116331415611f9457600080fd5b6001600160a01b0381166000818152601260209081526040808320338085529252808320805460ff19166001179055519092917ff4caeb2d6ca8932a215a353d0703c326ec2d81fc68170f320eb2ab49e9df61f991a350565b60048054604080516020601f600260001961010060018816150201909516949094049384018190048102820181019092528281526060939092909183018282801561139c5780601f106113715761010080835404028352916020019161139c565b61205833856127dc565b61208e576040805162461bcd60e51b815260206004820152600260248201526106a760f31b604482015290519081900360640190fd5b61183c33858585858080601f01602080910402602001604051908101604052809392919081815260200183838082843760009201919091525061331d92505050565b6120d93361222f565b806120e757506120e7611e9e565b6120f057600080fd5b61187a81613468565b612102336129cf565b565b61210f853386612fd0565b612145576040805162461bcd60e51b815260206004820152600260248201526106a760f31b604482015290519081900360640190fd5b6119b1853386866040518060200160405280600081525087878080601f016020809104026020016040519081016040528093929190818152602001838380828437600092019190915250612a1792505050565b6000908152600d602052604090205490565b6121b2611e9e565b6121bb57600080fd5b6122008686868080601f0160208091040260200160405190810160405280939291908181526020018383808284376000920191909152508892508791508690506134b0565b505050505050565b60006122263333858560405180602001604052806000815250612870565b50600192915050565b600061144b60028363ffffffff61356c16565b6000818152600a6020526040812054606091906002600019610100600184161502019091160461227157600080fd5b6000838152600a602090815260409182902060018082015482548551600293821615610100026000190190911692909204601f8101859004850283018501909552848252919391929091849183018282801561230e5780601f106122e35761010080835404028352916020019161230e565b820191906000526020600020905b8154815290600101906020018083116122f157829003601f168201915b5050505050915091509150915091565b600061232a83836127dc565b9392505050565b61233a3361222f565b806123485750612348611e9e565b61235157600080fd5b60075462010000900460ff16612393576040805162461bcd60e51b8152602060048201526002602482015261353560f01b604482015290519081900360640190fd5b6011546123cc576040805162461bcd60e51b8152602060048201526002602482015261353560f01b604482015290519081900360640190fd5b61183c60116000815481106123dd57fe5b906000526020600020015433868686868080601f016020809104026020016040519081016040528093929190818152602001838380828437600092019190915250612b6992505050565b6060601180548060200260200160405190810160405280929190818152602001828054801561139c57602002820191906000526020600020908154815260200190600101908083116119f2575050505050905090565b612485611e9e565b61248e57600080fd5b6007805461ff0019169055565b6001600160a01b03918216600090815260096020908152604080832093909416825291909152205490565b61161833338585858080601f01602080910402602001604051908101604052809392919081815260200183838082843760009201919091525061331d92505050565b612510611e9e565b61251957600080fd5b611f7a8282808060200260200160405190810160405280939291908181526020018383602002808284376000920191909152506135a192505050565b61255d611e9e565b61256657600080fd5b611618601183836148f9565b61257c33866127dc565b6125b2576040805162461bcd60e51b815260206004820152600260248201526106a760f31b604482015290519081900360640190fd5b6119b13386868686868080601f01602080910402602001604051908101604052809392919081815260200183838082843760009201919091525061287092505050565b6125fd611e9e565b61260657600080fd5b61187a8161366a565b6000612663863333888888888080601f016020809104026020016040519081016040528093929190818152602001838380828437600092018290525060408051602081019091529081529250613059915050565b9695505050505050565b6001600160a01b03811633141561268357600080fd5b6001600160a01b0381166000818152601260209081526040808320338085529252808320805460ff19169055519092917f50546e66e5f44d728365dc3908c63bc5cfeeab470722c1677e3073a6ac294aa191a350565b60005b6000838152601760205260409020548110156127555760008381526018602090815260408083206017909252822080548391908590811061271957fe5b6000918252602080832091909101546001600160a01b031683528201929092526040019020805460ff19169115159190911790556001016126dc565b5060005b81518110156127bc57600083815260186020526040812083516001929085908590811061278257fe5b6020908102919091018101516001600160a01b03168252810191909152604001600020805460ff1916911515919091179055600101612759565b506000828152601760209081526040909120825161161892840190614934565b6000816001600160a01b0316836001600160a01b0316148061282357506001600160a01b0380841660009081526012602090815260408083209386168352929052205460ff165b8061232a5750600754610100900460ff16801561232a575050506001600160a01b031660009081526014602052604090205460ff1690565b60008282111561286a57600080fd5b50900390565b6011546128a9576040805162461bcd60e51b8152602060048201526002602482015261353560f01b604482015290519081900360640190fd5b816000805b60115481101561298d576001600160a01b038716600090815260106020526040812060118054919291849081106128e157fe5b90600052602060002001548152602001908152602001600020549150818311612943576129396011828154811061291457fe5b9060005260206000200154898989878960405180602001604052806000815250613059565b506000925061298d565b81156129855761297e6011828154811061295957fe5b9060005260206000200154898989868960405180602001604052806000815250613059565b5081830392505b6001016128ae565b5081156129c6576040805162461bcd60e51b81526020600482015260026024820152611a9960f11b604482015290519081900360640190fd5b50505050505050565b6129e060028263ffffffff6136c616565b6040516001600160a01b038216907fe94479a9f7e1952cc78f2d6baab678adc1b772d936c6583def489e524cb6669290600090a250565b6001600160a01b0384166000908152601060209081526040808320898452909152902054831115612a74576040805162461bcd60e51b81526020600482015260026024820152611a9960f11b604482015290519081900360640190fd5b612a84868686600087878761370e565b612a948686866000878787613919565b612a9f848785613a4d565b612aab85858585613cf7565b836001600160a01b0316856001600160a01b0316877fce306c3dbc4a497124b5a4f2be8388b41084c1d74663da27ecee1186c00239bf86856040518083815260200180602001828103825283818151815260200191508051906020019080838360005b83811015612b26578181015183820152602001612b0e565b50505050905090810190601f168015612b535780820380516001836020036101000a031916815260200191505b50935050505060405180910390a4505050505050565b612b888585600086868660405180602001604052806000815250613919565b612b9484848484613f4a565b612b9f838684614158565b612bbe85856000868686604051806020016040528060008152506142a2565b826001600160a01b0316846001600160a01b0316867ff0ded82afbb1bb3ff3fc48cb2a26584aa84e4af0bf309c804ecdb94d0f6a98bb8585604051808381526020018060200180602001838103835284818151815260200191508051906020019080838360005b83811015612c3d578181015183820152602001612c25565b50505050905090810190601f168015612c6a5780820380516001836020036101000a031916815260200191505b509283039052506000815260408051918290030192509050a45050505050565b60608082516040519080825280601f01601f191660200182016040528015612cb9576020820181803883390190505b50905060005b6004811015612d0357848160048110612cd457fe5b1a60f81b828281518110612ce457fe5b60200101906001600160f81b031916908160001a905350600101612cbf565b5060045b8351811015612d5257838181518110612d1c57fe5b602001015160f81c60f81b828281518110612d3357fe5b60200101906001600160f81b031916908160001a905350600101612d07565b509392505050565b600080600080612d96306040518060400160405280601481526020017322a921989a18182a37b5b2b739a1b432b1b5b2b960611b8152506143d6565b90506001600160a01b03811615612fc057806001600160a01b031663c71ff5278d8d8d8d8d8d8d8d6040518963ffffffff1660e01b81526004018080602001898152602001886001600160a01b03166001600160a01b03168152602001876001600160a01b03166001600160a01b03168152602001866001600160a01b03166001600160a01b03168152602001858152602001806020018060200184810384528c818151815260200191508051906020019080838360005b83811015612e66578181015183820152602001612e4e565b50505050905090810190601f168015612e935780820380516001836020036101000a031916815260200191505b50848103835286518152865160209182019188019080838360005b83811015612ec6578181015183820152602001612eae565b50505050905090810190601f168015612ef35780820380516001836020036101000a031916815260200191505b50848103825285518152855160209182019187019080838360005b83811015612f26578181015183820152602001612f0e565b50505050905090810190601f168015612f535780820380516001836020036101000a031916815260200191505b509b50505050505050505050505060606040518083038186803b158015612f7957600080fd5b505afa158015612f8d573d6000803e3d6000fd5b505050506040513d6060811015612fa357600080fd5b50805160208201516040909201519095509093509150611aec9050565b5060009250829150899050611aec565b6000612fdc83836127dc565b8061301457506001600160a01b03808316600090815260166020908152604080832088845282528083209387168352929052205460ff165b80611b265750600754610100900460ff168015611b265750505060009182526018602090815260408084206001600160a01b0393909316845291905290205460ff1690565b6001600160a01b03851660009081526010602090815260408083208a84529091528120548411156130b6576040805162461bcd60e51b81526020600482015260026024820152611a9960f11b604482015290519081900360640190fd5b81518890158015906130ca57506040845110155b156130dc576130d989856144d9565b90505b6130eb8989898989898961370e565b6130fa89898989898989613919565b613105878a87613a4d565b613110878787614505565b61311b868287614158565b61312a818989898989896142a2565b856001600160a01b0316876001600160a01b03168a7fff4e9a26af4eb73b8bacfaa4abd4fea03d9448e7b912dc5ff4019048875aa2d48b89898960405180856001600160a01b03166001600160a01b031681526020018481526020018060200180602001838103835285818151815260200191508051906020019080838360005b838110156131c35781810151838201526020016131ab565b50505050905090810190601f1680156131f05780820380516001836020036101000a031916815260200191505b50838103825284518152845160209182019186019080838360005b8381101561322357818101518382015260200161320b565b50505050905090810190601f1680156132505780820380516001836020036101000a031916815260200191505b50965050505050505060405180910390a48881146132a05760408051868152905182918b917f67c8ba31d2dd11f1384577b3405b04ed91eed1231e408432ad2458cab37b2fa19181900360200190a35b98975050505050505050565b6132d86040518060400160405280600a81526020016922a92199182a37b5b2b760b11b815250836146bb565b6133066040518060400160405280600c81526020016b22a921989a18182a37b5b2b760a11b815250836146bb565b8015611f7a576007805460ff191660011790555050565b601154613356576040805162461bcd60e51b8152602060048201526002602482015261353560f01b604482015290519081900360640190fd5b816000805b60115481101561342f576001600160a01b0386166000908152601060205260408120601180549192918490811061338e57fe5b906000526020600020015481526020019081526020016000205491508183116133ee576133e5601182815481106133c157fe5b90600052602060002001548888868860405180602001604052806000815250612a17565b6000925061342f565b613422601182815481106133fe57fe5b90600052602060002001548888858860405180602001604052806000815250612a17565b818303925060010161335b565b508115612200576040805162461bcd60e51b81526020600482015260026024820152611a9960f11b604482015290519081900360640190fd5b61347960028263ffffffff6147a516565b6040516001600160a01b038216907f6ae172837ea30b801fbfcdd4108aa1d5bf8ff775444fd70256b44e6bf3dfc3f690600090a250565b60006134bc30866143d6565b90506001600160a01b038116158015906134d35750835b15613510576134e18161222f565b156134ef576134ef816129cf565b6001600160a01b0381166000908152601460205260409020805460ff191690555b61351a85876146bb565b82801561352d575061352b8661222f565b155b1561353b5761353b86613468565b8115612200576001600160a01b0386166000908152601460205260409020805460ff19166001179055505050505050565b60006001600160a01b03821661358157600080fd5b506001600160a01b03166000908152602091909152604090205460ff1690565b60005b6013548110156135fd57600060146000601384815481106135c157fe5b6000918252602080832091909101546001600160a01b031683528201929092526040019020805460ff19169115159190911790556001016135a4565b5060005b81518110156136565760016014600084848151811061361c57fe5b6020908102919091018101516001600160a01b03168252810191909152604001600020805460ff1916911515919091179055600101613601565b508051611f7a906013906020840190614934565b6001600160a01b03811661367d57600080fd5b600080546040516001600160a01b0380851693921691600080516020614a8f83398151915291a3600080546001600160a01b0319166001600160a01b0392909216919091179055565b6001600160a01b0381166136d957600080fd5b6136e3828261356c565b6136ec57600080fd5b6001600160a01b0316600090815260209190915260409020805460ff19169055565b6000613745866040518060400160405280601381526020017222a921989a18182a37b5b2b739a9b2b73232b960691b8152506143d6565b90506001600160a01b0381161561390f57806001600160a01b0316634e755a546000368b8b8b8b8b8b8b6040518a63ffffffff1660e01b81526004018080602001898152602001886001600160a01b03166001600160a01b03168152602001876001600160a01b03166001600160a01b03168152602001866001600160a01b03166001600160a01b03168152602001858152602001806020018060200184810384528d8d828181526020019250808284376000838201819052601f909101601f19169092018681038552885181528851602091820193918a019250908190849084905b83811015613840578181015183820152602001613828565b50505050905090810190601f16801561386d5780820380516001836020036101000a031916815260200191505b50848103825285518152855160209182019187019080838360005b838110156138a0578181015183820152602001613888565b50505050905090810190601f1680156138cd5780820380516001836020036101000a031916815260200191505b509c50505050505050505050505050600060405180830381600087803b1580156138f657600080fd5b505af115801561390a573d6000803e3d6000fd5b505050505b5050505050505050565b6000613953306040518060400160405280601681526020017522a921989a18182a37b5b2b739ab30b634b230ba37b960511b8152506143d6565b90506001600160a01b0381161561390f57806001600160a01b031663520faa766000368b8b8b8b8b8b8b6040518a63ffffffff1660e01b81526004018080602001898152602001886001600160a01b03166001600160a01b03168152602001876001600160a01b03166001600160a01b03168152602001866001600160a01b03166001600160a01b03168152602001858152602001806020018060200184810384528d8d828181526020019250808284376000838201819052601f909101601f19169092018681038552885181528851602091820193918a0192509081908490849083811015613840578181015183820152602001613828565b6001600160a01b0383166000908152601060209081526040808320858452909152902054613a81908263ffffffff61285b16565b6001600160a01b0384166000908152601060209081526040808320868452825280832093909355600d90522054613abe908263ffffffff61285b16565b6000838152600d60205260409020819055613b93576000828152600c602052604090205480613b19576040805162461bcd60e51b8152602060048201526002602482015261035360f41b604482015290519081900360640190fd5b600b8054600091906000198101908110613b2f57fe5b9060005260206000200154905080600b6001840381548110613b4d57fe5b6000918252602080832090910192909255828152600c90915260409020829055600b80546000190190613b809082614995565b5050506000828152600c60205260408120555b6001600160a01b0383166000908152601060209081526040808320858452909152902054611618576001600160a01b0383166000908152600f6020908152604080832085845290915290205480613c16576040805162461bcd60e51b8152602060048201526002602482015261035360f41b604482015290519081900360640190fd5b6001600160a01b0384166000908152600e6020526040812080546000198101908110613c3e57fe5b9060005260206000200154905080600e6000876001600160a01b03166001600160a01b031681526020019081526020016000206001840381548110613c7f57fe5b60009182526020808320909101929092556001600160a01b038716808252600f835260408083208584528452808320869055908252600e9092522080546000190190613ccb9082614995565b5050506001600160a01b0383166000908152600f60209081526040808320858452909152812055505050565b60075460ff1615613d34576040805162461bcd60e51b81526020600482015260026024820152610d4d60f21b604482015290519081900360640190fd5b613d3d826147f1565b613d73576040805162461bcd60e51b8152602060048201526002602482015261035360f41b604482015290519081900360640190fd5b6001600160a01b038316613db3576040805162461bcd60e51b81526020600482015260026024820152611a9b60f11b604482015290519081900360640190fd5b6001600160a01b038316600090815260086020526040902054821115613e05576040805162461bcd60e51b81526020600482015260026024820152611a9960f11b604482015290519081900360640190fd5b6001600160a01b038316600090815260086020526040902054613e2e908363ffffffff61285b16565b6001600160a01b038416600090815260086020526040902055600654613e5a908363ffffffff61285b16565b600681905550826001600160a01b0316846001600160a01b03167fb7d0d6b60740753e9f16692a2f479472a1385aec2420fa43225b02f2ffa1afe784846040518083815260200180602001828103825283818151815260200191508051906020019080838360005b83811015613eda578181015183820152602001613ec2565b50505050905090810190601f168015613f075780820380516001836020036101000a031916815260200191505b50935050505060405180910390a36040805183815290516000916001600160a01b03861691600080516020614aaf8339815191529181900360200190a350505050565b60075460ff1615613f87576040805162461bcd60e51b81526020600482015260026024820152610d4d60f21b604482015290519081900360640190fd5b613f90826147f1565b613fc6576040805162461bcd60e51b8152602060048201526002602482015261035360f41b604482015290519081900360640190fd5b6001600160a01b038316614006576040805162461bcd60e51b8152602060048201526002602482015261353760f01b604482015290519081900360640190fd5b600654614019908363ffffffff61482016565b6006556001600160a01b038316600090815260086020526040902054614045908363ffffffff61482016565b60086000856001600160a01b03166001600160a01b0316815260200190815260200160002081905550826001600160a01b0316846001600160a01b03167f0e9905d62635f049c2f4e11678ebf9dc3d1f8c4a653e290759b772e47ba00d0084846040518083815260200180602001828103825283818151815260200191508051906020019080838360005b838110156140e85781810151838201526020016140d0565b50505050905090810190601f1680156141155780820380516001836020036101000a031916815260200191505b50935050505060405180910390a36040805183815290516001600160a01b03851691600091600080516020614aaf8339815191529181900360200190a350505050565b8015611618576001600160a01b0383166000908152600f602090815260408083208584529091529020546141ca576001600160a01b0383166000818152600e602090815260408083208054600181018255818552838520018790559383529254600f8252838320868452909152919020555b6001600160a01b03831660009081526010602090815260408083208584529091529020546141fe908263ffffffff61482016565b6001600160a01b0384166000908152601060209081526040808320868452825280832093909355600c9052205461426f57600b80546001810182557f0175b7a638427703f0dbe7bb9bbf987a2551717b34e79f33b5b1008d1fa01db901839055546000838152600c60205260409020555b6000828152600d602052604090205461428e908263ffffffff61482016565b6000838152600d6020526040902055505050565b60006142dc8560405180604001604052806016815260200175115490cc4d0c0c151bdad95b9cd49958da5c1a595b9d60521b8152506143d6565b90506001600160a01b0381161561390f57806001600160a01b031663f464b5766000368b8b8b8b8b8b8b6040518a63ffffffff1660e01b81526004018080602001898152602001886001600160a01b03166001600160a01b03168152602001876001600160a01b03166001600160a01b03168152602001866001600160a01b03166001600160a01b03168152602001858152602001806020018060200184810384528d8d828181526020019250808284376000838201819052601f909101601f19169092018681038552885181528851602091820193918a0192509081908490849083811015613840578181015183820152602001613828565b600080826040516020018082805190602001908083835b6020831061440c5780518252601f1990920191602091820191016143ed565b51815160209384036101000a60001901801990921691161790526040805192909401828103601f1901835280855282519282019290922063555ddc6560e11b83526001600160a01b038b166004840152602483018190529351939650731820a4b7618bde71dce8cdc73aab6c95905fad24955063aabbb8ca94506044808301949193509091829003018186803b1580156144a557600080fd5b505afa1580156144b9573d6000803e3d6000fd5b505050506040513d60208110156144cf57600080fd5b5051949350505050565b602081015160009060001990808214156144f957604084015192506144fd565b8492505b505092915050565b60075460ff1615614542576040805162461bcd60e51b81526020600482015260026024820152610d4d60f21b604482015290519081900360640190fd5b61454b816147f1565b614581576040805162461bcd60e51b8152602060048201526002602482015261035360f41b604482015290519081900360640190fd5b6001600160a01b0382166145c1576040805162461bcd60e51b8152602060048201526002602482015261353760f01b604482015290519081900360640190fd5b6001600160a01b038316600090815260086020526040902054811115614613576040805162461bcd60e51b81526020600482015260026024820152611a9960f11b604482015290519081900360640190fd5b6001600160a01b03831660009081526008602052604090205461463c908263ffffffff61285b16565b6001600160a01b038085166000908152600860205260408082209390935590841681522054614671908263ffffffff61482016565b6001600160a01b038084166000818152600860209081526040918290209490945580518581529051919392871692600080516020614aaf83398151915292918290030190a3505050565b6000826040516020018082805190602001908083835b602083106146f05780518252601f1990920191602091820191016146d1565b51815160209384036101000a60001901801990921691161790526040805192909401828103601f19018352808552825192909101919091206329965a1d60e01b8252306004830152602482018190526001600160a01b03881660448301529251929550731820a4b7618bde71dce8cdc73aab6c95905fad2494506329965a1d9350606480820193600093509182900301818387803b15801561479157600080fd5b505af11580156129c6573d6000803e3d6000fd5b6001600160a01b0381166147b857600080fd5b6147c2828261356c565b156147cc57600080fd5b6001600160a01b0316600090815260209190915260409020805460ff19166001179055565b60055460009082906148199061480d838263ffffffff61483216565b9063ffffffff61485416565b1492915050565b60008282018381101561232a57600080fd5b600080821161484057600080fd5b600082848161484b57fe5b04949350505050565b6000826148635750600061144b565b8282028284828161487057fe5b041461232a57600080fd5b828054600181600116156101000203166002900490600052602060002090601f016020900481019282601f106148bc57805160ff19168380011785556148e9565b828001600101855582156148e9579182015b828111156148e95782518255916020019190600101906148ce565b506148f59291506149b5565b5090565b8280548282559060005260206000209081019282156148e9579160200282015b828111156148e9578235825591602001919060010190614919565b828054828255906000526020600020908101928215614989579160200282015b8281111561498957825182546001600160a01b0319166001600160a01b03909116178255602090920191600190910190614954565b506148f59291506149cf565b815481835581811115611618576000838152602090206116189181019083015b6113a491905b808211156148f557600081556001016149bb565b6113a491905b808211156148f55780546001600160a01b03191681556001016149d5565b6001806000836040516020018082805190602001908083835b60208310614a2b5780518252601f199092019160209182019101614a0c565b6001836020036101000a03801982511681845116808217855250505050505090500191505060405160208183030381529060405280519060200120815260200190815260200160002060006101000a81548160ff0219169083151502179055505056fe8be0079c531659141344cd1fd0a4f28419497f9722a3daafe3b4186f6b6457e0ddf252ad1be2c89b69c2b068fc378daa952ba7f163c4a11628f55a4df523b3efa265627a7a7230582035cd2882f5841951c519711819d3e73cb80d16608f889f5f84234f89a32b8edc64736f6c634300050a00328be0079c531659141344cd1fd0a4f28419497f9722a3daafe3b4186f6b6457e0",
  "source": "/*\n * This code has not been reviewed.\n * Do not use or deploy this code before reviewing it personally first.\n */\npragma solidity ^0.5.0;\n\nimport \"../ERC1400.sol\";\n\n/**\n * @notice Interface to the extension types\n */\ninterface IExtensionTypes {\n  enum CertificateValidation {\n    None,\n    NonceBased,\n    SaltBased\n  }\n}\n\n/**\n * @notice Interface to the extension contract\n */\ncontract Extension is IExtensionTypes {\n  function registerTokenSetup(\n    address token,\n    CertificateValidation certificateActivated,\n    bool allowlistActivated,\n    bool blocklistActivated,\n    bool granularityByPartitionActivated,\n    bool holdsActivated,\n    address[] calldata operators\n  ) external;\n\n  function addCertificateSigner(\n    address token,\n    address account\n  ) external;\n}\n\n\n/**\n * @title ERC1400HoldableCertificateNonceToken\n * @dev Holdable ERC1400 with nonce-based certificate controller logic\n */\ncontract ERC1400HoldableCertificateToken is ERC1400, IExtensionTypes {\n\n  string constant internal ERC1400_TOKENS_VALIDATOR = \"ERC1400TokensValidator\";\n\n  /**\n   * @dev Initialize ERC1400 + initialize certificate controller.\n   * @param name Name of the token.\n   * @param symbol Symbol of the token.\n   * @param granularity Granularity of the token.\n   * @param controllers Array of initial controllers.\n   * @param defaultPartitions Partitions chosen by default, when partition is\n   * not specified, like the case ERC20 tranfers.\n   * @param extension Address of token extension.\n   * @param newOwner Address whom contract ownership shall be transferred to.\n   * @param certificateSigner Address of the off-chain service which signs the\n   * conditional ownership certificates required for token transfers, issuance,\n   * redemption (Cf. CertificateController.sol).\n   * @param certificateActivated If set to 'true', the certificate controller\n   * is activated at contract creation.\n   */\n  constructor(\n    string memory name,\n    string memory symbol,\n    uint256 granularity,\n    address[] memory controllers,\n    bytes32[] memory defaultPartitions,\n    address extension,\n    address newOwner,\n    address certificateSigner,\n    CertificateValidation certificateActivated\n  )\n    public\n    ERC1400(name, symbol, granularity, controllers, defaultPartitions)\n  {\n    if(extension != address(0)) {\n      Extension(extension).registerTokenSetup(\n        address(this), // token\n        certificateActivated, // certificateActivated\n        true, // allowlistActivated\n        true, // blocklistActivated\n        true, // granularityByPartitionActivated\n        true, // holdsActivated\n        controllers // token controllers\n      );\n\n      if(certificateSigner != address(0)) {\n        Extension(extension).addCertificateSigner(address(this), certificateSigner);\n      }\n\n      _setTokenExtension(extension, ERC1400_TOKENS_VALIDATOR, true, true, true);\n    }\n\n    if(newOwner != address(0)) {\n      _transferOwnership(newOwner);\n    }\n  }\n\n  /************************************** Transfer Validity ***************************************/\n  /**\n   * @dev Know the reason on success or failure based on the EIP-1066 application-specific status codes.\n   * @param partition Name of the partition.\n   * @param to Token recipient.\n   * @param value Number of tokens to transfer.\n   * @param data Information attached to the transfer, by the token holder. [CONTAINS THE CONDITIONAL OWNERSHIP CERTIFICATE]\n   * @return ESC (Ethereum Status Code) following the EIP-1066 standard.\n   * @return Additional bytes32 parameter that can be used to define\n   * application specific reason codes with additional details (for example the\n   * transfer restriction rule responsible for making the transfer operation invalid).\n   * @return Destination partition.\n   */\n  function canTransferByPartition(bytes32 partition, address to, uint256 value, bytes calldata data)\n    external\n    view\n    returns (byte, bytes32, bytes32)\n  {\n    return ERC1400._canTransfer(\n      _replaceFunctionSelector(this.transferByPartition.selector, msg.data), // 0xf3d490db: 4 first bytes of keccak256(transferByPartition(bytes32,address,uint256,bytes))\n      partition,\n      msg.sender,\n      msg.sender,\n      to,\n      value,\n      data,\n      \"\"\n    );\n  }\n  /**\n   * @dev Know the reason on success or failure based on the EIP-1066 application-specific status codes.\n   * @param partition Name of the partition.\n   * @param from Token holder.\n   * @param to Token recipient.\n   * @param value Number of tokens to transfer.\n   * @param data Information attached to the transfer. [CAN CONTAIN THE DESTINATION PARTITION]\n   * @param operatorData Information attached to the transfer, by the operator. [CONTAINS THE CONDITIONAL OWNERSHIP CERTIFICATE]\n   * @return ESC (Ethereum Status Code) following the EIP-1066 standard.\n   * @return Additional bytes32 parameter that can be used to define\n   * application specific reason codes with additional details (for example the\n   * transfer restriction rule responsible for making the transfer operation invalid).\n   * @return Destination partition.\n   */\n  function canOperatorTransferByPartition(bytes32 partition, address from, address to, uint256 value, bytes calldata data, bytes calldata operatorData)\n    external\n    view\n    returns (byte, bytes32, bytes32)\n  {\n    return ERC1400._canTransfer(\n      _replaceFunctionSelector(this.operatorTransferByPartition.selector, msg.data), // 0x8c0dee9c: 4 first bytes of keccak256(operatorTransferByPartition(bytes32,address,address,uint256,bytes,bytes))\n      partition,\n      msg.sender,\n      from,\n      to,\n      value,\n      data,\n      operatorData\n    );\n  }\n  /**\n   * @dev Replace function selector\n   * @param functionSig Replacement function selector.\n   * @param payload Payload, where function selector needs to be replaced.\n   */\n  function _replaceFunctionSelector(bytes4 functionSig, bytes memory payload) internal pure returns(bytes memory) {\n    bytes memory updatedPayload = new bytes(payload.length);\n    for (uint i = 0; i<4; i++){\n      updatedPayload[i] = functionSig[i];\n    }\n    for (uint j = 4; j<payload.length; j++){\n      updatedPayload[j] = payload[j];\n    }\n    return updatedPayload;\n  }\n  /************************************************************************************************/\n\n}",
  "sourcePath": "universal-token/contracts/certificate/ERC1400HoldableCertificateToken.sol",
  "compiler": {
    "name": "solc",
    "version": "0.5.10+commit.5a6ea5b1.Emscripten.clang"
  },
  "schemaVersion": "3.3.0",
  "updatedAt": "2020-12-15T12:54:12.213Z",
  "devdoc": {
    "details": "Holdable ERC1400 with nonce-based certificate controller logic",
    "methods": {
      "allowance(address,address)": {
        "details": "Check the value of tokens that an owner allowed to a spender.",
        "params": {
          "owner": "address The address which owns the funds.",
          "spender": "address The address which will spend the funds."
        },
        "return": "A uint256 specifying the value of tokens still available for the spender."
      },
      "allowanceByPartition(bytes32,address,address)": {
        "details": "Check the value of tokens that an owner allowed to a spender.",
        "params": {
          "owner": "address The address which owns the funds.",
          "partition": "Name of the partition.",
          "spender": "address The address which will spend the funds."
        },
        "return": "A uint256 specifying the value of tokens still available for the spender."
      },
      "approve(address,uint256)": {
        "details": "Approve the passed address to spend the specified amount of tokens on behalf of 'msg.sender'.",
        "params": {
          "spender": "The address which will spend the funds.",
          "value": "The amount of tokens to be spent."
        },
        "return": "A boolean that indicates if the operation was successful."
      },
      "approveByPartition(bytes32,address,uint256)": {
        "details": "Approve the passed address to spend the specified amount of tokens on behalf of 'msg.sender'.",
        "params": {
          "partition": "Name of the partition.",
          "spender": "The address which will spend the funds.",
          "value": "The amount of tokens to be spent."
        },
        "return": "A boolean that indicates if the operation was successful."
      },
      "authorizeOperator(address)": {
        "details": "Set a third party operator address as an operator of 'msg.sender' to transfer and redeem tokens on its behalf.",
        "params": {
          "operator": "Address to set as an operator for 'msg.sender'."
        }
      },
      "authorizeOperatorByPartition(bytes32,address)": {
        "details": "Set 'operator' as an operator for 'msg.sender' for a given partition.",
        "params": {
          "operator": "Address to set as an operator for 'msg.sender'.",
          "partition": "Name of the partition."
        }
      },
      "balanceOf(address)": {
        "details": "Get the balance of the account with address 'tokenHolder'.",
        "params": {
          "tokenHolder": "Address for which the balance is returned."
        },
        "return": "Amount of token held by 'tokenHolder' in the token contract."
      },
      "balanceOfByPartition(bytes32,address)": {
        "details": "Get balance of a tokenholder for a specific partition.",
        "params": {
          "partition": "Name of the partition.",
          "tokenHolder": "Address for which the balance is returned."
        },
        "return": "Amount of token of partition 'partition' held by 'tokenHolder' in the token contract."
      },
      "canOperatorTransferByPartition(bytes32,address,address,uint256,bytes,bytes)": {
        "details": "Know the reason on success or failure based on the EIP-1066 application-specific status codes.",
        "params": {
          "data": "Information attached to the transfer. [CAN CONTAIN THE DESTINATION PARTITION]",
          "from": "Token holder.",
          "operatorData": "Information attached to the transfer, by the operator. [CONTAINS THE CONDITIONAL OWNERSHIP CERTIFICATE]",
          "partition": "Name of the partition.",
          "to": "Token recipient.",
          "value": "Number of tokens to transfer."
        },
        "return": "ESC (Ethereum Status Code) following the EIP-1066 standard.Additional bytes32 parameter that can be used to define application specific reason codes with additional details (for example the transfer restriction rule responsible for making the transfer operation invalid).Destination partition."
      },
      "canTransferByPartition(bytes32,address,uint256,bytes)": {
        "details": "Know the reason on success or failure based on the EIP-1066 application-specific status codes.",
        "params": {
          "data": "Information attached to the transfer, by the token holder. [CONTAINS THE CONDITIONAL OWNERSHIP CERTIFICATE]",
          "partition": "Name of the partition.",
          "to": "Token recipient.",
          "value": "Number of tokens to transfer."
        },
        "return": "ESC (Ethereum Status Code) following the EIP-1066 standard.Additional bytes32 parameter that can be used to define application specific reason codes with additional details (for example the transfer restriction rule responsible for making the transfer operation invalid).Destination partition."
      },
      "constructor": {
        "details": "Initialize ERC1400 + initialize certificate controller.",
        "params": {
          "certificateActivated": "If set to 'true', the certificate controller is activated at contract creation.",
          "certificateSigner": "Address of the off-chain service which signs the conditional ownership certificates required for token transfers, issuance, redemption (Cf. CertificateController.sol).",
          "controllers": "Array of initial controllers.",
          "defaultPartitions": "Partitions chosen by default, when partition is not specified, like the case ERC20 tranfers.",
          "extension": "Address of token extension.",
          "granularity": "Granularity of the token.",
          "name": "Name of the token.",
          "newOwner": "Address whom contract ownership shall be transferred to.",
          "symbol": "Symbol of the token."
        }
      },
      "controllers()": {
        "details": "Get the list of controllers as defined by the token contract.",
        "return": "List of addresses of all the controllers."
      },
      "controllersByPartition(bytes32)": {
        "details": "Get controllers for a given partition.",
        "params": {
          "partition": "Name of the partition."
        },
        "return": "Array of controllers for partition."
      },
      "decimals()": {
        "details": "Get the number of decimals of the token.",
        "return": "The number of decimals of the token. For retrocompatibility, decimals are forced to 18 in ERC1400."
      },
      "getDefaultPartitions()": {
        "details": "Get default partitions to transfer from. Function used for ERC20 retrocompatibility. For example, a security token may return the bytes32(\"unrestricted\").",
        "return": "Array of default partitions."
      },
      "getDocument(bytes32)": {
        "details": "Access a document associated with the token.",
        "params": {
          "name": "Short name (represented as a bytes32) associated to the document."
        },
        "return": "Requested document + document hash."
      },
      "granularity()": {
        "details": "Get the smallest part of the token thats not divisible.",
        "return": "The smallest non-divisible part of the token."
      },
      "isControllable()": {
        "details": "Know if the token can be controlled by operators. If a token returns 'false' for 'isControllable()'' then it MUST always return 'false' in the future.",
        "return": "bool 'true' if the token can still be controlled by operators, 'false' if it can't anymore."
      },
      "isIssuable()": {
        "details": "Know if new tokens can be issued in the future.",
        "return": "bool 'true' if tokens can still be issued by the issuer, 'false' if they can't anymore."
      },
      "isOperator(address,address)": {
        "details": "Indicate whether the operator address is an operator of the tokenHolder address.",
        "params": {
          "operator": "Address which may be an operator of tokenHolder.",
          "tokenHolder": "Address of a token holder which may have the operator address as an operator."
        },
        "return": "'true' if operator is an operator of 'tokenHolder' and 'false' otherwise."
      },
      "isOperatorForPartition(bytes32,address,address)": {
        "details": "Indicate whether the operator address is an operator of the tokenHolder address for the given partition.",
        "params": {
          "operator": "Address which may be an operator of tokenHolder for the given partition.",
          "partition": "Name of the partition.",
          "tokenHolder": "Address of a token holder which may have the operator address as an operator for the given partition."
        },
        "return": "'true' if 'operator' is an operator of 'tokenHolder' for partition 'partition' and 'false' otherwise."
      },
      "isOwner()": {
        "return": "true if `msg.sender` is the owner of the contract."
      },
      "issue(address,uint256,bytes)": {
        "details": "Issue tokens from default partition.",
        "params": {
          "data": "Information attached to the issuance, by the issuer.",
          "tokenHolder": "Address for which we want to issue tokens.",
          "value": "Number of tokens issued."
        }
      },
      "issueByPartition(bytes32,address,uint256,bytes)": {
        "details": "Issue tokens from a specific partition.",
        "params": {
          "data": "Information attached to the issuance, by the issuer.",
          "partition": "Name of the partition.",
          "tokenHolder": "Address for which we want to issue tokens.",
          "value": "Number of tokens issued."
        }
      },
      "migrate(address,bool)": {
        "details": "Migrate contract.   * ===> CAUTION: DEFINITIVE ACTION    * This function shall be called once a new version of the smart contract has been created. Once this function is called: - The address of the new smart contract is set in ERC1820 registry - If the choice is definitive, the current smart contract is turned off and can never be used again",
        "params": {
          "definitive": "If set to 'true' the contract is turned off definitely.",
          "newContractAddress": "Address of the new version of the smart contract."
        }
      },
      "name()": {
        "details": "Get the name of the token, e.g., \"MyToken\".",
        "return": "Name of the token."
      },
      "operatorRedeemByPartition(bytes32,address,uint256,bytes)": {
        "details": "Redeem tokens of a specific partition.",
        "params": {
          "operatorData": "Information attached to the redemption, by the operator.",
          "partition": "Name of the partition.",
          "tokenHolder": "Address for which we want to redeem tokens.",
          "value": "Number of tokens redeemed"
        }
      },
      "operatorTransferByPartition(bytes32,address,address,uint256,bytes,bytes)": {
        "details": "Transfer tokens from a specific partition through an operator.",
        "params": {
          "data": "Information attached to the transfer. [CAN CONTAIN THE DESTINATION PARTITION]",
          "from": "Token holder.",
          "operatorData": "Information attached to the transfer, by the operator.",
          "partition": "Name of the partition.",
          "to": "Token recipient.",
          "value": "Number of tokens to transfer."
        },
        "return": "Destination partition."
      },
      "owner()": {
        "return": "the address of the owner."
      },
      "partitionsOf(address)": {
        "details": "Get partitions index of a tokenholder.",
        "params": {
          "tokenHolder": "Address for which the partitions index are returned."
        },
        "return": "Array of partitions index of 'tokenHolder'."
      },
      "redeem(uint256,bytes)": {
        "details": "Redeem the amount of tokens from the address 'msg.sender'.",
        "params": {
          "data": "Information attached to the redemption, by the token holder.",
          "value": "Number of tokens to redeem."
        }
      },
      "redeemByPartition(bytes32,uint256,bytes)": {
        "details": "Redeem tokens of a specific partition.",
        "params": {
          "data": "Information attached to the redemption, by the redeemer.",
          "partition": "Name of the partition.",
          "value": "Number of tokens redeemed."
        }
      },
      "redeemFrom(address,uint256,bytes)": {
        "details": "Redeem the amount of tokens on behalf of the address from.",
        "params": {
          "data": "Information attached to the redemption.",
          "from": "Token holder whose tokens will be redeemed (or address(0) to set from to msg.sender).",
          "value": "Number of tokens to redeem."
        }
      },
      "renounceControl()": {
        "details": "Definitely renounce the possibility to control tokens on behalf of tokenHolders. Once set to false, '_isControllable' can never be set to 'true' again."
      },
      "renounceIssuance()": {
        "details": "Definitely renounce the possibility to issue new tokens. Once set to false, '_isIssuable' can never be set to 'true' again."
      },
      "renounceOwnership()": {
        "details": "Allows the current owner to relinquish control of the contract."
      },
      "revokeOperator(address)": {
        "details": "Remove the right of the operator address to be an operator for 'msg.sender' and to transfer and redeem tokens on its behalf.",
        "params": {
          "operator": "Address to rescind as an operator for 'msg.sender'."
        }
      },
      "revokeOperatorByPartition(bytes32,address)": {
        "details": "Remove the right of the operator address to be an operator on a given partition for 'msg.sender' and to transfer and redeem tokens on its behalf.",
        "params": {
          "operator": "Address to rescind as an operator on given partition for 'msg.sender'.",
          "partition": "Name of the partition."
        }
      },
      "setControllers(address[])": {
        "details": "Set list of token controllers.",
        "params": {
          "operators": "Controller addresses."
        }
      },
      "setDefaultPartitions(bytes32[])": {
        "details": "Set default partitions to transfer from. Function used for ERC20 retrocompatibility.",
        "params": {
          "partitions": "partitions to use by default when not specified."
        }
      },
      "setDocument(bytes32,string,bytes32)": {
        "details": "Associate a document with the token.",
        "params": {
          "documentHash": "Hash of the document [optional parameter].",
          "name": "Short name (represented as a bytes32) associated to the document.",
          "uri": "Document content."
        }
      },
      "setPartitionControllers(bytes32,address[])": {
        "details": "Set list of token partition controllers.",
        "params": {
          "operators": "Controller addresses.",
          "partition": "Name of the partition."
        }
      },
      "setTokenExtension(address,string,bool,bool,bool)": {
        "details": "Set token extension contract address. The extension contract can for example verify \"ERC1400TokensValidator\" or \"ERC1400TokensChecker\" interfaces. If the extension is an \"ERC1400TokensValidator\", it will be called everytime a transfer is executed.",
        "params": {
          "addControllerRoleForExtension": "If set to 'true', the extension contract will be added as controller.",
          "addMinterRoleForExtension": "If set to 'true', the extension contract will be added as minter.",
          "extension": "Address of the extension contract.",
          "interfaceLabel": "Interface label of extension contract.",
          "removeOldExtensionRoles": "If set to 'true', the roles of the old extension(minter, controller) will be removed extension."
        }
      },
      "symbol()": {
        "details": "Get the symbol of the token, e.g., \"MYT\".",
        "return": "Symbol of the token."
      },
      "totalPartitions()": {
        "details": "Get list of existing partitions.",
        "return": "Array of all exisiting partitions."
      },
      "totalSupply()": {
        "details": "Get the total number of issued tokens.",
        "return": "Total supply of tokens currently in circulation."
      },
      "totalSupplyByPartition(bytes32)": {
        "details": "Get the total number of issued tokens for a given partition.",
        "params": {
          "partition": "Name of the partition."
        },
        "return": "Total supply of tokens currently in circulation, for a given partition."
      },
      "transfer(address,uint256)": {
        "details": "Transfer token for a specified address.",
        "params": {
          "to": "The address to transfer to.",
          "value": "The value to be transferred."
        },
        "return": "A boolean that indicates if the operation was successful."
      },
      "transferByPartition(bytes32,address,uint256,bytes)": {
        "details": "Transfer tokens from a specific partition.",
        "params": {
          "data": "Information attached to the transfer, by the token holder.",
          "partition": "Name of the partition.",
          "to": "Token recipient.",
          "value": "Number of tokens to transfer."
        },
        "return": "Destination partition."
      },
      "transferFrom(address,address,uint256)": {
        "details": "Transfer tokens from one address to another.",
        "params": {
          "from": "The address which you want to transfer tokens from.",
          "to": "The address which you want to transfer to.",
          "value": "The amount of tokens to be transferred."
        },
        "return": "A boolean that indicates if the operation was successful."
      },
      "transferFromWithData(address,address,uint256,bytes)": {
        "details": "Transfer the amount of tokens on behalf of the address 'from' to the address 'to'.",
        "params": {
          "data": "Information attached to the transfer, and intended for the token holder ('from').",
          "from": "Token holder (or 'address(0)' to set from to 'msg.sender').",
          "to": "Token recipient.",
          "value": "Number of tokens to transfer."
        }
      },
      "transferOwnership(address)": {
        "details": "Allows the current owner to transfer control of the contract to a newOwner.",
        "params": {
          "newOwner": "The address to transfer ownership to."
        }
      },
      "transferWithData(address,uint256,bytes)": {
        "details": "Transfer the amount of tokens from the address 'msg.sender' to the address 'to'.",
        "params": {
          "data": "Information attached to the transfer, by the token holder.",
          "to": "Token recipient.",
          "value": "Number of tokens to transfer."
        }
      }
    },
    "title": "ERC1400HoldableCertificateNonceToken"
  },
  "userdoc": {
    "methods": {
      "renounceOwnership()": {
        "notice": "Renouncing to ownership will leave the contract without an owner. It will not be possible to call the functions with the `onlyOwner` modifier anymore."
      }
    }
  }
}