{
  "contractName": "ERC1820Implementer",
  "abi": [
    {
      "constant": true,
      "inputs": [
        {
          "name": "interfaceHash",
          "type": "bytes32"
        },
        {
          "name": "",
          "type": "address"
        }
      ],
      "name": "canImplementInterfaceForAddress",
      "outputs": [
        {
          "name": "",
          "type": "bytes32"
        }
      ],
      "payable": false,
      "stateMutability": "view",
      "type": "function"
    }
  ],
  "bytecode": "0x608060405234801561001057600080fd5b50610101806100206000396000f3fe6080604052348015600f57600080fd5b506004361060285760003560e01c8063249cb3fa14602d575b600080fd5b605660048036036040811015604157600080fd5b50803590602001356001600160a01b03166068565b60408051918252519081900360200190f35b60008281526020819052604081205460ff161560c257604051602001808073455243313832305f4143434550545f4d4147494360601b815250601401905060405160208183030381529060405280519060200120905060c6565b5060005b9291505056fea265627a7a72305820ed7e1253e3cdacf4723c8f39c85d0a9cbe1ebfb4e76a9446461cff2fa45c1bc964736f6c634300050a0032",
  "source": "/*\n * This code has not been reviewed.\n * Do not use or deploy this code before reviewing it personally first.\n */\npragma solidity ^0.5.0;\n\n\ncontract ERC1820Implementer {\n  bytes32 constant ERC1820_ACCEPT_MAGIC = keccak256(abi.encodePacked(\"ERC1820_ACCEPT_MAGIC\"));\n\n  mapping(bytes32 => bool) internal _interfaceHashes;\n\n  function canImplementInterfaceForAddress(bytes32 interfaceHash, address /*addr*/) // Comments to avoid compilation warnings for unused variables.\n    external\n    view\n    returns(bytes32)\n  {\n    if(_interfaceHashes[interfaceHash]) {\n      return ERC1820_ACCEPT_MAGIC;\n    } else {\n      return \"\";\n    }\n  }\n\n  function _setInterface(string memory interfaceLabel) internal {\n    _interfaceHashes[keccak256(abi.encodePacked(interfaceLabel))] = true;\n  }\n\n}\n",
  "sourcePath": "universal-token/contracts/interface/ERC1820Implementer.sol",
  "compiler": {
    "name": "solc",
    "version": "0.5.10+commit.5a6ea5b1.Emscripten.clang"
  },
  "schemaVersion": "3.3.0",
  "updatedAt": "2020-12-15T12:54:11.560Z",
  "devdoc": {
    "methods": {}
  },
  "userdoc": {
    "methods": {}
  }
}