{
  "contractName": "ERC1400",
  "abi": [
    {
      "constant": true,
      "inputs": [
        {
          "name": "interfaceHash",
          "type": "bytes32"
        },
        {
          "name": "",
          "type": "address"
        }
      ],
      "name": "canImplementInterfaceForAddress",
      "outputs": [
        {
          "name": "",
          "type": "bytes32"
        }
      ],
      "payable": false,
      "stateMutability": "view",
      "type": "function"
    },
    {
      "constant": false,
      "inputs": [
        {
          "name": "account",
          "type": "address"
        }
      ],
      "name": "removeMinter",
      "outputs": [],
      "payable": false,
      "stateMutability": "nonpayable",
      "type": "function"
    },
    {
      "constant": false,
      "inputs": [],
      "name": "renounceOwnership",
      "outputs": [],
      "payable": false,
      "stateMutability": "nonpayable",
      "type": "function"
    },
    {
      "constant": true,
      "inputs": [],
      "name": "owner",
      "outputs": [
        {
          "name": "",
          "type": "address"
        }
      ],
      "payable": false,
      "stateMutability": "view",
      "type": "function"
    },
    {
      "constant": true,
      "inputs": [],
      "name": "isOwner",
      "outputs": [
        {
          "name": "",
          "type": "bool"
        }
      ],
      "payable": false,
      "stateMutability": "view",
      "type": "function"
    },
    {
      "constant": false,
      "inputs": [
        {
          "name": "account",
          "type": "address"
        }
      ],
      "name": "addMinter",
      "outputs": [],
      "payable": false,
      "stateMutability": "nonpayable",
      "type": "function"
    },
    {
      "constant": false,
      "inputs": [],
      "name": "renounceMinter",
      "outputs": [],
      "payable": false,
      "stateMutability": "nonpayable",
      "type": "function"
    },
    {
      "constant": true,
      "inputs": [
        {
          "name": "account",
          "type": "address"
        }
      ],
      "name": "isMinter",
      "outputs": [
        {
          "name": "",
          "type": "bool"
        }
      ],
      "payable": false,
      "stateMutability": "view",
      "type": "function"
    },
    {
      "constant": false,
      "inputs": [
        {
          "name": "newOwner",
          "type": "address"
        }
      ],
      "name": "transferOwnership",
      "outputs": [],
      "payable": false,
      "stateMutability": "nonpayable",
      "type": "function"
    },
    {
      "inputs": [
        {
          "name": "name",
          "type": "string"
        },
        {
          "name": "symbol",
          "type": "string"
        },
        {
          "name": "granularity",
          "type": "uint256"
        },
        {
          "name": "controllers",
          "type": "address[]"
        },
        {
          "name": "defaultPartitions",
          "type": "bytes32[]"
        }
      ],
      "payable": false,
      "stateMutability": "nonpayable",
      "type": "constructor"
    },
    {
      "anonymous": false,
      "inputs": [
        {
          "indexed": true,
          "name": "partition",
          "type": "bytes32"
        },
        {
          "indexed": true,
          "name": "owner",
          "type": "address"
        },
        {
          "indexed": true,
          "name": "spender",
          "type": "address"
        },
        {
          "indexed": false,
          "name": "value",
          "type": "uint256"
        }
      ],
      "name": "ApprovalByPartition",
      "type": "event"
    },
    {
      "anonymous": false,
      "inputs": [
        {
          "indexed": true,
          "name": "account",
          "type": "address"
        }
      ],
      "name": "MinterAdded",
      "type": "event"
    },
    {
      "anonymous": false,
      "inputs": [
        {
          "indexed": true,
          "name": "account",
          "type": "address"
        }
      ],
      "name": "MinterRemoved",
      "type": "event"
    },
    {
      "anonymous": false,
      "inputs": [
        {
          "indexed": true,
          "name": "previousOwner",
          "type": "address"
        },
        {
          "indexed": true,
          "name": "newOwner",
          "type": "address"
        }
      ],
      "name": "OwnershipTransferred",
      "type": "event"
    },
    {
      "anonymous": false,
      "inputs": [
        {
          "indexed": true,
          "name": "name",
          "type": "bytes32"
        },
        {
          "indexed": false,
          "name": "uri",
          "type": "string"
        },
        {
          "indexed": false,
          "name": "documentHash",
          "type": "bytes32"
        }
      ],
      "name": "Document",
      "type": "event"
    },
    {
      "anonymous": false,
      "inputs": [
        {
          "indexed": true,
          "name": "fromPartition",
          "type": "bytes32"
        },
        {
          "indexed": false,
          "name": "operator",
          "type": "address"
        },
        {
          "indexed": true,
          "name": "from",
          "type": "address"
        },
        {
          "indexed": true,
          "name": "to",
          "type": "address"
        },
        {
          "indexed": false,
          "name": "value",
          "type": "uint256"
        },
        {
          "indexed": false,
          "name": "data",
          "type": "bytes"
        },
        {
          "indexed": false,
          "name": "operatorData",
          "type": "bytes"
        }
      ],
      "name": "TransferByPartition",
      "type": "event"
    },
    {
      "anonymous": false,
      "inputs": [
        {
          "indexed": true,
          "name": "fromPartition",
          "type": "bytes32"
        },
        {
          "indexed": true,
          "name": "toPartition",
          "type": "bytes32"
        },
        {
          "indexed": false,
          "name": "value",
          "type": "uint256"
        }
      ],
      "name": "ChangedPartition",
      "type": "event"
    },
    {
      "anonymous": false,
      "inputs": [
        {
          "indexed": true,
          "name": "operator",
          "type": "address"
        },
        {
          "indexed": true,
          "name": "tokenHolder",
          "type": "address"
        }
      ],
      "name": "AuthorizedOperator",
      "type": "event"
    },
    {
      "anonymous": false,
      "inputs": [
        {
          "indexed": true,
          "name": "operator",
          "type": "address"
        },
        {
          "indexed": true,
          "name": "tokenHolder",
          "type": "address"
        }
      ],
      "name": "RevokedOperator",
      "type": "event"
    },
    {
      "anonymous": false,
      "inputs": [
        {
          "indexed": true,
          "name": "partition",
          "type": "bytes32"
        },
        {
          "indexed": true,
          "name": "operator",
          "type": "address"
        },
        {
          "indexed": true,
          "name": "tokenHolder",
          "type": "address"
        }
      ],
      "name": "AuthorizedOperatorByPartition",
      "type": "event"
    },
    {
      "anonymous": false,
      "inputs": [
        {
          "indexed": true,
          "name": "partition",
          "type": "bytes32"
        },
        {
          "indexed": true,
          "name": "operator",
          "type": "address"
        },
        {
          "indexed": true,
          "name": "tokenHolder",
          "type": "address"
        }
      ],
      "name": "RevokedOperatorByPartition",
      "type": "event"
    },
    {
      "anonymous": false,
      "inputs": [
        {
          "indexed": true,
          "name": "operator",
          "type": "address"
        },
        {
          "indexed": true,
          "name": "to",
          "type": "address"
        },
        {
          "indexed": false,
          "name": "value",
          "type": "uint256"
        },
        {
          "indexed": false,
          "name": "data",
          "type": "bytes"
        }
      ],
      "name": "Issued",
      "type": "event"
    },
    {
      "anonymous": false,
      "inputs": [
        {
          "indexed": true,
          "name": "operator",
          "type": "address"
        },
        {
          "indexed": true,
          "name": "from",
          "type": "address"
        },
        {
          "indexed": false,
          "name": "value",
          "type": "uint256"
        },
        {
          "indexed": false,
          "name": "data",
          "type": "bytes"
        }
      ],
      "name": "Redeemed",
      "type": "event"
    },
    {
      "anonymous": false,
      "inputs": [
        {
          "indexed": true,
          "name": "partition",
          "type": "bytes32"
        },
        {
          "indexed": true,
          "name": "operator",
          "type": "address"
        },
        {
          "indexed": true,
          "name": "to",
          "type": "address"
        },
        {
          "indexed": false,
          "name": "value",
          "type": "uint256"
        },
        {
          "indexed": false,
          "name": "data",
          "type": "bytes"
        },
        {
          "indexed": false,
          "name": "operatorData",
          "type": "bytes"
        }
      ],
      "name": "IssuedByPartition",
      "type": "event"
    },
    {
      "anonymous": false,
      "inputs": [
        {
          "indexed": true,
          "name": "partition",
          "type": "bytes32"
        },
        {
          "indexed": true,
          "name": "operator",
          "type": "address"
        },
        {
          "indexed": true,
          "name": "from",
          "type": "address"
        },
        {
          "indexed": false,
          "name": "value",
          "type": "uint256"
        },
        {
          "indexed": false,
          "name": "operatorData",
          "type": "bytes"
        }
      ],
      "name": "RedeemedByPartition",
      "type": "event"
    },
    {
      "anonymous": false,
      "inputs": [
        {
          "indexed": true,
          "name": "from",
          "type": "address"
        },
        {
          "indexed": true,
          "name": "to",
          "type": "address"
        },
        {
          "indexed": false,
          "name": "value",
          "type": "uint256"
        }
      ],
      "name": "Transfer",
      "type": "event"
    },
    {
      "anonymous": false,
      "inputs": [
        {
          "indexed": true,
          "name": "owner",
          "type": "address"
        },
        {
          "indexed": true,
          "name": "spender",
          "type": "address"
        },
        {
          "indexed": false,
          "name": "value",
          "type": "uint256"
        }
      ],
      "name": "Approval",
      "type": "event"
    },
    {
      "constant": true,
      "inputs": [],
      "name": "totalSupply",
      "outputs": [
        {
          "name": "",
          "type": "uint256"
        }
      ],
      "payable": false,
      "stateMutability": "view",
      "type": "function"
    },
    {
      "constant": true,
      "inputs": [
        {
          "name": "tokenHolder",
          "type": "address"
        }
      ],
      "name": "balanceOf",
      "outputs": [
        {
          "name": "",
          "type": "uint256"
        }
      ],
      "payable": false,
      "stateMutability": "view",
      "type": "function"
    },
    {
      "constant": false,
      "inputs": [
        {
          "name": "to",
          "type": "address"
        },
        {
          "name": "value",
          "type": "uint256"
        }
      ],
      "name": "transfer",
      "outputs": [
        {
          "name": "",
          "type": "bool"
        }
      ],
      "payable": false,
      "stateMutability": "nonpayable",
      "type": "function"
    },
    {
      "constant": true,
      "inputs": [
        {
          "name": "owner",
          "type": "address"
        },
        {
          "name": "spender",
          "type": "address"
        }
      ],
      "name": "allowance",
      "outputs": [
        {
          "name": "",
          "type": "uint256"
        }
      ],
      "payable": false,
      "stateMutability": "view",
      "type": "function"
    },
    {
      "constant": false,
      "inputs": [
        {
          "name": "spender",
          "type": "address"
        },
        {
          "name": "value",
          "type": "uint256"
        }
      ],
      "name": "approve",
      "outputs": [
        {
          "name": "",
          "type": "bool"
        }
      ],
      "payable": false,
      "stateMutability": "nonpayable",
      "type": "function"
    },
    {
      "constant": false,
      "inputs": [
        {
          "name": "from",
          "type": "address"
        },
        {
          "name": "to",
          "type": "address"
        },
        {
          "name": "value",
          "type": "uint256"
        }
      ],
      "name": "transferFrom",
      "outputs": [
        {
          "name": "",
          "type": "bool"
        }
      ],
      "payable": false,
      "stateMutability": "nonpayable",
      "type": "function"
    },
    {
      "constant": true,
      "inputs": [
        {
          "name": "name",
          "type": "bytes32"
        }
      ],
      "name": "getDocument",
      "outputs": [
        {
          "name": "",
          "type": "string"
        },
        {
          "name": "",
          "type": "bytes32"
        }
      ],
      "payable": false,
      "stateMutability": "view",
      "type": "function"
    },
    {
      "constant": false,
      "inputs": [
        {
          "name": "name",
          "type": "bytes32"
        },
        {
          "name": "uri",
          "type": "string"
        },
        {
          "name": "documentHash",
          "type": "bytes32"
        }
      ],
      "name": "setDocument",
      "outputs": [],
      "payable": false,
      "stateMutability": "nonpayable",
      "type": "function"
    },
    {
      "constant": true,
      "inputs": [
        {
          "name": "partition",
          "type": "bytes32"
        },
        {
          "name": "tokenHolder",
          "type": "address"
        }
      ],
      "name": "balanceOfByPartition",
      "outputs": [
        {
          "name": "",
          "type": "uint256"
        }
      ],
      "payable": false,
      "stateMutability": "view",
      "type": "function"
    },
    {
      "constant": true,
      "inputs": [
        {
          "name": "tokenHolder",
          "type": "address"
        }
      ],
      "name": "partitionsOf",
      "outputs": [
        {
          "name": "",
          "type": "bytes32[]"
        }
      ],
      "payable": false,
      "stateMutability": "view",
      "type": "function"
    },
    {
      "constant": false,
      "inputs": [
        {
          "name": "to",
          "type": "address"
        },
        {
          "name": "value",
          "type": "uint256"
        },
        {
          "name": "data",
          "type": "bytes"
        }
      ],
      "name": "transferWithData",
      "outputs": [],
      "payable": false,
      "stateMutability": "nonpayable",
      "type": "function"
    },
    {
      "constant": false,
      "inputs": [
        {
          "name": "from",
          "type": "address"
        },
        {
          "name": "to",
          "type": "address"
        },
        {
          "name": "value",
          "type": "uint256"
        },
        {
          "name": "data",
          "type": "bytes"
        }
      ],
      "name": "transferFromWithData",
      "outputs": [],
      "payable": false,
      "stateMutability": "nonpayable",
      "type": "function"
    },
    {
      "constant": false,
      "inputs": [
        {
          "name": "partition",
          "type": "bytes32"
        },
        {
          "name": "to",
          "type": "address"
        },
        {
          "name": "value",
          "type": "uint256"
        },
        {
          "name": "data",
          "type": "bytes"
        }
      ],
      "name": "transferByPartition",
      "outputs": [
        {
          "name": "",
          "type": "bytes32"
        }
      ],
      "payable": false,
      "stateMutability": "nonpayable",
      "type": "function"
    },
    {
      "constant": false,
      "inputs": [
        {
          "name": "partition",
          "type": "bytes32"
        },
        {
          "name": "from",
          "type": "address"
        },
        {
          "name": "to",
          "type": "address"
        },
        {
          "name": "value",
          "type": "uint256"
        },
        {
          "name": "data",
          "type": "bytes"
        },
        {
          "name": "operatorData",
          "type": "bytes"
        }
      ],
      "name": "operatorTransferByPartition",
      "outputs": [
        {
          "name": "",
          "type": "bytes32"
        }
      ],
      "payable": false,
      "stateMutability": "nonpayable",
      "type": "function"
    },
    {
      "constant": true,
      "inputs": [],
      "name": "isControllable",
      "outputs": [
        {
          "name": "",
          "type": "bool"
        }
      ],
      "payable": false,
      "stateMutability": "view",
      "type": "function"
    },
    {
      "constant": false,
      "inputs": [
        {
          "name": "operator",
          "type": "address"
        }
      ],
      "name": "authorizeOperator",
      "outputs": [],
      "payable": false,
      "stateMutability": "nonpayable",
      "type": "function"
    },
    {
      "constant": false,
      "inputs": [
        {
          "name": "operator",
          "type": "address"
        }
      ],
      "name": "revokeOperator",
      "outputs": [],
      "payable": false,
      "stateMutability": "nonpayable",
      "type": "function"
    },
    {
      "constant": false,
      "inputs": [
        {
          "name": "partition",
          "type": "bytes32"
        },
        {
          "name": "operator",
          "type": "address"
        }
      ],
      "name": "authorizeOperatorByPartition",
      "outputs": [],
      "payable": false,
      "stateMutability": "nonpayable",
      "type": "function"
    },
    {
      "constant": false,
      "inputs": [
        {
          "name": "partition",
          "type": "bytes32"
        },
        {
          "name": "operator",
          "type": "address"
        }
      ],
      "name": "revokeOperatorByPartition",
      "outputs": [],
      "payable": false,
      "stateMutability": "nonpayable",
      "type": "function"
    },
    {
      "constant": true,
      "inputs": [
        {
          "name": "operator",
          "type": "address"
        },
        {
          "name": "tokenHolder",
          "type": "address"
        }
      ],
      "name": "isOperator",
      "outputs": [
        {
          "name": "",
          "type": "bool"
        }
      ],
      "payable": false,
      "stateMutability": "view",
      "type": "function"
    },
    {
      "constant": true,
      "inputs": [
        {
          "name": "partition",
          "type": "bytes32"
        },
        {
          "name": "operator",
          "type": "address"
        },
        {
          "name": "tokenHolder",
          "type": "address"
        }
      ],
      "name": "isOperatorForPartition",
      "outputs": [
        {
          "name": "",
          "type": "bool"
        }
      ],
      "payable": false,
      "stateMutability": "view",
      "type": "function"
    },
    {
      "constant": true,
      "inputs": [],
      "name": "isIssuable",
      "outputs": [
        {
          "name": "",
          "type": "bool"
        }
      ],
      "payable": false,
      "stateMutability": "view",
      "type": "function"
    },
    {
      "constant": false,
      "inputs": [
        {
          "name": "tokenHolder",
          "type": "address"
        },
        {
          "name": "value",
          "type": "uint256"
        },
        {
          "name": "data",
          "type": "bytes"
        }
      ],
      "name": "issue",
      "outputs": [],
      "payable": false,
      "stateMutability": "nonpayable",
      "type": "function"
    },
    {
      "constant": false,
      "inputs": [
        {
          "name": "partition",
          "type": "bytes32"
        },
        {
          "name": "tokenHolder",
          "type": "address"
        },
        {
          "name": "value",
          "type": "uint256"
        },
        {
          "name": "data",
          "type": "bytes"
        }
      ],
      "name": "issueByPartition",
      "outputs": [],
      "payable": false,
      "stateMutability": "nonpayable",
      "type": "function"
    },
    {
      "constant": false,
      "inputs": [
        {
          "name": "value",
          "type": "uint256"
        },
        {
          "name": "data",
          "type": "bytes"
        }
      ],
      "name": "redeem",
      "outputs": [],
      "payable": false,
      "stateMutability": "nonpayable",
      "type": "function"
    },
    {
      "constant": false,
      "inputs": [
        {
          "name": "from",
          "type": "address"
        },
        {
          "name": "value",
          "type": "uint256"
        },
        {
          "name": "data",
          "type": "bytes"
        }
      ],
      "name": "redeemFrom",
      "outputs": [],
      "payable": false,
      "stateMutability": "nonpayable",
      "type": "function"
    },
    {
      "constant": false,
      "inputs": [
        {
          "name": "partition",
          "type": "bytes32"
        },
        {
          "name": "value",
          "type": "uint256"
        },
        {
          "name": "data",
          "type": "bytes"
        }
      ],
      "name": "redeemByPartition",
      "outputs": [],
      "payable": false,
      "stateMutability": "nonpayable",
      "type": "function"
    },
    {
      "constant": false,
      "inputs": [
        {
          "name": "partition",
          "type": "bytes32"
        },
        {
          "name": "tokenHolder",
          "type": "address"
        },
        {
          "name": "value",
          "type": "uint256"
        },
        {
          "name": "operatorData",
          "type": "bytes"
        }
      ],
      "name": "operatorRedeemByPartition",
      "outputs": [],
      "payable": false,
      "stateMutability": "nonpayable",
      "type": "function"
    },
    {
      "constant": true,
      "inputs": [],
      "name": "name",
      "outputs": [
        {
          "name": "",
          "type": "string"
        }
      ],
      "payable": false,
      "stateMutability": "view",
      "type": "function"
    },
    {
      "constant": true,
      "inputs": [],
      "name": "symbol",
      "outputs": [
        {
          "name": "",
          "type": "string"
        }
      ],
      "payable": false,
      "stateMutability": "view",
      "type": "function"
    },
    {
      "constant": true,
      "inputs": [],
      "name": "decimals",
      "outputs": [
        {
          "name": "",
          "type": "uint8"
        }
      ],
      "payable": false,
      "stateMutability": "pure",
      "type": "function"
    },
    {
      "constant": true,
      "inputs": [],
      "name": "granularity",
      "outputs": [
        {
          "name": "",
          "type": "uint256"
        }
      ],
      "payable": false,
      "stateMutability": "view",
      "type": "function"
    },
    {
      "constant": true,
      "inputs": [],
      "name": "totalPartitions",
      "outputs": [
        {
          "name": "",
          "type": "bytes32[]"
        }
      ],
      "payable": false,
      "stateMutability": "view",
      "type": "function"
    },
    {
      "constant": true,
      "inputs": [
        {
          "name": "partition",
          "type": "bytes32"
        }
      ],
      "name": "totalSupplyByPartition",
      "outputs": [
        {
          "name": "",
          "type": "uint256"
        }
      ],
      "payable": false,
      "stateMutability": "view",
      "type": "function"
    },
    {
      "constant": false,
      "inputs": [],
      "name": "renounceControl",
      "outputs": [],
      "payable": false,
      "stateMutability": "nonpayable",
      "type": "function"
    },
    {
      "constant": false,
      "inputs": [],
      "name": "renounceIssuance",
      "outputs": [],
      "payable": false,
      "stateMutability": "nonpayable",
      "type": "function"
    },
    {
      "constant": true,
      "inputs": [],
      "name": "controllers",
      "outputs": [
        {
          "name": "",
          "type": "address[]"
        }
      ],
      "payable": false,
      "stateMutability": "view",
      "type": "function"
    },
    {
      "constant": true,
      "inputs": [
        {
          "name": "partition",
          "type": "bytes32"
        }
      ],
      "name": "controllersByPartition",
      "outputs": [
        {
          "name": "",
          "type": "address[]"
        }
      ],
      "payable": false,
      "stateMutability": "view",
      "type": "function"
    },
    {
      "constant": false,
      "inputs": [
        {
          "name": "operators",
          "type": "address[]"
        }
      ],
      "name": "setControllers",
      "outputs": [],
      "payable": false,
      "stateMutability": "nonpayable",
      "type": "function"
    },
    {
      "constant": false,
      "inputs": [
        {
          "name": "partition",
          "type": "bytes32"
        },
        {
          "name": "operators",
          "type": "address[]"
        }
      ],
      "name": "setPartitionControllers",
      "outputs": [],
      "payable": false,
      "stateMutability": "nonpayable",
      "type": "function"
    },
    {
      "constant": true,
      "inputs": [],
      "name": "getDefaultPartitions",
      "outputs": [
        {
          "name": "",
          "type": "bytes32[]"
        }
      ],
      "payable": false,
      "stateMutability": "view",
      "type": "function"
    },
    {
      "constant": false,
      "inputs": [
        {
          "name": "partitions",
          "type": "bytes32[]"
        }
      ],
      "name": "setDefaultPartitions",
      "outputs": [],
      "payable": false,
      "stateMutability": "nonpayable",
      "type": "function"
    },
    {
      "constant": true,
      "inputs": [
        {
          "name": "partition",
          "type": "bytes32"
        },
        {
          "name": "owner",
          "type": "address"
        },
        {
          "name": "spender",
          "type": "address"
        }
      ],
      "name": "allowanceByPartition",
      "outputs": [
        {
          "name": "",
          "type": "uint256"
        }
      ],
      "payable": false,
      "stateMutability": "view",
      "type": "function"
    },
    {
      "constant": false,
      "inputs": [
        {
          "name": "partition",
          "type": "bytes32"
        },
        {
          "name": "spender",
          "type": "address"
        },
        {
          "name": "value",
          "type": "uint256"
        }
      ],
      "name": "approveByPartition",
      "outputs": [
        {
          "name": "",
          "type": "bool"
        }
      ],
      "payable": false,
      "stateMutability": "nonpayable",
      "type": "function"
    },
    {
      "constant": false,
      "inputs": [
        {
          "name": "extension",
          "type": "address"
        },
        {
          "name": "interfaceLabel",
          "type": "string"
        },
        {
          "name": "removeOldExtensionRoles",
          "type": "bool"
        },
        {
          "name": "addMinterRoleForExtension",
          "type": "bool"
        },
        {
          "name": "addControllerRoleForExtension",
          "type": "bool"
        }
      ],
      "name": "setTokenExtension",
      "outputs": [],
      "payable": false,
      "stateMutability": "nonpayable",
      "type": "function"
    },
    {
      "constant": false,
      "inputs": [
        {
          "name": "newContractAddress",
          "type": "address"
        },
        {
          "name": "definitive",
          "type": "bool"
        }
      ],
      "name": "migrate",
      "outputs": [],
      "payable": false,
      "stateMutability": "nonpayable",
      "type": "function"
    }
  ],
  "bytecode": "0x60806040523480156200001157600080fd5b5060405162004cf238038062004cf2833981810160405260a08110156200003757600080fd5b8101908080516401000000008111156200005057600080fd5b820160208101848111156200006457600080fd5b81516401000000008111828201871017156200007f57600080fd5b505092919060200180516401000000008111156200009c57600080fd5b82016020810184811115620000b057600080fd5b8151640100000000811182820187101715620000cb57600080fd5b50506020820151604090920180519194929391640100000000811115620000f157600080fd5b820160208101848111156200010557600080fd5b81518560208202830111640100000000821117156200012357600080fd5b505092919060200180516401000000008111156200014057600080fd5b820160208101848111156200015457600080fd5b81518560208202830111640100000000821117156200017257600080fd5b5050600080546001600160a01b03191633178082556040519295506001600160a01b0316935091507f8be0079c531659141344cd1fd0a4f28419497f9722a3daafe3b4186f6b6457e0908290a3620001d3336001600160e01b036200039a16565b8451620001e8906003906020880190620006fd565b508351620001fe906004906020870190620006fd565b50600060065560018310156200021357600080fd5b60058390556200022c826001600160e01b03620003ec16565b80516200024190601190602084019062000782565b506007805462ff00001961ff001990911661010017166201000017905560408051808201909152600c81527f45524331343030546f6b656e0000000000000000000000000000000000000000602080830191909152620002ad9190309062003f2b620004c1821b17901c565b620002f96040518060400160405280600a81526020017f4552433230546f6b656e0000000000000000000000000000000000000000000081525030620004c160201b62003f2b1760201c565b620003446040518060400160405280600c81526020017f45524331343030546f6b656e0000000000000000000000000000000000000000815250620005d160201b620043661760201c565b6200038f6040518060400160405280600a81526020017f4552433230546f6b656e00000000000000000000000000000000000000000000815250620005d160201b620043661760201c565b50505050506200086c565b620003b58160026200066e60201b620040151790919060201c565b6040516001600160a01b038216907f6ae172837ea30b801fbfcdd4108aa1d5bf8ff775444fd70256b44e6bf3dfc3f690600090a250565b60005b6013548110156200044b57600060146000601384815481106200040e57fe5b6000918252602080832091909101546001600160a01b031683528201929092526040019020805460ff1916911515919091179055600101620003ef565b5060005b8151811015620004a7576001601460008484815181106200046c57fe5b6020908102919091018101516001600160a01b03168252810191909152604001600020805460ff19169115159190911790556001016200044f565b508051620004bd906013906020840190620007bf565b5050565b6000826040516020018082805190602001908083835b60208310620004f85780518252601f199092019160209182019101620004d7565b51815160209384036101000a60001901801990921691161790526040805192909401828103601f19018352808552825192909101919091207f29965a1d000000000000000000000000000000000000000000000000000000008252306004830152602482018190526001600160a01b03881660448301529251929550731820a4b7618bde71dce8cdc73aab6c95905fad2494506329965a1d9350606480820193600093509182900301818387803b158015620005b357600080fd5b505af1158015620005c8573d6000803e3d6000fd5b50505050505050565b6001806000836040516020018082805190602001908083835b602083106200060b5780518252601f199092019160209182019101620005ea565b6001836020036101000a03801982511681845116808217855250505050505090500191505060405160208183030381529060405280519060200120815260200190815260200160002060006101000a81548160ff02191690831515021790555050565b6001600160a01b0381166200068257600080fd5b6200069782826001600160e01b03620006c716565b15620006a257600080fd5b6001600160a01b0316600090815260209190915260409020805460ff19166001179055565b60006001600160a01b038216620006dd57600080fd5b506001600160a01b03166000908152602091909152604090205460ff1690565b828054600181600116156101000203166002900490600052602060002090601f016020900481019282601f106200074057805160ff191683800117855562000770565b8280016001018555821562000770579182015b828111156200077057825182559160200191906001019062000753565b506200077e92915062000825565b5090565b8280548282559060005260206000209081019282156200077057916020028201828111156200077057825182559160200191906001019062000753565b82805482825590600052602060002090810192821562000817579160200282015b828111156200081757825182546001600160a01b0319166001600160a01b03909116178255602090920191600190910190620007e0565b506200077e92915062000845565b6200084291905b808211156200077e57600081556001016200082c565b90565b6200084291905b808211156200077e5780546001600160a01b03191681556001016200084c565b614476806200087c6000396000f3fe608060405234801561001057600080fd5b506004361061027d5760003560e01c8063010648ca1461028257806306fdde03146102f9578063095ea7b314610376578063103ef9e1146103b657806314d1e62f146103e2578063168ecec51461041457806316e1aed41461044057806317ec83ca146104b557806318160ddd146104fb57806323b872dd14610503578063249cb3fa146105395780632535f762146105655780632f1cae85146105e85780633092afd5146105f057806330e8280314610616578063313ce567146106425780634c783bf514610660578063556f0dc71461066857806362eb00681461067057806367c84919146106ea57806369598efe146107745780636c30d170146107cc5780636d77cad6146107d457806370a0823114610808578063715018a61461082e578063740ab8f4146108365780637cc0c3a71461085c578063861ed3ea146108645780638c0dee9c146108815780638da5cb5b146109645780638f32d59b14610988578063933964c714610990578063959b8c3f146109be57806395d89b41146109e45780639675193c146109ec578063983b2d5614610a6f5780639865027514610a9557806398ddcec714610a9d578063a26734dc14610b27578063a6f4f10514610b44578063a9059cbb14610bd4578063aa271e1a14610c00578063b10d6b4114610c26578063b6363cf214610cc2578063bb3acde914610cf0578063bcfdc0cf14610d73578063ca281fd914610d7b578063dd62ed3e14610d83578063e77c646d14610db1578063ea74838a14610e26578063ec9a6e8714610e94578063ee532f3114610f02578063f2fde38b14610f90578063f3d490db14610fb6578063fad8b32a14611040575b600080fd5b6102f76004803603606081101561029857600080fd5b81359190810190604081016020820135600160201b8111156102b957600080fd5b8201836020820111156102cb57600080fd5b803590602001918460018302840111600160201b831117156102ec57600080fd5b919350915035611066565b005b610301611164565b6040805160208082528351818301528351919283929083019185019080838360005b8381101561033b578181015183820152602001610323565b50505050905090810190601f1680156103685780820380516001836020036101000a031916815260200191505b509250505060405180910390f35b6103a26004803603604081101561038c57600080fd5b506001600160a01b0381351690602001356111fb565b604080519115158252519081900360200190f35b6102f7600480360360408110156103cc57600080fd5b50803590602001356001600160a01b03166112a5565b6103a2600480360360608110156103f857600080fd5b508035906001600160a01b036020820135169060400135611309565b6102f76004803603604081101561042a57600080fd5b50803590602001356001600160a01b03166113bd565b6102f76004803603604081101561045657600080fd5b81359190810190604081016020820135600160201b81111561047757600080fd5b82018360208201111561048957600080fd5b803590602001918460208302840111600160201b831117156104aa57600080fd5b50909250905061141e565b6104e9600480360360608110156104cb57600080fd5b508035906001600160a01b0360208201358116916040013516611471565b60408051918252519081900360200190f35b6104e96114a1565b6103a26004803603606081101561051957600080fd5b506001600160a01b038135811691602081013590911690604001356114a7565b6104e96004803603604081101561054f57600080fd5b50803590602001356001600160a01b03166115e9565b6102f76004803603606081101561057b57600080fd5b6001600160a01b0382351691602081013591810190606081016040820135600160201b8111156105aa57600080fd5b8201836020820111156105bc57600080fd5b803590602001918460018302840111600160201b831117156105dd57600080fd5b50909250905061164d565b6103a2611696565b6102f76004803603602081101561060657600080fd5b50356001600160a01b03166116a5565b6104e96004803603604081101561062c57600080fd5b50803590602001356001600160a01b03166116d1565b61064a6116f6565b6040805160ff9092168252519081900360200190f35b6103a26116fb565b6104e9611709565b6102f76004803603606081101561068657600080fd5b813591602081013591810190606081016040820135600160201b8111156106ac57600080fd5b8201836020820111156106be57600080fd5b803590602001918460018302840111600160201b831117156106df57600080fd5b50909250905061170f565b6102f76004803603608081101561070057600080fd5b8135916001600160a01b036020820135169160408201359190810190608081016060820135600160201b81111561073657600080fd5b82018360208201111561074857600080fd5b803590602001918460018302840111600160201b8311171561076957600080fd5b509092509050611760565b61077c61180c565b60408051602080825283518183015283519192839290830191858101910280838360005b838110156107b85781810151838201526020016107a0565b505050509050019250505060405180910390f35b6102f7611863565b6103a2600480360360608110156107ea57600080fd5b508035906001600160a01b0360208201358116916040013516611882565b6104e96004803603602081101561081e57600080fd5b50356001600160a01b0316611897565b6102f76118b2565b61077c6004803603602081101561084c57600080fd5b50356001600160a01b03166118fb565b61077c611967565b61077c6004803603602081101561087a57600080fd5b50356119c8565b6104e9600480360360c081101561089757600080fd5b8135916001600160a01b03602082013581169260408301359091169160608101359181019060a081016080820135600160201b8111156108d657600080fd5b8201836020820111156108e857600080fd5b803590602001918460018302840111600160201b8311171561090957600080fd5b919390929091602081019035600160201b81111561092657600080fd5b82018360208201111561093857600080fd5b803590602001918460018302840111600160201b8311171561095957600080fd5b509092509050611a33565b61096c611bf8565b604080516001600160a01b039092168252519081900360200190f35b6103a2611c07565b6102f7600480360360408110156109a657600080fd5b506001600160a01b0381351690602001351515611c18565b6102f7600480360360208110156109d457600080fd5b50356001600160a01b0316611c37565b610301611ca6565b6102f760048036036060811015610a0257600080fd5b6001600160a01b0382351691602081013591810190606081016040820135600160201b811115610a3157600080fd5b820183602082011115610a4357600080fd5b803590602001918460018302840111600160201b83111715610a6457600080fd5b509092509050611d07565b6102f760048036036020811015610a8557600080fd5b50356001600160a01b0316611d89565b6102f7611db2565b6102f760048036036080811015610ab357600080fd5b8135916001600160a01b036020820135169160408201359190810190608081016060820135600160201b811115610ae957600080fd5b820183602082011115610afb57600080fd5b803590602001918460018302840111600160201b83111715610b1c57600080fd5b509092509050611dbd565b6104e960048036036020811015610b3d57600080fd5b5035611e51565b6102f7600480360360a0811015610b5a57600080fd5b6001600160a01b038235169190810190604081016020820135600160201b811115610b8457600080fd5b820183602082011115610b9657600080fd5b803590602001918460018302840111600160201b83111715610bb757600080fd5b919350915080351515906020810135151590604001351515611e63565b6103a260048036036040811015610bea57600080fd5b506001600160a01b038135169060200135611ec1565b6103a260048036036020811015610c1657600080fd5b50356001600160a01b0316611ee8565b610c4360048036036020811015610c3c57600080fd5b5035611efb565b6040518080602001838152602001828103825284818151815260200191508051906020019080838360005b83811015610c86578181015183820152602001610c6e565b50505050905090810190601f168015610cb35780820380516001836020036101000a031916815260200191505b50935050505060405180910390f35b6103a260048036036040811015610cd857600080fd5b506001600160a01b0381358116916020013516611fd7565b6102f760048036036060811015610d0657600080fd5b6001600160a01b0382351691602081013591810190606081016040820135600160201b811115610d3557600080fd5b820183602082011115610d4757600080fd5b803590602001918460018302840111600160201b83111715610d6857600080fd5b509092509050611fea565b61077c6120e0565b6102f7612136565b6104e960048036036040811015610d9957600080fd5b506001600160a01b0381358116916020013516612154565b6102f760048036036040811015610dc757600080fd5b81359190810190604081016020820135600160201b811115610de857600080fd5b820183602082011115610dfa57600080fd5b803590602001918460018302840111600160201b83111715610e1b57600080fd5b50909250905061217f565b6102f760048036036020811015610e3c57600080fd5b810190602081018135600160201b811115610e5657600080fd5b820183602082011115610e6857600080fd5b803590602001918460208302840111600160201b83111715610e8957600080fd5b5090925090506121c1565b6102f760048036036020811015610eaa57600080fd5b810190602081018135600160201b811115610ec457600080fd5b820183602082011115610ed657600080fd5b803590602001918460208302840111600160201b83111715610ef757600080fd5b50909250905061220e565b6102f760048036036080811015610f1857600080fd5b6001600160a01b03823581169260208101359091169160408201359190810190608081016060820135600160201b811115610f5257600080fd5b820183602082011115610f6457600080fd5b803590602001918460018302840111600160201b83111715610f8557600080fd5b50909250905061222b565b6102f760048036036020811015610fa657600080fd5b50356001600160a01b03166122ae565b6104e960048036036080811015610fcc57600080fd5b8135916001600160a01b036020820135169160408201359190810190608081016060820135600160201b81111561100257600080fd5b82018360208201111561101457600080fd5b803590602001918460018302840111600160201b8311171561103557600080fd5b5090925090506122c8565b6102f76004803603602081101561105657600080fd5b50356001600160a01b0316612326565b3360009081526014602052604090205460ff1661108257600080fd5b6040805160606020601f8601819004028201810183529181018481529091829190869086908190850183828082843760009201829052509385525050506020918201849052868152600a8252604090208251805191926110e7928492909101906141ee565b5060208201518160010155905050837f89730c201d2df6a4cef4e892559e63e022078b0ee939d11b6ced61fb098b282484848460405180806020018381526020018281038252858582818152602001925080828437600083820152604051601f909101601f1916909201829003965090945050505050a250505050565b60038054604080516020601f60026000196101006001881615020190951694909404938401819004810282018101909252828152606093909290918301828280156111f05780601f106111c5576101008083540402835291602001916111f0565b820191906000526020600020905b8154815290600101906020018083116111d357829003601f168201915b505050505090505b90565b60006001600160a01b03831661123d576040805162461bcd60e51b81526020600482015260026024820152611a9b60f11b604482015290519081900360640190fd5b3360008181526009602090815260408083206001600160a01b03881680855290835292819020869055805186815290519293927f8c5be1e5ebec7d5bd14f71427d1e84f3dd0314c0f7b2291e5b200ac8c7c3b925929181900390910190a35060015b92915050565b33600081815260166020908152604080832086845282528083206001600160a01b0386168085529252808320805460ff1916600117905551909185917f3646a897c70797ecc134b0adc32f471b07bf1d6f451133b0384badab531e3fd69190a45050565b60006001600160a01b03831661134b576040805162461bcd60e51b81526020600482015260026024820152611a9b60f11b604482015290519081900360640190fd5b6000848152601560209081526040808320338085529083528184206001600160a01b0388168086529084529382902086905581518681529151909288927ff061499aa77c2f6f5e25e34955a06623705344a88256cc861a121ec0bce5cfec929081900390910190a45060019392505050565b33600081815260166020908152604080832086845282528083206001600160a01b0386168085529252808320805460ff1916905551909185917f3b287c4f1bab4df949b33bceacef984f544dc5d5479930d00e4ee8c9d8dd96f29190a45050565b611426611c07565b61142f57600080fd5b61146c8383838080602002602001604051908101604052809392919081815260200183836020028082843760009201919091525061239292505050565b505050565b60009283526015602090815260408085206001600160a01b03948516865282528085209290931684525290205490565b60065490565b60006114b33385612495565b806114e157506001600160a01b03841660009081526009602090815260408083203384529091529020548211155b611517576040805162461bcd60e51b8152602060048201526002602482015261353360f01b604482015290519081900360640190fd5b6001600160a01b0384166000908152600960209081526040808320338452909152902054821161159e576001600160a01b0384166000908152600960209081526040808320338452909152902054611575908363ffffffff61251416565b6001600160a01b03851660009081526009602090815260408083203384529091529020556115c3565b6001600160a01b03841660009081526009602090815260408083203384529091528120555b6115df3385858560405180602001604052806000815250612529565b5060019392505050565b60008281526001602052604081205460ff161561164557604051602001808073455243313832305f4143434550545f4d4147494360601b815250601401905060405160208183030381529060405280519060200120905061129f565b50600061129f565b6116903333868686868080601f01602080910402602001604051908101604052809392919081815260200183838082843760009201919091525061252992505050565b50505050565b60075462010000900460ff1690565b6116ae33611ee8565b806116bc57506116bc611c07565b6116c557600080fd5b6116ce81612688565b50565b6001600160a01b03166000908152601060209081526040808320938352929052205490565b601290565b600754610100900460ff1690565b60055490565b6116908433338686868080601f0160208091040260200160405190810160405280939291908181526020018383808284376000920182905250604080516020810190915290815292506126d0915050565b61176933611ee8565b806117775750611777611c07565b61178057600080fd5b60075462010000900460ff166117c2576040805162461bcd60e51b8152602060048201526002602482015261353560f01b604482015290519081900360640190fd5b6118058533868686868080601f01602080910402602001604051908101604052809392919081815260200183838082843760009201919091525061282292505050565b5050505050565b6060600b8054806020026020016040519081016040528092919081815260200182805480156111f057602002820191906000526020600020905b815481526020019060010190808311611846575050505050905090565b61186b611c07565b61187457600080fd5b6007805462ff000019169055565b600061188f848484612943565b949350505050565b6001600160a01b031660009081526008602052604090205490565b6118ba611c07565b6118c357600080fd5b600080546040516001600160a01b0390911690600080516020614402833981519152908390a3600080546001600160a01b0319169055565b6001600160a01b0381166000908152600e602090815260409182902080548351818402810184019094528084526060939283018282801561195b57602002820191906000526020600020905b815481526020019060010190808311611947575b50505050509050919050565b606060138054806020026020016040519081016040528092919081815260200182805480156111f057602002820191906000526020600020905b81546001600160a01b031681526001909101906020018083116119a1575050505050905090565b60008181526017602090815260409182902080548351818402810184019094528084526060939283018282801561195b57602002820191906000526020600020905b81546001600160a01b03168152600190910190602001808311611a0a5750505050509050919050565b6000611a4089338a612943565b80611a75575060008981526015602090815260408083206001600160a01b038c16845282528083203384529091529020548611155b611aab576040805162461bcd60e51b8152602060048201526002602482015261353360f01b604482015290519081900360640190fd5b60008981526015602090815260408083206001600160a01b038c16845282528083203384529091529020548611611b475760008981526015602090815260408083206001600160a01b038c1684528252808320338452909152902054611b17908763ffffffff61251416565b60008a81526015602090815260408083206001600160a01b038d1684528252808320338452909152902055611b73565b60008981526015602090815260408083206001600160a01b038c16845282528083203384529091528120555b611beb89338a8a8a8a8a8080601f01602080910402602001604051908101604052809392919081815260200183838082843760009201919091525050604080516020601f8e018190048102820181019092528c815292508c91508b90819084018382808284376000920191909152506129cc92505050565b9998505050505050505050565b6000546001600160a01b031690565b6000546001600160a01b0316331490565b611c20611c07565b611c2957600080fd5b611c338282612c1f565b5050565b6001600160a01b038116331415611c4d57600080fd5b6001600160a01b0381166000818152601260209081526040808320338085529252808320805460ff19166001179055519092917ff4caeb2d6ca8932a215a353d0703c326ec2d81fc68170f320eb2ab49e9df61f991a350565b60048054604080516020601f60026000196101006001881615020190951694909404938401819004810282018101909252828152606093909290918301828280156111f05780601f106111c5576101008083540402835291602001916111f0565b611d113385612495565b611d47576040805162461bcd60e51b815260206004820152600260248201526106a760f31b604482015290519081900360640190fd5b61169033858585858080601f016020809104026020016040519081016040528093929190818152602001838380828437600092019190915250612c9092505050565b611d9233611ee8565b80611da05750611da0611c07565b611da957600080fd5b6116ce81612ddb565b611dbb33612688565b565b611dc8853386612943565b611dfe576040805162461bcd60e51b815260206004820152600260248201526106a760f31b604482015290519081900360640190fd5b611805853386866040518060200160405280600081525087878080601f0160208091040260200160405190810160405280939291908181526020018383808284376000920191909152506126d092505050565b6000908152600d602052604090205490565b611e6b611c07565b611e7457600080fd5b611eb98686868080601f016020809104026020016040519081016040528093929190818152602001838380828437600092019190915250889250879150869050612e23565b505050505050565b6000611edf3333858560405180602001604052806000815250612529565b50600192915050565b600061129f60028363ffffffff612edf16565b6000818152600a60205260408120546060919060026000196101006001841615020190911604611f2a57600080fd5b6000838152600a602090815260409182902060018082015482548551600293821615610100026000190190911692909204601f81018590048502830185019095528482529193919290918491830182828015611fc75780601f10611f9c57610100808354040283529160200191611fc7565b820191906000526020600020905b815481529060010190602001808311611faa57829003601f168201915b5050505050915091509150915091565b6000611fe38383612495565b9392505050565b611ff333611ee8565b806120015750612001611c07565b61200a57600080fd5b60075462010000900460ff1661204c576040805162461bcd60e51b8152602060048201526002602482015261353560f01b604482015290519081900360640190fd5b601154612085576040805162461bcd60e51b8152602060048201526002602482015261353560f01b604482015290519081900360640190fd5b611690601160008154811061209657fe5b906000526020600020015433868686868080601f01602080910402602001604051908101604052809392919081815260200183838082843760009201919091525061282292505050565b606060118054806020026020016040519081016040528092919081815260200182805480156111f05760200282019190600052602060002090815481526020019060010190808311611846575050505050905090565b61213e611c07565b61214757600080fd5b6007805461ff0019169055565b6001600160a01b03918216600090815260096020908152604080832093909416825291909152205490565b61146c33338585858080601f016020809104026020016040519081016040528093929190818152602001838380828437600092019190915250612c9092505050565b6121c9611c07565b6121d257600080fd5b611c33828280806020026020016040519081016040528093929190818152602001838360200280828437600092019190915250612f1492505050565b612216611c07565b61221f57600080fd5b61146c6011838361426c565b6122353386612495565b61226b576040805162461bcd60e51b815260206004820152600260248201526106a760f31b604482015290519081900360640190fd5b6118053386868686868080601f01602080910402602001604051908101604052809392919081815260200183838082843760009201919091525061252992505050565b6122b6611c07565b6122bf57600080fd5b6116ce81612fdd565b600061231c863333888888888080601f0160208091040260200160405190810160405280939291908181526020018383808284376000920182905250604080516020810190915290815292506129cc915050565b9695505050505050565b6001600160a01b03811633141561233c57600080fd5b6001600160a01b0381166000818152601260209081526040808320338085529252808320805460ff19169055519092917f50546e66e5f44d728365dc3908c63bc5cfeeab470722c1677e3073a6ac294aa191a350565b60005b60008381526017602052604090205481101561240e576000838152601860209081526040808320601790925282208054839190859081106123d257fe5b6000918252602080832091909101546001600160a01b031683528201929092526040019020805460ff1916911515919091179055600101612395565b5060005b815181101561247557600083815260186020526040812083516001929085908590811061243b57fe5b6020908102919091018101516001600160a01b03168252810191909152604001600020805460ff1916911515919091179055600101612412565b506000828152601760209081526040909120825161146c928401906142a7565b6000816001600160a01b0316836001600160a01b031614806124dc57506001600160a01b0380841660009081526012602090815260408083209386168352929052205460ff165b80611fe35750600754610100900460ff168015611fe3575050506001600160a01b031660009081526014602052604090205460ff1690565b60008282111561252357600080fd5b50900390565b601154612562576040805162461bcd60e51b8152602060048201526002602482015261353560f01b604482015290519081900360640190fd5b816000805b601154811015612646576001600160a01b0387166000908152601060205260408120601180549192918490811061259a57fe5b906000526020600020015481526020019081526020016000205491508183116125fc576125f2601182815481106125cd57fe5b90600052602060002001548989898789604051806020016040528060008152506129cc565b5060009250612646565b811561263e576126376011828154811061261257fe5b90600052602060002001548989898689604051806020016040528060008152506129cc565b5081830392505b600101612567565b50811561267f576040805162461bcd60e51b81526020600482015260026024820152611a9960f11b604482015290519081900360640190fd5b50505050505050565b61269960028263ffffffff61303916565b6040516001600160a01b038216907fe94479a9f7e1952cc78f2d6baab678adc1b772d936c6583def489e524cb6669290600090a250565b6001600160a01b038416600090815260106020908152604080832089845290915290205483111561272d576040805162461bcd60e51b81526020600482015260026024820152611a9960f11b604482015290519081900360640190fd5b61273d8686866000878787613081565b61274d868686600087878761328c565b6127588487856133c0565b6127648585858561366a565b836001600160a01b0316856001600160a01b0316877fce306c3dbc4a497124b5a4f2be8388b41084c1d74663da27ecee1186c00239bf86856040518083815260200180602001828103825283818151815260200191508051906020019080838360005b838110156127df5781810151838201526020016127c7565b50505050905090810190601f16801561280c5780820380516001836020036101000a031916815260200191505b50935050505060405180910390a4505050505050565b612841858560008686866040518060200160405280600081525061328c565b61284d848484846138bd565b612858838684613acb565b6128778585600086868660405180602001604052806000815250613c15565b826001600160a01b0316846001600160a01b0316867ff0ded82afbb1bb3ff3fc48cb2a26584aa84e4af0bf309c804ecdb94d0f6a98bb8585604051808381526020018060200180602001838103835284818151815260200191508051906020019080838360005b838110156128f65781810151838201526020016128de565b50505050905090810190601f1680156129235780820380516001836020036101000a031916815260200191505b509283039052506000815260408051918290030192509050a45050505050565b600061294f8383612495565b8061298757506001600160a01b03808316600090815260166020908152604080832088845282528083209387168352929052205460ff165b8061188f5750600754610100900460ff16801561188f5750505060009182526018602090815260408084206001600160a01b0393909316845291905290205460ff1690565b6001600160a01b03851660009081526010602090815260408083208a8452909152812054841115612a29576040805162461bcd60e51b81526020600482015260026024820152611a9960f11b604482015290519081900360640190fd5b8151889015801590612a3d57506040845110155b15612a4f57612a4c8985613d49565b90505b612a5e89898989898989613081565b612a6d8989898989898961328c565b612a78878a876133c0565b612a83878787613d75565b612a8e868287613acb565b612a9d81898989898989613c15565b856001600160a01b0316876001600160a01b03168a7fff4e9a26af4eb73b8bacfaa4abd4fea03d9448e7b912dc5ff4019048875aa2d48b89898960405180856001600160a01b03166001600160a01b031681526020018481526020018060200180602001838103835285818151815260200191508051906020019080838360005b83811015612b36578181015183820152602001612b1e565b50505050905090810190601f168015612b635780820380516001836020036101000a031916815260200191505b50838103825284518152845160209182019186019080838360005b83811015612b96578181015183820152602001612b7e565b50505050905090810190601f168015612bc35780820380516001836020036101000a031916815260200191505b50965050505050505060405180910390a4888114612c135760408051868152905182918b917f67c8ba31d2dd11f1384577b3405b04ed91eed1231e408432ad2458cab37b2fa19181900360200190a35b98975050505050505050565b612c4b6040518060400160405280600a81526020016922a92199182a37b5b2b760b11b81525083613f2b565b612c796040518060400160405280600c81526020016b22a921989a18182a37b5b2b760a11b81525083613f2b565b8015611c33576007805460ff191660011790555050565b601154612cc9576040805162461bcd60e51b8152602060048201526002602482015261353560f01b604482015290519081900360640190fd5b816000805b601154811015612da2576001600160a01b03861660009081526010602052604081206011805491929184908110612d0157fe5b90600052602060002001548152602001908152602001600020549150818311612d6157612d5860118281548110612d3457fe5b906000526020600020015488888688604051806020016040528060008152506126d0565b60009250612da2565b612d9560118281548110612d7157fe5b906000526020600020015488888588604051806020016040528060008152506126d0565b8183039250600101612cce565b508115611eb9576040805162461bcd60e51b81526020600482015260026024820152611a9960f11b604482015290519081900360640190fd5b612dec60028263ffffffff61401516565b6040516001600160a01b038216907f6ae172837ea30b801fbfcdd4108aa1d5bf8ff775444fd70256b44e6bf3dfc3f690600090a250565b6000612e2f3086614061565b90506001600160a01b03811615801590612e465750835b15612e8357612e5481611ee8565b15612e6257612e6281612688565b6001600160a01b0381166000908152601460205260409020805460ff191690555b612e8d8587613f2b565b828015612ea05750612e9e86611ee8565b155b15612eae57612eae86612ddb565b8115611eb9576001600160a01b0386166000908152601460205260409020805460ff19166001179055505050505050565b60006001600160a01b038216612ef457600080fd5b506001600160a01b03166000908152602091909152604090205460ff1690565b60005b601354811015612f705760006014600060138481548110612f3457fe5b6000918252602080832091909101546001600160a01b031683528201929092526040019020805460ff1916911515919091179055600101612f17565b5060005b8151811015612fc957600160146000848481518110612f8f57fe5b6020908102919091018101516001600160a01b03168252810191909152604001600020805460ff1916911515919091179055600101612f74565b508051611c339060139060208401906142a7565b6001600160a01b038116612ff057600080fd5b600080546040516001600160a01b038085169392169160008051602061440283398151915291a3600080546001600160a01b0319166001600160a01b0392909216919091179055565b6001600160a01b03811661304c57600080fd5b6130568282612edf565b61305f57600080fd5b6001600160a01b0316600090815260209190915260409020805460ff19169055565b60006130b8866040518060400160405280601381526020017222a921989a18182a37b5b2b739a9b2b73232b960691b815250614061565b90506001600160a01b0381161561328257806001600160a01b0316634e755a546000368b8b8b8b8b8b8b6040518a63ffffffff1660e01b81526004018080602001898152602001886001600160a01b03166001600160a01b03168152602001876001600160a01b03166001600160a01b03168152602001866001600160a01b03166001600160a01b03168152602001858152602001806020018060200184810384528d8d828181526020019250808284376000838201819052601f909101601f19169092018681038552885181528851602091820193918a019250908190849084905b838110156131b357818101518382015260200161319b565b50505050905090810190601f1680156131e05780820380516001836020036101000a031916815260200191505b50848103825285518152855160209182019187019080838360005b838110156132135781810151838201526020016131fb565b50505050905090810190601f1680156132405780820380516001836020036101000a031916815260200191505b509c50505050505050505050505050600060405180830381600087803b15801561326957600080fd5b505af115801561327d573d6000803e3d6000fd5b505050505b5050505050505050565b60006132c6306040518060400160405280601681526020017522a921989a18182a37b5b2b739ab30b634b230ba37b960511b815250614061565b90506001600160a01b0381161561328257806001600160a01b031663520faa766000368b8b8b8b8b8b8b6040518a63ffffffff1660e01b81526004018080602001898152602001886001600160a01b03166001600160a01b03168152602001876001600160a01b03166001600160a01b03168152602001866001600160a01b03166001600160a01b03168152602001858152602001806020018060200184810384528d8d828181526020019250808284376000838201819052601f909101601f19169092018681038552885181528851602091820193918a01925090819084908490838110156131b357818101518382015260200161319b565b6001600160a01b03831660009081526010602090815260408083208584529091529020546133f4908263ffffffff61251416565b6001600160a01b0384166000908152601060209081526040808320868452825280832093909355600d90522054613431908263ffffffff61251416565b6000838152600d60205260409020819055613506576000828152600c60205260409020548061348c576040805162461bcd60e51b8152602060048201526002602482015261035360f41b604482015290519081900360640190fd5b600b80546000919060001981019081106134a257fe5b9060005260206000200154905080600b60018403815481106134c057fe5b6000918252602080832090910192909255828152600c90915260409020829055600b805460001901906134f39082614308565b5050506000828152600c60205260408120555b6001600160a01b038316600090815260106020908152604080832085845290915290205461146c576001600160a01b0383166000908152600f6020908152604080832085845290915290205480613589576040805162461bcd60e51b8152602060048201526002602482015261035360f41b604482015290519081900360640190fd5b6001600160a01b0384166000908152600e60205260408120805460001981019081106135b157fe5b9060005260206000200154905080600e6000876001600160a01b03166001600160a01b0316815260200190815260200160002060018403815481106135f257fe5b60009182526020808320909101929092556001600160a01b038716808252600f835260408083208584528452808320869055908252600e909252208054600019019061363e9082614308565b5050506001600160a01b0383166000908152600f60209081526040808320858452909152812055505050565b60075460ff16156136a7576040805162461bcd60e51b81526020600482015260026024820152610d4d60f21b604482015290519081900360640190fd5b6136b082614164565b6136e6576040805162461bcd60e51b8152602060048201526002602482015261035360f41b604482015290519081900360640190fd5b6001600160a01b038316613726576040805162461bcd60e51b81526020600482015260026024820152611a9b60f11b604482015290519081900360640190fd5b6001600160a01b038316600090815260086020526040902054821115613778576040805162461bcd60e51b81526020600482015260026024820152611a9960f11b604482015290519081900360640190fd5b6001600160a01b0383166000908152600860205260409020546137a1908363ffffffff61251416565b6001600160a01b0384166000908152600860205260409020556006546137cd908363ffffffff61251416565b600681905550826001600160a01b0316846001600160a01b03167fb7d0d6b60740753e9f16692a2f479472a1385aec2420fa43225b02f2ffa1afe784846040518083815260200180602001828103825283818151815260200191508051906020019080838360005b8381101561384d578181015183820152602001613835565b50505050905090810190601f16801561387a5780820380516001836020036101000a031916815260200191505b50935050505060405180910390a36040805183815290516000916001600160a01b038616916000805160206144228339815191529181900360200190a350505050565b60075460ff16156138fa576040805162461bcd60e51b81526020600482015260026024820152610d4d60f21b604482015290519081900360640190fd5b61390382614164565b613939576040805162461bcd60e51b8152602060048201526002602482015261035360f41b604482015290519081900360640190fd5b6001600160a01b038316613979576040805162461bcd60e51b8152602060048201526002602482015261353760f01b604482015290519081900360640190fd5b60065461398c908363ffffffff61419316565b6006556001600160a01b0383166000908152600860205260409020546139b8908363ffffffff61419316565b60086000856001600160a01b03166001600160a01b0316815260200190815260200160002081905550826001600160a01b0316846001600160a01b03167f0e9905d62635f049c2f4e11678ebf9dc3d1f8c4a653e290759b772e47ba00d0084846040518083815260200180602001828103825283818151815260200191508051906020019080838360005b83811015613a5b578181015183820152602001613a43565b50505050905090810190601f168015613a885780820380516001836020036101000a031916815260200191505b50935050505060405180910390a36040805183815290516001600160a01b038516916000916000805160206144228339815191529181900360200190a350505050565b801561146c576001600160a01b0383166000908152600f60209081526040808320858452909152902054613b3d576001600160a01b0383166000818152600e602090815260408083208054600181018255818552838520018790559383529254600f8252838320868452909152919020555b6001600160a01b0383166000908152601060209081526040808320858452909152902054613b71908263ffffffff61419316565b6001600160a01b0384166000908152601060209081526040808320868452825280832093909355600c90522054613be257600b80546001810182557f0175b7a638427703f0dbe7bb9bbf987a2551717b34e79f33b5b1008d1fa01db901839055546000838152600c60205260409020555b6000828152600d6020526040902054613c01908263ffffffff61419316565b6000838152600d6020526040902055505050565b6000613c4f8560405180604001604052806016815260200175115490cc4d0c0c151bdad95b9cd49958da5c1a595b9d60521b815250614061565b90506001600160a01b0381161561328257806001600160a01b031663f464b5766000368b8b8b8b8b8b8b6040518a63ffffffff1660e01b81526004018080602001898152602001886001600160a01b03166001600160a01b03168152602001876001600160a01b03166001600160a01b03168152602001866001600160a01b03166001600160a01b03168152602001858152602001806020018060200184810384528d8d828181526020019250808284376000838201819052601f909101601f19169092018681038552885181528851602091820193918a01925090819084908490838110156131b357818101518382015260200161319b565b60208101516000906000199080821415613d695760408401519250613d6d565b8492505b505092915050565b60075460ff1615613db2576040805162461bcd60e51b81526020600482015260026024820152610d4d60f21b604482015290519081900360640190fd5b613dbb81614164565b613df1576040805162461bcd60e51b8152602060048201526002602482015261035360f41b604482015290519081900360640190fd5b6001600160a01b038216613e31576040805162461bcd60e51b8152602060048201526002602482015261353760f01b604482015290519081900360640190fd5b6001600160a01b038316600090815260086020526040902054811115613e83576040805162461bcd60e51b81526020600482015260026024820152611a9960f11b604482015290519081900360640190fd5b6001600160a01b038316600090815260086020526040902054613eac908263ffffffff61251416565b6001600160a01b038085166000908152600860205260408082209390935590841681522054613ee1908263ffffffff61419316565b6001600160a01b03808416600081815260086020908152604091829020949094558051858152905191939287169260008051602061442283398151915292918290030190a3505050565b6000826040516020018082805190602001908083835b60208310613f605780518252601f199092019160209182019101613f41565b51815160209384036101000a60001901801990921691161790526040805192909401828103601f19018352808552825192909101919091206329965a1d60e01b8252306004830152602482018190526001600160a01b03881660448301529251929550731820a4b7618bde71dce8cdc73aab6c95905fad2494506329965a1d9350606480820193600093509182900301818387803b15801561400157600080fd5b505af115801561267f573d6000803e3d6000fd5b6001600160a01b03811661402857600080fd5b6140328282612edf565b1561403c57600080fd5b6001600160a01b0316600090815260209190915260409020805460ff19166001179055565b600080826040516020018082805190602001908083835b602083106140975780518252601f199092019160209182019101614078565b51815160209384036101000a60001901801990921691161790526040805192909401828103601f1901835280855282519282019290922063555ddc6560e11b83526001600160a01b038b166004840152602483018190529351939650731820a4b7618bde71dce8cdc73aab6c95905fad24955063aabbb8ca94506044808301949193509091829003018186803b15801561413057600080fd5b505afa158015614144573d6000803e3d6000fd5b505050506040513d602081101561415a57600080fd5b5051949350505050565b600554600090829061418c90614180838263ffffffff6141a516565b9063ffffffff6141c716565b1492915050565b600082820183811015611fe357600080fd5b60008082116141b357600080fd5b60008284816141be57fe5b04949350505050565b6000826141d65750600061129f565b828202828482816141e357fe5b0414611fe357600080fd5b828054600181600116156101000203166002900490600052602060002090601f016020900481019282601f1061422f57805160ff191683800117855561425c565b8280016001018555821561425c579182015b8281111561425c578251825591602001919060010190614241565b50614268929150614328565b5090565b82805482825590600052602060002090810192821561425c579160200282015b8281111561425c57823582559160200191906001019061428c565b8280548282559060005260206000209081019282156142fc579160200282015b828111156142fc57825182546001600160a01b0319166001600160a01b039091161782556020909201916001909101906142c7565b50614268929150614342565b81548183558181111561146c5760008381526020902061146c9181019083015b6111f891905b80821115614268576000815560010161432e565b6111f891905b808211156142685780546001600160a01b0319168155600101614348565b6001806000836040516020018082805190602001908083835b6020831061439e5780518252601f19909201916020918201910161437f565b6001836020036101000a03801982511681845116808217855250505050505090500191505060405160208183030381529060405280519060200120815260200190815260200160002060006101000a81548160ff0219169083151502179055505056fe8be0079c531659141344cd1fd0a4f28419497f9722a3daafe3b4186f6b6457e0ddf252ad1be2c89b69c2b068fc378daa952ba7f163c4a11628f55a4df523b3efa265627a7a723058204cc0ab7067967b4b5f03f85f01096df98286a878c545b3291d75f1301d3d48f664736f6c634300050a0032",
  "source": "/*\n * This code has not been reviewed.\n * Do not use or deploy this code before reviewing it personally first.\n */\npragma solidity ^0.5.0;\n\nimport \"openzeppelin-solidity/contracts/math/SafeMath.sol\";\nimport \"openzeppelin-solidity/contracts/ownership/Ownable.sol\";\nimport \"openzeppelin-solidity/contracts/token/ERC20/IERC20.sol\";\n\nimport \"erc1820/contracts/ERC1820Client.sol\";\nimport \"./interface/ERC1820Implementer.sol\";\n\nimport \"./roles/MinterRole.sol\";\n\nimport \"./IERC1400.sol\";\n\n// Extensions\nimport \"./extensions/tokenExtensions/IERC1400TokensValidator.sol\";\nimport \"./extensions/tokenExtensions/IERC1400TokensChecker.sol\";\nimport \"./extensions/userExtensions/IERC1400TokensSender.sol\";\nimport \"./extensions/userExtensions/IERC1400TokensRecipient.sol\";\n\n\n/**\n * @title ERC1400\n * @dev ERC1400 logic\n */\ncontract ERC1400 is IERC20, IERC1400, Ownable, ERC1820Client, ERC1820Implementer, MinterRole {\n  using SafeMath for uint256;\n\n  // Token\n  string constant internal ERC1400_INTERFACE_NAME = \"ERC1400Token\";\n  string constant internal ERC20_INTERFACE_NAME = \"ERC20Token\";\n\n  // Token extensions\n  string constant internal ERC1400_TOKENS_CHECKER = \"ERC1400TokensChecker\";\n  string constant internal ERC1400_TOKENS_VALIDATOR = \"ERC1400TokensValidator\";\n\n  // User extensions\n  string constant internal ERC1400_TOKENS_SENDER = \"ERC1400TokensSender\";\n  string constant internal ERC1400_TOKENS_RECIPIENT = \"ERC1400TokensRecipient\";\n\n  /************************************* Token description ****************************************/\n  string internal _name;\n  string internal _symbol;\n  uint256 internal _granularity;\n  uint256 internal _totalSupply;\n  bool internal _migrated;\n  /************************************************************************************************/\n\n\n  /**************************************** Token behaviours **************************************/\n  // Indicate whether the token can still be controlled by operators or not anymore.\n  bool internal _isControllable;\n\n  // Indicate whether the token can still be issued by the issuer or not anymore.\n  bool internal _isIssuable;\n  /************************************************************************************************/\n\n\n  /********************************** ERC20 Token mappings ****************************************/\n  // Mapping from tokenHolder to balance.\n  mapping(address => uint256) internal _balances;\n\n  // Mapping from (tokenHolder, spender) to allowed value.\n  mapping (address => mapping (address => uint256)) internal _allowed;\n  /************************************************************************************************/\n\n\n  /**************************************** Documents *********************************************/\n  struct Doc {\n    string docURI;\n    bytes32 docHash;\n  }\n  // Mapping for token URIs.\n  mapping(bytes32 => Doc) internal _documents;\n  /************************************************************************************************/\n\n\n  /*********************************** Partitions  mappings ***************************************/\n  // List of partitions.\n  bytes32[] internal _totalPartitions;\n\n  // Mapping from partition to their index.\n  mapping (bytes32 => uint256) internal _indexOfTotalPartitions;\n\n  // Mapping from partition to global balance of corresponding partition.\n  mapping (bytes32 => uint256) internal _totalSupplyByPartition;\n\n  // Mapping from tokenHolder to their partitions.\n  mapping (address => bytes32[]) internal _partitionsOf;\n\n  // Mapping from (tokenHolder, partition) to their index.\n  mapping (address => mapping (bytes32 => uint256)) internal _indexOfPartitionsOf;\n\n  // Mapping from (tokenHolder, partition) to balance of corresponding partition.\n  mapping (address => mapping (bytes32 => uint256)) internal _balanceOfByPartition;\n\n  // List of token default partitions (for ERC20 compatibility).\n  bytes32[] internal _defaultPartitions;\n  /************************************************************************************************/\n\n\n  /********************************* Global operators mappings ************************************/\n  // Mapping from (operator, tokenHolder) to authorized status. [TOKEN-HOLDER-SPECIFIC]\n  mapping(address => mapping(address => bool)) internal _authorizedOperator;\n\n  // Array of controllers. [GLOBAL - NOT TOKEN-HOLDER-SPECIFIC]\n  address[] internal _controllers;\n\n  // Mapping from operator to controller status. [GLOBAL - NOT TOKEN-HOLDER-SPECIFIC]\n  mapping(address => bool) internal _isController;\n  /************************************************************************************************/\n\n\n  /******************************** Partition operators mappings **********************************/\n  // Mapping from (partition, tokenHolder, spender) to allowed value. [TOKEN-HOLDER-SPECIFIC]\n  mapping(bytes32 => mapping (address => mapping (address => uint256))) internal _allowedByPartition;\n\n  // Mapping from (tokenHolder, partition, operator) to 'approved for partition' status. [TOKEN-HOLDER-SPECIFIC]\n  mapping (address => mapping (bytes32 => mapping (address => bool))) internal _authorizedOperatorByPartition;\n\n  // Mapping from partition to controllers for the partition. [NOT TOKEN-HOLDER-SPECIFIC]\n  mapping (bytes32 => address[]) internal _controllersByPartition;\n\n  // Mapping from (partition, operator) to PartitionController status. [NOT TOKEN-HOLDER-SPECIFIC]\n  mapping (bytes32 => mapping (address => bool)) internal _isControllerByPartition;\n  /************************************************************************************************/\n\n\n  /***************************************** Modifiers ********************************************/\n  /**\n   * @dev Modifier to verify if token is issuable.\n   */\n  modifier isIssuableToken() {\n    require(_isIssuable, \"55\"); // 0x55\tfunds locked (lockup period)\n    _;\n  }\n  /**\n   * @dev Modifier to make a function callable only when the contract is not migrated.\n   */\n  modifier isNotMigratedToken() {\n      require(!_migrated, \"54\"); // 0x54\ttransfers halted (contract paused)\n      _;\n  }\n  /**\n   * @dev Modifier to verifiy if sender is a minter.\n   */\n  modifier onlyMinter() {\n      require(isMinter(msg.sender) || isOwner());\n      _;\n  }\n  /************************************************************************************************/\n\n\n  /**************************** Events (additional - not mandatory) *******************************/\n  event ApprovalByPartition(bytes32 indexed partition, address indexed owner, address indexed spender, uint256 value);\n  /************************************************************************************************/\n\n\n  /**\n   * @dev Initialize ERC1400 + register the contract implementation in ERC1820Registry.\n   * @param name Name of the token.\n   * @param symbol Symbol of the token.\n   * @param granularity Granularity of the token.\n   * @param controllers Array of initial controllers.\n   * @param defaultPartitions Partitions chosen by default, when partition is\n   * not specified, like the case ERC20 tranfers.\n   */\n  constructor(\n    string memory name,\n    string memory symbol,\n    uint256 granularity,\n    address[] memory controllers,\n    bytes32[] memory defaultPartitions\n  )\n    public\n  {\n    _name = name;\n    _symbol = symbol;\n    _totalSupply = 0;\n    require(granularity >= 1); // Constructor Blocked - Token granularity can not be lower than 1\n    _granularity = granularity;\n\n    _setControllers(controllers);\n\n    _defaultPartitions = defaultPartitions;\n\n    _isControllable = true;\n    _isIssuable = true;\n\n    // Register contract in ERC1820 registry\n    ERC1820Client.setInterfaceImplementation(ERC1400_INTERFACE_NAME, address(this));\n    ERC1820Client.setInterfaceImplementation(ERC20_INTERFACE_NAME, address(this));\n\n    // Indicate token verifies ERC1400 and ERC20 interfaces\n    ERC1820Implementer._setInterface(ERC1400_INTERFACE_NAME); // For migration\n    ERC1820Implementer._setInterface(ERC20_INTERFACE_NAME); // For migration\n  }\n\n\n  /************************************************************************************************/\n  /****************************** EXTERNAL FUNCTIONS (ERC20 INTERFACE) ****************************/\n  /************************************************************************************************/\n\n\n  /**\n   * @dev Get the total number of issued tokens.\n   * @return Total supply of tokens currently in circulation.\n   */\n  function totalSupply() external view returns (uint256) {\n    return _totalSupply;\n  }\n  /**\n   * @dev Get the balance of the account with address 'tokenHolder'.\n   * @param tokenHolder Address for which the balance is returned.\n   * @return Amount of token held by 'tokenHolder' in the token contract.\n   */\n  function balanceOf(address tokenHolder) external view returns (uint256) {\n    return _balances[tokenHolder];\n  }\n  /**\n   * @dev Transfer token for a specified address.\n   * @param to The address to transfer to.\n   * @param value The value to be transferred.\n   * @return A boolean that indicates if the operation was successful.\n   */\n  function transfer(address to, uint256 value) external returns (bool) {\n    _transferByDefaultPartitions(msg.sender, msg.sender, to, value, \"\");\n    return true;\n  }\n  /**\n   * @dev Check the value of tokens that an owner allowed to a spender.\n   * @param owner address The address which owns the funds.\n   * @param spender address The address which will spend the funds.\n   * @return A uint256 specifying the value of tokens still available for the spender.\n   */\n  function allowance(address owner, address spender) external view returns (uint256) {\n    return _allowed[owner][spender];\n  }\n  /**\n   * @dev Approve the passed address to spend the specified amount of tokens on behalf of 'msg.sender'.\n   * @param spender The address which will spend the funds.\n   * @param value The amount of tokens to be spent.\n   * @return A boolean that indicates if the operation was successful.\n   */\n  function approve(address spender, uint256 value) external returns (bool) {\n    require(spender != address(0), \"56\"); // 0x56\tinvalid sender\n    _allowed[msg.sender][spender] = value;\n    emit Approval(msg.sender, spender, value);\n    return true;\n  }\n  /**\n   * @dev Transfer tokens from one address to another.\n   * @param from The address which you want to transfer tokens from.\n   * @param to The address which you want to transfer to.\n   * @param value The amount of tokens to be transferred.\n   * @return A boolean that indicates if the operation was successful.\n   */\n  function transferFrom(address from, address to, uint256 value) external returns (bool) {\n    require( _isOperator(msg.sender, from)\n      || (value <= _allowed[from][msg.sender]), \"53\"); // 0x53\tinsufficient allowance\n\n    if(_allowed[from][msg.sender] >= value) {\n      _allowed[from][msg.sender] = _allowed[from][msg.sender].sub(value);\n    } else {\n      _allowed[from][msg.sender] = 0;\n    }\n\n    _transferByDefaultPartitions(msg.sender, from, to, value, \"\");\n    return true;\n  }\n\n\n  /************************************************************************************************/\n  /****************************** EXTERNAL FUNCTIONS (ERC1400 INTERFACE) **************************/\n  /************************************************************************************************/\n\n\n  /************************************* Document Management **************************************/\n  /**\n   * @dev Access a document associated with the token.\n   * @param name Short name (represented as a bytes32) associated to the document.\n   * @return Requested document + document hash.\n   */\n  function getDocument(bytes32 name) external view returns (string memory, bytes32) {\n    require(bytes(_documents[name].docURI).length != 0); // Action Blocked - Empty document\n    return (\n      _documents[name].docURI,\n      _documents[name].docHash\n    );\n  }\n  /**\n   * @dev Associate a document with the token.\n   * @param name Short name (represented as a bytes32) associated to the document.\n   * @param uri Document content.\n   * @param documentHash Hash of the document [optional parameter].\n   */\n  function setDocument(bytes32 name, string calldata uri, bytes32 documentHash) external {\n    require(_isController[msg.sender]);\n    _documents[name] = Doc({\n      docURI: uri,\n      docHash: documentHash\n    });\n    emit Document(name, uri, documentHash);\n  }\n  /************************************************************************************************/\n\n\n  /************************************** Token Information ***************************************/\n  /**\n   * @dev Get balance of a tokenholder for a specific partition.\n   * @param partition Name of the partition.\n   * @param tokenHolder Address for which the balance is returned.\n   * @return Amount of token of partition 'partition' held by 'tokenHolder' in the token contract.\n   */\n  function balanceOfByPartition(bytes32 partition, address tokenHolder) external view returns (uint256) {\n    return _balanceOfByPartition[tokenHolder][partition];\n  }\n  /**\n   * @dev Get partitions index of a tokenholder.\n   * @param tokenHolder Address for which the partitions index are returned.\n   * @return Array of partitions index of 'tokenHolder'.\n   */\n  function partitionsOf(address tokenHolder) external view returns (bytes32[] memory) {\n    return _partitionsOf[tokenHolder];\n  }\n  /************************************************************************************************/\n\n\n  /****************************************** Transfers *******************************************/\n  /**\n   * @dev Transfer the amount of tokens from the address 'msg.sender' to the address 'to'.\n   * @param to Token recipient.\n   * @param value Number of tokens to transfer.\n   * @param data Information attached to the transfer, by the token holder.\n   */\n  function transferWithData(address to, uint256 value, bytes calldata data) external {\n    _transferByDefaultPartitions(msg.sender, msg.sender, to, value, data);\n  }\n  /**\n   * @dev Transfer the amount of tokens on behalf of the address 'from' to the address 'to'.\n   * @param from Token holder (or 'address(0)' to set from to 'msg.sender').\n   * @param to Token recipient.\n   * @param value Number of tokens to transfer.\n   * @param data Information attached to the transfer, and intended for the token holder ('from').\n   */\n  function transferFromWithData(address from, address to, uint256 value, bytes calldata data) external {\n    require(_isOperator(msg.sender, from), \"58\"); // 0x58\tinvalid operator (transfer agent)\n\n    _transferByDefaultPartitions(msg.sender, from, to, value, data);\n  }\n  /************************************************************************************************/\n\n\n  /********************************** Partition Token Transfers ***********************************/\n  /**\n   * @dev Transfer tokens from a specific partition.\n   * @param partition Name of the partition.\n   * @param to Token recipient.\n   * @param value Number of tokens to transfer.\n   * @param data Information attached to the transfer, by the token holder.\n   * @return Destination partition.\n   */\n  function transferByPartition(\n    bytes32 partition,\n    address to,\n    uint256 value,\n    bytes calldata data\n  )\n    external\n    returns (bytes32)\n  {\n    return _transferByPartition(partition, msg.sender, msg.sender, to, value, data, \"\");\n  }\n  /**\n   * @dev Transfer tokens from a specific partition through an operator.\n   * @param partition Name of the partition.\n   * @param from Token holder.\n   * @param to Token recipient.\n   * @param value Number of tokens to transfer.\n   * @param data Information attached to the transfer. [CAN CONTAIN THE DESTINATION PARTITION]\n   * @param operatorData Information attached to the transfer, by the operator.\n   * @return Destination partition.\n   */\n  function operatorTransferByPartition(\n    bytes32 partition,\n    address from,\n    address to,\n    uint256 value,\n    bytes calldata data,\n    bytes calldata operatorData\n  )\n    external\n    returns (bytes32)\n  {\n    require(_isOperatorForPartition(partition, msg.sender, from)\n      || (value <= _allowedByPartition[partition][from][msg.sender]), \"53\"); // 0x53\tinsufficient allowance\n\n    if(_allowedByPartition[partition][from][msg.sender] >= value) {\n      _allowedByPartition[partition][from][msg.sender] = _allowedByPartition[partition][from][msg.sender].sub(value);\n    } else {\n      _allowedByPartition[partition][from][msg.sender] = 0;\n    }\n\n    return _transferByPartition(partition, msg.sender, from, to, value, data, operatorData);\n  }\n  /************************************************************************************************/\n\n\n  /************************************* Controller Operation *************************************/\n  /**\n   * @dev Know if the token can be controlled by operators.\n   * If a token returns 'false' for 'isControllable()'' then it MUST always return 'false' in the future.\n   * @return bool 'true' if the token can still be controlled by operators, 'false' if it can't anymore.\n   */\n  function isControllable() external view returns (bool) {\n    return _isControllable;\n  }\n  /************************************************************************************************/\n\n\n  /************************************* Operator Management **************************************/\n  /**\n   * @dev Set a third party operator address as an operator of 'msg.sender' to transfer\n   * and redeem tokens on its behalf.\n   * @param operator Address to set as an operator for 'msg.sender'.\n   */\n  function authorizeOperator(address operator) external {\n    require(operator != msg.sender);\n    _authorizedOperator[operator][msg.sender] = true;\n    emit AuthorizedOperator(operator, msg.sender);\n  }\n  /**\n   * @dev Remove the right of the operator address to be an operator for 'msg.sender'\n   * and to transfer and redeem tokens on its behalf.\n   * @param operator Address to rescind as an operator for 'msg.sender'.\n   */\n  function revokeOperator(address operator) external {\n    require(operator != msg.sender);\n    _authorizedOperator[operator][msg.sender] = false;\n    emit RevokedOperator(operator, msg.sender);\n  }\n  /**\n   * @dev Set 'operator' as an operator for 'msg.sender' for a given partition.\n   * @param partition Name of the partition.\n   * @param operator Address to set as an operator for 'msg.sender'.\n   */\n  function authorizeOperatorByPartition(bytes32 partition, address operator) external {\n    _authorizedOperatorByPartition[msg.sender][partition][operator] = true;\n    emit AuthorizedOperatorByPartition(partition, operator, msg.sender);\n  }\n  /**\n   * @dev Remove the right of the operator address to be an operator on a given\n   * partition for 'msg.sender' and to transfer and redeem tokens on its behalf.\n   * @param partition Name of the partition.\n   * @param operator Address to rescind as an operator on given partition for 'msg.sender'.\n   */\n  function revokeOperatorByPartition(bytes32 partition, address operator) external {\n    _authorizedOperatorByPartition[msg.sender][partition][operator] = false;\n    emit RevokedOperatorByPartition(partition, operator, msg.sender);\n  }\n  /************************************************************************************************/\n\n\n  /************************************* Operator Information *************************************/\n  /**\n   * @dev Indicate whether the operator address is an operator of the tokenHolder address.\n   * @param operator Address which may be an operator of tokenHolder.\n   * @param tokenHolder Address of a token holder which may have the operator address as an operator.\n   * @return 'true' if operator is an operator of 'tokenHolder' and 'false' otherwise.\n   */\n  function isOperator(address operator, address tokenHolder) external view returns (bool) {\n    return _isOperator(operator, tokenHolder);\n  }\n  /**\n   * @dev Indicate whether the operator address is an operator of the tokenHolder\n   * address for the given partition.\n   * @param partition Name of the partition.\n   * @param operator Address which may be an operator of tokenHolder for the given partition.\n   * @param tokenHolder Address of a token holder which may have the operator address as an operator for the given partition.\n   * @return 'true' if 'operator' is an operator of 'tokenHolder' for partition 'partition' and 'false' otherwise.\n   */\n  function isOperatorForPartition(bytes32 partition, address operator, address tokenHolder) external view returns (bool) {\n    return _isOperatorForPartition(partition, operator, tokenHolder);\n  }\n  /************************************************************************************************/\n\n\n  /**************************************** Token Issuance ****************************************/\n  /**\n   * @dev Know if new tokens can be issued in the future.\n   * @return bool 'true' if tokens can still be issued by the issuer, 'false' if they can't anymore.\n   */\n  function isIssuable() external view returns (bool) {\n    return _isIssuable;\n  }\n  /**\n   * @dev Issue tokens from default partition.\n   * @param tokenHolder Address for which we want to issue tokens.\n   * @param value Number of tokens issued.\n   * @param data Information attached to the issuance, by the issuer.\n   */\n  function issue(address tokenHolder, uint256 value, bytes calldata data)\n    external\n    onlyMinter\n    isIssuableToken\n  {\n    require(_defaultPartitions.length != 0, \"55\"); // 0x55\tfunds locked (lockup period)\n\n    _issueByPartition(_defaultPartitions[0], msg.sender, tokenHolder, value, data);\n  }\n  /**\n   * @dev Issue tokens from a specific partition.\n   * @param partition Name of the partition.\n   * @param tokenHolder Address for which we want to issue tokens.\n   * @param value Number of tokens issued.\n   * @param data Information attached to the issuance, by the issuer.\n   */\n  function issueByPartition(bytes32 partition, address tokenHolder, uint256 value, bytes calldata data)\n    external\n    onlyMinter\n    isIssuableToken\n  {\n    _issueByPartition(partition, msg.sender, tokenHolder, value, data);\n  }\n  /************************************************************************************************/\n  \n\n  /*************************************** Token Redemption ***************************************/\n  /**\n   * @dev Redeem the amount of tokens from the address 'msg.sender'.\n   * @param value Number of tokens to redeem.\n   * @param data Information attached to the redemption, by the token holder.\n   */\n  function redeem(uint256 value, bytes calldata data)\n    external\n  {\n    _redeemByDefaultPartitions(msg.sender, msg.sender, value, data);\n  }\n  /**\n   * @dev Redeem the amount of tokens on behalf of the address from.\n   * @param from Token holder whose tokens will be redeemed (or address(0) to set from to msg.sender).\n   * @param value Number of tokens to redeem.\n   * @param data Information attached to the redemption.\n   */\n  function redeemFrom(address from, uint256 value, bytes calldata data)\n    external\n  {\n    require(_isOperator(msg.sender, from), \"58\"); // 0x58\tinvalid operator (transfer agent)\n\n    _redeemByDefaultPartitions(msg.sender, from, value, data);\n  }\n  /**\n   * @dev Redeem tokens of a specific partition.\n   * @param partition Name of the partition.\n   * @param value Number of tokens redeemed.\n   * @param data Information attached to the redemption, by the redeemer.\n   */\n  function redeemByPartition(bytes32 partition, uint256 value, bytes calldata data)\n    external\n  {\n    _redeemByPartition(partition, msg.sender, msg.sender, value, data, \"\");\n  }\n  /**\n   * @dev Redeem tokens of a specific partition.\n   * @param partition Name of the partition.\n   * @param tokenHolder Address for which we want to redeem tokens.\n   * @param value Number of tokens redeemed\n   * @param operatorData Information attached to the redemption, by the operator.\n   */\n  function operatorRedeemByPartition(bytes32 partition, address tokenHolder, uint256 value, bytes calldata operatorData)\n    external\n  {\n    require(_isOperatorForPartition(partition, msg.sender, tokenHolder), \"58\"); // 0x58\tinvalid operator (transfer agent)\n\n    _redeemByPartition(partition, msg.sender, tokenHolder, value, \"\", operatorData);\n  }\n  /************************************************************************************************/\n\n\n  /************************************************************************************************/\n  /************************ EXTERNAL FUNCTIONS (ADDITIONAL - NOT MANDATORY) ***********************/\n  /************************************************************************************************/\n\n\n  /************************************ Token description *****************************************/\n  /**\n   * @dev Get the name of the token, e.g., \"MyToken\".\n   * @return Name of the token.\n   */\n  function name() external view returns(string memory) {\n    return _name;\n  }\n  /**\n   * @dev Get the symbol of the token, e.g., \"MYT\".\n   * @return Symbol of the token.\n   */\n  function symbol() external view returns(string memory) {\n    return _symbol;\n  }\n  /**\n   * @dev Get the number of decimals of the token.\n   * @return The number of decimals of the token. For retrocompatibility, decimals are forced to 18 in ERC1400.\n   */\n  function decimals() external pure returns(uint8) {\n    return uint8(18);\n  }\n  /**\n   * @dev Get the smallest part of the token thats not divisible.\n   * @return The smallest non-divisible part of the token.\n   */\n  function granularity() external view returns(uint256) {\n    return _granularity;\n  }\n  /**\n   * @dev Get list of existing partitions.\n   * @return Array of all exisiting partitions.\n   */\n  function totalPartitions() external view returns (bytes32[] memory) {\n    return _totalPartitions;\n  }\n  /**\n   * @dev Get the total number of issued tokens for a given partition.\n   * @param partition Name of the partition.\n   * @return Total supply of tokens currently in circulation, for a given partition.\n   */\n  function totalSupplyByPartition(bytes32 partition) external view returns (uint256) {\n    return _totalSupplyByPartition[partition];\n  }\n  /************************************************************************************************/\n\n\n  /**************************************** Token behaviours **************************************/\n  /**\n   * @dev Definitely renounce the possibility to control tokens on behalf of tokenHolders.\n   * Once set to false, '_isControllable' can never be set to 'true' again.\n   */\n  function renounceControl() external onlyOwner {\n    _isControllable = false;\n  }\n  /**\n   * @dev Definitely renounce the possibility to issue new tokens.\n   * Once set to false, '_isIssuable' can never be set to 'true' again.\n   */\n  function renounceIssuance() external onlyOwner {\n    _isIssuable = false;\n  }\n  /************************************************************************************************/\n\n\n  /************************************ Token controllers *****************************************/\n  /**\n   * @dev Get the list of controllers as defined by the token contract.\n   * @return List of addresses of all the controllers.\n   */\n  function controllers() external view returns (address[] memory) {\n    return _controllers;\n  }\n  /**\n   * @dev Get controllers for a given partition.\n   * @param partition Name of the partition.\n   * @return Array of controllers for partition.\n   */\n  function controllersByPartition(bytes32 partition) external view returns (address[] memory) {\n    return _controllersByPartition[partition];\n  }\n  /**\n   * @dev Set list of token controllers.\n   * @param operators Controller addresses.\n   */\n  function setControllers(address[] calldata operators) external onlyOwner {\n    _setControllers(operators);\n  }\n  /**\n   * @dev Set list of token partition controllers.\n   * @param partition Name of the partition.\n   * @param operators Controller addresses.\n   */\n   function setPartitionControllers(bytes32 partition, address[] calldata operators) external onlyOwner {\n     _setPartitionControllers(partition, operators);\n   }\n  /************************************************************************************************/\n\n\n  /********************************* Token default partitions *************************************/\n  /**\n   * @dev Get default partitions to transfer from.\n   * Function used for ERC20 retrocompatibility.\n   * For example, a security token may return the bytes32(\"unrestricted\").\n   * @return Array of default partitions.\n   */\n  function getDefaultPartitions() external view returns (bytes32[] memory) {\n    return _defaultPartitions;\n  }\n  /**\n   * @dev Set default partitions to transfer from.\n   * Function used for ERC20 retrocompatibility.\n   * @param partitions partitions to use by default when not specified.\n   */\n  function setDefaultPartitions(bytes32[] calldata partitions) external onlyOwner {\n    _defaultPartitions = partitions;\n  }\n  /************************************************************************************************/\n\n\n  /******************************** Partition Token Allowances ************************************/\n  /**\n   * @dev Check the value of tokens that an owner allowed to a spender.\n   * @param partition Name of the partition.\n   * @param owner address The address which owns the funds.\n   * @param spender address The address which will spend the funds.\n   * @return A uint256 specifying the value of tokens still available for the spender.\n   */\n  function allowanceByPartition(bytes32 partition, address owner, address spender) external view returns (uint256) {\n    return _allowedByPartition[partition][owner][spender];\n  }\n  /**\n   * @dev Approve the passed address to spend the specified amount of tokens on behalf of 'msg.sender'.\n   * @param partition Name of the partition.\n   * @param spender The address which will spend the funds.\n   * @param value The amount of tokens to be spent.\n   * @return A boolean that indicates if the operation was successful.\n   */\n  function approveByPartition(bytes32 partition, address spender, uint256 value) external returns (bool) {\n    require(spender != address(0), \"56\"); // 0x56\tinvalid sender\n    _allowedByPartition[partition][msg.sender][spender] = value;\n    emit ApprovalByPartition(partition, msg.sender, spender, value);\n    return true;\n  }\n  /************************************************************************************************/\n\n  \n  /************************************** Token extension *****************************************/\n  /**\n   * @dev Set token extension contract address.\n   * The extension contract can for example verify \"ERC1400TokensValidator\" or \"ERC1400TokensChecker\" interfaces.\n   * If the extension is an \"ERC1400TokensValidator\", it will be called everytime a transfer is executed.\n   * @param extension Address of the extension contract.\n   * @param interfaceLabel Interface label of extension contract.\n   * @param removeOldExtensionRoles If set to 'true', the roles of the old extension(minter, controller) will be removed extension.\n   * @param addMinterRoleForExtension If set to 'true', the extension contract will be added as minter.\n   * @param addControllerRoleForExtension If set to 'true', the extension contract will be added as controller.\n   */\n  function setTokenExtension(address extension, string calldata interfaceLabel, bool removeOldExtensionRoles, bool addMinterRoleForExtension, bool addControllerRoleForExtension) external onlyOwner {\n    _setTokenExtension(extension, interfaceLabel, removeOldExtensionRoles, addMinterRoleForExtension, addControllerRoleForExtension);\n  }\n  /************************************************************************************************/\n\n  /************************************* Token migration ******************************************/\n  /**\n   * @dev Migrate contract.\n   *\n   * ===> CAUTION: DEFINITIVE ACTION\n   * \n   * This function shall be called once a new version of the smart contract has been created.\n   * Once this function is called:\n   *  - The address of the new smart contract is set in ERC1820 registry\n   *  - If the choice is definitive, the current smart contract is turned off and can never be used again\n   *\n   * @param newContractAddress Address of the new version of the smart contract.\n   * @param definitive If set to 'true' the contract is turned off definitely.\n   */\n  function migrate(address newContractAddress, bool definitive) external onlyOwner {\n    _migrate(newContractAddress, definitive);\n  }\n  /************************************************************************************************/\n\n\n  /************************************************************************************************/\n  /************************************* INTERNAL FUNCTIONS ***************************************/\n  /************************************************************************************************/\n\n\n  /**************************************** Token Transfers ***************************************/\n  /**\n   * @dev Perform the transfer of tokens.\n   * @param from Token holder.\n   * @param to Token recipient.\n   * @param value Number of tokens to transfer.\n   */\n  function _transferWithData(\n    address from,\n    address to,\n    uint256 value\n  )\n    internal\n    isNotMigratedToken\n  {\n    require(_isMultiple(value), \"50\"); // 0x50\ttransfer failure\n    require(to != address(0), \"57\"); // 0x57\tinvalid receiver\n    require(_balances[from] >= value, \"52\"); // 0x52\tinsufficient balance\n  \n    _balances[from] = _balances[from].sub(value);\n    _balances[to] = _balances[to].add(value);\n\n    emit Transfer(from, to, value); // ERC20 retrocompatibility \n  }\n  /**\n   * @dev Transfer tokens from a specific partition.\n   * @param fromPartition Partition of the tokens to transfer.\n   * @param operator The address performing the transfer.\n   * @param from Token holder.\n   * @param to Token recipient.\n   * @param value Number of tokens to transfer.\n   * @param data Information attached to the transfer. [CAN CONTAIN THE DESTINATION PARTITION]\n   * @param operatorData Information attached to the transfer, by the operator (if any).\n   * @return Destination partition.\n   */\n  function _transferByPartition(\n    bytes32 fromPartition,\n    address operator,\n    address from,\n    address to,\n    uint256 value,\n    bytes memory data,\n    bytes memory operatorData\n  )\n    internal\n    returns (bytes32)\n  {\n    require(_balanceOfByPartition[from][fromPartition] >= value, \"52\"); // 0x52\tinsufficient balance\n\n    bytes32 toPartition = fromPartition;\n\n    if(operatorData.length != 0 && data.length >= 64) {\n      toPartition = _getDestinationPartition(fromPartition, data);\n    }\n\n    _callSenderExtension(fromPartition, operator, from, to, value, data, operatorData);\n    _callTokenExtension(fromPartition, operator, from, to, value, data, operatorData);\n\n    _removeTokenFromPartition(from, fromPartition, value);\n    _transferWithData(from, to, value);\n    _addTokenToPartition(to, toPartition, value);\n\n    _callRecipientExtension(toPartition, operator, from, to, value, data, operatorData);\n\n    emit TransferByPartition(fromPartition, operator, from, to, value, data, operatorData);\n\n    if(toPartition != fromPartition) {\n      emit ChangedPartition(fromPartition, toPartition, value);\n    }\n\n    return toPartition;\n  }\n  /**\n   * @dev Transfer tokens from default partitions.\n   * Function used for ERC20 retrocompatibility.\n   * @param operator The address performing the transfer.\n   * @param from Token holder.\n   * @param to Token recipient.\n   * @param value Number of tokens to transfer.\n   * @param data Information attached to the transfer, and intended for the token holder ('from') [CAN CONTAIN THE DESTINATION PARTITION].\n   */\n  function _transferByDefaultPartitions(\n    address operator,\n    address from,\n    address to,\n    uint256 value,\n    bytes memory data\n  )\n    internal\n  {\n    require(_defaultPartitions.length != 0, \"55\"); // // 0x55\tfunds locked (lockup period)\n\n    uint256 _remainingValue = value;\n    uint256 _localBalance;\n\n    for (uint i = 0; i < _defaultPartitions.length; i++) {\n      _localBalance = _balanceOfByPartition[from][_defaultPartitions[i]];\n      if(_remainingValue <= _localBalance) {\n        _transferByPartition(_defaultPartitions[i], operator, from, to, _remainingValue, data, \"\");\n        _remainingValue = 0;\n        break;\n      } else if (_localBalance != 0) {\n        _transferByPartition(_defaultPartitions[i], operator, from, to, _localBalance, data, \"\");\n        _remainingValue = _remainingValue - _localBalance;\n      }\n    }\n\n    require(_remainingValue == 0, \"52\"); // 0x52\tinsufficient balance\n  }\n  /**\n   * @dev Retrieve the destination partition from the 'data' field.\n   * By convention, a partition change is requested ONLY when 'data' starts\n   * with the flag: 0xffffffffffffffffffffffffffffffffffffffffffffffffffffffffffffffff\n   * When the flag is detected, the destination tranche is extracted from the\n   * 32 bytes following the flag.\n   * @param fromPartition Partition of the tokens to transfer.\n   * @param data Information attached to the transfer. [CAN CONTAIN THE DESTINATION PARTITION]\n   * @return Destination partition.\n   */\n  function _getDestinationPartition(bytes32 fromPartition, bytes memory data) internal pure returns(bytes32 toPartition) {\n    bytes32 changePartitionFlag = 0xffffffffffffffffffffffffffffffffffffffffffffffffffffffffffffffff;\n    bytes32 flag;\n    assembly {\n      flag := mload(add(data, 32))\n    }\n    if(flag == changePartitionFlag) {\n      assembly {\n        toPartition := mload(add(data, 64))\n      }\n    } else {\n      toPartition = fromPartition;\n    }\n  }\n  /**\n   * @dev Remove a token from a specific partition.\n   * @param from Token holder.\n   * @param partition Name of the partition.\n   * @param value Number of tokens to transfer.\n   */\n  function _removeTokenFromPartition(address from, bytes32 partition, uint256 value) internal {\n    _balanceOfByPartition[from][partition] = _balanceOfByPartition[from][partition].sub(value);\n    _totalSupplyByPartition[partition] = _totalSupplyByPartition[partition].sub(value);\n\n    // If the total supply is zero, finds and deletes the partition.\n    if(_totalSupplyByPartition[partition] == 0) {\n      uint256 index1 = _indexOfTotalPartitions[partition];\n      require(index1 > 0, \"50\"); // 0x50\ttransfer failure\n\n      // move the last item into the index being vacated\n      bytes32 lastValue = _totalPartitions[_totalPartitions.length - 1];\n      _totalPartitions[index1 - 1] = lastValue; // adjust for 1-based indexing\n      _indexOfTotalPartitions[lastValue] = index1;\n\n      _totalPartitions.length -= 1;\n      _indexOfTotalPartitions[partition] = 0;\n    }\n\n    // If the balance of the TokenHolder's partition is zero, finds and deletes the partition.\n    if(_balanceOfByPartition[from][partition] == 0) {\n      uint256 index2 = _indexOfPartitionsOf[from][partition];\n      require(index2 > 0, \"50\"); // 0x50\ttransfer failure\n\n      // move the last item into the index being vacated\n      bytes32 lastValue = _partitionsOf[from][_partitionsOf[from].length - 1];\n      _partitionsOf[from][index2 - 1] = lastValue;  // adjust for 1-based indexing\n      _indexOfPartitionsOf[from][lastValue] = index2;\n\n      _partitionsOf[from].length -= 1;\n      _indexOfPartitionsOf[from][partition] = 0;\n    }\n  }\n  /**\n   * @dev Add a token to a specific partition.\n   * @param to Token recipient.\n   * @param partition Name of the partition.\n   * @param value Number of tokens to transfer.\n   */\n  function _addTokenToPartition(address to, bytes32 partition, uint256 value) internal {\n    if(value != 0) {\n      if (_indexOfPartitionsOf[to][partition] == 0) {\n        _partitionsOf[to].push(partition);\n        _indexOfPartitionsOf[to][partition] = _partitionsOf[to].length;\n      }\n      _balanceOfByPartition[to][partition] = _balanceOfByPartition[to][partition].add(value);\n\n      if (_indexOfTotalPartitions[partition] == 0) {\n        _totalPartitions.push(partition);\n        _indexOfTotalPartitions[partition] = _totalPartitions.length;\n      }\n      _totalSupplyByPartition[partition] = _totalSupplyByPartition[partition].add(value);\n    }\n  }\n  /**\n   * @dev Check if 'value' is multiple of the granularity.\n   * @param value The quantity that want's to be checked.\n   * @return 'true' if 'value' is a multiple of the granularity.\n   */\n  function _isMultiple(uint256 value) internal view returns(bool) {\n    return(value.div(_granularity).mul(_granularity) == value);\n  }\n  /************************************************************************************************/\n\n\n  /****************************************** Hooks ***********************************************/\n  /**\n   * @dev Check for 'ERC1400TokensSender' user extension in ERC1820 registry and call it.\n   * @param partition Name of the partition (bytes32 to be left empty for transfers where partition is not specified).\n   * @param operator Address which triggered the balance decrease (through transfer or redemption).\n   * @param from Token holder.\n   * @param to Token recipient for a transfer and 0x for a redemption.\n   * @param value Number of tokens the token holder balance is decreased by.\n   * @param data Extra information.\n   * @param operatorData Extra information, attached by the operator (if any).\n   */\n  function _callSenderExtension(\n    bytes32 partition,\n    address operator,\n    address from,\n    address to,\n    uint256 value,\n    bytes memory data,\n    bytes memory operatorData\n  )\n    internal\n  {\n    address senderImplementation;\n    senderImplementation = interfaceAddr(from, ERC1400_TOKENS_SENDER);\n    if (senderImplementation != address(0)) {\n      IERC1400TokensSender(senderImplementation).tokensToTransfer(msg.data, partition, operator, from, to, value, data, operatorData);\n    }\n  }\n  /**\n   * @dev Check for 'ERC1400TokensValidator' token extension in ERC1820 registry and call it.\n   * @param partition Name of the partition (bytes32 to be left empty for transfers where partition is not specified).\n   * @param operator Address which triggered the balance decrease (through transfer or redemption).\n   * @param from Token holder.\n   * @param to Token recipient for a transfer and 0x for a redemption.\n   * @param value Number of tokens the token holder balance is decreased by.\n   * @param data Extra information.\n   * @param operatorData Extra information, attached by the operator (if any).\n   */\n  function _callTokenExtension(\n    bytes32 partition,\n    address operator,\n    address from,\n    address to,\n    uint256 value,\n    bytes memory data,\n    bytes memory operatorData\n  )\n    internal\n  {\n    address validatorImplementation;\n    validatorImplementation = interfaceAddr(address(this), ERC1400_TOKENS_VALIDATOR);\n    if (validatorImplementation != address(0)) {\n      IERC1400TokensValidator(validatorImplementation).tokensToValidate(msg.data, partition, operator, from, to, value, data, operatorData);\n    }\n  }\n  /**\n   * @dev Check for 'ERC1400TokensRecipient' user extension in ERC1820 registry and call it.\n   * @param partition Name of the partition (bytes32 to be left empty for transfers where partition is not specified).\n   * @param operator Address which triggered the balance increase (through transfer or issuance).\n   * @param from Token holder for a transfer and 0x for an issuance.\n   * @param to Token recipient.\n   * @param value Number of tokens the recipient balance is increased by.\n   * @param data Extra information, intended for the token holder ('from').\n   * @param operatorData Extra information attached by the operator (if any).\n   */\n  function _callRecipientExtension(\n    bytes32 partition,\n    address operator,\n    address from,\n    address to,\n    uint256 value,\n    bytes memory data,\n    bytes memory operatorData\n  )\n    internal\n  {\n    address recipientImplementation;\n    recipientImplementation = interfaceAddr(to, ERC1400_TOKENS_RECIPIENT);\n\n    if (recipientImplementation != address(0)) {\n      IERC1400TokensRecipient(recipientImplementation).tokensReceived(msg.data, partition, operator, from, to, value, data, operatorData);\n    }\n  }\n  /************************************************************************************************/\n\n\n  /************************************* Operator Information *************************************/\n  /**\n   * @dev Indicate whether the operator address is an operator of the tokenHolder address.\n   * @param operator Address which may be an operator of 'tokenHolder'.\n   * @param tokenHolder Address of a token holder which may have the 'operator' address as an operator.\n   * @return 'true' if 'operator' is an operator of 'tokenHolder' and 'false' otherwise.\n   */\n  function _isOperator(address operator, address tokenHolder) internal view returns (bool) {\n    return (operator == tokenHolder\n      || _authorizedOperator[operator][tokenHolder]\n      || (_isControllable && _isController[operator])\n    );\n  }\n  /**\n   * @dev Indicate whether the operator address is an operator of the tokenHolder\n   * address for the given partition.\n   * @param partition Name of the partition.\n   * @param operator Address which may be an operator of tokenHolder for the given partition.\n   * @param tokenHolder Address of a token holder which may have the operator address as an operator for the given partition.\n   * @return 'true' if 'operator' is an operator of 'tokenHolder' for partition 'partition' and 'false' otherwise.\n   */\n   function _isOperatorForPartition(bytes32 partition, address operator, address tokenHolder) internal view returns (bool) {\n     return (_isOperator(operator, tokenHolder)\n       || _authorizedOperatorByPartition[tokenHolder][partition][operator]\n       || (_isControllable && _isControllerByPartition[partition][operator])\n     );\n   }\n  /************************************************************************************************/\n\n\n  /**************************************** Token Issuance ****************************************/\n  /**\n   * @dev Perform the issuance of tokens.\n   * @param operator Address which triggered the issuance.\n   * @param to Token recipient.\n   * @param value Number of tokens issued.\n   * @param data Information attached to the issuance, and intended for the recipient (to).\n   */\n  function _issue(address operator, address to, uint256 value, bytes memory data)\n    internal\n    isNotMigratedToken  \n  {\n    require(_isMultiple(value), \"50\"); // 0x50\ttransfer failure\n    require(to != address(0), \"57\"); // 0x57\tinvalid receiver\n\n    _totalSupply = _totalSupply.add(value);\n    _balances[to] = _balances[to].add(value);\n\n    emit Issued(operator, to, value, data);\n    emit Transfer(address(0), to, value); // ERC20 retrocompatibility\n  }\n  /**\n   * @dev Issue tokens from a specific partition.\n   * @param toPartition Name of the partition.\n   * @param operator The address performing the issuance.\n   * @param to Token recipient.\n   * @param value Number of tokens to issue.\n   * @param data Information attached to the issuance.\n   */\n  function _issueByPartition(\n    bytes32 toPartition,\n    address operator,\n    address to,\n    uint256 value,\n    bytes memory data\n  )\n    internal\n  {\n    _callTokenExtension(toPartition, operator, address(0), to, value, data, \"\");\n\n    _issue(operator, to, value, data);\n    _addTokenToPartition(to, toPartition, value);\n\n    _callRecipientExtension(toPartition, operator, address(0), to, value, data, \"\");\n\n    emit IssuedByPartition(toPartition, operator, to, value, data, \"\");\n  }\n  /************************************************************************************************/\n\n\n  /*************************************** Token Redemption ***************************************/\n  /**\n   * @dev Perform the token redemption.\n   * @param operator The address performing the redemption.\n   * @param from Token holder whose tokens will be redeemed.\n   * @param value Number of tokens to redeem.\n   * @param data Information attached to the redemption.\n   */\n  function _redeem(address operator, address from, uint256 value, bytes memory data)\n    internal\n    isNotMigratedToken\n  {\n    require(_isMultiple(value), \"50\"); // 0x50\ttransfer failure\n    require(from != address(0), \"56\"); // 0x56\tinvalid sender\n    require(_balances[from] >= value, \"52\"); // 0x52\tinsufficient balance\n\n    _balances[from] = _balances[from].sub(value);\n    _totalSupply = _totalSupply.sub(value);\n\n    emit Redeemed(operator, from, value, data);\n    emit Transfer(from, address(0), value);  // ERC20 retrocompatibility\n  }\n  /**\n   * @dev Redeem tokens of a specific partition.\n   * @param fromPartition Name of the partition.\n   * @param operator The address performing the redemption.\n   * @param from Token holder whose tokens will be redeemed.\n   * @param value Number of tokens to redeem.\n   * @param data Information attached to the redemption.\n   * @param operatorData Information attached to the redemption, by the operator (if any).\n   */\n  function _redeemByPartition(\n    bytes32 fromPartition,\n    address operator,\n    address from,\n    uint256 value,\n    bytes memory data,\n    bytes memory operatorData\n  )\n    internal\n  {\n    require(_balanceOfByPartition[from][fromPartition] >= value, \"52\"); // 0x52\tinsufficient balance\n\n    _callSenderExtension(fromPartition, operator, from, address(0), value, data, operatorData);\n    _callTokenExtension(fromPartition, operator, from, address(0), value, data, operatorData);\n\n    _removeTokenFromPartition(from, fromPartition, value);\n    _redeem(operator, from, value, data);\n\n    emit RedeemedByPartition(fromPartition, operator, from, value, operatorData);\n  }\n  /**\n   * @dev Redeem tokens from a default partitions.\n   * @param operator The address performing the redeem.\n   * @param from Token holder.\n   * @param value Number of tokens to redeem.\n   * @param data Information attached to the redemption.\n   */\n  function _redeemByDefaultPartitions(\n    address operator,\n    address from,\n    uint256 value,\n    bytes memory data\n  )\n    internal\n  {\n    require(_defaultPartitions.length != 0, \"55\"); // 0x55\tfunds locked (lockup period)\n\n    uint256 _remainingValue = value;\n    uint256 _localBalance;\n\n    for (uint i = 0; i < _defaultPartitions.length; i++) {\n      _localBalance = _balanceOfByPartition[from][_defaultPartitions[i]];\n      if(_remainingValue <= _localBalance) {\n        _redeemByPartition(_defaultPartitions[i], operator, from, _remainingValue, data, \"\");\n        _remainingValue = 0;\n        break;\n      } else {\n        _redeemByPartition(_defaultPartitions[i], operator, from, _localBalance, data, \"\");\n        _remainingValue = _remainingValue - _localBalance;\n      }\n    }\n\n    require(_remainingValue == 0, \"52\"); // 0x52\tinsufficient balance\n  }\n  /************************************************************************************************/\n\n\n  /************************************** Transfer Validity ***************************************/\n  /**\n   * @dev Know the reason on success or failure based on the EIP-1066 application-specific status codes.\n   * @param payload Payload of the initial transaction.\n   * @param partition Name of the partition.\n   * @param operator The address performing the transfer.\n   * @param from Token holder.\n   * @param to Token recipient.\n   * @param value Number of tokens to transfer.\n   * @param data Information attached to the transfer. [CAN CONTAIN THE DESTINATION PARTITION]\n   * @param operatorData Information attached to the transfer, by the operator (if any).\n   * @return ESC (Ethereum Status Code) following the EIP-1066 standard.\n   * @return Additional bytes32 parameter that can be used to define\n   * application specific reason codes with additional details (for example the\n   * transfer restriction rule responsible for making the transfer operation invalid).\n   * @return Destination partition.\n   */\n  function _canTransfer(bytes memory payload, bytes32 partition, address operator, address from, address to, uint256 value, bytes memory data, bytes memory operatorData)\n    internal\n    view\n    returns (byte, bytes32, bytes32)\n  {\n    address checksImplementation = interfaceAddr(address(this), ERC1400_TOKENS_CHECKER);\n\n    if((checksImplementation != address(0))) {\n      return IERC1400TokensChecker(checksImplementation).canTransferByPartition(payload, partition, operator, from, to, value, data, operatorData);\n    }\n    else {\n      return(hex\"00\", \"\", partition);\n    }\n  }\n  /************************************************************************************************/\n\n\n  /************************************************************************************************/\n  /************************ INTERNAL FUNCTIONS (ADDITIONAL - NOT MANDATORY) ***********************/\n  /************************************************************************************************/\n\n\n  /************************************ Token controllers *****************************************/\n  /**\n   * @dev Set list of token controllers.\n   * @param operators Controller addresses.\n   */\n  function _setControllers(address[] memory operators) internal {\n    for (uint i = 0; i<_controllers.length; i++){\n      _isController[_controllers[i]] = false;\n    }\n    for (uint j = 0; j<operators.length; j++){\n      _isController[operators[j]] = true;\n    }\n    _controllers = operators;\n  }\n  /**\n   * @dev Set list of token partition controllers.\n   * @param partition Name of the partition.\n   * @param operators Controller addresses.\n   */\n   function _setPartitionControllers(bytes32 partition, address[] memory operators) internal {\n     for (uint i = 0; i<_controllersByPartition[partition].length; i++){\n       _isControllerByPartition[partition][_controllersByPartition[partition][i]] = false;\n     }\n     for (uint j = 0; j<operators.length; j++){\n       _isControllerByPartition[partition][operators[j]] = true;\n     }\n     _controllersByPartition[partition] = operators;\n   }\n  /************************************************************************************************/\n\n\n  /************************************** Token extension *****************************************/\n  /**\n   * @dev Set token extension contract address.\n   * The extension contract can for example verify \"ERC1400TokensValidator\" or \"ERC1400TokensChecker\" interfaces.\n   * If the extension is an \"ERC1400TokensValidator\", it will be called everytime a transfer is executed.\n   * @param extension Address of the extension contract.\n   * @param interfaceLabel Interface label of extension contract.\n   * @param removeOldExtensionRoles If set to 'true', the roles of the old extension(minter, controller) will be removed extension.\n   * @param addMinterRoleForExtension If set to 'true', the extension contract will be added as minter.\n   * @param addControllerRoleForExtension If set to 'true', the extension contract will be added as controller.\n   */\n  function _setTokenExtension(address extension, string memory interfaceLabel, bool removeOldExtensionRoles, bool addMinterRoleForExtension, bool addControllerRoleForExtension) internal {\n    address oldExtension = interfaceAddr(address(this), interfaceLabel);\n\n    if (oldExtension != address(0) && removeOldExtensionRoles) {\n      if(isMinter(oldExtension)) {\n        _removeMinter(oldExtension);\n      }\n      _isController[oldExtension] = false;\n    }\n\n    ERC1820Client.setInterfaceImplementation(interfaceLabel, extension);\n    if(addMinterRoleForExtension && !isMinter(extension)) {\n      _addMinter(extension);\n    }\n    if (addControllerRoleForExtension) {\n      _isController[extension] = true;\n    }\n  }\n  /************************************************************************************************/\n\n\n  /************************************* Token migration ******************************************/\n  /**\n   * @dev Migrate contract.\n   *\n   * ===> CAUTION: DEFINITIVE ACTION\n   * \n   * This function shall be called once a new version of the smart contract has been created.\n   * Once this function is called:\n   *  - The address of the new smart contract is set in ERC1820 registry\n   *  - If the choice is definitive, the current smart contract is turned off and can never be used again\n   *\n   * @param newContractAddress Address of the new version of the smart contract.\n   * @param definitive If set to 'true' the contract is turned off definitely.\n   */\n  function _migrate(address newContractAddress, bool definitive) internal {\n    ERC1820Client.setInterfaceImplementation(ERC20_INTERFACE_NAME, newContractAddress);\n    ERC1820Client.setInterfaceImplementation(ERC1400_INTERFACE_NAME, newContractAddress);\n    if(definitive) {\n      _migrated = true;\n    }\n  }\n  /************************************************************************************************/\n\n}\n",
  "sourcePath": "universal-token/contracts/ERC1400.sol",
  "compiler": {
    "name": "solc",
    "version": "0.5.10+commit.5a6ea5b1.Emscripten.clang"
  },
  "schemaVersion": "3.3.0",
  "updatedAt": "2020-12-15T12:54:11.381Z",
  "devdoc": {
    "details": "ERC1400 logic",
    "methods": {
      "allowance(address,address)": {
        "details": "Check the value of tokens that an owner allowed to a spender.",
        "params": {
          "owner": "address The address which owns the funds.",
          "spender": "address The address which will spend the funds."
        },
        "return": "A uint256 specifying the value of tokens still available for the spender."
      },
      "allowanceByPartition(bytes32,address,address)": {
        "details": "Check the value of tokens that an owner allowed to a spender.",
        "params": {
          "owner": "address The address which owns the funds.",
          "partition": "Name of the partition.",
          "spender": "address The address which will spend the funds."
        },
        "return": "A uint256 specifying the value of tokens still available for the spender."
      },
      "approve(address,uint256)": {
        "details": "Approve the passed address to spend the specified amount of tokens on behalf of 'msg.sender'.",
        "params": {
          "spender": "The address which will spend the funds.",
          "value": "The amount of tokens to be spent."
        },
        "return": "A boolean that indicates if the operation was successful."
      },
      "approveByPartition(bytes32,address,uint256)": {
        "details": "Approve the passed address to spend the specified amount of tokens on behalf of 'msg.sender'.",
        "params": {
          "partition": "Name of the partition.",
          "spender": "The address which will spend the funds.",
          "value": "The amount of tokens to be spent."
        },
        "return": "A boolean that indicates if the operation was successful."
      },
      "authorizeOperator(address)": {
        "details": "Set a third party operator address as an operator of 'msg.sender' to transfer and redeem tokens on its behalf.",
        "params": {
          "operator": "Address to set as an operator for 'msg.sender'."
        }
      },
      "authorizeOperatorByPartition(bytes32,address)": {
        "details": "Set 'operator' as an operator for 'msg.sender' for a given partition.",
        "params": {
          "operator": "Address to set as an operator for 'msg.sender'.",
          "partition": "Name of the partition."
        }
      },
      "balanceOf(address)": {
        "details": "Get the balance of the account with address 'tokenHolder'.",
        "params": {
          "tokenHolder": "Address for which the balance is returned."
        },
        "return": "Amount of token held by 'tokenHolder' in the token contract."
      },
      "balanceOfByPartition(bytes32,address)": {
        "details": "Get balance of a tokenholder for a specific partition.",
        "params": {
          "partition": "Name of the partition.",
          "tokenHolder": "Address for which the balance is returned."
        },
        "return": "Amount of token of partition 'partition' held by 'tokenHolder' in the token contract."
      },
      "constructor": {
        "details": "Initialize ERC1400 + register the contract implementation in ERC1820Registry.",
        "params": {
          "controllers": "Array of initial controllers.",
          "defaultPartitions": "Partitions chosen by default, when partition is not specified, like the case ERC20 tranfers.",
          "granularity": "Granularity of the token.",
          "name": "Name of the token.",
          "symbol": "Symbol of the token."
        }
      },
      "controllers()": {
        "details": "Get the list of controllers as defined by the token contract.",
        "return": "List of addresses of all the controllers."
      },
      "controllersByPartition(bytes32)": {
        "details": "Get controllers for a given partition.",
        "params": {
          "partition": "Name of the partition."
        },
        "return": "Array of controllers for partition."
      },
      "decimals()": {
        "details": "Get the number of decimals of the token.",
        "return": "The number of decimals of the token. For retrocompatibility, decimals are forced to 18 in ERC1400."
      },
      "getDefaultPartitions()": {
        "details": "Get default partitions to transfer from. Function used for ERC20 retrocompatibility. For example, a security token may return the bytes32(\"unrestricted\").",
        "return": "Array of default partitions."
      },
      "getDocument(bytes32)": {
        "details": "Access a document associated with the token.",
        "params": {
          "name": "Short name (represented as a bytes32) associated to the document."
        },
        "return": "Requested document + document hash."
      },
      "granularity()": {
        "details": "Get the smallest part of the token thats not divisible.",
        "return": "The smallest non-divisible part of the token."
      },
      "isControllable()": {
        "details": "Know if the token can be controlled by operators. If a token returns 'false' for 'isControllable()'' then it MUST always return 'false' in the future.",
        "return": "bool 'true' if the token can still be controlled by operators, 'false' if it can't anymore."
      },
      "isIssuable()": {
        "details": "Know if new tokens can be issued in the future.",
        "return": "bool 'true' if tokens can still be issued by the issuer, 'false' if they can't anymore."
      },
      "isOperator(address,address)": {
        "details": "Indicate whether the operator address is an operator of the tokenHolder address.",
        "params": {
          "operator": "Address which may be an operator of tokenHolder.",
          "tokenHolder": "Address of a token holder which may have the operator address as an operator."
        },
        "return": "'true' if operator is an operator of 'tokenHolder' and 'false' otherwise."
      },
      "isOperatorForPartition(bytes32,address,address)": {
        "details": "Indicate whether the operator address is an operator of the tokenHolder address for the given partition.",
        "params": {
          "operator": "Address which may be an operator of tokenHolder for the given partition.",
          "partition": "Name of the partition.",
          "tokenHolder": "Address of a token holder which may have the operator address as an operator for the given partition."
        },
        "return": "'true' if 'operator' is an operator of 'tokenHolder' for partition 'partition' and 'false' otherwise."
      },
      "isOwner()": {
        "return": "true if `msg.sender` is the owner of the contract."
      },
      "issue(address,uint256,bytes)": {
        "details": "Issue tokens from default partition.",
        "params": {
          "data": "Information attached to the issuance, by the issuer.",
          "tokenHolder": "Address for which we want to issue tokens.",
          "value": "Number of tokens issued."
        }
      },
      "issueByPartition(bytes32,address,uint256,bytes)": {
        "details": "Issue tokens from a specific partition.",
        "params": {
          "data": "Information attached to the issuance, by the issuer.",
          "partition": "Name of the partition.",
          "tokenHolder": "Address for which we want to issue tokens.",
          "value": "Number of tokens issued."
        }
      },
      "migrate(address,bool)": {
        "details": "Migrate contract.   * ===> CAUTION: DEFINITIVE ACTION    * This function shall be called once a new version of the smart contract has been created. Once this function is called: - The address of the new smart contract is set in ERC1820 registry - If the choice is definitive, the current smart contract is turned off and can never be used again",
        "params": {
          "definitive": "If set to 'true' the contract is turned off definitely.",
          "newContractAddress": "Address of the new version of the smart contract."
        }
      },
      "name()": {
        "details": "Get the name of the token, e.g., \"MyToken\".",
        "return": "Name of the token."
      },
      "operatorRedeemByPartition(bytes32,address,uint256,bytes)": {
        "details": "Redeem tokens of a specific partition.",
        "params": {
          "operatorData": "Information attached to the redemption, by the operator.",
          "partition": "Name of the partition.",
          "tokenHolder": "Address for which we want to redeem tokens.",
          "value": "Number of tokens redeemed"
        }
      },
      "operatorTransferByPartition(bytes32,address,address,uint256,bytes,bytes)": {
        "details": "Transfer tokens from a specific partition through an operator.",
        "params": {
          "data": "Information attached to the transfer. [CAN CONTAIN THE DESTINATION PARTITION]",
          "from": "Token holder.",
          "operatorData": "Information attached to the transfer, by the operator.",
          "partition": "Name of the partition.",
          "to": "Token recipient.",
          "value": "Number of tokens to transfer."
        },
        "return": "Destination partition."
      },
      "owner()": {
        "return": "the address of the owner."
      },
      "partitionsOf(address)": {
        "details": "Get partitions index of a tokenholder.",
        "params": {
          "tokenHolder": "Address for which the partitions index are returned."
        },
        "return": "Array of partitions index of 'tokenHolder'."
      },
      "redeem(uint256,bytes)": {
        "details": "Redeem the amount of tokens from the address 'msg.sender'.",
        "params": {
          "data": "Information attached to the redemption, by the token holder.",
          "value": "Number of tokens to redeem."
        }
      },
      "redeemByPartition(bytes32,uint256,bytes)": {
        "details": "Redeem tokens of a specific partition.",
        "params": {
          "data": "Information attached to the redemption, by the redeemer.",
          "partition": "Name of the partition.",
          "value": "Number of tokens redeemed."
        }
      },
      "redeemFrom(address,uint256,bytes)": {
        "details": "Redeem the amount of tokens on behalf of the address from.",
        "params": {
          "data": "Information attached to the redemption.",
          "from": "Token holder whose tokens will be redeemed (or address(0) to set from to msg.sender).",
          "value": "Number of tokens to redeem."
        }
      },
      "renounceControl()": {
        "details": "Definitely renounce the possibility to control tokens on behalf of tokenHolders. Once set to false, '_isControllable' can never be set to 'true' again."
      },
      "renounceIssuance()": {
        "details": "Definitely renounce the possibility to issue new tokens. Once set to false, '_isIssuable' can never be set to 'true' again."
      },
      "renounceOwnership()": {
        "details": "Allows the current owner to relinquish control of the contract."
      },
      "revokeOperator(address)": {
        "details": "Remove the right of the operator address to be an operator for 'msg.sender' and to transfer and redeem tokens on its behalf.",
        "params": {
          "operator": "Address to rescind as an operator for 'msg.sender'."
        }
      },
      "revokeOperatorByPartition(bytes32,address)": {
        "details": "Remove the right of the operator address to be an operator on a given partition for 'msg.sender' and to transfer and redeem tokens on its behalf.",
        "params": {
          "operator": "Address to rescind as an operator on given partition for 'msg.sender'.",
          "partition": "Name of the partition."
        }
      },
      "setControllers(address[])": {
        "details": "Set list of token controllers.",
        "params": {
          "operators": "Controller addresses."
        }
      },
      "setDefaultPartitions(bytes32[])": {
        "details": "Set default partitions to transfer from. Function used for ERC20 retrocompatibility.",
        "params": {
          "partitions": "partitions to use by default when not specified."
        }
      },
      "setDocument(bytes32,string,bytes32)": {
        "details": "Associate a document with the token.",
        "params": {
          "documentHash": "Hash of the document [optional parameter].",
          "name": "Short name (represented as a bytes32) associated to the document.",
          "uri": "Document content."
        }
      },
      "setPartitionControllers(bytes32,address[])": {
        "details": "Set list of token partition controllers.",
        "params": {
          "operators": "Controller addresses.",
          "partition": "Name of the partition."
        }
      },
      "setTokenExtension(address,string,bool,bool,bool)": {
        "details": "Set token extension contract address. The extension contract can for example verify \"ERC1400TokensValidator\" or \"ERC1400TokensChecker\" interfaces. If the extension is an \"ERC1400TokensValidator\", it will be called everytime a transfer is executed.",
        "params": {
          "addControllerRoleForExtension": "If set to 'true', the extension contract will be added as controller.",
          "addMinterRoleForExtension": "If set to 'true', the extension contract will be added as minter.",
          "extension": "Address of the extension contract.",
          "interfaceLabel": "Interface label of extension contract.",
          "removeOldExtensionRoles": "If set to 'true', the roles of the old extension(minter, controller) will be removed extension."
        }
      },
      "symbol()": {
        "details": "Get the symbol of the token, e.g., \"MYT\".",
        "return": "Symbol of the token."
      },
      "totalPartitions()": {
        "details": "Get list of existing partitions.",
        "return": "Array of all exisiting partitions."
      },
      "totalSupply()": {
        "details": "Get the total number of issued tokens.",
        "return": "Total supply of tokens currently in circulation."
      },
      "totalSupplyByPartition(bytes32)": {
        "details": "Get the total number of issued tokens for a given partition.",
        "params": {
          "partition": "Name of the partition."
        },
        "return": "Total supply of tokens currently in circulation, for a given partition."
      },
      "transfer(address,uint256)": {
        "details": "Transfer token for a specified address.",
        "params": {
          "to": "The address to transfer to.",
          "value": "The value to be transferred."
        },
        "return": "A boolean that indicates if the operation was successful."
      },
      "transferByPartition(bytes32,address,uint256,bytes)": {
        "details": "Transfer tokens from a specific partition.",
        "params": {
          "data": "Information attached to the transfer, by the token holder.",
          "partition": "Name of the partition.",
          "to": "Token recipient.",
          "value": "Number of tokens to transfer."
        },
        "return": "Destination partition."
      },
      "transferFrom(address,address,uint256)": {
        "details": "Transfer tokens from one address to another.",
        "params": {
          "from": "The address which you want to transfer tokens from.",
          "to": "The address which you want to transfer to.",
          "value": "The amount of tokens to be transferred."
        },
        "return": "A boolean that indicates if the operation was successful."
      },
      "transferFromWithData(address,address,uint256,bytes)": {
        "details": "Transfer the amount of tokens on behalf of the address 'from' to the address 'to'.",
        "params": {
          "data": "Information attached to the transfer, and intended for the token holder ('from').",
          "from": "Token holder (or 'address(0)' to set from to 'msg.sender').",
          "to": "Token recipient.",
          "value": "Number of tokens to transfer."
        }
      },
      "transferOwnership(address)": {
        "details": "Allows the current owner to transfer control of the contract to a newOwner.",
        "params": {
          "newOwner": "The address to transfer ownership to."
        }
      },
      "transferWithData(address,uint256,bytes)": {
        "details": "Transfer the amount of tokens from the address 'msg.sender' to the address 'to'.",
        "params": {
          "data": "Information attached to the transfer, by the token holder.",
          "to": "Token recipient.",
          "value": "Number of tokens to transfer."
        }
      }
    },
    "title": "ERC1400"
  },
  "userdoc": {
    "methods": {
      "renounceOwnership()": {
        "notice": "Renouncing to ownership will leave the contract without an owner. It will not be possible to call the functions with the `onlyOwner` modifier anymore."
      }
    }
  }
}