{
  "contractName": "ERC20HoldableToken",
  "abi": [
    {
      "constant": true,
      "inputs": [],
      "name": "name",
      "outputs": [
        {
          "name": "",
          "type": "string"
        }
      ],
      "payable": false,
      "stateMutability": "view",
      "type": "function"
    },
    {
      "constant": true,
      "inputs": [],
      "name": "totalSupply",
      "outputs": [
        {
          "name": "",
          "type": "uint256"
        }
      ],
      "payable": false,
      "stateMutability": "view",
      "type": "function"
    },
    {
      "constant": true,
      "inputs": [
        {
          "name": "interfaceHash",
          "type": "bytes32"
        },
        {
          "name": "",
          "type": "address"
        }
      ],
      "name": "canImplementInterfaceForAddress",
      "outputs": [
        {
          "name": "",
          "type": "bytes32"
        }
      ],
      "payable": false,
      "stateMutability": "view",
      "type": "function"
    },
    {
      "constant": true,
      "inputs": [],
      "name": "decimals",
      "outputs": [
        {
          "name": "",
          "type": "uint8"
        }
      ],
      "payable": false,
      "stateMutability": "view",
      "type": "function"
    },
    {
      "constant": false,
      "inputs": [
        {
          "name": "spender",
          "type": "address"
        },
        {
          "name": "addedValue",
          "type": "uint256"
        }
      ],
      "name": "increaseAllowance",
      "outputs": [
        {
          "name": "success",
          "type": "bool"
        }
      ],
      "payable": false,
      "stateMutability": "nonpayable",
      "type": "function"
    },
    {
      "constant": false,
      "inputs": [],
      "name": "unpause",
      "outputs": [],
      "payable": false,
      "stateMutability": "nonpayable",
      "type": "function"
    },
    {
      "constant": false,
      "inputs": [
        {
          "name": "to",
          "type": "address"
        },
        {
          "name": "value",
          "type": "uint256"
        }
      ],
      "name": "mint",
      "outputs": [
        {
          "name": "",
          "type": "bool"
        }
      ],
      "payable": false,
      "stateMutability": "nonpayable",
      "type": "function"
    },
    {
      "constant": true,
      "inputs": [
        {
          "name": "account",
          "type": "address"
        }
      ],
      "name": "isPauser",
      "outputs": [
        {
          "name": "",
          "type": "bool"
        }
      ],
      "payable": false,
      "stateMutability": "view",
      "type": "function"
    },
    {
      "constant": true,
      "inputs": [],
      "name": "totalSupplyOnHold",
      "outputs": [
        {
          "name": "",
          "type": "uint256"
        }
      ],
      "payable": false,
      "stateMutability": "view",
      "type": "function"
    },
    {
      "constant": true,
      "inputs": [],
      "name": "paused",
      "outputs": [
        {
          "name": "",
          "type": "bool"
        }
      ],
      "payable": false,
      "stateMutability": "view",
      "type": "function"
    },
    {
      "constant": false,
      "inputs": [],
      "name": "renouncePauser",
      "outputs": [],
      "payable": false,
      "stateMutability": "nonpayable",
      "type": "function"
    },
    {
      "constant": false,
      "inputs": [],
      "name": "renounceOwnership",
      "outputs": [],
      "payable": false,
      "stateMutability": "nonpayable",
      "type": "function"
    },
    {
      "constant": false,
      "inputs": [
        {
          "name": "account",
          "type": "address"
        }
      ],
      "name": "addPauser",
      "outputs": [],
      "payable": false,
      "stateMutability": "nonpayable",
      "type": "function"
    },
    {
      "constant": false,
      "inputs": [],
      "name": "pause",
      "outputs": [],
      "payable": false,
      "stateMutability": "nonpayable",
      "type": "function"
    },
    {
      "constant": true,
      "inputs": [],
      "name": "owner",
      "outputs": [
        {
          "name": "",
          "type": "address"
        }
      ],
      "payable": false,
      "stateMutability": "view",
      "type": "function"
    },
    {
      "constant": true,
      "inputs": [],
      "name": "isOwner",
      "outputs": [
        {
          "name": "",
          "type": "bool"
        }
      ],
      "payable": false,
      "stateMutability": "view",
      "type": "function"
    },
    {
      "constant": true,
      "inputs": [],
      "name": "symbol",
      "outputs": [
        {
          "name": "",
          "type": "string"
        }
      ],
      "payable": false,
      "stateMutability": "view",
      "type": "function"
    },
    {
      "constant": false,
      "inputs": [
        {
          "name": "account",
          "type": "address"
        }
      ],
      "name": "addMinter",
      "outputs": [],
      "payable": false,
      "stateMutability": "nonpayable",
      "type": "function"
    },
    {
      "constant": false,
      "inputs": [],
      "name": "renounceMinter",
      "outputs": [],
      "payable": false,
      "stateMutability": "nonpayable",
      "type": "function"
    },
    {
      "constant": false,
      "inputs": [
        {
          "name": "spender",
          "type": "address"
        },
        {
          "name": "subtractedValue",
          "type": "uint256"
        }
      ],
      "name": "decreaseAllowance",
      "outputs": [
        {
          "name": "success",
          "type": "bool"
        }
      ],
      "payable": false,
      "stateMutability": "nonpayable",
      "type": "function"
    },
    {
      "constant": true,
      "inputs": [
        {
          "name": "account",
          "type": "address"
        }
      ],
      "name": "isMinter",
      "outputs": [
        {
          "name": "",
          "type": "bool"
        }
      ],
      "payable": false,
      "stateMutability": "view",
      "type": "function"
    },
    {
      "constant": true,
      "inputs": [
        {
          "name": "owner",
          "type": "address"
        },
        {
          "name": "spender",
          "type": "address"
        }
      ],
      "name": "allowance",
      "outputs": [
        {
          "name": "",
          "type": "uint256"
        }
      ],
      "payable": false,
      "stateMutability": "view",
      "type": "function"
    },
    {
      "constant": false,
      "inputs": [
        {
          "name": "newOwner",
          "type": "address"
        }
      ],
      "name": "transferOwnership",
      "outputs": [],
      "payable": false,
      "stateMutability": "nonpayable",
      "type": "function"
    },
    {
      "inputs": [
        {
          "name": "name",
          "type": "string"
        },
        {
          "name": "symbol",
          "type": "string"
        },
        {
          "name": "decimals",
          "type": "uint8"
        }
      ],
      "payable": false,
      "stateMutability": "nonpayable",
      "type": "constructor"
    },
    {
      "anonymous": false,
      "inputs": [
        {
          "indexed": false,
          "name": "account",
          "type": "address"
        }
      ],
      "name": "Paused",
      "type": "event"
    },
    {
      "anonymous": false,
      "inputs": [
        {
          "indexed": false,
          "name": "account",
          "type": "address"
        }
      ],
      "name": "Unpaused",
      "type": "event"
    },
    {
      "anonymous": false,
      "inputs": [
        {
          "indexed": true,
          "name": "account",
          "type": "address"
        }
      ],
      "name": "PauserAdded",
      "type": "event"
    },
    {
      "anonymous": false,
      "inputs": [
        {
          "indexed": true,
          "name": "account",
          "type": "address"
        }
      ],
      "name": "PauserRemoved",
      "type": "event"
    },
    {
      "anonymous": false,
      "inputs": [
        {
          "indexed": true,
          "name": "account",
          "type": "address"
        }
      ],
      "name": "MinterAdded",
      "type": "event"
    },
    {
      "anonymous": false,
      "inputs": [
        {
          "indexed": true,
          "name": "account",
          "type": "address"
        }
      ],
      "name": "MinterRemoved",
      "type": "event"
    },
    {
      "anonymous": false,
      "inputs": [
        {
          "indexed": true,
          "name": "from",
          "type": "address"
        },
        {
          "indexed": true,
          "name": "to",
          "type": "address"
        },
        {
          "indexed": false,
          "name": "value",
          "type": "uint256"
        }
      ],
      "name": "Transfer",
      "type": "event"
    },
    {
      "anonymous": false,
      "inputs": [
        {
          "indexed": true,
          "name": "owner",
          "type": "address"
        },
        {
          "indexed": true,
          "name": "spender",
          "type": "address"
        },
        {
          "indexed": false,
          "name": "value",
          "type": "uint256"
        }
      ],
      "name": "Approval",
      "type": "event"
    },
    {
      "anonymous": false,
      "inputs": [
        {
          "indexed": true,
          "name": "previousOwner",
          "type": "address"
        },
        {
          "indexed": true,
          "name": "newOwner",
          "type": "address"
        }
      ],
      "name": "OwnershipTransferred",
      "type": "event"
    },
    {
      "anonymous": false,
      "inputs": [
        {
          "indexed": true,
          "name": "holdId",
          "type": "bytes32"
        },
        {
          "indexed": true,
          "name": "recipient",
          "type": "address"
        },
        {
          "indexed": true,
          "name": "notary",
          "type": "address"
        },
        {
          "indexed": false,
          "name": "amount",
          "type": "uint256"
        },
        {
          "indexed": false,
          "name": "expirationDateTime",
          "type": "uint256"
        },
        {
          "indexed": false,
          "name": "lockHash",
          "type": "bytes32"
        }
      ],
      "name": "NewHold",
      "type": "event"
    },
    {
      "anonymous": false,
      "inputs": [
        {
          "indexed": true,
          "name": "holdId",
          "type": "bytes32"
        },
        {
          "indexed": false,
          "name": "lockPreimage",
          "type": "bytes32"
        },
        {
          "indexed": false,
          "name": "recipient",
          "type": "address"
        }
      ],
      "name": "ExecutedHold",
      "type": "event"
    },
    {
      "anonymous": false,
      "inputs": [
        {
          "indexed": true,
          "name": "holdId",
          "type": "bytes32"
        },
        {
          "indexed": false,
          "name": "sender",
          "type": "address"
        }
      ],
      "name": "ReleaseHold",
      "type": "event"
    },
    {
      "constant": false,
      "inputs": [
        {
          "name": "recipient",
          "type": "address"
        },
        {
          "name": "notary",
          "type": "address"
        },
        {
          "name": "amount",
          "type": "uint256"
        },
        {
          "name": "expirationDateTime",
          "type": "uint256"
        },
        {
          "name": "lockHash",
          "type": "bytes32"
        }
      ],
      "name": "hold",
      "outputs": [
        {
          "name": "holdId",
          "type": "bytes32"
        }
      ],
      "payable": false,
      "stateMutability": "nonpayable",
      "type": "function"
    },
    {
      "constant": false,
      "inputs": [
        {
          "name": "holdId",
          "type": "bytes32"
        }
      ],
      "name": "executeHold",
      "outputs": [],
      "payable": false,
      "stateMutability": "nonpayable",
      "type": "function"
    },
    {
      "constant": false,
      "inputs": [
        {
          "name": "holdId",
          "type": "bytes32"
        },
        {
          "name": "lockPreimage",
          "type": "bytes32"
        }
      ],
      "name": "executeHold",
      "outputs": [],
      "payable": false,
      "stateMutability": "nonpayable",
      "type": "function"
    },
    {
      "constant": false,
      "inputs": [
        {
          "name": "holdId",
          "type": "bytes32"
        },
        {
          "name": "lockPreimage",
          "type": "bytes32"
        },
        {
          "name": "recipient",
          "type": "address"
        }
      ],
      "name": "executeHold",
      "outputs": [],
      "payable": false,
      "stateMutability": "nonpayable",
      "type": "function"
    },
    {
      "constant": false,
      "inputs": [
        {
          "name": "holdId",
          "type": "bytes32"
        }
      ],
      "name": "releaseHold",
      "outputs": [],
      "payable": false,
      "stateMutability": "nonpayable",
      "type": "function"
    },
    {
      "constant": true,
      "inputs": [
        {
          "name": "account",
          "type": "address"
        }
      ],
      "name": "balanceOf",
      "outputs": [
        {
          "name": "",
          "type": "uint256"
        }
      ],
      "payable": false,
      "stateMutability": "view",
      "type": "function"
    },
    {
      "constant": true,
      "inputs": [
        {
          "name": "account",
          "type": "address"
        }
      ],
      "name": "holdBalanceOf",
      "outputs": [
        {
          "name": "",
          "type": "uint256"
        }
      ],
      "payable": false,
      "stateMutability": "view",
      "type": "function"
    },
    {
      "constant": true,
      "inputs": [
        {
          "name": "account",
          "type": "address"
        }
      ],
      "name": "grossBalanceOf",
      "outputs": [
        {
          "name": "",
          "type": "uint256"
        }
      ],
      "payable": false,
      "stateMutability": "view",
      "type": "function"
    },
    {
      "constant": true,
      "inputs": [
        {
          "name": "holdId",
          "type": "bytes32"
        }
      ],
      "name": "holdStatus",
      "outputs": [
        {
          "name": "",
          "type": "uint8"
        }
      ],
      "payable": false,
      "stateMutability": "view",
      "type": "function"
    },
    {
      "constant": false,
      "inputs": [
        {
          "name": "recipient",
          "type": "address"
        },
        {
          "name": "amount",
          "type": "uint256"
        }
      ],
      "name": "transfer",
      "outputs": [
        {
          "name": "",
          "type": "bool"
        }
      ],
      "payable": false,
      "stateMutability": "nonpayable",
      "type": "function"
    },
    {
      "constant": false,
      "inputs": [
        {
          "name": "sender",
          "type": "address"
        },
        {
          "name": "recipient",
          "type": "address"
        },
        {
          "name": "amount",
          "type": "uint256"
        }
      ],
      "name": "transferFrom",
      "outputs": [
        {
          "name": "",
          "type": "bool"
        }
      ],
      "payable": false,
      "stateMutability": "nonpayable",
      "type": "function"
    },
    {
      "constant": false,
      "inputs": [
        {
          "name": "spender",
          "type": "address"
        },
        {
          "name": "amount",
          "type": "uint256"
        }
      ],
      "name": "approve",
      "outputs": [
        {
          "name": "",
          "type": "bool"
        }
      ],
      "payable": false,
      "stateMutability": "nonpayable",
      "type": "function"
    },
    {
      "constant": false,
      "inputs": [
        {
          "name": "amount",
          "type": "uint256"
        }
      ],
      "name": "burn",
      "outputs": [],
      "payable": false,
      "stateMutability": "nonpayable",
      "type": "function"
    },
    {
      "constant": false,
      "inputs": [
        {
          "name": "account",
          "type": "address"
        },
        {
          "name": "amount",
          "type": "uint256"
        }
      ],
      "name": "burnFrom",
      "outputs": [],
      "payable": false,
      "stateMutability": "nonpayable",
      "type": "function"
    }
  ],
  "bytecode": "0x60806040523480156200001157600080fd5b5060405162002a1938038062002a19833981810160405260608110156200003757600080fd5b8101908080516401000000008111156200005057600080fd5b820160208101848111156200006457600080fd5b81516401000000008111828201871017156200007f57600080fd5b505092919060200180516401000000008111156200009c57600080fd5b82016020810184811115620000b057600080fd5b8151640100000000811182820187101715620000cb57600080fd5b5050602090910151600080546001600160a01b03191633178082556040519395509193508592859285928592859285926001600160a01b0391909116917f8be0079c531659141344cd1fd0a4f28419497f9722a3daafe3b4186f6b6457e0908290a362000141336001600160e01b036200020016565b62000155336001600160e01b036200025216565b6006805460ff19169055825162000174906007906020860190620003d1565b5081516200018a906008906020850190620003d1565b5080600960006101000a81548160ff021916908360ff160217905550505050620001f46040518060400160405280600a81526020017f4552433230546f6b656e00000000000000000000000000000000000000000000815250620002a460201b620021f01760201c565b50505050505062000476565b6200021b8160046200034260201b620021971790919060201c565b6040516001600160a01b038216907f6ae172837ea30b801fbfcdd4108aa1d5bf8ff775444fd70256b44e6bf3dfc3f690600090a250565b6200026d8160056200034260201b620021971790919060201c565b6040516001600160a01b038216907f6719d08c1888103bea251a4ed56406bd0c3e69723c8a1686e017e7bbe159b6f890600090a250565b6001600a6000836040516020018082805190602001908083835b60208310620002df5780518252601f199092019160209182019101620002be565b6001836020036101000a03801982511681845116808217855250505050505090500191505060405160208183030381529060405280519060200120815260200190815260200160002060006101000a81548160ff02191690831515021790555050565b6001600160a01b0381166200035657600080fd5b6200036b82826001600160e01b036200039b16565b156200037657600080fd5b6001600160a01b0316600090815260209190915260409020805460ff19166001179055565b60006001600160a01b038216620003b157600080fd5b506001600160a01b03166000908152602091909152604090205460ff1690565b828054600181600116156101000203166002900490600052602060002090601f016020900481019282601f106200041457805160ff191683800117855562000444565b8280016001018555821562000444579182015b828111156200044457825182559160200191906001019062000427565b506200045292915062000456565b5090565b6200047391905b808211156200045257600081556001016200045d565b90565b61259380620004866000396000f3fe608060405234801561001057600080fd5b50600436106101b75760003560e01c806306fdde03146101bc578063095ea7b31461023957806318160ddd1461027957806323b872dd14610293578063249cb3fa146102c9578063313ce567146102f557806339509351146103135780633f4ba83a1461033f57806340c10f191461034957806342966c6814610375578063445850af1461039257806346fbf68e146103b557806351bfb961146103db5780635c975abb146103e3578063603dfcb5146103eb5780636ef8d66d1461041d57806370a0823114610425578063715018a61461044b57806379cc67901461045357806382dc1ec41461047f5780638456cb59146104a55780638da5cb5b146104ad5780638f32d59b146104d15780639335c28f146104d957806395d89b41146104f6578063983b2d56146104fe5780639865027514610524578063a3a413711461052c578063a457c2d714610552578063a9059cbb1461057e578063aa271e1a146105aa578063ac7914e3146105d0578063b67f7bd414610612578063c859c48214610653578063dd62ed3e14610679578063f2fde38b146106a7578063f8abd4bc146106cd575b600080fd5b6101c46106ea565b6040805160208082528351818301528351919283929083019185019080838360005b838110156101fe5781810151838201526020016101e6565b50505050905090810190601f16801561022b5780820380516001836020036101000a031916815260200191505b509250505060405180910390f35b6102656004803603604081101561024f57600080fd5b506001600160a01b038135169060200135610780565b604080519115158252519081900360200190f35b61028161083e565b60408051918252519081900360200190f35b610265600480360360608110156102a957600080fd5b506001600160a01b03813581169160208101359091169060400135610844565b610281600480360360408110156102df57600080fd5b50803590602001356001600160a01b031661090b565b6102fd61096f565b6040805160ff9092168252519081900360200190f35b6102656004803603604081101561032957600080fd5b506001600160a01b038135169060200135610978565b610347610995565b005b6102656004803603604081101561035f57600080fd5b506001600160a01b0381351690602001356109f5565b6103476004803603602081101561038b57600080fd5b5035610a1c565b610347600480360360408110156103a857600080fd5b5080359060200135610ad1565b610265600480360360208110156103cb57600080fd5b50356001600160a01b0316610c5f565b610281610c72565b610265610c78565b6103476004803603606081101561040157600080fd5b50803590602081013590604001356001600160a01b0316610c81565b610347610e63565b6102816004803603602081101561043b57600080fd5b50356001600160a01b0316610e6e565b610347610ea0565b6103476004803603604081101561046957600080fd5b506001600160a01b038135169060200135610ee9565b6103476004803603602081101561049557600080fd5b50356001600160a01b0316610f9c565b610347610fb7565b6104b561101b565b604080516001600160a01b039092168252519081900360200190f35b61026561102a565b610347600480360360208110156104ef57600080fd5b503561103b565b6101c461123f565b6103476004803603602081101561051457600080fd5b50356001600160a01b03166112a0565b6103476112bb565b6102816004803603602081101561054257600080fd5b50356001600160a01b03166112c4565b6102656004803603604081101561056857600080fd5b506001600160a01b0381351690602001356112cf565b6102656004803603604081101561059457600080fd5b506001600160a01b0381351690602001356112ec565b610265600480360360208110156105c057600080fd5b50356001600160a01b03166113a1565b610281600480360360a08110156105e657600080fd5b506001600160a01b038135811691602081013590911690604081013590606081013590608001356113b4565b61062f6004803603602081101561062857600080fd5b5035611745565b6040518082600381111561063f57fe5b60ff16815260200191505060405180910390f35b6102816004803603602081101561066957600080fd5b50356001600160a01b031661175d565b6102816004803603604081101561068f57600080fd5b506001600160a01b0381358116916020013516611778565b610347600480360360208110156106bd57600080fd5b50356001600160a01b03166117a3565b610347600480360360208110156106e357600080fd5b50356117bd565b60078054604080516020601f60026000196101006001881615020190951694909404938401819004810282018101909252828152606093909290918301828280156107765780601f1061074b57610100808354040283529160200191610776565b820191906000526020600020905b81548152906001019060200180831161075957829003601f168201915b5050505050905090565b604080516370a0823160e01b81523360048201529051600091839130916370a08231916024808301926020929190829003018186803b1580156107c257600080fd5b505afa1580156107d6573d6000803e3d6000fd5b505050506040513d60208110156107ec57600080fd5b5051101561082b5760405162461bcd60e51b815260040180806020018281038252602f815260200180612493602f913960400191505060405180910390fd5b6108358383611887565b90505b92915050565b60035490565b604080516370a0823160e01b81526001600160a01b03851660048201529051600091839130916370a08231916024808301926020929190829003018186803b15801561088f57600080fd5b505afa1580156108a3573d6000803e3d6000fd5b505050506040513d60208110156108b957600080fd5b505110156108f85760405162461bcd60e51b815260040180806020018281038252602f815260200180612493602f913960400191505060405180910390fd5b6109038484846118a4565b949350505050565b6000828152600a602052604081205460ff161561096757604051602001808073455243313832305f4143434550545f4d4147494360601b8152506014019050604051602081830303815290604052805190602001209050610838565b506000610838565b60095460ff1690565b60065460009060ff161561098b57600080fd5b61083583836118c2565b61099e33610c5f565b6109a757600080fd5b60065460ff166109b657600080fd5b6006805460ff191690556040805133815290517f5db9ee0a495bf2e6ff9c91a7834c1ba4fdd244a5e8aa4e537bd38aeae4b073aa9181900360200190a1565b6000610a00336113a1565b610a0957600080fd5b610a13838361195e565b50600192915050565b604080516370a0823160e01b81523360048201529051829130916370a0823191602480820192602092909190829003018186803b158015610a5c57600080fd5b505afa158015610a70573d6000803e3d6000fd5b505050506040513d6020811015610a8657600080fd5b50511015610ac55760405162461bcd60e51b815260040180806020018281038252602f815260200180612493602f913960400191505060405180910390fd5b610ace816119f6565b50565b6000828152600b60205260409020600101546001600160a01b0316610b275760405162461bcd60e51b81526004018080602001828103825260568152602001806125096056913960600191505060405180910390fd5b6000828152600b602052604090206005015415610c3357600281604051602001808281526020019150506040516020818303038152906040526040518082805190602001908083835b60208310610b8f5780518252601f199092019160209182019101610b70565b51815160209384036101000a60001901801990921691161790526040519190930194509192505080830381855afa158015610bce573d6000803e3d6000fd5b5050506040513d6020811015610be357600080fd5b50516000838152600b602052604090206005015414610c335760405162461bcd60e51b81526004018080602001828103825260338152602001806123ca6033913960400191505060405180910390fd5b6000828152600b6020526040902060010154610c5b90839083906001600160a01b0316611a00565b5050565b600061083860058363ffffffff611bc916565b600d5481565b60065460ff1690565b6000838152600b60205260409020600101546001600160a01b031615610cd85760405162461bcd60e51b81526004018080602001828103825260478152602001806124c26047913960600191505060405180910390fd5b6001600160a01b038116610d1d5760405162461bcd60e51b81526004018080602001828103825260318152602001806123996031913960400191505060405180910390fd5b6000838152600b602052604090206005015415610e2957600282604051602001808281526020019150506040516020818303038152906040526040518082805190602001908083835b60208310610d855780518252601f199092019160209182019101610d66565b51815160209384036101000a60001901801990921691161790526040519190930194509192505080830381855afa158015610dc4573d6000803e3d6000fd5b5050506040513d6020811015610dd957600080fd5b50516000848152600b602052604090206005015414610e295760405162461bcd60e51b81526004018080602001828103825260338152602001806123ca6033913960400191505060405180910390fd5b6000838152600b6020526040902060010180546001600160a01b0319166001600160a01b038316179055610e5e838383611a00565b505050565b610e6c33611bfe565b565b6001600160a01b0381166000908152600c602052604081205461083890610e9484611c46565b9063ffffffff611c6116565b610ea861102a565b610eb157600080fd5b600080546040516001600160a01b03909116906000805160206123fd833981519152908390a3600080546001600160a01b0319169055565b604080516370a0823160e01b81523360048201529051829130916370a0823191602480820192602092909190829003018186803b158015610f2957600080fd5b505afa158015610f3d573d6000803e3d6000fd5b505050506040513d6020811015610f5357600080fd5b50511015610f925760405162461bcd60e51b815260040180806020018281038252602f815260200180612493602f913960400191505060405180910390fd5b610c5b8282611c76565b610fa533610c5f565b610fae57600080fd5b610ace81611c80565b610fc033610c5f565b610fc957600080fd5b60065460ff1615610fd957600080fd5b6006805460ff191660011790556040805133815290517f62e78cea01bee320cd4e420270b5ea74000d11b0c9f74754ebdbfc544b05a2589181900360200190a1565b6000546001600160a01b031690565b6000546001600160a01b0316331490565b8060016000828152600b602052604090206006015460ff16600381111561105e57fe5b146110ad576040805162461bcd60e51b815260206004820152601a602482015279486f6c64206973206e6f7420696e2048656c642073746174757360301b604482015290519081900360640190fd5b6000828152600b60205260409020546001600160a01b0316331415611120576000828152600b6020526040902060040154421161111b5760405162461bcd60e51b815260040180806020018281038252603881526020018061233b6038913960400191505060405180910390fd5b611178565b6000828152600b60205260409020600201546001600160a01b031633146111785760405162461bcd60e51b815260040180806020018281038252603681526020018061245d6036913960400191505060405180910390fd5b6000828152600b6020908152604080832060068101805460ff1916600390811790915581015490546001600160a01b03168452600c909252909120546111bd91611c61565b6000838152600b6020818152604080842080546001600160a01b03168552600c83529084209490945591859052905260030154600d546112029163ffffffff611c6116565b600d5560408051338152905183917f67493c41cf2a398ecd74af2c26b3ad6114f9a0b0532ea06fc327adec60151102919081900360200190a25050565b60088054604080516020601f60026000196101006001881615020190951694909404938401819004810282018101909252828152606093909290918301828280156107765780601f1061074b57610100808354040283529160200191610776565b6112a9336113a1565b6112b257600080fd5b610ace81611cc8565b610e6c33611d10565b600061083882611c46565b60065460009060ff16156112e257600080fd5b6108358383611d58565b604080516370a0823160e01b81523360048201529051600091839130916370a08231916024808301926020929190829003018186803b15801561132e57600080fd5b505afa158015611342573d6000803e3d6000fd5b505050506040513d602081101561135857600080fd5b505110156113975760405162461bcd60e51b815260040180806020018281038252602f815260200180612493602f913960400191505060405180910390fd5b6108358383611da1565b600061083860048363ffffffff611bc916565b60006001600160a01b0385166113fb5760405162461bcd60e51b81526004018080602001828103825260278152602001806122b86027913960400191505060405180910390fd5b836114375760405162461bcd60e51b81526004018080602001828103825260268152602001806123736026913960400191505060405180910390fd5b604080516370a0823160e01b81523360048201529051859130916370a0823191602480820192602092909190829003018186803b15801561147757600080fd5b505afa15801561148b573d6000803e3d6000fd5b505050506040513d60208110156114a157600080fd5b505110156114e05760405162461bcd60e51b81526004018080602001828103825260268152602001806122df6026913960400191505060405180910390fd5b5060408051606087811b6001600160601b03199081166020808501919091529188901b166034830152604882018690526068820185905260888083018590528351808403909101815260a89092019092528051910120600080828152600b602052604090206006015460ff16600381111561155757fe5b146115a3576040805162461bcd60e51b8152602060048201526017602482015276686f6c643a20696420616c72656164792065786973747360481b604482015290519081900360640190fd5b6040518060e00160405280336001600160a01b03168152602001876001600160a01b03168152602001866001600160a01b03168152602001858152602001848152602001838152602001600160038111156115fa57fe5b90526000828152600b6020908152604091829020835181546001600160a01b03199081166001600160a01b0392831617835592850151600180840180548616928416929092179091559385015160028301805490941691161790915560608301516003808301919091556080840151600483015560a0840151600583015560c084015160068301805493949193909260ff199091169190849081111561169c57fe5b021790555050336000908152600c60205260409020546116c391508563ffffffff611dbe16565b336000908152600c6020526040902055600d546116e6908563ffffffff611dbe16565b600d55604080518581526020810185905280820184905290516001600160a01b03808816929089169184917fe978043d2c2c19e698dfa9c4c7d635cd7a872597314f9f0b7979dae393c6da7c919081900360600190a495945050505050565b6000908152600b602052604090206006015460ff1690565b6001600160a01b03166000908152600c602052604090205490565b6001600160a01b03918216600090815260026020908152604080832093909416825291909152205490565b6117ab61102a565b6117b457600080fd5b610ace81611dd0565b6000818152600b60205260409020600101546001600160a01b03166118135760405162461bcd60e51b81526004018080602001828103825260568152602001806125096056913960600191505060405180910390fd5b6000818152600b6020526040902060050154156118615760405162461bcd60e51b81526004018080602001828103825260368152602001806123056036913960400191505060405180910390fd5b6000818152600b6020526040812060010154610ace9183916001600160a01b0316611a00565b60065460009060ff161561189a57600080fd5b6108358383611e2c565b60065460009060ff16156118b757600080fd5b610903848484611e96565b60006001600160a01b0383166118d757600080fd5b3360009081526002602090815260408083206001600160a01b038716845290915290205461190b908363ffffffff611dbe16565b3360008181526002602090815260408083206001600160a01b03891680855290835292819020859055805194855251919360008051602061243d833981519152929081900390910190a350600192915050565b6001600160a01b03821661197157600080fd5b600354611984908263ffffffff611dbe16565b6003556001600160a01b0382166000908152600160205260409020546119b0908263ffffffff611dbe16565b6001600160a01b038316600081815260016020908152604080832094909455835185815293519293919260008051602061241d8339815191529281900390910190a35050565b610ace3382611f4d565b8260016000828152600b602052604090206006015460ff166003811115611a2357fe5b14611a72576040805162461bcd60e51b815260206004820152601a602482015279486f6c64206973206e6f7420696e2048656c642073746174757360301b604482015290519081900360640190fd5b6000848152600b60205260409020600201546001600160a01b03163314611aca5760405162461bcd60e51b815260040180806020018281038252602b81526020018061228d602b913960400191505060405180910390fd5b6000848152600b602052604090208054600390910154611af5916001600160a01b0316908490611fe4565b6000848152600b6020908152604080832060068101805460ff19166002179055600381015490546001600160a01b03168452600c90925290912054611b3991611c61565b6000858152600b6020818152604080842080546001600160a01b03168552600c83529084209490945591879052905260030154600d54611b7e9163ffffffff611c6116565b600d55604080518481526001600160a01b0384166020820152815186927fc6d1a93a7a047b3f030e0a63b85e07ff5741659917295090572c23834d53281d928290030190a250505050565b60006001600160a01b038216611bde57600080fd5b506001600160a01b03166000908152602091909152604090205460ff1690565b611c0f60058263ffffffff61209f16565b6040516001600160a01b038216907fcd265ebaf09df2871cc7bd4133404a235ba12eff2041bb89d9c714a2621c7c7e90600090a250565b6001600160a01b031660009081526001602052604090205490565b600082821115611c7057600080fd5b50900390565b610c5b82826120e7565b611c9160058263ffffffff61219716565b6040516001600160a01b038216907f6719d08c1888103bea251a4ed56406bd0c3e69723c8a1686e017e7bbe159b6f890600090a250565b611cd960048263ffffffff61219716565b6040516001600160a01b038216907f6ae172837ea30b801fbfcdd4108aa1d5bf8ff775444fd70256b44e6bf3dfc3f690600090a250565b611d2160048263ffffffff61209f16565b6040516001600160a01b038216907fe94479a9f7e1952cc78f2d6baab678adc1b772d936c6583def489e524cb6669290600090a250565b60006001600160a01b038316611d6d57600080fd5b3360009081526002602090815260408083206001600160a01b038716845290915290205461190b908363ffffffff611c6116565b60065460009060ff1615611db457600080fd5b61083583836121e3565b60008282018381101561083557600080fd5b6001600160a01b038116611de357600080fd5b600080546040516001600160a01b03808516939216916000805160206123fd83398151915291a3600080546001600160a01b0319166001600160a01b0392909216919091179055565b60006001600160a01b038316611e4157600080fd5b3360008181526002602090815260408083206001600160a01b038816808552908352928190208690558051868152905192939260008051602061243d833981519152929181900390910190a350600192915050565b6001600160a01b0383166000908152600260209081526040808320338452909152812054611eca908363ffffffff611c6116565b6001600160a01b0385166000908152600260209081526040808320338452909152902055611ef9848484611fe4565b6001600160a01b03841660008181526002602090815260408083203380855290835292819020548151908152905192939260008051602061243d833981519152929181900390910190a35060019392505050565b6001600160a01b038216611f6057600080fd5b600354611f73908263ffffffff611c6116565b6003556001600160a01b038216600090815260016020526040902054611f9f908263ffffffff611c6116565b6001600160a01b03831660008181526001602090815260408083209490945583518581529351919360008051602061241d833981519152929081900390910190a35050565b6001600160a01b038216611ff757600080fd5b6001600160a01b038316600090815260016020526040902054612020908263ffffffff611c6116565b6001600160a01b038085166000908152600160205260408082209390935590841681522054612055908263ffffffff611dbe16565b6001600160a01b03808416600081815260016020908152604091829020949094558051858152905191939287169260008051602061241d83398151915292918290030190a3505050565b6001600160a01b0381166120b257600080fd5b6120bc8282611bc9565b6120c557600080fd5b6001600160a01b0316600090815260209190915260409020805460ff19169055565b6001600160a01b038216600090815260026020908152604080832033845290915290205461211b908263ffffffff611c6116565b6001600160a01b03831660009081526002602090815260408083203384529091529020556121498282611f4d565b6001600160a01b03821660008181526002602090815260408083203380855290835292819020548151908152905192939260008051602061243d833981519152929181900390910190a35050565b6001600160a01b0381166121aa57600080fd5b6121b48282611bc9565b156121be57600080fd5b6001600160a01b0316600090815260209190915260409020805460ff19166001179055565b6000610a13338484611fe4565b6001600a6000836040516020018082805190602001908083835b602083106122295780518252601f19909201916020918201910161220a565b6001836020036101000a03801982511681845116808217855250505050505090500191505060405160208183030381529060405280519060200120815260200190815260200160002060006101000a81548160ff0219169083151502179055505056fe65786563757465486f6c643a2063616c6c6572206d7573742062652074686520686f6c64206e6f74617279686f6c643a206e6f74617279206d757374206e6f742062652061207a65726f2061646472657373686f6c643a20616d6f756e74206578636565647320617661696c61626c652062616c616e636565786563757465486f6c643a206e65656420707265696d6167652069662074686520686f6c64206861732061206c6f636b206861736872656c65617365486f6c643a2063616e206f6e6c792072656c65617365206166746572207468652065787069726174696f6e20646174652e686f6c643a20616d6f756e74206d7573742062652067726561746572207468616e207a65726f65786563757465486f6c643a20726563697069656e74206d757374206e6f742062652061207a65726f206164647265737365786563757465486f6c643a20707265696d616765206861736820646f6573206e6f74206d61746368206c6f636b20686173688be0079c531659141344cd1fd0a4f28419497f9722a3daafe3b4186f6b6457e0ddf252ad1be2c89b69c2b068fc378daa952ba7f163c4a11628f55a4df523b3ef8c5be1e5ebec7d5bd14f71427d1e84f3dd0314c0f7b2291e5b200ac8c7c3b92572656c65617365486f6c643a2063616c6c6572206d7573742062652074686520686f6c642073656e646572206f72206e6f746172792e486f6c6461626c65546f6b656e3a20616d6f756e74206578636565647320617661696c61626c652062616c616e636565786563757465486f6c643a2063616e206e6f7420736574206120726563697069656e74206f6e20657865637574696f6e2061732069742077617320736574206f6e20686f6c6465786563757465486f6c643a206d75737420706173732074686520726563697069656e74206f6e20657865637574696f6e2061732074686520726563697069656e7420776173206e6f7420736574206f6e20686f6c64a265627a7a72305820232ef67acd9a2ea630552cb087386822623a526dc86374464c753d92690b421364736f6c634300050a0032",
  "source": "/*\n * This code has not been reviewed.\n * Do not use or deploy this code before reviewing it personally first.\n */\npragma solidity ^0.5.0;\n\nimport \"./ERC20Token.sol\";\nimport \"./IERC20HoldableToken.sol\";\n\n/**\n * @title ERC20HoldableToken\n * @notice A hold is like an approve where held tokens can not be spent by the token holder until after an hold expiration period.\n    The hold can be executed by a notary, which can be the recipient of the tokens, a third party or a smart contract.\n    The notary can execute the hold before or after the expiration period.\n    Additionally, a hash lock at be applied which requires the notary of the hold to present the hash preimage to execute the hold.\n    Held tokens can be released by the notary at any time or by the token holder after the expiration period.\n    A recipient does not have to get set at the time of the hold, which means it will have to be specified when the hold is executed.\n */\ncontract ERC20HoldableToken is IERC20HoldableToken, ERC20Token {\n    struct HoldData {\n        address sender;\n        address recipient;\n        address notary;\n        uint256 amount;\n        uint256 expirationDateTime;\n        bytes32 lockHash;\n        HoldStatusCode status;\n    }\n\n    // mapping of accounts to hold data\n    mapping(bytes32 => HoldData) internal holds;\n    // mapping of accounts and their total amount on hold\n    mapping(address => uint256) internal accountHoldBalances;\n    uint256 public totalSupplyOnHold;\n\n    modifier isHeld(bytes32 holdId) {\n        require(\n            holds[holdId].status == HoldStatusCode.Held,\n            \"Hold is not in Held status\"\n        );\n        _;\n    }\n\n    constructor(string memory name, string memory symbol, uint8 decimals) public ERC20Token(name, symbol, decimals) {}\n\n    /**\n     @notice Called by the sender to hold some tokens for a recipient that the sender can not release back to themself until after the expiration date.\n     @param recipient optional account the tokens will be transferred to on execution. If a zero address, the recipient must be specified on execution of the hold.\n     @param notary account that can execute the hold. Typically the recipient but can be a third party or a smart contact.\n     @param amount of tokens to be transferred to the recipient on execution. Must be a non zero amount.\n     @param expirationDateTime UNIX epoch seconds the held amount can be released back to the sender by the sender. Past dates are allowed.\n     @param lockHash optional keccak256 hash of a lock preimage. An empty hash will not enforce the hash lock when the hold is executed.\n     @return a unique identifier for the hold.\n     */\n    function hold(\n        address recipient,\n        address notary,\n        uint256 amount,\n        uint256 expirationDateTime,\n        bytes32 lockHash\n    ) public returns (bytes32 holdId) {\n        require(\n            notary != address(0),\n            \"hold: notary must not be a zero address\"\n        );\n        require(amount != 0, \"hold: amount must be greater than zero\");\n        require(\n            this.balanceOf(msg.sender) >= amount,\n            \"hold: amount exceeds available balance\"\n        );\n        holdId = keccak256(\n            abi.encodePacked(\n                recipient,\n                notary,\n                amount,\n                expirationDateTime,\n                lockHash\n            )\n        );\n        require(\n            holds[holdId].status == HoldStatusCode.Nonexistent,\n            \"hold: id already exists\"\n        );\n        holds[holdId] = HoldData(\n            msg.sender,\n            recipient,\n            notary,\n            amount,\n            expirationDateTime,\n            lockHash,\n            HoldStatusCode.Held\n        );\n        accountHoldBalances[msg.sender] = accountHoldBalances[msg.sender].add(\n            amount\n        );\n        totalSupplyOnHold = totalSupplyOnHold.add(amount);\n\n        emit NewHold(\n            holdId,\n            recipient,\n            notary,\n            amount,\n            expirationDateTime,\n            lockHash\n        );\n    }\n\n    /**\n     @notice Called by the notary to transfer the held tokens to the set at the hold recipient if there is no hash lock.\n     @param holdId a unique identifier for the hold.\n     */\n    function executeHold(bytes32 holdId) public {\n        require(\n            holds[holdId].recipient != address(0),\n            \"executeHold: must pass the recipient on execution as the recipient was not set on hold\"\n        );\n        require(\n            holds[holdId].lockHash == bytes32(0),\n            \"executeHold: need preimage if the hold has a lock hash\"\n        );\n\n        _executeHold(holdId, \"\", holds[holdId].recipient);\n    }\n\n    /**\n     @notice Called by the notary to transfer the held tokens to the recipient that was set at the hold.\n     @param holdId a unique identifier for the hold.\n     @param lockPreimage the image used to generate the lock hash with a keccak256 hash\n     */\n    function executeHold(bytes32 holdId, bytes32 lockPreimage) public {\n        require(\n            holds[holdId].recipient != address(0),\n            \"executeHold: must pass the recipient on execution as the recipient was not set on hold\"\n        );\n        if (holds[holdId].lockHash != bytes32(0)) {\n            require(\n                holds[holdId].lockHash ==\n                    sha256(abi.encodePacked(lockPreimage)),\n                \"executeHold: preimage hash does not match lock hash\"\n            );\n        }\n\n        _executeHold(holdId, lockPreimage, holds[holdId].recipient);\n    }\n\n    /**\n     @notice Called by the notary to transfer the held tokens to the recipient if no recipient was specified at the hold.\n     @param holdId a unique identifier for the hold.\n     @param lockPreimage the image used to generate the lock hash with a keccak256 hash\n     @param recipient the account the tokens will be transferred to on execution.\n     */\n    function executeHold(\n        bytes32 holdId,\n        bytes32 lockPreimage,\n        address recipient\n    ) public {\n        require(\n            holds[holdId].recipient == address(0),\n            \"executeHold: can not set a recipient on execution as it was set on hold\"\n        );\n        require(\n            recipient != address(0),\n            \"executeHold: recipient must not be a zero address\"\n        );\n        if (holds[holdId].lockHash != bytes32(0)) {\n            require(\n                holds[holdId].lockHash ==\n                    sha256(abi.encodePacked(lockPreimage)),\n                \"executeHold: preimage hash does not match lock hash\"\n            );\n        }\n\n        holds[holdId].recipient = recipient;\n\n        _executeHold(holdId, lockPreimage, recipient);\n    }\n\n    function _executeHold(\n        bytes32 holdId,\n        bytes32 lockPreimage,\n        address recipient\n    ) internal isHeld(holdId) {\n        require(\n            holds[holdId].notary == msg.sender,\n            \"executeHold: caller must be the hold notary\"\n        );\n\n        super._transfer(holds[holdId].sender, recipient, holds[holdId].amount);\n\n        holds[holdId].status = HoldStatusCode.Executed;\n        accountHoldBalances[holds[holdId]\n            .sender] = accountHoldBalances[holds[holdId].sender].sub(\n            holds[holdId].amount\n        );\n        totalSupplyOnHold = totalSupplyOnHold.sub(holds[holdId].amount);\n\n        emit ExecutedHold(holdId, lockPreimage, recipient);\n    }\n\n    /**\n     @notice Called by the notary at any time or the sender after the expiration date to release the held tokens back to the sender.\n     @param holdId a unique identifier for the hold.\n     */\n    function releaseHold(bytes32 holdId) public isHeld(holdId) {\n        if (holds[holdId].sender == msg.sender) {\n            require(\n                now > holds[holdId].expirationDateTime,\n                \"releaseHold: can only release after the expiration date.\"\n            );\n        } else if (holds[holdId].notary != msg.sender) {\n            revert(\"releaseHold: caller must be the hold sender or notary.\");\n        }\n\n        holds[holdId].status = HoldStatusCode.Released;\n        accountHoldBalances[holds[holdId]\n            .sender] = accountHoldBalances[holds[holdId].sender].sub(\n            holds[holdId].amount\n        );\n        totalSupplyOnHold = totalSupplyOnHold.sub(holds[holdId].amount);\n\n        emit ReleaseHold(holdId, msg.sender);\n    }\n\n    /**\n     @notice Amount of tokens owned by an account that are available for transfer. That is, the gross balance less any held tokens.\n     @param account owner of the tokens\n     */\n    function balanceOf(address account) public view returns (uint256) {\n        return super.balanceOf(account).sub(accountHoldBalances[account]);\n    }\n\n    /**\n     @notice Amount of tokens owned by an account that are held pending execution or release.\n     @param account owner of the tokens\n     */\n    function holdBalanceOf(address account) public view returns (uint256) {\n        return accountHoldBalances[account];\n    }\n\n    /**\n     @notice Total amount of tokens owned by an account including all the held tokens pending execution or release.\n     @param account owner of the tokens\n     */\n    function grossBalanceOf(address account) public view returns (uint256) {\n        return super.balanceOf(account);\n    }\n\n    /**\n     @param holdId a unique identifier for the hold.\n     @return hold status code.\n     */\n    function holdStatus(bytes32 holdId) public view returns (HoldStatusCode) {\n        return holds[holdId].status;\n    }\n\n    /**\n     @notice ERC20 transfer that checks on hold tokens can not be transferred.\n     */\n    function transfer(address recipient, uint256 amount) public returns (bool) {\n        require(\n            this.balanceOf(msg.sender) >= amount,\n            \"HoldableToken: amount exceeds available balance\"\n        );\n        return super.transfer(recipient, amount);\n    }\n\n    /**\n     @notice ERC20 transferFrom that checks on hold tokens can not be transferred.\n     */\n    function transferFrom(\n        address sender,\n        address recipient,\n        uint256 amount\n    ) public returns (bool) {\n        require(\n            this.balanceOf(sender) >= amount,\n            \"HoldableToken: amount exceeds available balance\"\n        );\n        return super.transferFrom(sender, recipient, amount);\n    }\n\n    /**\n     @notice ERC20 approve that checks on hold tokens can not be approved for spending by another account.\n     */\n    function approve(address spender, uint256 amount) public returns (bool) {\n        require(\n            this.balanceOf(msg.sender) >= amount,\n            \"HoldableToken: amount exceeds available balance\"\n        );\n        return super.approve(spender, amount);\n    }\n\n    /**\n     @notice ERC20 burn that checks on hold tokens can not be burnt.\n     */\n    function burn(uint256 amount) public {\n        require(\n            this.balanceOf(msg.sender) >= amount,\n            \"HoldableToken: amount exceeds available balance\"\n        );\n        super.burn(amount);\n    }\n\n    /**\n     @notice ERC20 burnFrom that checks on hold tokens can not be burnt.\n     */\n    function burnFrom(address account, uint256 amount) public {\n        require(\n            this.balanceOf(msg.sender) >= amount,\n            \"HoldableToken: amount exceeds available balance\"\n        );\n        super.burnFrom(account, amount);\n    }\n}\n",
  "sourcePath": "universal-token/contracts/tokens/ERC20HoldableToken.sol",
  "compiler": {
    "name": "solc",
    "version": "0.5.10+commit.5a6ea5b1.Emscripten.clang"
  },
  "schemaVersion": "3.3.0",
  "updatedAt": "2020-12-15T12:54:12.288Z",
  "devdoc": {
    "methods": {
      "allowance(address,address)": {
        "details": "Function to check the amount of tokens that an owner allowed to a spender.",
        "params": {
          "owner": "address The address which owns the funds.",
          "spender": "address The address which will spend the funds."
        },
        "return": "A uint256 specifying the amount of tokens still available for the spender."
      },
      "balanceOf(address)": {
        "params": {
          "account": "owner of the tokens"
        }
      },
      "decimals()": {
        "return": "the number of decimals of the token."
      },
      "executeHold(bytes32)": {
        "params": {
          "holdId": "a unique identifier for the hold."
        }
      },
      "executeHold(bytes32,bytes32)": {
        "params": {
          "holdId": "a unique identifier for the hold.",
          "lockPreimage": "the image used to generate the lock hash with a keccak256 hash"
        }
      },
      "executeHold(bytes32,bytes32,address)": {
        "params": {
          "holdId": "a unique identifier for the hold.",
          "lockPreimage": "the image used to generate the lock hash with a keccak256 hash",
          "recipient": "the account the tokens will be transferred to on execution."
        }
      },
      "grossBalanceOf(address)": {
        "params": {
          "account": "owner of the tokens"
        }
      },
      "hold(address,address,uint256,uint256,bytes32)": {
        "params": {
          "amount": "of tokens to be transferred to the recipient on execution. Must be a non zero amount.",
          "expirationDateTime": "UNIX epoch seconds the held amount can be released back to the sender by the sender. Past dates are allowed.",
          "lockHash": "optional keccak256 hash of a lock preimage. An empty hash will not enforce the hash lock when the hold is executed.",
          "notary": "account that can execute the hold. Typically the recipient but can be a third party or a smart contact.",
          "recipient": "optional account the tokens will be transferred to on execution. If a zero address, the recipient must be specified on execution of the hold."
        },
        "return": "a unique identifier for the hold."
      },
      "holdBalanceOf(address)": {
        "params": {
          "account": "owner of the tokens"
        }
      },
      "holdStatus(bytes32)": {
        "params": {
          "holdId": "a unique identifier for the hold."
        },
        "return": "hold status code."
      },
      "isOwner()": {
        "return": "true if `msg.sender` is the owner of the contract."
      },
      "mint(address,uint256)": {
        "details": "Function to mint tokens",
        "params": {
          "to": "The address that will receive the minted tokens.",
          "value": "The amount of tokens to mint."
        },
        "return": "A boolean that indicates if the operation was successful."
      },
      "name()": {
        "return": "the name of the token."
      },
      "owner()": {
        "return": "the address of the owner."
      },
      "pause()": {
        "details": "called by the owner to pause, triggers stopped state"
      },
      "paused()": {
        "return": "true if the contract is paused, false otherwise."
      },
      "releaseHold(bytes32)": {
        "params": {
          "holdId": "a unique identifier for the hold."
        }
      },
      "renounceOwnership()": {
        "details": "Allows the current owner to relinquish control of the contract."
      },
      "symbol()": {
        "return": "the symbol of the token."
      },
      "totalSupply()": {
        "details": "Total number of tokens in existence"
      },
      "transferOwnership(address)": {
        "details": "Allows the current owner to transfer control of the contract to a newOwner.",
        "params": {
          "newOwner": "The address to transfer ownership to."
        }
      },
      "unpause()": {
        "details": "called by the owner to unpause, returns to normal state"
      }
    },
    "title": "ERC20HoldableToken"
  },
  "userdoc": {
    "methods": {
      "approve(address,uint256)": {
        "notice": "ERC20 approve that checks on hold tokens can not be approved for spending by another account."
      },
      "balanceOf(address)": {
        "notice": "Amount of tokens owned by an account that are available for transfer. That is, the gross balance less any held tokens."
      },
      "burn(uint256)": {
        "notice": "ERC20 burn that checks on hold tokens can not be burnt."
      },
      "burnFrom(address,uint256)": {
        "notice": "ERC20 burnFrom that checks on hold tokens can not be burnt."
      },
      "executeHold(bytes32)": {
        "notice": "Called by the notary to transfer the held tokens to the set at the hold recipient if there is no hash lock."
      },
      "executeHold(bytes32,bytes32)": {
        "notice": "Called by the notary to transfer the held tokens to the recipient that was set at the hold."
      },
      "executeHold(bytes32,bytes32,address)": {
        "notice": "Called by the notary to transfer the held tokens to the recipient if no recipient was specified at the hold."
      },
      "grossBalanceOf(address)": {
        "notice": "Total amount of tokens owned by an account including all the held tokens pending execution or release."
      },
      "hold(address,address,uint256,uint256,bytes32)": {
        "notice": "Called by the sender to hold some tokens for a recipient that the sender can not release back to themself until after the expiration date."
      },
      "holdBalanceOf(address)": {
        "notice": "Amount of tokens owned by an account that are held pending execution or release."
      },
      "releaseHold(bytes32)": {
        "notice": "Called by the notary at any time or the sender after the expiration date to release the held tokens back to the sender."
      },
      "renounceOwnership()": {
        "notice": "Renouncing to ownership will leave the contract without an owner. It will not be possible to call the functions with the `onlyOwner` modifier anymore."
      },
      "transfer(address,uint256)": {
        "notice": "ERC20 transfer that checks on hold tokens can not be transferred."
      },
      "transferFrom(address,address,uint256)": {
        "notice": "ERC20 transferFrom that checks on hold tokens can not be transferred."
      }
    },
    "notice": "A hold is like an approve where held tokens can not be spent by the token holder until after an hold expiration period. The hold can be executed by a notary, which can be the recipient of the tokens, a third party or a smart contract. The notary can execute the hold before or after the expiration period. Additionally, a hash lock at be applied which requires the notary of the hold to present the hash preimage to execute the hold. Held tokens can be released by the notary at any time or by the token holder after the expiration period. A recipient does not have to get set at the time of the hold, which means it will have to be specified when the hold is executed."
  }
}