{
  "contractName": "ERC20Token",
  "abi": [
    {
      "constant": true,
      "inputs": [],
      "name": "name",
      "outputs": [
        {
          "name": "",
          "type": "string"
        }
      ],
      "payable": false,
      "stateMutability": "view",
      "type": "function"
    },
    {
      "constant": false,
      "inputs": [
        {
          "name": "spender",
          "type": "address"
        },
        {
          "name": "value",
          "type": "uint256"
        }
      ],
      "name": "approve",
      "outputs": [
        {
          "name": "",
          "type": "bool"
        }
      ],
      "payable": false,
      "stateMutability": "nonpayable",
      "type": "function"
    },
    {
      "constant": true,
      "inputs": [],
      "name": "totalSupply",
      "outputs": [
        {
          "name": "",
          "type": "uint256"
        }
      ],
      "payable": false,
      "stateMutability": "view",
      "type": "function"
    },
    {
      "constant": false,
      "inputs": [
        {
          "name": "from",
          "type": "address"
        },
        {
          "name": "to",
          "type": "address"
        },
        {
          "name": "value",
          "type": "uint256"
        }
      ],
      "name": "transferFrom",
      "outputs": [
        {
          "name": "",
          "type": "bool"
        }
      ],
      "payable": false,
      "stateMutability": "nonpayable",
      "type": "function"
    },
    {
      "constant": true,
      "inputs": [
        {
          "name": "interfaceHash",
          "type": "bytes32"
        },
        {
          "name": "",
          "type": "address"
        }
      ],
      "name": "canImplementInterfaceForAddress",
      "outputs": [
        {
          "name": "",
          "type": "bytes32"
        }
      ],
      "payable": false,
      "stateMutability": "view",
      "type": "function"
    },
    {
      "constant": true,
      "inputs": [],
      "name": "decimals",
      "outputs": [
        {
          "name": "",
          "type": "uint8"
        }
      ],
      "payable": false,
      "stateMutability": "view",
      "type": "function"
    },
    {
      "constant": false,
      "inputs": [
        {
          "name": "spender",
          "type": "address"
        },
        {
          "name": "addedValue",
          "type": "uint256"
        }
      ],
      "name": "increaseAllowance",
      "outputs": [
        {
          "name": "success",
          "type": "bool"
        }
      ],
      "payable": false,
      "stateMutability": "nonpayable",
      "type": "function"
    },
    {
      "constant": false,
      "inputs": [],
      "name": "unpause",
      "outputs": [],
      "payable": false,
      "stateMutability": "nonpayable",
      "type": "function"
    },
    {
      "constant": false,
      "inputs": [
        {
          "name": "to",
          "type": "address"
        },
        {
          "name": "value",
          "type": "uint256"
        }
      ],
      "name": "mint",
      "outputs": [
        {
          "name": "",
          "type": "bool"
        }
      ],
      "payable": false,
      "stateMutability": "nonpayable",
      "type": "function"
    },
    {
      "constant": false,
      "inputs": [
        {
          "name": "value",
          "type": "uint256"
        }
      ],
      "name": "burn",
      "outputs": [],
      "payable": false,
      "stateMutability": "nonpayable",
      "type": "function"
    },
    {
      "constant": true,
      "inputs": [
        {
          "name": "account",
          "type": "address"
        }
      ],
      "name": "isPauser",
      "outputs": [
        {
          "name": "",
          "type": "bool"
        }
      ],
      "payable": false,
      "stateMutability": "view",
      "type": "function"
    },
    {
      "constant": true,
      "inputs": [],
      "name": "paused",
      "outputs": [
        {
          "name": "",
          "type": "bool"
        }
      ],
      "payable": false,
      "stateMutability": "view",
      "type": "function"
    },
    {
      "constant": false,
      "inputs": [],
      "name": "renouncePauser",
      "outputs": [],
      "payable": false,
      "stateMutability": "nonpayable",
      "type": "function"
    },
    {
      "constant": true,
      "inputs": [
        {
          "name": "owner",
          "type": "address"
        }
      ],
      "name": "balanceOf",
      "outputs": [
        {
          "name": "",
          "type": "uint256"
        }
      ],
      "payable": false,
      "stateMutability": "view",
      "type": "function"
    },
    {
      "constant": false,
      "inputs": [],
      "name": "renounceOwnership",
      "outputs": [],
      "payable": false,
      "stateMutability": "nonpayable",
      "type": "function"
    },
    {
      "constant": false,
      "inputs": [
        {
          "name": "from",
          "type": "address"
        },
        {
          "name": "value",
          "type": "uint256"
        }
      ],
      "name": "burnFrom",
      "outputs": [],
      "payable": false,
      "stateMutability": "nonpayable",
      "type": "function"
    },
    {
      "constant": false,
      "inputs": [
        {
          "name": "account",
          "type": "address"
        }
      ],
      "name": "addPauser",
      "outputs": [],
      "payable": false,
      "stateMutability": "nonpayable",
      "type": "function"
    },
    {
      "constant": false,
      "inputs": [],
      "name": "pause",
      "outputs": [],
      "payable": false,
      "stateMutability": "nonpayable",
      "type": "function"
    },
    {
      "constant": true,
      "inputs": [],
      "name": "owner",
      "outputs": [
        {
          "name": "",
          "type": "address"
        }
      ],
      "payable": false,
      "stateMutability": "view",
      "type": "function"
    },
    {
      "constant": true,
      "inputs": [],
      "name": "isOwner",
      "outputs": [
        {
          "name": "",
          "type": "bool"
        }
      ],
      "payable": false,
      "stateMutability": "view",
      "type": "function"
    },
    {
      "constant": true,
      "inputs": [],
      "name": "symbol",
      "outputs": [
        {
          "name": "",
          "type": "string"
        }
      ],
      "payable": false,
      "stateMutability": "view",
      "type": "function"
    },
    {
      "constant": false,
      "inputs": [
        {
          "name": "account",
          "type": "address"
        }
      ],
      "name": "addMinter",
      "outputs": [],
      "payable": false,
      "stateMutability": "nonpayable",
      "type": "function"
    },
    {
      "constant": false,
      "inputs": [],
      "name": "renounceMinter",
      "outputs": [],
      "payable": false,
      "stateMutability": "nonpayable",
      "type": "function"
    },
    {
      "constant": false,
      "inputs": [
        {
          "name": "spender",
          "type": "address"
        },
        {
          "name": "subtractedValue",
          "type": "uint256"
        }
      ],
      "name": "decreaseAllowance",
      "outputs": [
        {
          "name": "success",
          "type": "bool"
        }
      ],
      "payable": false,
      "stateMutability": "nonpayable",
      "type": "function"
    },
    {
      "constant": false,
      "inputs": [
        {
          "name": "to",
          "type": "address"
        },
        {
          "name": "value",
          "type": "uint256"
        }
      ],
      "name": "transfer",
      "outputs": [
        {
          "name": "",
          "type": "bool"
        }
      ],
      "payable": false,
      "stateMutability": "nonpayable",
      "type": "function"
    },
    {
      "constant": true,
      "inputs": [
        {
          "name": "account",
          "type": "address"
        }
      ],
      "name": "isMinter",
      "outputs": [
        {
          "name": "",
          "type": "bool"
        }
      ],
      "payable": false,
      "stateMutability": "view",
      "type": "function"
    },
    {
      "constant": true,
      "inputs": [
        {
          "name": "owner",
          "type": "address"
        },
        {
          "name": "spender",
          "type": "address"
        }
      ],
      "name": "allowance",
      "outputs": [
        {
          "name": "",
          "type": "uint256"
        }
      ],
      "payable": false,
      "stateMutability": "view",
      "type": "function"
    },
    {
      "constant": false,
      "inputs": [
        {
          "name": "newOwner",
          "type": "address"
        }
      ],
      "name": "transferOwnership",
      "outputs": [],
      "payable": false,
      "stateMutability": "nonpayable",
      "type": "function"
    },
    {
      "inputs": [
        {
          "name": "name",
          "type": "string"
        },
        {
          "name": "symbol",
          "type": "string"
        },
        {
          "name": "decimals",
          "type": "uint8"
        }
      ],
      "payable": false,
      "stateMutability": "nonpayable",
      "type": "constructor"
    },
    {
      "anonymous": false,
      "inputs": [
        {
          "indexed": false,
          "name": "account",
          "type": "address"
        }
      ],
      "name": "Paused",
      "type": "event"
    },
    {
      "anonymous": false,
      "inputs": [
        {
          "indexed": false,
          "name": "account",
          "type": "address"
        }
      ],
      "name": "Unpaused",
      "type": "event"
    },
    {
      "anonymous": false,
      "inputs": [
        {
          "indexed": true,
          "name": "account",
          "type": "address"
        }
      ],
      "name": "PauserAdded",
      "type": "event"
    },
    {
      "anonymous": false,
      "inputs": [
        {
          "indexed": true,
          "name": "account",
          "type": "address"
        }
      ],
      "name": "PauserRemoved",
      "type": "event"
    },
    {
      "anonymous": false,
      "inputs": [
        {
          "indexed": true,
          "name": "account",
          "type": "address"
        }
      ],
      "name": "MinterAdded",
      "type": "event"
    },
    {
      "anonymous": false,
      "inputs": [
        {
          "indexed": true,
          "name": "account",
          "type": "address"
        }
      ],
      "name": "MinterRemoved",
      "type": "event"
    },
    {
      "anonymous": false,
      "inputs": [
        {
          "indexed": true,
          "name": "from",
          "type": "address"
        },
        {
          "indexed": true,
          "name": "to",
          "type": "address"
        },
        {
          "indexed": false,
          "name": "value",
          "type": "uint256"
        }
      ],
      "name": "Transfer",
      "type": "event"
    },
    {
      "anonymous": false,
      "inputs": [
        {
          "indexed": true,
          "name": "owner",
          "type": "address"
        },
        {
          "indexed": true,
          "name": "spender",
          "type": "address"
        },
        {
          "indexed": false,
          "name": "value",
          "type": "uint256"
        }
      ],
      "name": "Approval",
      "type": "event"
    },
    {
      "anonymous": false,
      "inputs": [
        {
          "indexed": true,
          "name": "previousOwner",
          "type": "address"
        },
        {
          "indexed": true,
          "name": "newOwner",
          "type": "address"
        }
      ],
      "name": "OwnershipTransferred",
      "type": "event"
    }
  ],
  "bytecode": "0x60806040523480156200001157600080fd5b506040516200163d3803806200163d833981810160405260608110156200003757600080fd5b8101908080516401000000008111156200005057600080fd5b820160208101848111156200006457600080fd5b81516401000000008111828201871017156200007f57600080fd5b505092919060200180516401000000008111156200009c57600080fd5b82016020810184811115620000b057600080fd5b8151640100000000811182820187101715620000cb57600080fd5b5050602090910151600080546001600160a01b03191633178082556040519395509193508592859285926001600160a01b0391909116917f8be0079c531659141344cd1fd0a4f28419497f9722a3daafe3b4186f6b6457e0908290a36200013b336001600160e01b03620001f716565b6200014f336001600160e01b036200024916565b6006805460ff1916905582516200016e906007906020860190620003c8565b50815162000184906008906020850190620003c8565b5080600960006101000a81548160ff021916908360ff160217905550505050620001ee6040518060400160405280600a81526020017f4552433230546f6b656e000000000000000000000000000000000000000000008152506200029b60201b6200108f1760201c565b5050506200046d565b620002128160046200033960201b620010431790919060201c565b6040516001600160a01b038216907f6ae172837ea30b801fbfcdd4108aa1d5bf8ff775444fd70256b44e6bf3dfc3f690600090a250565b620002648160056200033960201b620010431790919060201c565b6040516001600160a01b038216907f6719d08c1888103bea251a4ed56406bd0c3e69723c8a1686e017e7bbe159b6f890600090a250565b6001600a6000836040516020018082805190602001908083835b60208310620002d65780518252601f199092019160209182019101620002b5565b6001836020036101000a03801982511681845116808217855250505050505090500191505060405160208183030381529060405280519060200120815260200190815260200160002060006101000a81548160ff02191690831515021790555050565b6001600160a01b0381166200034d57600080fd5b6200036282826001600160e01b036200039216565b156200036d57600080fd5b6001600160a01b0316600090815260209190915260409020805460ff19166001179055565b60006001600160a01b038216620003a857600080fd5b506001600160a01b03166000908152602091909152604090205460ff1690565b828054600181600116156101000203166002900490600052602060002090601f016020900481019282601f106200040b57805160ff19168380011785556200043b565b828001600101855582156200043b579182015b828111156200043b5782518255916020019190600101906200041e565b50620004499291506200044d565b5090565b6200046a91905b8082111562000449576000815560010162000454565b90565b6111c0806200047d6000396000f3fe608060405234801561001057600080fd5b50600436106101545760003560e01c806306fdde0314610159578063095ea7b3146101d657806318160ddd1461021657806323b872dd14610230578063249cb3fa14610266578063313ce5671461029257806339509351146102b05780633f4ba83a146102dc57806340c10f19146102e657806342966c681461031257806346fbf68e1461032f5780635c975abb146103555780636ef8d66d1461035d57806370a0823114610365578063715018a61461038b57806379cc67901461039357806382dc1ec4146103bf5780638456cb59146103e55780638da5cb5b146103ed5780638f32d59b1461041157806395d89b4114610419578063983b2d56146104215780639865027514610447578063a457c2d71461044f578063a9059cbb1461047b578063aa271e1a146104a7578063dd62ed3e146104cd578063f2fde38b146104fb575b600080fd5b610161610521565b6040805160208082528351818301528351919283929083019185019080838360005b8381101561019b578181015183820152602001610183565b50505050905090810190601f1680156101c85780820380516001836020036101000a031916815260200191505b509250505060405180910390f35b610202600480360360408110156101ec57600080fd5b506001600160a01b0381351690602001356105b7565b604080519115158252519081900360200190f35b61021e6105dd565b60408051918252519081900360200190f35b6102026004803603606081101561024657600080fd5b506001600160a01b038135811691602081013590911690604001356105e3565b61021e6004803603604081101561027c57600080fd5b50803590602001356001600160a01b0316610609565b61029a61066d565b6040805160ff9092168252519081900360200190f35b610202600480360360408110156102c657600080fd5b506001600160a01b038135169060200135610676565b6102e4610693565b005b610202600480360360408110156102fc57600080fd5b506001600160a01b0381351690602001356106f3565b6102e46004803603602081101561032857600080fd5b503561071a565b6102026004803603602081101561034557600080fd5b50356001600160a01b0316610727565b61020261073a565b6102e4610743565b61021e6004803603602081101561037b57600080fd5b50356001600160a01b031661074e565b6102e4610769565b6102e4600480360360408110156103a957600080fd5b506001600160a01b0381351690602001356107b2565b6102e4600480360360208110156103d557600080fd5b50356001600160a01b03166107c0565b6102e46107db565b6103f561083f565b604080516001600160a01b039092168252519081900360200190f35b61020261084e565b61016161085f565b6102e46004803603602081101561043757600080fd5b50356001600160a01b03166108c0565b6102e46108db565b6102026004803603604081101561046557600080fd5b506001600160a01b0381351690602001356108e4565b6102026004803603604081101561049157600080fd5b506001600160a01b038135169060200135610901565b610202600480360360208110156104bd57600080fd5b50356001600160a01b031661091e565b61021e600480360360408110156104e357600080fd5b506001600160a01b0381358116916020013516610931565b6102e46004803603602081101561051157600080fd5b50356001600160a01b031661095c565b60078054604080516020601f60026000196101006001881615020190951694909404938401819004810282018101909252828152606093909290918301828280156105ad5780601f10610582576101008083540402835291602001916105ad565b820191906000526020600020905b81548152906001019060200180831161059057829003601f168201915b5050505050905090565b60065460009060ff16156105ca57600080fd5b6105d48383610976565b90505b92915050565b60035490565b60065460009060ff16156105f657600080fd5b6106018484846109e0565b949350505050565b6000828152600a602052604081205460ff161561066557604051602001808073455243313832305f4143434550545f4d4147494360601b81525060140190506040516020818303038152906040528051906020012090506105d7565b5060006105d7565b60095460ff1690565b60065460009060ff161561068957600080fd5b6105d48383610a97565b61069c33610727565b6106a557600080fd5b60065460ff166106b457600080fd5b6006805460ff191690556040805133815290517f5db9ee0a495bf2e6ff9c91a7834c1ba4fdd244a5e8aa4e537bd38aeae4b073aa9181900360200190a1565b60006106fe3361091e565b61070757600080fd5b6107118383610b33565b50600192915050565b6107243382610bcb565b50565b60006105d760058363ffffffff610c6216565b60065460ff1690565b61074c33610c97565b565b6001600160a01b031660009081526001602052604090205490565b61077161084e565b61077a57600080fd5b600080546040516001600160a01b039091169060008051602061112c833981519152908390a3600080546001600160a01b0319169055565b6107bc8282610cdf565b5050565b6107c933610727565b6107d257600080fd5b61072481610d8f565b6107e433610727565b6107ed57600080fd5b60065460ff16156107fd57600080fd5b6006805460ff191660011790556040805133815290517f62e78cea01bee320cd4e420270b5ea74000d11b0c9f74754ebdbfc544b05a2589181900360200190a1565b6000546001600160a01b031690565b6000546001600160a01b0316331490565b60088054604080516020601f60026000196101006001881615020190951694909404938401819004810282018101909252828152606093909290918301828280156105ad5780601f10610582576101008083540402835291602001916105ad565b6108c93361091e565b6108d257600080fd5b61072481610dd7565b61074c33610e1f565b60065460009060ff16156108f757600080fd5b6105d48383610e67565b60065460009060ff161561091457600080fd5b6105d48383610eb0565b60006105d760048363ffffffff610c6216565b6001600160a01b03918216600090815260026020908152604080832093909416825291909152205490565b61096461084e565b61096d57600080fd5b61072481610ebd565b60006001600160a01b03831661098b57600080fd5b3360008181526002602090815260408083206001600160a01b038816808552908352928190208690558051868152905192939260008051602061116c833981519152929181900390910190a350600192915050565b6001600160a01b0383166000908152600260209081526040808320338452909152812054610a14908363ffffffff610f1916565b6001600160a01b0385166000908152600260209081526040808320338452909152902055610a43848484610f2e565b6001600160a01b03841660008181526002602090815260408083203380855290835292819020548151908152905192939260008051602061116c833981519152929181900390910190a35060019392505050565b60006001600160a01b038316610aac57600080fd5b3360009081526002602090815260408083206001600160a01b0387168452909152902054610ae0908363ffffffff610fe916565b3360008181526002602090815260408083206001600160a01b03891680855290835292819020859055805194855251919360008051602061116c833981519152929081900390910190a350600192915050565b6001600160a01b038216610b4657600080fd5b600354610b59908263ffffffff610fe916565b6003556001600160a01b038216600090815260016020526040902054610b85908263ffffffff610fe916565b6001600160a01b038316600081815260016020908152604080832094909455835185815293519293919260008051602061114c8339815191529281900390910190a35050565b6001600160a01b038216610bde57600080fd5b600354610bf1908263ffffffff610f1916565b6003556001600160a01b038216600090815260016020526040902054610c1d908263ffffffff610f1916565b6001600160a01b03831660008181526001602090815260408083209490945583518581529351919360008051602061114c833981519152929081900390910190a35050565b60006001600160a01b038216610c7757600080fd5b506001600160a01b03166000908152602091909152604090205460ff1690565b610ca860058263ffffffff610ffb16565b6040516001600160a01b038216907fcd265ebaf09df2871cc7bd4133404a235ba12eff2041bb89d9c714a2621c7c7e90600090a250565b6001600160a01b0382166000908152600260209081526040808320338452909152902054610d13908263ffffffff610f1916565b6001600160a01b0383166000908152600260209081526040808320338452909152902055610d418282610bcb565b6001600160a01b03821660008181526002602090815260408083203380855290835292819020548151908152905192939260008051602061116c833981519152929181900390910190a35050565b610da060058263ffffffff61104316565b6040516001600160a01b038216907f6719d08c1888103bea251a4ed56406bd0c3e69723c8a1686e017e7bbe159b6f890600090a250565b610de860048263ffffffff61104316565b6040516001600160a01b038216907f6ae172837ea30b801fbfcdd4108aa1d5bf8ff775444fd70256b44e6bf3dfc3f690600090a250565b610e3060048263ffffffff610ffb16565b6040516001600160a01b038216907fe94479a9f7e1952cc78f2d6baab678adc1b772d936c6583def489e524cb6669290600090a250565b60006001600160a01b038316610e7c57600080fd5b3360009081526002602090815260408083206001600160a01b0387168452909152902054610ae0908363ffffffff610f1916565b6000610711338484610f2e565b6001600160a01b038116610ed057600080fd5b600080546040516001600160a01b038085169392169160008051602061112c83398151915291a3600080546001600160a01b0319166001600160a01b0392909216919091179055565b600082821115610f2857600080fd5b50900390565b6001600160a01b038216610f4157600080fd5b6001600160a01b038316600090815260016020526040902054610f6a908263ffffffff610f1916565b6001600160a01b038085166000908152600160205260408082209390935590841681522054610f9f908263ffffffff610fe916565b6001600160a01b03808416600081815260016020908152604091829020949094558051858152905191939287169260008051602061114c83398151915292918290030190a3505050565b6000828201838110156105d457600080fd5b6001600160a01b03811661100e57600080fd5b6110188282610c62565b61102157600080fd5b6001600160a01b0316600090815260209190915260409020805460ff19169055565b6001600160a01b03811661105657600080fd5b6110608282610c62565b1561106a57600080fd5b6001600160a01b0316600090815260209190915260409020805460ff19166001179055565b6001600a6000836040516020018082805190602001908083835b602083106110c85780518252601f1990920191602091820191016110a9565b6001836020036101000a03801982511681845116808217855250505050505090500191505060405160208183030381529060405280519060200120815260200190815260200160002060006101000a81548160ff0219169083151502179055505056fe8be0079c531659141344cd1fd0a4f28419497f9722a3daafe3b4186f6b6457e0ddf252ad1be2c89b69c2b068fc378daa952ba7f163c4a11628f55a4df523b3ef8c5be1e5ebec7d5bd14f71427d1e84f3dd0314c0f7b2291e5b200ac8c7c3b925a265627a7a72305820201da922e452209f327ffd45b93fc067189e0b2702b8dca2e4617b333a1e721164736f6c634300050a0032",
  "source": "pragma solidity ^0.5.0;\n\nimport \"openzeppelin-solidity/contracts/ownership/Ownable.sol\";\n\nimport \"openzeppelin-solidity/contracts/token/ERC20/ERC20Mintable.sol\";\nimport \"openzeppelin-solidity/contracts/token/ERC20/ERC20Burnable.sol\";\nimport \"openzeppelin-solidity/contracts/token/ERC20/ERC20Pausable.sol\";\nimport \"openzeppelin-solidity/contracts/token/ERC20/ERC20Detailed.sol\";\n\nimport \"../interface/ERC1820Implementer.sol\";\n\ncontract ERC20Token is Ownable, ERC20Mintable, ERC20Burnable, ERC20Pausable, ERC20Detailed, ERC1820Implementer {\n  string constant internal ERC20_TOKEN = \"ERC20Token\";\n\n  constructor(string memory name, string memory symbol, uint8 decimals) public ERC20Detailed(name, symbol, decimals) {\n    ERC1820Implementer._setInterface(ERC20_TOKEN);\n  }\n\n}",
  "sourcePath": "universal-token/contracts/tokens/ERC20Token.sol",
  "compiler": {
    "name": "solc",
    "version": "0.5.10+commit.5a6ea5b1.Emscripten.clang"
  },
  "schemaVersion": "3.3.0",
  "updatedAt": "2020-12-15T12:54:12.303Z",
  "devdoc": {
    "methods": {
      "allowance(address,address)": {
        "details": "Function to check the amount of tokens that an owner allowed to a spender.",
        "params": {
          "owner": "address The address which owns the funds.",
          "spender": "address The address which will spend the funds."
        },
        "return": "A uint256 specifying the amount of tokens still available for the spender."
      },
      "balanceOf(address)": {
        "details": "Gets the balance of the specified address.",
        "params": {
          "owner": "The address to query the balance of."
        },
        "return": "An uint256 representing the amount owned by the passed address."
      },
      "burn(uint256)": {
        "details": "Burns a specific amount of tokens.",
        "params": {
          "value": "The amount of token to be burned."
        }
      },
      "burnFrom(address,uint256)": {
        "details": "Burns a specific amount of tokens from the target address and decrements allowance",
        "params": {
          "from": "address The address which you want to send tokens from",
          "value": "uint256 The amount of token to be burned"
        }
      },
      "decimals()": {
        "return": "the number of decimals of the token."
      },
      "isOwner()": {
        "return": "true if `msg.sender` is the owner of the contract."
      },
      "mint(address,uint256)": {
        "details": "Function to mint tokens",
        "params": {
          "to": "The address that will receive the minted tokens.",
          "value": "The amount of tokens to mint."
        },
        "return": "A boolean that indicates if the operation was successful."
      },
      "name()": {
        "return": "the name of the token."
      },
      "owner()": {
        "return": "the address of the owner."
      },
      "pause()": {
        "details": "called by the owner to pause, triggers stopped state"
      },
      "paused()": {
        "return": "true if the contract is paused, false otherwise."
      },
      "renounceOwnership()": {
        "details": "Allows the current owner to relinquish control of the contract."
      },
      "symbol()": {
        "return": "the symbol of the token."
      },
      "totalSupply()": {
        "details": "Total number of tokens in existence"
      },
      "transferOwnership(address)": {
        "details": "Allows the current owner to transfer control of the contract to a newOwner.",
        "params": {
          "newOwner": "The address to transfer ownership to."
        }
      },
      "unpause()": {
        "details": "called by the owner to unpause, returns to normal state"
      }
    }
  },
  "userdoc": {
    "methods": {
      "renounceOwnership()": {
        "notice": "Renouncing to ownership will leave the contract without an owner. It will not be possible to call the functions with the `onlyOwner` modifier anymore."
      }
    }
  }
}