{
  "contractName": "ERC20Pausable",
  "abi": [
    {
      "constant": true,
      "inputs": [],
      "name": "totalSupply",
      "outputs": [
        {
          "name": "",
          "type": "uint256"
        }
      ],
      "payable": false,
      "stateMutability": "view",
      "type": "function"
    },
    {
      "constant": false,
      "inputs": [],
      "name": "unpause",
      "outputs": [],
      "payable": false,
      "stateMutability": "nonpayable",
      "type": "function"
    },
    {
      "constant": true,
      "inputs": [
        {
          "name": "account",
          "type": "address"
        }
      ],
      "name": "isPauser",
      "outputs": [
        {
          "name": "",
          "type": "bool"
        }
      ],
      "payable": false,
      "stateMutability": "view",
      "type": "function"
    },
    {
      "constant": true,
      "inputs": [],
      "name": "paused",
      "outputs": [
        {
          "name": "",
          "type": "bool"
        }
      ],
      "payable": false,
      "stateMutability": "view",
      "type": "function"
    },
    {
      "constant": false,
      "inputs": [],
      "name": "renouncePauser",
      "outputs": [],
      "payable": false,
      "stateMutability": "nonpayable",
      "type": "function"
    },
    {
      "constant": true,
      "inputs": [
        {
          "name": "owner",
          "type": "address"
        }
      ],
      "name": "balanceOf",
      "outputs": [
        {
          "name": "",
          "type": "uint256"
        }
      ],
      "payable": false,
      "stateMutability": "view",
      "type": "function"
    },
    {
      "constant": false,
      "inputs": [
        {
          "name": "account",
          "type": "address"
        }
      ],
      "name": "addPauser",
      "outputs": [],
      "payable": false,
      "stateMutability": "nonpayable",
      "type": "function"
    },
    {
      "constant": false,
      "inputs": [],
      "name": "pause",
      "outputs": [],
      "payable": false,
      "stateMutability": "nonpayable",
      "type": "function"
    },
    {
      "constant": true,
      "inputs": [
        {
          "name": "owner",
          "type": "address"
        },
        {
          "name": "spender",
          "type": "address"
        }
      ],
      "name": "allowance",
      "outputs": [
        {
          "name": "",
          "type": "uint256"
        }
      ],
      "payable": false,
      "stateMutability": "view",
      "type": "function"
    },
    {
      "anonymous": false,
      "inputs": [
        {
          "indexed": false,
          "name": "account",
          "type": "address"
        }
      ],
      "name": "Paused",
      "type": "event"
    },
    {
      "anonymous": false,
      "inputs": [
        {
          "indexed": false,
          "name": "account",
          "type": "address"
        }
      ],
      "name": "Unpaused",
      "type": "event"
    },
    {
      "anonymous": false,
      "inputs": [
        {
          "indexed": true,
          "name": "account",
          "type": "address"
        }
      ],
      "name": "PauserAdded",
      "type": "event"
    },
    {
      "anonymous": false,
      "inputs": [
        {
          "indexed": true,
          "name": "account",
          "type": "address"
        }
      ],
      "name": "PauserRemoved",
      "type": "event"
    },
    {
      "anonymous": false,
      "inputs": [
        {
          "indexed": true,
          "name": "from",
          "type": "address"
        },
        {
          "indexed": true,
          "name": "to",
          "type": "address"
        },
        {
          "indexed": false,
          "name": "value",
          "type": "uint256"
        }
      ],
      "name": "Transfer",
      "type": "event"
    },
    {
      "anonymous": false,
      "inputs": [
        {
          "indexed": true,
          "name": "owner",
          "type": "address"
        },
        {
          "indexed": true,
          "name": "spender",
          "type": "address"
        },
        {
          "indexed": false,
          "name": "value",
          "type": "uint256"
        }
      ],
      "name": "Approval",
      "type": "event"
    },
    {
      "constant": false,
      "inputs": [
        {
          "name": "to",
          "type": "address"
        },
        {
          "name": "value",
          "type": "uint256"
        }
      ],
      "name": "transfer",
      "outputs": [
        {
          "name": "",
          "type": "bool"
        }
      ],
      "payable": false,
      "stateMutability": "nonpayable",
      "type": "function"
    },
    {
      "constant": false,
      "inputs": [
        {
          "name": "from",
          "type": "address"
        },
        {
          "name": "to",
          "type": "address"
        },
        {
          "name": "value",
          "type": "uint256"
        }
      ],
      "name": "transferFrom",
      "outputs": [
        {
          "name": "",
          "type": "bool"
        }
      ],
      "payable": false,
      "stateMutability": "nonpayable",
      "type": "function"
    },
    {
      "constant": false,
      "inputs": [
        {
          "name": "spender",
          "type": "address"
        },
        {
          "name": "value",
          "type": "uint256"
        }
      ],
      "name": "approve",
      "outputs": [
        {
          "name": "",
          "type": "bool"
        }
      ],
      "payable": false,
      "stateMutability": "nonpayable",
      "type": "function"
    },
    {
      "constant": false,
      "inputs": [
        {
          "name": "spender",
          "type": "address"
        },
        {
          "name": "addedValue",
          "type": "uint256"
        }
      ],
      "name": "increaseAllowance",
      "outputs": [
        {
          "name": "success",
          "type": "bool"
        }
      ],
      "payable": false,
      "stateMutability": "nonpayable",
      "type": "function"
    },
    {
      "constant": false,
      "inputs": [
        {
          "name": "spender",
          "type": "address"
        },
        {
          "name": "subtractedValue",
          "type": "uint256"
        }
      ],
      "name": "decreaseAllowance",
      "outputs": [
        {
          "name": "success",
          "type": "bool"
        }
      ],
      "payable": false,
      "stateMutability": "nonpayable",
      "type": "function"
    }
  ],
  "bytecode": "0x6080604052610016336001600160e01b0361002516565b6004805460ff191690556100fe565b61003d81600361007460201b6108ac1790919060201c565b6040516001600160a01b038216907f6719d08c1888103bea251a4ed56406bd0c3e69723c8a1686e017e7bbe159b6f890600090a250565b6001600160a01b03811661008757600080fd5b61009a82826001600160e01b036100c916565b156100a457600080fd5b6001600160a01b0316600090815260209190915260409020805460ff19166001179055565b60006001600160a01b0382166100de57600080fd5b506001600160a01b03166000908152602091909152604090205460ff1690565b61094d8061010d6000396000f3fe608060405234801561001057600080fd5b50600436106100ba5760003560e01c8063095ea7b3146100bf57806318160ddd146100ff57806323b872dd14610119578063395093511461014f5780633f4ba83a1461017b57806346fbf68e146101855780635c975abb146101ab5780636ef8d66d146101b357806370a08231146101bb57806382dc1ec4146101e15780638456cb5914610207578063a457c2d71461020f578063a9059cbb1461023b578063dd62ed3e14610267575b600080fd5b6100eb600480360360408110156100d557600080fd5b506001600160a01b038135169060200135610295565b604080519115158252519081900360200190f35b6101076102b9565b60408051918252519081900360200190f35b6100eb6004803603606081101561012f57600080fd5b506001600160a01b038135811691602081013590911690604001356102bf565b6100eb6004803603604081101561016557600080fd5b506001600160a01b0381351690602001356102e5565b610183610302565b005b6100eb6004803603602081101561019b57600080fd5b50356001600160a01b0316610362565b6100eb61037b565b610183610384565b610107600480360360208110156101d157600080fd5b50356001600160a01b031661038f565b610183600480360360208110156101f757600080fd5b50356001600160a01b03166103aa565b6101836103c8565b6100eb6004803603604081101561022557600080fd5b506001600160a01b03813516906020013561042c565b6100eb6004803603604081101561025157600080fd5b506001600160a01b038135169060200135610449565b6101076004803603604081101561027d57600080fd5b506001600160a01b0381358116916020013516610466565b60045460009060ff16156102a857600080fd5b6102b28383610491565b9392505050565b60025490565b60045460009060ff16156102d257600080fd5b6102dd8484846104fb565b949350505050565b60045460009060ff16156102f857600080fd5b6102b283836105b2565b61030b33610362565b61031457600080fd5b60045460ff1661032357600080fd5b6004805460ff191690556040805133815290517f5db9ee0a495bf2e6ff9c91a7834c1ba4fdd244a5e8aa4e537bd38aeae4b073aa9181900360200190a1565b600061037560038363ffffffff61064e16565b92915050565b60045460ff1690565b61038d33610683565b565b6001600160a01b031660009081526020819052604090205490565b6103b333610362565b6103bc57600080fd5b6103c5816106cb565b50565b6103d133610362565b6103da57600080fd5b60045460ff16156103ea57600080fd5b6004805460ff191660011790556040805133815290517f62e78cea01bee320cd4e420270b5ea74000d11b0c9f74754ebdbfc544b05a2589181900360200190a1565b60045460009060ff161561043f57600080fd5b6102b28383610713565b60045460009060ff161561045c57600080fd5b6102b2838361075c565b6001600160a01b03918216600090815260016020908152604080832093909416825291909152205490565b60006001600160a01b0383166104a657600080fd5b3360008181526001602090815260408083206001600160a01b03881680855290835292819020869055805186815290519293926000805160206108f9833981519152929181900390910190a350600192915050565b6001600160a01b038316600090815260016020908152604080832033845290915281205461052f908363ffffffff61077216565b6001600160a01b038516600090815260016020908152604080832033845290915290205561055e848484610787565b6001600160a01b0384166000818152600160209081526040808320338085529083529281902054815190815290519293926000805160206108f9833981519152929181900390910190a35060019392505050565b60006001600160a01b0383166105c757600080fd5b3360009081526001602090815260408083206001600160a01b03871684529091529020546105fb908363ffffffff61085216565b3360008181526001602090815260408083206001600160a01b0389168085529083529281902085905580519485525191936000805160206108f9833981519152929081900390910190a350600192915050565b60006001600160a01b03821661066357600080fd5b506001600160a01b03166000908152602091909152604090205460ff1690565b61069460038263ffffffff61086416565b6040516001600160a01b038216907fcd265ebaf09df2871cc7bd4133404a235ba12eff2041bb89d9c714a2621c7c7e90600090a250565b6106dc60038263ffffffff6108ac16565b6040516001600160a01b038216907f6719d08c1888103bea251a4ed56406bd0c3e69723c8a1686e017e7bbe159b6f890600090a250565b60006001600160a01b03831661072857600080fd5b3360009081526001602090815260408083206001600160a01b03871684529091529020546105fb908363ffffffff61077216565b6000610769338484610787565b50600192915050565b60008282111561078157600080fd5b50900390565b6001600160a01b03821661079a57600080fd5b6001600160a01b0383166000908152602081905260409020546107c3908263ffffffff61077216565b6001600160a01b0380851660009081526020819052604080822093909355908416815220546107f8908263ffffffff61085216565b6001600160a01b038084166000818152602081815260409182902094909455805185815290519193928716927fddf252ad1be2c89b69c2b068fc378daa952ba7f163c4a11628f55a4df523b3ef92918290030190a3505050565b6000828201838110156102b257600080fd5b6001600160a01b03811661087757600080fd5b610881828261064e565b61088a57600080fd5b6001600160a01b0316600090815260209190915260409020805460ff19169055565b6001600160a01b0381166108bf57600080fd5b6108c9828261064e565b156108d357600080fd5b6001600160a01b0316600090815260209190915260409020805460ff1916600117905556fe8c5be1e5ebec7d5bd14f71427d1e84f3dd0314c0f7b2291e5b200ac8c7c3b925a265627a7a72305820375894057422a644981c6e2780603d8e3671227f61270daeb4afd35f6744c59764736f6c634300050a0032",
  "source": "pragma solidity ^0.5.0;\n\nimport \"./ERC20.sol\";\nimport \"../../lifecycle/Pausable.sol\";\n\n/**\n * @title Pausable token\n * @dev ERC20 modified with pausable transfers.\n **/\ncontract ERC20Pausable is ERC20, Pausable {\n    function transfer(address to, uint256 value) public whenNotPaused returns (bool) {\n        return super.transfer(to, value);\n    }\n\n    function transferFrom(address from, address to, uint256 value) public whenNotPaused returns (bool) {\n        return super.transferFrom(from, to, value);\n    }\n\n    function approve(address spender, uint256 value) public whenNotPaused returns (bool) {\n        return super.approve(spender, value);\n    }\n\n    function increaseAllowance(address spender, uint addedValue) public whenNotPaused returns (bool success) {\n        return super.increaseAllowance(spender, addedValue);\n    }\n\n    function decreaseAllowance(address spender, uint subtractedValue) public whenNotPaused returns (bool success) {\n        return super.decreaseAllowance(spender, subtractedValue);\n    }\n}\n",
  "sourcePath": "openzeppelin-solidity/contracts/token/ERC20/ERC20Pausable.sol",
  "compiler": {
    "name": "solc",
    "version": "0.5.10+commit.5a6ea5b1.Emscripten.clang"
  },
  "schemaVersion": "3.3.0",
  "updatedAt": "2020-12-15T12:54:12.186Z",
  "devdoc": {
    "details": "ERC20 modified with pausable transfers.*",
    "methods": {
      "allowance(address,address)": {
        "details": "Function to check the amount of tokens that an owner allowed to a spender.",
        "params": {
          "owner": "address The address which owns the funds.",
          "spender": "address The address which will spend the funds."
        },
        "return": "A uint256 specifying the amount of tokens still available for the spender."
      },
      "balanceOf(address)": {
        "details": "Gets the balance of the specified address.",
        "params": {
          "owner": "The address to query the balance of."
        },
        "return": "An uint256 representing the amount owned by the passed address."
      },
      "pause()": {
        "details": "called by the owner to pause, triggers stopped state"
      },
      "paused()": {
        "return": "true if the contract is paused, false otherwise."
      },
      "totalSupply()": {
        "details": "Total number of tokens in existence"
      },
      "unpause()": {
        "details": "called by the owner to unpause, returns to normal state"
      }
    },
    "title": "Pausable token"
  },
  "userdoc": {
    "methods": {}
  }
}