{
  "contractName": "ERC721Token",
  "abi": [
    {
      "inputs": [
        {
          "internalType": "string",
          "name": "name",
          "type": "string"
        },
        {
          "internalType": "string",
          "name": "symbol",
          "type": "string"
        },
        {
          "internalType": "string",
          "name": "baseUri",
          "type": "string"
        },
        {
          "internalType": "string",
          "name": "contractUri",
          "type": "string"
        }
      ],
      "stateMutability": "nonpayable",
      "type": "constructor"
    },
    {
      "anonymous": false,
      "inputs": [
        {
          "indexed": true,
          "internalType": "address",
          "name": "owner",
          "type": "address"
        },
        {
          "indexed": true,
          "internalType": "address",
          "name": "approved",
          "type": "address"
        },
        {
          "indexed": true,
          "internalType": "uint256",
          "name": "tokenId",
          "type": "uint256"
        }
      ],
      "name": "Approval",
      "type": "event"
    },
    {
      "anonymous": false,
      "inputs": [
        {
          "indexed": true,
          "internalType": "address",
          "name": "owner",
          "type": "address"
        },
        {
          "indexed": true,
          "internalType": "address",
          "name": "operator",
          "type": "address"
        },
        {
          "indexed": false,
          "internalType": "bool",
          "name": "approved",
          "type": "bool"
        }
      ],
      "name": "ApprovalForAll",
      "type": "event"
    },
    {
      "anonymous": false,
      "inputs": [
        {
          "indexed": true,
          "internalType": "address",
          "name": "account",
          "type": "address"
        }
      ],
      "name": "MinterAdded",
      "type": "event"
    },
    {
      "anonymous": false,
      "inputs": [
        {
          "indexed": true,
          "internalType": "address",
          "name": "account",
          "type": "address"
        }
      ],
      "name": "MinterRemoved",
      "type": "event"
    },
    {
      "anonymous": false,
      "inputs": [
        {
          "indexed": true,
          "internalType": "address",
          "name": "previousOwner",
          "type": "address"
        },
        {
          "indexed": true,
          "internalType": "address",
          "name": "newOwner",
          "type": "address"
        }
      ],
      "name": "OwnershipTransferred",
      "type": "event"
    },
    {
      "anonymous": false,
      "inputs": [
        {
          "indexed": false,
          "internalType": "address",
          "name": "account",
          "type": "address"
        }
      ],
      "name": "Paused",
      "type": "event"
    },
    {
      "anonymous": false,
      "inputs": [
        {
          "indexed": true,
          "internalType": "bytes32",
          "name": "role",
          "type": "bytes32"
        },
        {
          "indexed": true,
          "internalType": "bytes32",
          "name": "previousAdminRole",
          "type": "bytes32"
        },
        {
          "indexed": true,
          "internalType": "bytes32",
          "name": "newAdminRole",
          "type": "bytes32"
        }
      ],
      "name": "RoleAdminChanged",
      "type": "event"
    },
    {
      "anonymous": false,
      "inputs": [
        {
          "indexed": true,
          "internalType": "bytes32",
          "name": "role",
          "type": "bytes32"
        },
        {
          "indexed": true,
          "internalType": "address",
          "name": "account",
          "type": "address"
        },
        {
          "indexed": true,
          "internalType": "address",
          "name": "sender",
          "type": "address"
        }
      ],
      "name": "RoleGranted",
      "type": "event"
    },
    {
      "anonymous": false,
      "inputs": [
        {
          "indexed": true,
          "internalType": "bytes32",
          "name": "role",
          "type": "bytes32"
        },
        {
          "indexed": true,
          "internalType": "address",
          "name": "account",
          "type": "address"
        },
        {
          "indexed": true,
          "internalType": "address",
          "name": "sender",
          "type": "address"
        }
      ],
      "name": "RoleRevoked",
      "type": "event"
    },
    {
      "anonymous": false,
      "inputs": [
        {
          "indexed": true,
          "internalType": "address",
          "name": "from",
          "type": "address"
        },
        {
          "indexed": true,
          "internalType": "address",
          "name": "to",
          "type": "address"
        },
        {
          "indexed": true,
          "internalType": "uint256",
          "name": "tokenId",
          "type": "uint256"
        }
      ],
      "name": "Transfer",
      "type": "event"
    },
    {
      "anonymous": false,
      "inputs": [
        {
          "indexed": false,
          "internalType": "address",
          "name": "account",
          "type": "address"
        }
      ],
      "name": "Unpaused",
      "type": "event"
    },
    {
      "inputs": [],
      "name": "DEFAULT_ADMIN_ROLE",
      "outputs": [
        {
          "internalType": "bytes32",
          "name": "",
          "type": "bytes32"
        }
      ],
      "stateMutability": "view",
      "type": "function"
    },
    {
      "inputs": [
        {
          "internalType": "address",
          "name": "account",
          "type": "address"
        }
      ],
      "name": "addMinter",
      "outputs": [],
      "stateMutability": "nonpayable",
      "type": "function"
    },
    {
      "inputs": [
        {
          "internalType": "address",
          "name": "to",
          "type": "address"
        },
        {
          "internalType": "uint256",
          "name": "tokenId",
          "type": "uint256"
        }
      ],
      "name": "approve",
      "outputs": [],
      "stateMutability": "nonpayable",
      "type": "function"
    },
    {
      "inputs": [
        {
          "internalType": "address",
          "name": "owner",
          "type": "address"
        }
      ],
      "name": "balanceOf",
      "outputs": [
        {
          "internalType": "uint256",
          "name": "",
          "type": "uint256"
        }
      ],
      "stateMutability": "view",
      "type": "function"
    },
    {
      "inputs": [
        {
          "internalType": "uint256",
          "name": "tokenId",
          "type": "uint256"
        }
      ],
      "name": "burn",
      "outputs": [],
      "stateMutability": "nonpayable",
      "type": "function"
    },
    {
      "inputs": [
        {
          "internalType": "bytes32",
          "name": "interfaceHash",
          "type": "bytes32"
        },
        {
          "internalType": "address",
          "name": "",
          "type": "address"
        }
      ],
      "name": "canImplementInterfaceForAddress",
      "outputs": [
        {
          "internalType": "bytes32",
          "name": "",
          "type": "bytes32"
        }
      ],
      "stateMutability": "view",
      "type": "function"
    },
    {
      "inputs": [
        {
          "internalType": "uint256",
          "name": "tokenId",
          "type": "uint256"
        }
      ],
      "name": "getApproved",
      "outputs": [
        {
          "internalType": "address",
          "name": "",
          "type": "address"
        }
      ],
      "stateMutability": "view",
      "type": "function"
    },
    {
      "inputs": [
        {
          "internalType": "bytes32",
          "name": "role",
          "type": "bytes32"
        }
      ],
      "name": "getRoleAdmin",
      "outputs": [
        {
          "internalType": "bytes32",
          "name": "",
          "type": "bytes32"
        }
      ],
      "stateMutability": "view",
      "type": "function"
    },
    {
      "inputs": [
        {
          "internalType": "bytes32",
          "name": "role",
          "type": "bytes32"
        },
        {
          "internalType": "uint256",
          "name": "index",
          "type": "uint256"
        }
      ],
      "name": "getRoleMember",
      "outputs": [
        {
          "internalType": "address",
          "name": "",
          "type": "address"
        }
      ],
      "stateMutability": "view",
      "type": "function"
    },
    {
      "inputs": [
        {
          "internalType": "bytes32",
          "name": "role",
          "type": "bytes32"
        }
      ],
      "name": "getRoleMemberCount",
      "outputs": [
        {
          "internalType": "uint256",
          "name": "",
          "type": "uint256"
        }
      ],
      "stateMutability": "view",
      "type": "function"
    },
    {
      "inputs": [
        {
          "internalType": "bytes32",
          "name": "role",
          "type": "bytes32"
        },
        {
          "internalType": "address",
          "name": "account",
          "type": "address"
        }
      ],
      "name": "grantRole",
      "outputs": [],
      "stateMutability": "nonpayable",
      "type": "function"
    },
    {
      "inputs": [
        {
          "internalType": "bytes32",
          "name": "role",
          "type": "bytes32"
        },
        {
          "internalType": "address",
          "name": "account",
          "type": "address"
        }
      ],
      "name": "hasRole",
      "outputs": [
        {
          "internalType": "bool",
          "name": "",
          "type": "bool"
        }
      ],
      "stateMutability": "view",
      "type": "function"
    },
    {
      "inputs": [
        {
          "internalType": "address",
          "name": "owner",
          "type": "address"
        },
        {
          "internalType": "address",
          "name": "operator",
          "type": "address"
        }
      ],
      "name": "isApprovedForAll",
      "outputs": [
        {
          "internalType": "bool",
          "name": "",
          "type": "bool"
        }
      ],
      "stateMutability": "view",
      "type": "function"
    },
    {
      "inputs": [
        {
          "internalType": "address",
          "name": "account",
          "type": "address"
        }
      ],
      "name": "isMinter",
      "outputs": [
        {
          "internalType": "bool",
          "name": "",
          "type": "bool"
        }
      ],
      "stateMutability": "view",
      "type": "function"
    },
    {
      "inputs": [],
      "name": "name",
      "outputs": [
        {
          "internalType": "string",
          "name": "",
          "type": "string"
        }
      ],
      "stateMutability": "view",
      "type": "function"
    },
    {
      "inputs": [],
      "name": "owner",
      "outputs": [
        {
          "internalType": "address",
          "name": "",
          "type": "address"
        }
      ],
      "stateMutability": "view",
      "type": "function"
    },
    {
      "inputs": [
        {
          "internalType": "uint256",
          "name": "tokenId",
          "type": "uint256"
        }
      ],
      "name": "ownerOf",
      "outputs": [
        {
          "internalType": "address",
          "name": "",
          "type": "address"
        }
      ],
      "stateMutability": "view",
      "type": "function"
    },
    {
      "inputs": [],
      "name": "paused",
      "outputs": [
        {
          "internalType": "bool",
          "name": "",
          "type": "bool"
        }
      ],
      "stateMutability": "view",
      "type": "function"
    },
    {
      "inputs": [
        {
          "internalType": "address",
          "name": "account",
          "type": "address"
        }
      ],
      "name": "removeMinter",
      "outputs": [],
      "stateMutability": "nonpayable",
      "type": "function"
    },
    {
      "inputs": [],
      "name": "renounceMinter",
      "outputs": [],
      "stateMutability": "nonpayable",
      "type": "function"
    },
    {
      "inputs": [],
      "name": "renounceOwnership",
      "outputs": [],
      "stateMutability": "nonpayable",
      "type": "function"
    },
    {
      "inputs": [
        {
          "internalType": "bytes32",
          "name": "role",
          "type": "bytes32"
        },
        {
          "internalType": "address",
          "name": "account",
          "type": "address"
        }
      ],
      "name": "renounceRole",
      "outputs": [],
      "stateMutability": "nonpayable",
      "type": "function"
    },
    {
      "inputs": [
        {
          "internalType": "bytes32",
          "name": "role",
          "type": "bytes32"
        },
        {
          "internalType": "address",
          "name": "account",
          "type": "address"
        }
      ],
      "name": "revokeRole",
      "outputs": [],
      "stateMutability": "nonpayable",
      "type": "function"
    },
    {
      "inputs": [
        {
          "internalType": "address",
          "name": "from",
          "type": "address"
        },
        {
          "internalType": "address",
          "name": "to",
          "type": "address"
        },
        {
          "internalType": "uint256",
          "name": "tokenId",
          "type": "uint256"
        }
      ],
      "name": "safeTransferFrom",
      "outputs": [],
      "stateMutability": "nonpayable",
      "type": "function"
    },
    {
      "inputs": [
        {
          "internalType": "address",
          "name": "from",
          "type": "address"
        },
        {
          "internalType": "address",
          "name": "to",
          "type": "address"
        },
        {
          "internalType": "uint256",
          "name": "tokenId",
          "type": "uint256"
        },
        {
          "internalType": "bytes",
          "name": "_data",
          "type": "bytes"
        }
      ],
      "name": "safeTransferFrom",
      "outputs": [],
      "stateMutability": "nonpayable",
      "type": "function"
    },
    {
      "inputs": [
        {
          "internalType": "address",
          "name": "operator",
          "type": "address"
        },
        {
          "internalType": "bool",
          "name": "approved",
          "type": "bool"
        }
      ],
      "name": "setApprovalForAll",
      "outputs": [],
      "stateMutability": "nonpayable",
      "type": "function"
    },
    {
      "inputs": [],
      "name": "symbol",
      "outputs": [
        {
          "internalType": "string",
          "name": "",
          "type": "string"
        }
      ],
      "stateMutability": "view",
      "type": "function"
    },
    {
      "inputs": [
        {
          "internalType": "uint256",
          "name": "index",
          "type": "uint256"
        }
      ],
      "name": "tokenByIndex",
      "outputs": [
        {
          "internalType": "uint256",
          "name": "",
          "type": "uint256"
        }
      ],
      "stateMutability": "view",
      "type": "function"
    },
    {
      "inputs": [
        {
          "internalType": "address",
          "name": "owner",
          "type": "address"
        },
        {
          "internalType": "uint256",
          "name": "index",
          "type": "uint256"
        }
      ],
      "name": "tokenOfOwnerByIndex",
      "outputs": [
        {
          "internalType": "uint256",
          "name": "",
          "type": "uint256"
        }
      ],
      "stateMutability": "view",
      "type": "function"
    },
    {
      "inputs": [],
      "name": "totalSupply",
      "outputs": [
        {
          "internalType": "uint256",
          "name": "",
          "type": "uint256"
        }
      ],
      "stateMutability": "view",
      "type": "function"
    },
    {
      "inputs": [
        {
          "internalType": "address",
          "name": "from",
          "type": "address"
        },
        {
          "internalType": "address",
          "name": "to",
          "type": "address"
        },
        {
          "internalType": "uint256",
          "name": "tokenId",
          "type": "uint256"
        }
      ],
      "name": "transferFrom",
      "outputs": [],
      "stateMutability": "nonpayable",
      "type": "function"
    },
    {
      "inputs": [
        {
          "internalType": "address",
          "name": "newOwner",
          "type": "address"
        }
      ],
      "name": "transferOwnership",
      "outputs": [],
      "stateMutability": "nonpayable",
      "type": "function"
    },
    {
      "inputs": [
        {
          "internalType": "address",
          "name": "to",
          "type": "address"
        },
        {
          "internalType": "uint256",
          "name": "tokenId",
          "type": "uint256"
        }
      ],
      "name": "mint",
      "outputs": [
        {
          "internalType": "bool",
          "name": "",
          "type": "bool"
        }
      ],
      "stateMutability": "nonpayable",
      "type": "function"
    },
    {
      "inputs": [
        {
          "internalType": "address",
          "name": "to",
          "type": "address"
        },
        {
          "internalType": "uint256",
          "name": "tokenId",
          "type": "uint256"
        },
        {
          "internalType": "string",
          "name": "uri",
          "type": "string"
        }
      ],
      "name": "mintAndSetTokenURI",
      "outputs": [
        {
          "internalType": "bool",
          "name": "",
          "type": "bool"
        }
      ],
      "stateMutability": "nonpayable",
      "type": "function"
    },
    {
      "inputs": [
        {
          "internalType": "uint256",
          "name": "tokenId",
          "type": "uint256"
        }
      ],
      "name": "tokenURI",
      "outputs": [
        {
          "internalType": "string",
          "name": "",
          "type": "string"
        }
      ],
      "stateMutability": "view",
      "type": "function"
    },
    {
      "inputs": [
        {
          "internalType": "uint256",
          "name": "tokenId",
          "type": "uint256"
        },
        {
          "internalType": "string",
          "name": "uri",
          "type": "string"
        }
      ],
      "name": "setTokenURI",
      "outputs": [],
      "stateMutability": "nonpayable",
      "type": "function"
    },
    {
      "inputs": [
        {
          "internalType": "bytes4",
          "name": "interfaceId",
          "type": "bytes4"
        }
      ],
      "name": "supportsInterface",
      "outputs": [
        {
          "internalType": "bool",
          "name": "",
          "type": "bool"
        }
      ],
      "stateMutability": "view",
      "type": "function"
    },
    {
      "inputs": [
        {
          "internalType": "string",
          "name": "uri",
          "type": "string"
        }
      ],
      "name": "setContractURI",
      "outputs": [],
      "stateMutability": "nonpayable",
      "type": "function"
    },
    {
      "inputs": [],
      "name": "contractURI",
      "outputs": [
        {
          "internalType": "string",
          "name": "",
          "type": "string"
        }
      ],
      "stateMutability": "view",
      "type": "function"
    }
  ],
  "bytecode": "0x60806040523480156200001157600080fd5b506040516200317038038062003170833981016040819052620000349162000425565b83836200004133620000f3565b815162000056906001906020850190620002ee565b5080516200006c906002906020840190620002ee565b5050600c805460ff1916905550620000843362000143565b620000bd6040518060400160405280600b81526020016a22a9219b9918aa37b5b2b760a91b8152506200019560201b62000e2e1760201c565b8151620000d2906011906020850190620002ee565b508051620000e8906012906020840190620002ee565b505050505062000582565b600080546001600160a01b038381166001600160a01b0319831681178455604051919092169283917f8be0079c531659141344cd1fd0a4f28419497f9722a3daafe3b4186f6b6457e09190a35050565b6200015e81600d620001e560201b62000e7c1790919060201c565b6040516001600160a01b038216907f6ae172837ea30b801fbfcdd4108aa1d5bf8ff775444fd70256b44e6bf3dfc3f690600090a250565b6001600e600083604051602001620001ae9190620004de565b60408051808303601f19018152918152815160209283012083529082019290925201600020805460ff191691151591909117905550565b620001f1828262000269565b15620002445760405162461bcd60e51b815260206004820152601f60248201527f526f6c65733a206163636f756e7420616c72656164792068617320726f6c650060448201526064015b60405180910390fd5b6001600160a01b0316600090815260209190915260409020805460ff19166001179055565b60006001600160a01b038216620002ce5760405162461bcd60e51b815260206004820152602260248201527f526f6c65733a206163636f756e7420697320746865207a65726f206164647265604482015261737360f01b60648201526084016200023b565b506001600160a01b03166000908152602091909152604090205460ff1690565b828054620002fc906200052f565b90600052602060002090601f0160209004810192826200032057600085556200036b565b82601f106200033b57805160ff19168380011785556200036b565b828001600101855582156200036b579182015b828111156200036b5782518255916020019190600101906200034e565b50620003799291506200037d565b5090565b5b808211156200037957600081556001016200037e565b600082601f830112620003a657600080fd5b81516001600160401b0380821115620003c357620003c36200056c565b604051601f8301601f19908116603f01168101908282118183101715620003ee57620003ee6200056c565b816040528381528660208588010111156200040857600080fd5b6200041b846020830160208901620004fc565b9695505050505050565b600080600080608085870312156200043c57600080fd5b84516001600160401b03808211156200045457600080fd5b620004628883890162000394565b955060208701519150808211156200047957600080fd5b620004878883890162000394565b945060408701519150808211156200049e57600080fd5b620004ac8883890162000394565b93506060870151915080821115620004c357600080fd5b50620004d28782880162000394565b91505092959194509250565b60008251620004f2818460208701620004fc565b9190910192915050565b60005b8381101562000519578181015183820152602001620004ff565b8381111562000529576000848401525b50505050565b600181811c908216806200054457607f821691505b602082108114156200056657634e487b7160e01b600052602260045260246000fd5b50919050565b634e487b7160e01b600052604160045260246000fd5b612bde80620005926000396000f3fe608060405234801561001057600080fd5b50600436106101cd5760003560e01c806301ffc9a7146101d257806306fdde03146101fa578063081812fc1461020f578063095ea7b31461023a578063162094c41461024f57806318160ddd1461026257806323b872dd14610274578063248a9ca314610287578063249cb3fa1461029a5780632e917b2f146102ad5780632f2ff15d146102c05780632f745c59146102d35780633092afd5146102e657806336568abe146102f957806340c10f191461030c57806342842e0e1461031f57806342966c68146103325780634f6ccce7146103455780635c975abb146103585780636352211e1461036357806370a0823114610376578063715018a6146103895780638da5cb5b146103915780639010d07c1461039957806391d14854146103ac578063938e3d7b146103bf57806395d89b41146103d2578063983b2d56146103da57806398650275146103ed578063a217fddf146103f5578063a22cb465146103fd578063aa271e1a14610410578063b88d4fde14610423578063c87b56dd14610436578063ca15c87314610449578063d547741f1461045c578063e8a3d4851461046f578063e985e9c514610477578063f2fde38b1461048a575b600080fd5b6101e56101e0366004612733565b61049d565b60405190151581526020015b60405180910390f35b6102026104ae565b6040516101f1919061290a565b61022261021d3660046126d5565b610540565b6040516001600160a01b0390911681526020016101f1565b61024d610248366004612655565b6105cd565b005b61024d61025d3660046127a1565b6106de565b600a545b6040519081526020016101f1565b61024d610282366004612562565b6106fe565b6102666102953660046126d5565b610730565b6102666102a83660046126ee565b610745565b6101e56102bb36600461267f565b6107a5565b61024d6102ce3660046126ee565b6107d7565b6102666102e1366004612655565b6107f9565b61024d6102f4366004612514565b61088f565b61024d6103073660046126ee565b6108ad565b6101e561031a366004612655565b6108cf565b61024d61032d366004612562565b6108f6565b61024d6103403660046126d5565b610911565b6102666103533660046126d5565b610988565b600c5460ff166101e5565b6102226103713660046126d5565b610a1b565b610266610384366004612514565b610a92565b61024d610b19565b610222610b54565b6102226103a7366004612711565b610b63565b6101e56103ba3660046126ee565b610b82565b61024d6103cd36600461276d565b610bad565b610202610bef565b61024d6103e8366004612514565b610bfe565b61024d610c19565b610266600081565b61024d61040b366004612619565b610c22565b6101e561041e366004612514565b610ce3565b61024d61043136600461259e565b610cf0565b6102026104443660046126d5565b610d28565b6102666104573660046126d5565b610d33565b61024d61046a3660046126ee565b610d4a565b610202610d54565b6101e561048536600461252f565b610d63565b61024d610498366004612514565b610d91565b60006104a882610ef8565b92915050565b6060600180546104bd90612a9a565b80601f01602080910402602001604051908101604052809291908181526020018280546104e990612a9a565b80156105365780601f1061050b57610100808354040283529160200191610536565b820191906000526020600020905b81548152906001019060200180831161051957829003601f168201915b5050505050905090565b600061054b82610f1d565b6105b15760405162461bcd60e51b815260206004820152602c60248201527f4552433732313a20617070726f76656420717565727920666f72206e6f6e657860448201526b34b9ba32b73a103a37b5b2b760a11b60648201526084015b60405180910390fd5b506000908152600560205260409020546001600160a01b031690565b60006105d882610a1b565b9050806001600160a01b0316836001600160a01b031614156106465760405162461bcd60e51b815260206004820152602160248201527f4552433732313a20617070726f76616c20746f2063757272656e74206f776e656044820152603960f91b60648201526084016105a8565b336001600160a01b038216148061066257506106628133610d63565b6106cf5760405162461bcd60e51b815260206004820152603860248201527f4552433732313a20617070726f76652063616c6c6572206973206e6f74206f776044820152771b995c881b9bdc88185c1c1c9bdd995908199bdc88185b1b60421b60648201526084016105a8565b6106d98383610f3a565b505050565b6106e733610ce3565b6106f057600080fd5b6106fa8282610fa8565b5050565b610709335b82611033565b6107255760405162461bcd60e51b81526004016105a8906129a4565b6106d98383836110fd565b6000908152600f602052604090206001015490565b6000828152600e602052604081205460ff161561079c5760405173455243313832305f4143434550545f4d4147494360601b60208201526034016040516020818303038152906040528051906020012090506104a8565b50600092915050565b60006107b033610ce3565b6107b957600080fd5b6107c38484611296565b6107cd8383610fa8565b5060019392505050565b6107e182826113c2565b60008281526010602052604090206106d990826113df565b600061080483610a92565b82106108665760405162461bcd60e51b815260206004820152602b60248201527f455243373231456e756d657261626c653a206f776e657220696e646578206f7560448201526a74206f6620626f756e647360a81b60648201526084016105a8565b506001600160a01b03919091166000908152600860209081526040808320938352929052205490565b61089833610ce3565b6108a157600080fd5b6108aa816113f4565b50565b6108b78282611436565b60008281526010602052604090206106d990826114b0565b60006108da33610ce3565b6108e357600080fd5b6108ed8383611296565b50600192915050565b6106d983838360405180602001604052806000815250610cf0565b61091a33610703565b61097f5760405162461bcd60e51b815260206004820152603060248201527f4552433732314275726e61626c653a2063616c6c6572206973206e6f74206f7760448201526f1b995c881b9bdc88185c1c1c9bdd995960821b60648201526084016105a8565b6108aa816114c5565b6000610993600a5490565b82106109f65760405162461bcd60e51b815260206004820152602c60248201527f455243373231456e756d657261626c653a20676c6f62616c20696e646578206f60448201526b7574206f6620626f756e647360a01b60648201526084016105a8565b600a8281548110610a0957610a09612b46565b90600052602060002001549050919050565b6000818152600360205260408120546001600160a01b0316806104a85760405162461bcd60e51b815260206004820152602960248201527f4552433732313a206f776e657220717565727920666f72206e6f6e657869737460448201526832b73a103a37b5b2b760b91b60648201526084016105a8565b60006001600160a01b038216610afd5760405162461bcd60e51b815260206004820152602a60248201527f4552433732313a2062616c616e636520717565727920666f7220746865207a65604482015269726f206164647265737360b01b60648201526084016105a8565b506001600160a01b031660009081526004602052604090205490565b33610b22610b54565b6001600160a01b031614610b485760405162461bcd60e51b81526004016105a89061296f565b610b5260006114ce565b565b6000546001600160a01b031690565b6000828152601060205260408120610b7b908361151e565b9392505050565b6000918252600f602090815260408084206001600160a01b0393909316845291905290205460ff1690565b33610bb6610b54565b6001600160a01b031614610bdc5760405162461bcd60e51b81526004016105a89061296f565b80516106fa906012906020840190612394565b6060600280546104bd90612a9a565b610c0733610ce3565b610c1057600080fd5b6108aa8161152a565b610b52336113f4565b6001600160a01b038216331415610c775760405162461bcd60e51b815260206004820152601960248201527822a9219b99189d1030b8383937bb32903a379031b0b63632b960391b60448201526064016105a8565b3360008181526006602090815260408083206001600160a01b03871680855290835292819020805460ff191686151590811790915590519081529192917f17307eab39ab6107e8899845ad3d59bd9653f200f220920489ca2b5937696c31910160405180910390a35050565b60006104a8600d8361156c565b610cfa3383611033565b610d165760405162461bcd60e51b81526004016105a8906129a4565b610d22848484846115ef565b50505050565b60606104a882611622565b60008181526010602052604081206104a890611784565b6108b7828261178e565b6060601280546104bd90612a9a565b6001600160a01b03918216600090815260066020908152604080832093909416825291909152205460ff1690565b33610d9a610b54565b6001600160a01b031614610dc05760405162461bcd60e51b81526004016105a89061296f565b6001600160a01b038116610e255760405162461bcd60e51b815260206004820152602660248201527f4f776e61626c653a206e6577206f776e657220697320746865207a65726f206160448201526564647265737360d01b60648201526084016105a8565b6108aa816114ce565b6001600e600083604051602001610e459190612813565b60408051808303601f19018152918152815160209283012083529082019290925201600020805460ff191691151591909117905550565b610e86828261156c565b15610ed35760405162461bcd60e51b815260206004820152601f60248201527f526f6c65733a206163636f756e7420616c72656164792068617320726f6c650060448201526064016105a8565b6001600160a01b0316600090815260209190915260409020805460ff19166001179055565b60006001600160e01b03198216635a05180f60e01b14806104a857506104a8826117ab565b6000908152600360205260409020546001600160a01b0316151590565b600081815260056020526040902080546001600160a01b0319166001600160a01b0384169081179091558190610f6f82610a1b565b6001600160a01b03167f8c5be1e5ebec7d5bd14f71427d1e84f3dd0314c0f7b2291e5b200ac8c7c3b92560405160405180910390a45050565b610fb182610f1d565b6110145760405162461bcd60e51b815260206004820152602e60248201527f45524337323155524953746f726167653a2055524920736574206f66206e6f6e60448201526d32bc34b9ba32b73a103a37b5b2b760911b60648201526084016105a8565b600082815260076020908152604090912082516106d992840190612394565b600061103e82610f1d565b61109f5760405162461bcd60e51b815260206004820152602c60248201527f4552433732313a206f70657261746f7220717565727920666f72206e6f6e657860448201526b34b9ba32b73a103a37b5b2b760a11b60648201526084016105a8565b60006110aa83610a1b565b9050806001600160a01b0316846001600160a01b031614806110e55750836001600160a01b03166110da84610540565b6001600160a01b0316145b806110f557506110f58185610d63565b949350505050565b826001600160a01b031661111082610a1b565b6001600160a01b0316146111785760405162461bcd60e51b815260206004820152602960248201527f4552433732313a207472616e73666572206f6620746f6b656e2074686174206960448201526839903737ba1037bbb760b91b60648201526084016105a8565b6001600160a01b0382166111da5760405162461bcd60e51b8152602060048201526024808201527f4552433732313a207472616e7366657220746f20746865207a65726f206164646044820152637265737360e01b60648201526084016105a8565b6111e58383836117d0565b6111f0600082610f3a565b6001600160a01b0383166000908152600460205260408120805460019290611219908490612a40565b90915550506001600160a01b03821660009081526004602052604081208054600192906112479084906129f5565b909155505060008181526003602052604080822080546001600160a01b0319166001600160a01b038681169182179092559151849391871691600080516020612b8983398151915291a4505050565b6001600160a01b0382166112ec5760405162461bcd60e51b815260206004820181905260248201527f4552433732313a206d696e7420746f20746865207a65726f206164647265737360448201526064016105a8565b6112f581610f1d565b156113415760405162461bcd60e51b815260206004820152601c60248201527b115490cdcc8c4e881d1bdad95b88185b1c9958591e481b5a5b9d195960221b60448201526064016105a8565b61134d600083836117d0565b6001600160a01b03821660009081526004602052604081208054600192906113769084906129f5565b909155505060008181526003602052604080822080546001600160a01b0319166001600160a01b0386169081179091559051839290600080516020612b89833981519152908290a45050565b6113cb82610730565b6113d581336117db565b6106d9838361183f565b6000610b7b836001600160a01b0384166118c5565b6113ff600d8261190c565b6040516001600160a01b038216907fe94479a9f7e1952cc78f2d6baab678adc1b772d936c6583def489e524cb6669290600090a250565b6001600160a01b03811633146114a65760405162461bcd60e51b815260206004820152602f60248201527f416363657373436f6e74726f6c3a2063616e206f6e6c792072656e6f756e636560448201526e103937b632b9903337b91039b2b63360891b60648201526084016105a8565b6106fa828261198e565b6000610b7b836001600160a01b0384166119f5565b6108aa81611ae8565b600080546001600160a01b038381166001600160a01b0319831681178455604051919092169283917f8be0079c531659141344cd1fd0a4f28419497f9722a3daafe3b4186f6b6457e09190a35050565b6000610b7b8383611b28565b611535600d82610e7c565b6040516001600160a01b038216907f6ae172837ea30b801fbfcdd4108aa1d5bf8ff775444fd70256b44e6bf3dfc3f690600090a250565b60006001600160a01b0382166115cf5760405162461bcd60e51b815260206004820152602260248201527f526f6c65733a206163636f756e7420697320746865207a65726f206164647265604482015261737360f01b60648201526084016105a8565b506001600160a01b03166000908152602091909152604090205460ff1690565b6115fa8484846110fd565b61160684848484611b52565b610d225760405162461bcd60e51b81526004016105a89061291d565b606061162d82610f1d565b6116935760405162461bcd60e51b815260206004820152603160248201527f45524337323155524953746f726167653a2055524920717565727920666f72206044820152703737b732bc34b9ba32b73a103a37b5b2b760791b60648201526084016105a8565b600082815260076020526040812080546116ac90612a9a565b80601f01602080910402602001604051908101604052809291908181526020018280546116d890612a9a565b80156117255780601f106116fa57610100808354040283529160200191611725565b820191906000526020600020905b81548152906001019060200180831161170857829003601f168201915b505050505090506000611736611c5f565b9050805160001415611749575092915050565b81511561177b57808260405160200161176392919061282f565b60405160208183030381529060405292505050919050565b6110f584611c6e565b60006104a8825490565b61179782610730565b6117a181336117db565b6106d9838361198e565b60006001600160e01b03198216637965db0b60e01b14806104a857506104a882611d38565b6106d9838383611d5d565b6117e58282610b82565b6106fa576117fd816001600160a01b03166014611dcf565b611808836020611dcf565b60405160200161181992919061285e565b60408051601f198184030181529082905262461bcd60e51b82526105a89160040161290a565b6118498282610b82565b6106fa576000828152600f602090815260408083206001600160a01b03851684529091529020805460ff191660011790556118813390565b6001600160a01b0316816001600160a01b0316837f2f8788117e7eff1d82e926ec794901d17c78024a50270940304540a733656f0d60405160405180910390a45050565b600081815260018301602052604081205461079c575081546001818101845560008481526020808220909301849055845484825282860190935260409020919091556104a8565b611916828261156c565b61196c5760405162461bcd60e51b815260206004820152602160248201527f526f6c65733a206163636f756e7420646f6573206e6f74206861766520726f6c6044820152606560f81b60648201526084016105a8565b6001600160a01b0316600090815260209190915260409020805460ff19169055565b6119988282610b82565b156106fa576000828152600f602090815260408083206001600160a01b0385168085529252808320805460ff1916905551339285917ff6391f5c32d9c69d2a47ea670b442974b53935d1edc7fd64eb21e047a839171b9190a45050565b60008181526001830160205260408120548015611ade576000611a19600183612a40565b8554909150600090611a2d90600190612a40565b9050818114611a92576000866000018281548110611a4d57611a4d612b46565b9060005260206000200154905080876000018481548110611a7057611a70612b46565b6000918252602080832090910192909255918252600188019052604090208390555b8554869080611aa357611aa3612b30565b6001900381819060005260206000200160009055905585600101600086815260200190815260200160002060009055600193505050506104a8565b60009150506104a8565b611af181611f6a565b60008181526007602052604090208054611b0a90612a9a565b1590506108aa5760008181526007602052604081206108aa91612418565b6000826000018281548110611b3f57611b3f612b46565b9060005260206000200154905092915050565b60006001600160a01b0384163b15611c5457604051630a85bd0160e11b81526001600160a01b0385169063150b7a0290611b969033908990889088906004016128cd565b602060405180830381600087803b158015611bb057600080fd5b505af1925050508015611be0575060408051601f3d908101601f19168201909252611bdd91810190612750565b60015b611c3a573d808015611c0e576040519150601f19603f3d011682016040523d82523d6000602084013e611c13565b606091505b508051611c325760405162461bcd60e51b81526004016105a89061291d565b805181602001fd5b6001600160e01b031916630a85bd0160e11b1490506110f5565b506001949350505050565b6060601180546104bd90612a9a565b6060611c7982610f1d565b611cdd5760405162461bcd60e51b815260206004820152602f60248201527f4552433732314d657461646174613a2055524920717565727920666f72206e6f60448201526e3732bc34b9ba32b73a103a37b5b2b760891b60648201526084016105a8565b6000611ce7611c5f565b90506000815111611d075760405180602001604052806000815250610b7b565b80611d1184611fff565b604051602001611d2292919061282f565b6040516020818303038152906040529392505050565b60006001600160e01b0319821663780e9d6360e01b14806104a857506104a8826120fc565b611d6883838361214c565b600c5460ff16156106d95760405162461bcd60e51b815260206004820152602b60248201527f4552433732315061757361626c653a20746f6b656e207472616e73666572207760448201526a1a1a5b19481c185d5cd95960aa1b60648201526084016105a8565b60606000611dde836002612a21565b611de99060026129f5565b6001600160401b03811115611e0057611e00612b5c565b6040519080825280601f01601f191660200182016040528015611e2a576020820181803683370190505b509050600360fc1b81600081518110611e4557611e45612b46565b60200101906001600160f81b031916908160001a905350600f60fb1b81600181518110611e7457611e74612b46565b60200101906001600160f81b031916908160001a9053506000611e98846002612a21565b611ea39060016129f5565b90505b6001811115611f1b576f181899199a1a9b1b9c1cb0b131b232b360811b85600f1660108110611ed757611ed7612b46565b1a60f81b828281518110611eed57611eed612b46565b60200101906001600160f81b031916908160001a90535060049490941c93611f1481612a83565b9050611ea6565b508315610b7b5760405162461bcd60e51b815260206004820181905260248201527f537472696e67733a20686578206c656e67746820696e73756666696369656e7460448201526064016105a8565b6000611f7582610a1b565b9050611f83816000846117d0565b611f8e600083610f3a565b6001600160a01b0381166000908152600460205260408120805460019290611fb7908490612a40565b909155505060008281526003602052604080822080546001600160a01b0319169055518391906001600160a01b03841690600080516020612b89833981519152908390a45050565b6060816120235750506040805180820190915260018152600360fc1b602082015290565b8160005b811561204d578061203781612ad5565b91506120469050600a83612a0d565b9150612027565b6000816001600160401b0381111561206757612067612b5c565b6040519080825280601f01601f191660200182016040528015612091576020820181803683370190505b5090505b84156110f5576120a6600183612a40565b91506120b3600a86612af0565b6120be9060306129f5565b60f81b8183815181106120d3576120d3612b46565b60200101906001600160f81b031916908160001a9053506120f5600a86612a0d565b9450612095565b60006001600160e01b031982166380ac58cd60e01b148061212d57506001600160e01b03198216635b5e139f60e01b145b806104a857506301ffc9a760e01b6001600160e01b03198316146104a8565b6001600160a01b0383166121a7576121a281600a80546000838152600b60205260408120829055600182018355919091527fc65a7bb8d6351c1cf70c95a316cc6a92839c986682d98bc35f958f4883f9d2a80155565b6121ca565b816001600160a01b0316836001600160a01b0316146121ca576121ca8382612204565b6001600160a01b0382166121e1576106d9816122a1565b826001600160a01b0316826001600160a01b0316146106d9576106d98282612350565b6000600161221184610a92565b61221b9190612a40565b60008381526009602052604090205490915080821461226e576001600160a01b03841660009081526008602090815260408083208584528252808320548484528184208190558352600990915290208190555b5060009182526009602090815260408084208490556001600160a01b039094168352600881528383209183525290812055565b600a546000906122b390600190612a40565b6000838152600b6020526040812054600a80549394509092849081106122db576122db612b46565b9060005260206000200154905080600a83815481106122fc576122fc612b46565b6000918252602080832090910192909255828152600b9091526040808220849055858252812055600a80548061233457612334612b30565b6001900381819060005260206000200160009055905550505050565b600061235b83610a92565b6001600160a01b039093166000908152600860209081526040808320868452825280832085905593825260099052919091209190915550565b8280546123a090612a9a565b90600052602060002090601f0160209004810192826123c25760008555612408565b82601f106123db57805160ff1916838001178555612408565b82800160010185558215612408579182015b828111156124085782518255916020019190600101906123ed565b5061241492915061244e565b5090565b50805461242490612a9a565b6000825580601f10612434575050565b601f0160209004906000526020600020908101906108aa91905b5b80821115612414576000815560010161244f565b60006001600160401b038084111561247d5761247d612b5c565b604051601f8501601f19908116603f011681019082821181831017156124a5576124a5612b5c565b816040528093508581528686860111156124be57600080fd5b858560208301376000602087830101525050509392505050565b80356001600160a01b03811681146124ef57600080fd5b919050565b600082601f83011261250557600080fd5b610b7b83833560208501612463565b60006020828403121561252657600080fd5b610b7b826124d8565b6000806040838503121561254257600080fd5b61254b836124d8565b9150612559602084016124d8565b90509250929050565b60008060006060848603121561257757600080fd5b612580846124d8565b925061258e602085016124d8565b9150604084013590509250925092565b600080600080608085870312156125b457600080fd5b6125bd856124d8565b93506125cb602086016124d8565b92506040850135915060608501356001600160401b038111156125ed57600080fd5b8501601f810187136125fe57600080fd5b61260d87823560208401612463565b91505092959194509250565b6000806040838503121561262c57600080fd5b612635836124d8565b91506020830135801515811461264a57600080fd5b809150509250929050565b6000806040838503121561266857600080fd5b612671836124d8565b946020939093013593505050565b60008060006060848603121561269457600080fd5b61269d846124d8565b92506020840135915060408401356001600160401b038111156126bf57600080fd5b6126cb868287016124f4565b9150509250925092565b6000602082840312156126e757600080fd5b5035919050565b6000806040838503121561270157600080fd5b82359150612559602084016124d8565b6000806040838503121561272457600080fd5b50508035926020909101359150565b60006020828403121561274557600080fd5b8135610b7b81612b72565b60006020828403121561276257600080fd5b8151610b7b81612b72565b60006020828403121561277f57600080fd5b81356001600160401b0381111561279557600080fd5b6110f5848285016124f4565b600080604083850312156127b457600080fd5b8235915060208301356001600160401b038111156127d157600080fd5b6127dd858286016124f4565b9150509250929050565b600081518084526127ff816020860160208601612a57565b601f01601f19169290920160200192915050565b60008251612825818460208701612a57565b9190910192915050565b60008351612841818460208801612a57565b835190830190612855818360208801612a57565b01949350505050565b76020b1b1b2b9b9a1b7b73a3937b61d1030b1b1b7bab73a1604d1b815260008351612890816017850160208801612a57565b7001034b99036b4b9b9b4b733903937b6329607d1b60179184019182015283516128c1816028840160208801612a57565b01602801949350505050565b6001600160a01b0385811682528416602082015260408101839052608060608201819052600090612900908301846127e7565b9695505050505050565b602081526000610b7b60208301846127e7565b60208082526032908201527f4552433732313a207472616e7366657220746f206e6f6e20455243373231526560408201527131b2b4bb32b91034b6b83632b6b2b73a32b960711b606082015260800190565b6020808252818101527f4f776e61626c653a2063616c6c6572206973206e6f7420746865206f776e6572604082015260600190565b60208082526031908201527f4552433732313a207472616e736665722063616c6c6572206973206e6f74206f6040820152701ddb995c881b9bdc88185c1c1c9bdd9959607a1b606082015260800190565b60008219821115612a0857612a08612b04565b500190565b600082612a1c57612a1c612b1a565b500490565b6000816000190483118215151615612a3b57612a3b612b04565b500290565b600082821015612a5257612a52612b04565b500390565b60005b83811015612a72578181015183820152602001612a5a565b83811115610d225750506000910152565b600081612a9257612a92612b04565b506000190190565b600181811c90821680612aae57607f821691505b60208210811415612acf57634e487b7160e01b600052602260045260246000fd5b50919050565b6000600019821415612ae957612ae9612b04565b5060010190565b600082612aff57612aff612b1a565b500690565b634e487b7160e01b600052601160045260246000fd5b634e487b7160e01b600052601260045260246000fd5b634e487b7160e01b600052603160045260246000fd5b634e487b7160e01b600052603260045260246000fd5b634e487b7160e01b600052604160045260246000fd5b6001600160e01b0319811681146108aa57600080fdfeddf252ad1be2c89b69c2b068fc378daa952ba7f163c4a11628f55a4df523b3efa26469706673582212200856e4df5d5dcc06fca76165dfe767c1e0ccdf39921872c80c838fe22c088ddf64736f6c63430008070033",
  "immutableReferences": {},
  "source": "pragma solidity ^0.8.0;\n\nimport \"@openzeppelin/contracts/access/Ownable.sol\";\n\nimport \"@openzeppelin/contracts/token/ERC721/ERC721.sol\";\nimport \"@openzeppelin/contracts/token/ERC721/extensions/ERC721Enumerable.sol\";\nimport \"@openzeppelin/contracts/token/ERC721/extensions/ERC721Burnable.sol\";\nimport \"@openzeppelin/contracts/token/ERC721/extensions/ERC721Pausable.sol\";\nimport \"@openzeppelin/contracts/token/ERC721/extensions/ERC721URIStorage.sol\";\nimport \"@openzeppelin/contracts/access/AccessControlEnumerable.sol\";\nimport \"../interface/ERC1820Implementer.sol\";\nimport \"../roles/MinterRole.sol\";\n\ncontract ERC721Token is Ownable, ERC721, ERC721URIStorage, ERC721Enumerable, ERC721Burnable, ERC721Pausable,  MinterRole, ERC1820Implementer, AccessControlEnumerable {\n  string constant internal ERC721_TOKEN = \"ERC721Token\";\n  string internal _baseUri;\n  string internal _contractUri;\n\n  constructor(string memory name, string memory symbol, string memory baseUri, string memory contractUri) ERC721(name, symbol) {\n    ERC1820Implementer._setInterface(ERC721_TOKEN);\n    _baseUri = baseUri;\n    _contractUri = contractUri;\n  }\n\n  /**\n  * @dev Function to mint tokens\n  * @param to The address that will receive the minted tokens.\n  * @param tokenId The token id to mint.\n  * @return A boolean that indicates if the operation was successful.\n  */\n  function mint(address to, uint256 tokenId) public onlyMinter returns (bool) {\n      _mint(to, tokenId);\n      return true;\n  }\n  \n  function mintAndSetTokenURI(address to, uint256 tokenId, string memory uri) public onlyMinter returns (bool) {\n      _mint(to, tokenId);\n      _setTokenURI(tokenId, uri);\n      return true;\n  }\n\n  function tokenURI(uint256 tokenId) public view virtual override(ERC721, ERC721URIStorage) returns (string memory) {\n      return ERC721URIStorage.tokenURI(tokenId);\n  }\n\n  function setTokenURI(uint256 tokenId, string memory uri) public virtual onlyMinter {\n      _setTokenURI(tokenId, uri);\n  }\n\n  function _baseURI() internal view override virtual returns (string memory) {\n      return _baseUri;\n  }\n\n  function _beforeTokenTransfer(\n      address from,\n      address to,\n      uint256 tokenId\n  ) internal virtual override(ERC721, ERC721Enumerable, ERC721Pausable) {\n      super._beforeTokenTransfer(from, to, tokenId);\n  }\n\n  /**\n    * @dev See {IERC165-supportsInterface}.\n    */\n  function supportsInterface(bytes4 interfaceId)\n      public\n      view\n      virtual\n      override(AccessControlEnumerable, ERC721, ERC721Enumerable)\n      returns (bool)\n  {\n      return super.supportsInterface(interfaceId);\n  }\n\n  function _burn(uint256 tokenId) internal virtual override(ERC721, ERC721URIStorage) {\n      ERC721URIStorage._burn(tokenId);\n  }\n\n  function setContractURI(string memory uri) public virtual onlyOwner {\n      _contractUri = uri;\n  }\n\n  function contractURI() public view returns (string memory) {\n    return _contractUri;\n  }\n\n  /************************************* Domain Aware ******************************************/\n/*  function domainName() public override view returns (string memory) {\n    return name();\n  }\n\n  function domainVersion() public override view returns (string memory) {\n    return \"1\";\n  }*/\n  /************************************************************************************************/\n}",
  "sourcePath": "/Users/joaotavares/Documents/projects/consensys/UniversalToken/contracts/tokens/ERC721Token.sol",
  "compiler": {
    "name": "solc",
    "version": "0.8.7+commit.e28d00a7.Emscripten.clang"
  },
  "schemaVersion": "3.4.2",
  "updatedAt": "2022-03-04T17:29:57.291Z",
  "devdoc": {
    "kind": "dev",
    "methods": {
      "approve(address,uint256)": {
        "details": "See {IERC721-approve}."
      },
      "balanceOf(address)": {
        "details": "See {IERC721-balanceOf}."
      },
      "burn(uint256)": {
        "details": "Burns `tokenId`. See {ERC721-_burn}. Requirements: - The caller must own `tokenId` or be an approved operator."
      },
      "getApproved(uint256)": {
        "details": "See {IERC721-getApproved}."
      },
      "getRoleAdmin(bytes32)": {
        "details": "Returns the admin role that controls `role`. See {grantRole} and {revokeRole}. To change a role's admin, use {_setRoleAdmin}."
      },
      "getRoleMember(bytes32,uint256)": {
        "details": "Returns one of the accounts that have `role`. `index` must be a value between 0 and {getRoleMemberCount}, non-inclusive. Role bearers are not sorted in any particular way, and their ordering may change at any point. WARNING: When using {getRoleMember} and {getRoleMemberCount}, make sure you perform all queries on the same block. See the following https://forum.openzeppelin.com/t/iterating-over-elements-on-enumerableset-in-openzeppelin-contracts/2296[forum post] for more information."
      },
      "getRoleMemberCount(bytes32)": {
        "details": "Returns the number of accounts that have `role`. Can be used together with {getRoleMember} to enumerate all bearers of a role."
      },
      "grantRole(bytes32,address)": {
        "details": "Overload {grantRole} to track enumerable memberships"
      },
      "hasRole(bytes32,address)": {
        "details": "Returns `true` if `account` has been granted `role`."
      },
      "isApprovedForAll(address,address)": {
        "details": "See {IERC721-isApprovedForAll}."
      },
      "mint(address,uint256)": {
        "details": "Function to mint tokens",
        "params": {
          "to": "The address that will receive the minted tokens.",
          "tokenId": "The token id to mint."
        },
        "returns": {
          "_0": "A boolean that indicates if the operation was successful."
        }
      },
      "name()": {
        "details": "See {IERC721Metadata-name}."
      },
      "owner()": {
        "details": "Returns the address of the current owner."
      },
      "ownerOf(uint256)": {
        "details": "See {IERC721-ownerOf}."
      },
      "paused()": {
        "details": "Returns true if the contract is paused, and false otherwise."
      },
      "renounceOwnership()": {
        "details": "Leaves the contract without owner. It will not be possible to call `onlyOwner` functions anymore. Can only be called by the current owner. NOTE: Renouncing ownership will leave the contract without an owner, thereby removing any functionality that is only available to the owner."
      },
      "renounceRole(bytes32,address)": {
        "details": "Overload {renounceRole} to track enumerable memberships"
      },
      "revokeRole(bytes32,address)": {
        "details": "Overload {revokeRole} to track enumerable memberships"
      },
      "safeTransferFrom(address,address,uint256)": {
        "details": "See {IERC721-safeTransferFrom}."
      },
      "safeTransferFrom(address,address,uint256,bytes)": {
        "details": "See {IERC721-safeTransferFrom}."
      },
      "setApprovalForAll(address,bool)": {
        "details": "See {IERC721-setApprovalForAll}."
      },
      "supportsInterface(bytes4)": {
        "details": "See {IERC165-supportsInterface}."
      },
      "symbol()": {
        "details": "See {IERC721Metadata-symbol}."
      },
      "tokenByIndex(uint256)": {
        "details": "See {IERC721Enumerable-tokenByIndex}."
      },
      "tokenOfOwnerByIndex(address,uint256)": {
        "details": "See {IERC721Enumerable-tokenOfOwnerByIndex}."
      },
      "totalSupply()": {
        "details": "See {IERC721Enumerable-totalSupply}."
      },
      "transferFrom(address,address,uint256)": {
        "details": "See {IERC721-transferFrom}."
      },
      "transferOwnership(address)": {
        "details": "Transfers ownership of the contract to a new account (`newOwner`). Can only be called by the current owner."
      }
    },
    "version": 1
  },
  "userdoc": {
    "kind": "user",
    "methods": {},
    "version": 1
  }
}