{
  "contractName": "Pausable",
  "abi": [
    {
      "constant": true,
      "inputs": [
        {
          "name": "token",
          "type": "address"
        },
        {
          "name": "account",
          "type": "address"
        }
      ],
      "name": "isPauser",
      "outputs": [
        {
          "name": "",
          "type": "bool"
        }
      ],
      "payable": false,
      "stateMutability": "view",
      "type": "function"
    },
    {
      "constant": false,
      "inputs": [
        {
          "name": "token",
          "type": "address"
        }
      ],
      "name": "renouncePauser",
      "outputs": [],
      "payable": false,
      "stateMutability": "nonpayable",
      "type": "function"
    },
    {
      "constant": false,
      "inputs": [
        {
          "name": "token",
          "type": "address"
        },
        {
          "name": "account",
          "type": "address"
        }
      ],
      "name": "addPauser",
      "outputs": [],
      "payable": false,
      "stateMutability": "nonpayable",
      "type": "function"
    },
    {
      "constant": false,
      "inputs": [
        {
          "name": "token",
          "type": "address"
        },
        {
          "name": "account",
          "type": "address"
        }
      ],
      "name": "removePauser",
      "outputs": [],
      "payable": false,
      "stateMutability": "nonpayable",
      "type": "function"
    },
    {
      "anonymous": false,
      "inputs": [
        {
          "indexed": true,
          "name": "token",
          "type": "address"
        },
        {
          "indexed": false,
          "name": "account",
          "type": "address"
        }
      ],
      "name": "Paused",
      "type": "event"
    },
    {
      "anonymous": false,
      "inputs": [
        {
          "indexed": true,
          "name": "token",
          "type": "address"
        },
        {
          "indexed": false,
          "name": "account",
          "type": "address"
        }
      ],
      "name": "Unpaused",
      "type": "event"
    },
    {
      "anonymous": false,
      "inputs": [
        {
          "indexed": true,
          "name": "token",
          "type": "address"
        },
        {
          "indexed": true,
          "name": "account",
          "type": "address"
        }
      ],
      "name": "PauserAdded",
      "type": "event"
    },
    {
      "anonymous": false,
      "inputs": [
        {
          "indexed": true,
          "name": "token",
          "type": "address"
        },
        {
          "indexed": true,
          "name": "account",
          "type": "address"
        }
      ],
      "name": "PauserRemoved",
      "type": "event"
    },
    {
      "constant": true,
      "inputs": [
        {
          "name": "token",
          "type": "address"
        }
      ],
      "name": "paused",
      "outputs": [
        {
          "name": "",
          "type": "bool"
        }
      ],
      "payable": false,
      "stateMutability": "view",
      "type": "function"
    },
    {
      "constant": false,
      "inputs": [
        {
          "name": "token",
          "type": "address"
        }
      ],
      "name": "pause",
      "outputs": [],
      "payable": false,
      "stateMutability": "nonpayable",
      "type": "function"
    },
    {
      "constant": false,
      "inputs": [
        {
          "name": "token",
          "type": "address"
        }
      ],
      "name": "unpause",
      "outputs": [],
      "payable": false,
      "stateMutability": "nonpayable",
      "type": "function"
    }
  ],
  "bytecode": "0x608060405261054a806100136000396000f3fe608060405234801561001057600080fd5b506004361061006d5760003560e01c80632e48152c146100725780632fd33398146100ac57806341eb24bb146100da57806357b001f91461010257806376a67a5114610128578063eb5314bd1461014e578063ed2f90951461017c575b600080fd5b6100986004803603602081101561008857600080fd5b50356001600160a01b03166101aa565b604080519115158252519081900360200190f35b610098600480360360408110156100c257600080fd5b506001600160a01b03813581169160200135166101c8565b610100600480360360208110156100f057600080fd5b50356001600160a01b03166101f7565b005b6101006004803603602081101561011857600080fd5b50356001600160a01b0316610204565b6101006004803603602081101561013e57600080fd5b50356001600160a01b0316610299565b6101006004803603604081101561016457600080fd5b506001600160a01b0381358116916020013516610333565b6101006004803603604081101561019257600080fd5b506001600160a01b0381358116916020013516610356565b6001600160a01b031660009081526001602052604090205460ff1690565b6001600160a01b03821660009081526020819052604081206101f0908363ffffffff61037416565b9392505050565b61020181336103a9565b50565b8061020f81336101c8565b61021857600080fd5b6001600160a01b038216600090815260016020526040902054829060ff1661023f57600080fd5b6001600160a01b038316600081815260016020908152604091829020805460ff19169055815133815291517f3d072963433794eb417a69355df67d08bbd73d5076ef653d6863861161d60af39281900390910190a2505050565b806102a481336101c8565b6102ad57600080fd5b6001600160a01b038216600090815260016020526040902054829060ff16156102d557600080fd5b6001600160a01b038316600081815260016020818152604092839020805460ff1916909217909155815133815291517f3dd4f37ca5eaf6c357698a52c806820426d7c9a26adb0991c3bebb09cf23352a9281900390910190a2505050565b8161033e81336101c8565b61034757600080fd5b6103518383610415565b505050565b8161036181336101c8565b61036a57600080fd5b61035183836103a9565b60006001600160a01b03821661038957600080fd5b506001600160a01b03166000908152602091909152604090205460ff1690565b6001600160a01b03821660009081526020819052604090206103d1908263ffffffff61048116565b806001600160a01b0316826001600160a01b03167fb75903ade4a0fdb07d60c882c22c779e2e1c751883c37aecdcc92a8ec72b046e60405160405180910390a35050565b6001600160a01b038216600090815260208190526040902061043d908263ffffffff6104c916565b806001600160a01b0316826001600160a01b03167fe0953c403a52f9dc1fef4202a8d33975c958b727bee0d7b5b328965ddad98d8160405160405180910390a35050565b6001600160a01b03811661049457600080fd5b61049e8282610374565b6104a757600080fd5b6001600160a01b0316600090815260209190915260409020805460ff19169055565b6001600160a01b0381166104dc57600080fd5b6104e68282610374565b156104f057600080fd5b6001600160a01b0316600090815260209190915260409020805460ff1916600117905556fea265627a7a723058203aa41bd831ccabf743f1397d22663af8d61c0aac4cda199801a469dafd9243a164736f6c634300050a0032",
  "source": "pragma solidity ^0.5.0;\n\nimport \"./PauserRole.sol\";\n\n/**\n * @title Pausable\n * @dev Base contract which allows children to implement an emergency stop mechanism.\n */\ncontract Pausable is PauserRole {\n    event Paused(address indexed token, address account);\n    event Unpaused(address indexed token, address account);\n\n    // Mapping from token to token paused status.\n    mapping(address => bool) private _paused;\n\n    /**\n     * @return true if the contract is paused, false otherwise.\n     */\n    function paused(address token) public view returns (bool) {\n        return _paused[token];\n    }\n\n    /**\n     * @dev Modifier to make a function callable only when the contract is not paused.\n     */\n    modifier whenNotPaused(address token) {\n        require(!_paused[token]);\n        _;\n    }\n\n    /**\n     * @dev Modifier to make a function callable only when the contract is paused.\n     */\n    modifier whenPaused(address token) {\n        require(_paused[token]);\n        _;\n    }\n\n    /**\n     * @dev called by the owner to pause, triggers stopped state\n     */\n    function pause(address token) public onlyPauser(token) whenNotPaused(token) {\n        _paused[token] = true;\n        emit Paused(token, msg.sender);\n    }\n\n    /**\n     * @dev called by the owner to unpause, returns to normal state\n     */\n    function unpause(address token) public onlyPauser(token) whenPaused(token) {\n        _paused[token] = false;\n        emit Unpaused(token, msg.sender);\n    }\n}\n",
  "sourcePath": "universal-token/contracts/roles/Pausable.sol",
  "compiler": {
    "name": "solc",
    "version": "0.5.10+commit.5a6ea5b1.Emscripten.clang"
  },
  "schemaVersion": "3.3.0",
  "updatedAt": "2020-12-15T12:54:12.175Z",
  "devdoc": {
    "details": "Base contract which allows children to implement an emergency stop mechanism.",
    "methods": {
      "pause(address)": {
        "details": "called by the owner to pause, triggers stopped state"
      },
      "paused(address)": {
        "return": "true if the contract is paused, false otherwise."
      },
      "unpause(address)": {
        "details": "called by the owner to unpause, returns to normal state"
      }
    },
    "title": "Pausable"
  },
  "userdoc": {
    "methods": {}
  }
}